:100000000C9444010C9473200C949A200C946C0171
:100010000C946C010C946C010C946C010C946C01AC
:100020000C946C010C946C010C946C010C946C019C
:100030000C946C010C946C010C946C010C946C018C
:100040000C94C1200C946C010C94E2230C941424A5
:100050000C946C010C946C010C946C010C946C016C
:100060000C946C010C946C016411FA10CF10E41024
:100070000F1145112A11671261117A1B871B8B1B07
:10008000911B971BAC1BB51BBC1BC11BC71BC71B04
:10009000C71BC71BC71BC71BC71BC71BC71BC71B50
:1000A000C71BC71BC71BC71BC71BC71BC71BC71B40
:1000B000C71BC71BC71BC71BC71B7A1B801B871B04
:1000C0008B1B911B971B9D1BA11BA61B861D861DB1
:1000D000941DAC1D9F1DB51DBE1DCB1DE31D0C1E2B
:1000E000084AD73B3BCE016E84BCBFFDC12F3D6C9F
:1000F00074319ABD56833DDA3D00C77F11BED9E405
:10010000BB4C3E916BAAAABE000000803F05A84CE4
:10011000CDB2D44EB93836A9020C50B991868808B0
:100120003CA6AAAA2ABE000000803F00414C4152D2
:100130004D21002D2D2D2D2D2D2D2D2D2D2D2D2D08
:10014000204E4F2047505320286D61766C696E6BAE
:10015000292D2D2D2D2D2D2D2D2D2D2D2D2D2D2DD3
:10016000002D2D2D2D2D2D2D2D2D2D2D2D2D2047DF
:10017000505320286E6D6561292D2D2D2D2D2D2D8F
:100180002D2D2D2D2D2D2D2D002D2D2D2D2D2D2DCC
:100190002D2D2D2D2D2D204E4F20475053205452C4
:1001A00059204D41564C494E4B202D2D2D2D2D2D96
:1001B0002D2D2D2D2D2D2D2D2D002D2D2D2D2D2D9C
:1001C0002D2D2D2D2D2D2D204E4F204750532028E5
:1001D000747279206E6D6561292D2D2D2D2D2D2D9B
:1001E0002D2D2D2D2D2D2D2D00686973746F727995
:1001F00020706F736974696F6E733A00706F73204B
:10020000696E2074686973207365636F6E643A0069
:100210006F6E65207365636F6E64207469636B0035
:100220002D666D203D000000000800020100000363
:100230000407000000000000000001020408102074
:100240004080010204081020010204081020040468
:10025000040404040404020202020202030303036E
:100260000303000000002300260029000000000016
:10027000250028002B0000000000240027002A0091
:10028000BD0EE41C4424CF0E11241FBECFEFD8E0D6
:10029000DEBFCDBF13E0A0E0B1E0E6EDF9E502C0BE
:1002A00005900D92AA30B107D9F726E0AAE0B3E095
:1002B00001C01D92AC3AB207E1F712E0C6E8D2E005
:1002C00004C02297FE010E94C32AC038D107C9F793
:1002D0000E94DA260C94DE2C0C94000080918B0492
:1002E000813019F482E080938B0480918B048330F9
:1002F00019F484E080938B040895A8950895FC0177
:100300008281938108950F931F93CF93DF93CDB78D
:10031000DEB765970FB6F894DEBF0FBECDBF8C0178
:10032000D801ED91FC910190F081E02DC801099573
:10033000181619065CF4D801ED91FC910684F78536
:10034000E02DB801CE0101960995EACF65960FB66A
:10035000F894DEBF0FBECDBFDF91CF911F910F91FB
:100360000895DC01ED91FC910190F081E02D09945C
:100370004F925F926F927F928F929F92AF92BF92B5
:10038000CF92DF92EF92FF92CF93DF934B015C010C
:10039000C42F0E9424282B013C014AE050E08BE04E
:1003A00096E00E94A025CC2309F47AC06EE28BE08F
:1003B00096E00E94EA24DFEFDC0FC12CD12C7601FD
:1003C000C394C15048F0AAE0B0E0A70196010E9492
:1003D000D62A6B017C01F5CF20E030E0A901C501F0
:1003E000B4010E946529662457FC6094762C87FD31
:1003F00009C0C301B2010E9457289B01AC01C5018D
:10040000B40106C0C301B2010E945728A50194019E
:100410000E94EE264B015C01C701B6010E945528DF
:100420009B01AC01C501B4010E9470290E942928DA
:10043000962EA72EB82EC92F2AE0C22ED12CE12C41
:10044000F12CA70196010E94802ACA01B901211549
:1004500031054105510511F0D150F3CFDD2341F0B5
:1004600060E871E08BE096E00E94E824D150F6CF7E
:100470002AE030E0492D5A2D6B2D7C2F8BE096E041
:10048000DF91CF91FF90EF90DF90CF90BF90AF9032
:100490009F908F907F906F905F904F900C94C025AD
:1004A000DF91CF91FF90EF90DF90CF90BF90AF9012
:1004B0009F908F907F906F905F904F90089560E035
:1004C00089E00E94E32161E088E00E94E32161E08D
:1004D00087E00E94E32160E082E00E94E32161E086
:1004E00084E00C94E32142E050E06EE671E080E0AD
:1004F0000C94532061E08AE00E94E32160E08AE0EE
:100500000C941C22E3E0F0E089E080935700E49132
:10051000E67081E0E63009F080E00895CF93DF9344
:10052000C82F0E948202882381F0DFB781E0809388
:100530008A04F8940E947D0188E180936000C09352
:100540006000C1110E947D01DFBFDF91CF9108954E
:100550002091440430914504382748E0C901880FB0
:10056000991F37FF06C09C0151E2252750E135272E
:1005700001C09C01415091F73093450420934404FD
:100580000895D82FC0E0CD1780F42D9A64E670E06E
:1005900080E090E00E943A212D9864E670E080E0CF
:1005A00090E00E943A21CF5FEECF6CE271E080E0F4
:1005B00090E00E943A21E6CF0F931F93CF93DF93F1
:1005C000EC01062F15E0115051F0CE010E94C82C0D
:1005D000081741F0602FCE010E94D02CF4CF82E0AA
:1005E0000E94C102DF91CF911F910F9108954F9208
:1005F0005F926F927F928F929F92AF92BF92CF92B3
:10060000DF92EF92FF920F931F93CF93DF93482EC9
:10061000562EC0E0D0E0612C712CE12CF12C00E0D2
:1006200010E041100CC06090890487E4689E30019E
:100630001124A9E1EA2EF12C00E714E01EC091E09C
:1006400049120FC060908904E7E46E9E30011124C6
:10065000FBE16F0E711CFAE2EF2EF12C06E414E0C0
:100660000CC082E0481209C07CE1672E77247394A5
:10067000EE24E394F12C09E814E043018C0E9D1E56
:1006800010924504109244043401A62CA818B12CF1
:10069000C30101966C01AE14BF04A8F4A00EB11EF4
:1006A000511006C0C3010E94C82CF501808305C00B
:1006B000F5016081C3010E94DC02F50180810E9486
:1006C000A8023601E2CFC301511018C0C3010E9435
:1006D000C82CB82EC6010E94C82C2B2D30E0322F1A
:1006E0002227282B80914404909145048217930778
:1006F00079F4C0E0D0E05524539493CF3601609153
:1007000045040E94DC0260914404C6010E94DC02A0
:10071000C05EDE4FC13E92E0D90708F482CF852D3E
:10072000DF91CF911F910F91FF90EF90DF90CF90CD
:10073000BF90AF909F908F907F906F905F904F9001
:10074000089587E38093460480E092ECA1E0B0E056
:100750008093470490934804A0934904B0934A04BB
:1007600089E080936F0487E08093530480EC92E9E2
:10077000ADEEB9E180934B0490934C04A0934D04EB
:10078000B0934E0485E0809354048DEE9EEFADEA65
:10079000BEED80934F0490935004A0935104B09306
:1007A0005204E5E5F4E080E090E0863028F4DC01D6
:1007B000A056BE4F2C9101C020E0219301968831B4
:1007C000910599F782E080936D048AE080936E042E
:1007D000089561E082E00C94F70260E082E00E94FC
:1007E000F70280918904843020F0109289040C94DF
:1007F000E903089580EC91EDA8E9BBE180937104D1
:1008000090937204A0937304B093740480E090E01A
:10081000A0E0B0E58093750490937604A0937704EC
:10082000B0937804E9E7F4E080E081938F5F803152
:10083000E1F708958F929F92AF92BF92CF92DF928D
:10084000EF92FF920F931F93CF93DF930E94172194
:100850006115710581059105C9F30E94642C109200
:100860004F04109250041092510410925204C4E0AC
:10087000C12CD12C7601CA9480904F0490905004E2
:10088000A0905104B0905204BA2CA92C982C882422
:100890000E945F2CA70196010E94A22A680D791D73
:1008A0008A1D9B1D60934F047093500480935104E4
:1008B00090935204C15001F705E514E0E801C12C02
:1008C000D12CB2E38B2E912CA12CB12C10E1E12E76
:1008D00017E2F12E8881882309F451C0D39471F472
:1008E000DF91CF911F910F91FF90EF90DF90CF900C
:1008F000BF90AF909F908F900C94A1030E945F2CAB
:10090000A50194010E94A22A21E0260FE5E5F4E06A
:100910008E2F801B8C1520F481918213F9CFDECFAE
:1009200040915404249FA00111244E9DC0014F9D6D
:10093000900D5E9D900D1124AA2797FDA095BA2FCA
:1009400040914B0450914C0460914D0470914E04C1
:10095000840F951FA61FB71F409171045091720418
:100960006091730470917404481759076A077B07F4
:1009700008F4B4CF2993C39488E1C812ABCFDF91B8
:10098000CF911F910F91FF90EF90DF90CF90BF908C
:10099000AF909F908F90089561E080E00E94F702F1
:1009A00061E081E00C94F70260E080E00E94F702D1
:1009B000882331F060E081E00E94F702811108C0D5
:1009C0000E94FA030E94A1030E941A040C94CC0412
:1009D00008955F98882319F00000289A02C000004B
:1009E000289800005F9A000008955F9A000083B184
:1009F0005F980000869581700895CF93DF93D82F7C
:100A00005C9A5F985C98C8E08D2F80780E94E9041A
:100A1000DD0FC150C9F75F98DF91CF9108958F77AF
:100A20000C94FD04CF93DF93D82FC8E08D2F8078EE
:100A30000E94E904DD0FC150C9F75F98DF91CF91A3
:100A40000895CF93DF935F98C8E080E0D82FDD0F43
:100A50000E94F5048D0FC150C9F7DF91CF91089521
:100A60000E940F050E9421055C9A0895CF93DF93A1
:100A70001F92CDB7DEB7806869830E94FD0469814B
:100A8000862F0E9412055C9A0F90DF91CF910895F6
:100A9000CF93C0914F04C827E82FF0E0EA5BFB4FEB
:100AA000678589E70E9436056C2F8DE30E94360525
:100AB0006C2F82E4CF910C943605CF93DF93EC0139
:100AC0006C818CE10E9436056D818DE10E943605B6
:100AD0006E818EE10E9436056F8180E20E943605AC
:100AE000688581E20E943605698582E20E943605AA
:100AF0006A8583E20E9436056B8584E20E94360592
:100B00006C8585E20E9436056D858AE20E94360575
:100B10006E858EE60E9436056F858FE60E9436054B
:100B2000688980E70E943605698981E70E94360559
:100B30006A8982E7DF91CF910C943605CF92DF92DC
:100B4000EF92FF92CF93DF936B017C01C11488E396
:100B5000D8068CE9E8068CE1F80628F5C701B6014D
:100B600020E836E948E950E00E94802AE9016897C8
:100B700060E879E687E69FEF0E94482A6C0D7D1DAC
:100B80008E1D9F1D32E0660F771F881F991F3A95B3
:100B9000D1F721E732E040E050E00E94802AF22EB7
:100BA000E32E80E421C0C701B60120E03DE241E32D
:100BB00051E00E94802AE901689760E073ED8EECB5
:100BC0009EEF0E94482A6C0D7D1D8E1D9F1D660F95
:100BD000771F881F991F21E732E040E050E00E9414
:100BE000802AF22EE32E80E66C2F6F71680F85E766
:100BF0000E9436056E2D86E70E9436056F2D87E729
:100C0000DF91CF91FF90EF90DF90CF900C9436055D
:100C10008F929F92AF92BF92CF92DF92EF92FF920C
:100C2000CF93DF93D82F83E00E9430058093430455
:100C300084E00E9430058093420460E086E00E94D8
:100C4000360561E087E00E9436056FE789E00E9483
:100C5000360565E08AE00E94360562E18BE00E947D
:100C6000360565E18CE00E9436056DEF8DE00E944F
:100C7000360560E08EE00E943605DD2319F08AE03B
:100C800091E008C020916D0433E1239FC00111243D
:100C9000835E9E4F0E945D056CE880E30E943605EE
:100CA0006FE082E30E94360562E483E30E9436052A
:100CB0006AE084E30E9436056AE285E30E94360515
:100CC0006DE286E30E94360564ED87E30E943605F7
:100CD00060E088E30E94360560E089E30E94360503
:100CE000D11109C0C0904F04D0905004E09051043D
:100CF000F090520407C065E8C62E61ECD62EED2CAC
:100D00006EEDF62ECAE38F2C9924AA24BB24682DFD
:100D10008C2F0E943605682D85E08C0F0E943605C9
:100D2000FE2CED2CDC2CCC24CF5FCE3361F76FEFA3
:100D300083E40E9436056FEF84E40E9436056FEF6E
:100D400085E40E9436056FEF86E40E943605DD23B8
:100D500011F066E002C0609153048DE60E943605F2
:100D600060E089E70E943605609154048AE70E949A
:100D7000360560E083E70E94360560E084E70E9464
:100D80003605D11109C060914B0470914C048091DB
:100D90004D0490914E0404C060EC72E98DEE99E12F
:100DA000DF91CF91FF90EF90DF90CF90BF90AF9009
:100DB0009F908F900C949E05EF92FF920F931F933C
:100DC000CF93DF938B019C01442737FD4095542F2F
:100DD00060E271EA87E090E00E94A22AE9011C1615
:100DE0001D0614F0C1E0D0E0D80120EA36E841E069
:100DF00050E00E94E12A9E01442737FD4095542F80
:100E00000E94A22A790100E010E00E151F055CF493
:100E1000289ACE010E9474212898CE010E94742144
:100E20000F5F1F4FF2CFDF91CF911F910F91FF9076
:100E3000EF900895CF93DF93D82FC0E0CD1774F4CF
:100E400062E070E080E194E00E94DC060E947D0197
:100E500084EF91E00E947421CF5FF0CFDF91CF91BA
:100E6000089565E070E08CE192E00E94DC060E944B
:100E70007D0188EE93E00C94742165E070E08EE5CE
:100E800091E00E94DC060E947D0188EE93E00C94C4
:100E90007421CF93C82F68EE73E080E090E00E9449
:100EA0003A2164E670E080E090E00E943A21C111AE
:100EB00003C00E943D076FC0C13019F40E943D0776
:100EC0007FC0C230D9F40E943D0764E670E080E044
:100ED00090E00E943A210E943D0764E670E080E0C5
:100EE00090E00E943A210E94310764E670E080E0C1
:100EF00090E00E943A21CF910C943D07C33059F401
:100F00000E943D0764E670E080E090E00E943A2194
:100F10000E943D0733C0C43059F40E943D0764E687
:100F200070E080E090E00E943A210E9431073BC0CF
:100F3000C53059F40E943D0764E670E080E090E01F
:100F40000E943A210E94310743C0C63059F40E94E2
:100F50003D0764E670E080E090E00E943A210E9444
:100F60003107BBCFC73099F40E943D0764E670E0BB
:100F700080E090E00E943A210E94310764E670E030
:100F800080E090E00E943A210E94310729C0C830D9
:100F900099F40E94310764E670E080E090E00E94DE
:100FA0003A210E943D0764E670E080E090E00E94F4
:100FB0003A210E943D0799CFC930D9F40E943107E8
:100FC00064E670E080E090E00E943A210E943D07D4
:100FD00064E670E080E090E00E943A210E943D07C4
:100FE00064E670E080E090E00E943A21CF910C949A
:100FF0003107CF910895CF92DF92EF92FF920F9336
:101000001F93CF93DF936B017C018A01E90168EEA6
:1010100073E080E090E00E943A2103301105A4F0D3
:10102000C701B6010E942428CB0168EE73E00E943C
:101030006C2A64E670E00E946C2A862F0E944907A1
:1010400081E00E941A0703C002301105A1F4C70114
:10105000B6010E942428CB0164E670E00E946C2A4D
:101060006AE070E00E946C2A862F0E94490781E0A6
:101070000E941A0703C00130110571F4C701B601BF
:101080000E942428CB016AE070E00E946C2A0E9432
:10109000490783E00E941A071C161D060CF0AFC01A
:1010A000C701B6010E94292880E090E00E945528DF
:1010B0009B01AC01C701B6010E94EE266B017C01C9
:1010C00020E030E040E251E40E9470290E9429288B
:1010D0000AE010E0CB01B8010E94582A0E9449079B
:1010E000C130D10509F48BC081E00E941A0720E0CD
:1010F00030E048EC52E4C701B6010E9470290E941A
:101100002928CB01B8010E94582A0E944907C23001
:10111000D10509F474C081E00E941A0720E030E094
:101120004AE754E4C701B6010E9470290E942928A9
:10113000CB01B8010E94582A0E944907C330D1054B
:1011400009F45DC081E00E941A0720E030E44CE120
:1011500056E4C701B6010E9470290E942928CB01DC
:10116000B8010E94582A0E944907C430D10509F4E9
:1011700046C081E00E941A0720E030E543EC57E4C6
:10118000C701B6010E9470290E942928CB01B8012D
:101190000E94582A0E944907C530D10581F181E09B
:1011A0000E941A0720E034E244E759E4C701B6017F
:1011B0000E9470290E942928CB01B8010E94582A58
:1011C0000E9449072697D9F081E00E941A0720E87B
:1011D00036E948E15BE4C701B6010E9470290E942C
:1011E0002928CB01B8010E94582ADF91CF911F9185
:1011F0000F91FF90EF90DF90CF900C944907DF9113
:10120000CF911F910F91FF90EF90DF90CF900895B5
:101210002C9A2D9A83E00E9430058093430484E049
:101220000E9430058093420460E086E00E9436050B
:1012300061E087E00E9436056FE789E00E9436058D
:1012400065E08AE00E94360562E18BE00E94360587
:1012500065E18CE00E9436056DEF8DE00E94360559
:1012600060E08EE00E9436056CE280E70E94360561
:1012700060E080E30E94360560E089E70E94360561
:1012800065E08AE70E94360562E181E70E94360543
:1012900062E082E70E94360560E083E70E9436053F
:1012A00060E084E70E9436056EE078E786E99AE11F
:1012B0000E949E0567E08DE60E9436056AE070E0B8
:1012C00080E090E00E943A2169E087E00E943605C4
:1012D0006AE070E080E090E00C943A21CF92DF92D7
:1012E000EF92FF920F931F93CF93DF936B017C01DB
:1012F000EA01890120E030E0A9010E94B52787FFBB
:1013000004C0F7FAF094F7F8F0949801AE01C70121
:10131000B601DF91CF911F910F91FF90EF90DF9079
:10132000CF900C94FB07CF93DF93EC014AE050E0A1
:101330006D2F70E08BE096E00E94D4256EE28BE08A
:1013400096E00E94EA24BE01E4E076956795EA956E
:10135000E1F76F7077274AE050E08BE096E00E945B
:10136000D4256EE28BE096E00E94EA24BE016F7005
:1013700077274AE050E08BE096E0DF91CF910C9424
:10138000D425FC01118212821382148215821682E6
:1013900017821086158616861786108A1286118681
:1013A000118A128A138A148A108214861386089569
:1013B000EF92FF920F931F93CF93DF93CDB7DEB7DA
:1013C00067970FB6F894DEBF0FBECDBF8C01DB016F
:1013D00012968D919C9113971816190624F0C80146
:1013E0000E94C10932C0019741F1FB0184819581BE
:1013F000DC015596ED90FC90569725E1FC01DE014D
:10140000119601900D922A95E1F76E8B7F8B0E94C9
:10141000EB266E897F89FB01F582E48282819381CC
:10142000019793838283148685E1FE013196D8016A
:1014300001900D928A95E1F708C0DB01ED91FC91D6
:101440000484F585E02DC8010995C80167960FB69B
:10145000F894DEBF0FBECDBFDF91CF911F910F91EA
:10146000FF90EF900895EF92FF920F931F93CF9309
:10147000DF93CDB7DEB78C0187E190E00E94E926CB
:101480007C0187E1D7011D928A95E9F7C7010E9487
:10149000C10985E1FE013996D70101900D928A9527
:1014A000E1F7F701168A158AD80114968D919C915F
:1014B0001597892B59F01696ED91FC911797F68A9E
:1014C000E58A1796FC92EE92169705C0F801F58210
:1014D000E482F782E682D80112968D919C9113974F
:1014E000019613969C938E9312971C961C9281E002
:1014F000DF91CF911F910F91FF90EF900895EF92A0
:10150000FF920F931F93CF93DF93CDB7DEB78C017C
:10151000DC0112968D919C911397892BB9F48D91D2
:101520009C9125E1FE013996DF0101900D922A95EB
:10153000E1F7DC011496ED91FC911597C801DF915C
:10154000CF911F910F91FF90EF90099487E190E068
:101550000E94E9267C0187E1F70111928A95E9F75B
:10156000C7010E94C109D80114968D919C911597CD
:10157000F701968B858B85E1FE013996D7010190A5
:101580000D928A95E1F7D8011596FC92EE92149788
:1015900012968D919C911397019613969C938E931E
:1015A00012971C961C9281E0DF91CF911F910F91B1
:1015B000FF90EF90089580E00E948E020E945F02EB
:1015C00061E08DE00E94E32161E08CE00E94E32174
:1015D00060E08BE00E94E32160E083E00E94E32171
:1015E00061E083E00E941C2261E08EE00E94E32122
:1015F00060E08EE00E941C220E947A0226E040E019
:1016000051EE60E070E08BE096E00E945E230E9465
:10161000ED030E94D4040E94730278940E940B216F
:1016200061E08BE00E941C222D9A83E793E00E94E8
:10163000930980E00E94080680910A030E944805F1
:101640008FE00C948E02809157039091580300977D
:1016500019F46AEB71E010C08130910519F469E862
:1016600071E00AC08230910519F461E671E004C0AE
:10167000039731F463E371E08BE096E00C94F5247A
:1016800008952091590330915A032115310529F409
:10169000873481F581E090E017C02130310529F4CD
:1016A0008E3441F582E090E00FC02230310529F4FC
:1016B000873401F583E090E007C02330310549F419
:1016C0008335C1F484E090E090935A0380935903EA
:1016D00015C02430310571F4813461F410925A033D
:1016E0001092590364E570E08BE096E00E94B1012E
:1016F00081E0089510925A031092590380E00895F2
:10170000CF92DF92EF92FF92CF93DF93CDB7DEB708
:1017100065970FB6F894DEBF0FBECDBF0E940B21B8
:101720000E9455286B017C0120E030E04AE754E438
:1017300060910B0370910C0380910D0390910E0347
:101740000E94EF269B01AC01C701B6010E946529EA
:1017500018160CF02FC10E940B210E94552860938F
:101760000B0370930C0380930D0390930E0361E5BC
:1017700070E08BE096E00E94B10162E570E08BE0E2
:1017800096E00E94B1016091B0047091B104809123
:10179000B2049091B30443E00E94B801C090B00439
:1017A000D090B104E090B204F090B30420E030E0B7
:1017B00044E352E4C701B6010E9465291816B4F546
:1017C00020E030E048E452E4C701B6010E94B527AA
:1017D00087FF2CC080913504811105C00E94080943
:1017E00081E08093350468EE73E080E090E00E9431
:1017F0003A2123E030E042E050E060EF77EE88EB02
:1018000092E40E94FB0768EE73E080E090E00E94A3
:101810003A218BE096E00E94C02326E040E051EEA2
:1018200060E070E08BE096E00E945E236AE070E08A
:101830008BE096E00E94B1016CE470E08BE096E0F2
:101840000E94B10160919404709195048091960476
:10185000909197040E94572820E836E948E15BE41C
:101860000E94BC2747E00E94B8016FE470E08BE063
:1018700096E00E94B1016091980470919904809162
:101880009A0490919B040E94572820E836E948E189
:101890005BE40E94BC2747E00E94B80163E570E06A
:1018A0008BE096E00E94B1014AE050E06091D704DD
:1018B0008BE096E00E94CD2568E470E08BE096E036
:1018C0000E94B1016091A4047091A5044AE050E027
:1018D0008BE096E00E94D4256AE070E08BE096E011
:1018E0000E94B101CE0101960E94C1096091940449
:1018F0007091950480919604909197040E945728C6
:1019000020E836E948E15BE40E94BC276A837B83D8
:101910008C839D83609198047091990480919A04BE
:1019200090919B040E94572820E836E948E15BE447
:101930000E94BC276E837F8388879987E090D704B5
:10194000F12CFB86EA866091A4047091A50480E0E6
:1019500090E00E9455286E877F87888B998B83E063
:10196000E816F1043CF180915303909154030297DF
:1019700031F484E090E090935403809353038DB747
:101980009EB745970FB6F8949EBF0FBE8DBFADB7FB
:10199000BEB7119685E1FE01319601900D928A95B0
:1019A000E1F781E193E00E946A130FB6F894DEBF7D
:1019B0000FBECDBF65960FB6F894DEBF0FBECDBF8C
:1019C000DF91CF91FF90EF90DF90CF900895CF936C
:1019D000DF93EC018CE891E0998388838C819D8171
:1019E000009741F0FC01258936893D832C830E94B4
:1019F000EB26F4CF1F821E821B821A821C86DF9187
:101A0000CF910895FC01A481B5818485882341F09C
:101A100022853385621773071CF0A085B1850BC042
:101A200020E030E008C01097A1F055960D90BC91D1
:101A3000A02D2F5F3F4F26173707ACF32617370728
:101A400041F481E0848733872287B187A087CD0165
:101A5000089580E090E00895CF92DF92EF92FF9298
:101A60000F931F93CF93DF93CDB7DEB78C016B013C
:101A7000DC0112968D919C9113976817790784F079
:101A80008D919C9125E1FE013B96DF0101900D9225
:101A90002A95E1F7DC011496ED91FC91159713C09E
:101AA00061157105D1F4F8018081918125E1FE0174
:101AB0003B96DF0101900D922A95E1F7DC01169625
:101AC000ED91FC911797C801DF91CF911F910F9174
:101AD000FF90EF90DF90CF90099487E190E00E9413
:101AE000E9267C0187E1F70111928A95E9F7C701A0
:101AF0000E94C109B60161507109C8010E94020D1E
:101B000025E1FE013B96D70101900D922A95E1F760
:101B1000DC0155962D913C915697F701368B258B1C
:101B20005696FC92EE925597D80112968D919C9103
:101B30001397019613969C938E9312971C961C9262
:101B400081E0DF91CF911F910F91FF90EF90DF9097
:101B5000CF900895CF93DF93CDB7DEB777FD12C056
:101B6000FC01228133816217730764F40E94020D25
:101B700025E1FE013596DC0101900D922A95E1F7F1
:101B800081E001C080E0DF91CF910895EF92FF9254
:101B90000F931F93CF93DF93CDB7DEB765970FB643
:101BA000F894DEBF0FBECDBF7C018B0157FD08C08E
:101BB000DB0112968D919C9113974817590724F0D9
:101BC000C7010E94C10948C04115510539F4DB0124
:101BD000ED91FC910684F785E02D0AC00197481726
:101BE000590751F4DB01ED91FC910484F585E02D5A
:101BF000B801C701099530C0BA0161507109C80127
:101C00000E94020D9C01FC018589968945E1FC0139
:101C1000DE01119601900D924A95E1F7DC0155968F
:101C20004D915C915697F901568B458B0E94EB269E
:101C3000D80112968D919C911397019713969C93BE
:101C40008E9312971C961C9285E1FE013196D70166
:101C500001900D928A95E1F7C70165960FB6F89449
:101C6000DEBF0FBECDBFDF91CF911F910F91FF90CF
:101C7000EF900895CF92DF92EF92FF920F931F9310
:101C8000CF93DF93CDB7DEB765970FB6F894DEBF7D
:101C90000FBECDBF7C018B01FB01628173811616E3
:101CA00017061CF00E94C10940C0F801148661307B
:101CB0007105F9F062507109C8010E94020D6C01B2
:101CC000FC018589968925E1FC01DE0111960190D0
:101CD0000D922A95E1F70E94EB26F601168A158AE5
:101CE000F801D782C6828281938101979383828390
:101CF00014C0F8018481958125E1FC01DE01119673
:101D000001900D922A95E1F70E94EB26F8011582C9
:101D10001482178216821382128285E1FE013196A7
:101D2000D70101900D928A95E1F7C70165960FB62C
:101D3000F894DEBF0FBECDBFDF91CF911F910F9101
:101D4000FF90EF90DF90CF900895CF93DF93EC0159
:101D5000CB01BA010E94020D009741F025E1FC0180
:101D6000DE0101900D922A95E1F703C0CE010E9499
:101D7000C109CE01DF91CF91089587E893E00E94D9
:101D8000E2162AE030E042E851E067E873E08BE5D4
:101D900093E00E94E21C81E193E00C94141386E32B
:101DA00093E00E94E70C89E293E00C94E70C8F9299
:101DB0009F92AF92BF92CF92DF92EF92FF920F93DA
:101DC0001F93CF93DF93CDB7DEB765970FB6F89427
:101DD000DEBF0FBECDBFFF24F3948091340488236F
:101DE00009F43FC06CE271E08BE096E00E94F524BC
:101DF00080913504811104C00E940809F0923504D5
:101E000068EE73E080E090E00E943A216091120356
:101E100070911303809114039091150302E010E078
:101E200026E030E042E050E00E946E0968EE73E088
:101E300080E090E00E943A216091160370911703B0
:101E4000809118039091190326E030E042E050E0C1
:101E50000E946E0968EE73E080E090E00E943A21F3
:101E6000BCCF0E940B2100914F0310915003209191
:101E7000510330915203601B710B820B930B61373E
:101E8000774181059105A0F10E940B2160934F03DA
:101E900070935003809351039093520364E470E075
:101EA0008BE096E00E94B101809157039091580316
:101EB000009779F481E090E0909358038093570362
:101EC000909354038093530310925603109255033A
:101ED0000FC08130910561F49093560380935503B0
:101EE0001092540310925303109258031092570308
:101EF000F5E18F2E02E010E0A4E0EA2EF12CB3E031
:101F0000CB2ED12C8BE096E00E947B22181619066E
:101F10000CF0AEC08BE096E00E949422982E809147
:101F2000570390915803892B69F4892D0E94410B26
:101F3000882341F0109358030093570310935603DE
:101F4000009355038091570390915803029709F02D
:101F500071C0692D87E893E00E94031C882309F46F
:101F600069C0CE0101960E94C1098091EF038823C8
:101F700009F460C01092F0038091F5039091F6038C
:101F8000A091F703B091F8030397A105B10508F4F8
:101F900051C08091550390915603029721F4F0921D
:101FA0005603E092550387E893E00E9471196A8313
:101FB0007B838C839D8387E893E00E949D196E83C9
:101FC0007F83888799871092F003A090F503B090E3
:101FD000F603BB86AA861092FE03609103047091FB
:101FE000040480910504909106040E9457286E878E
:101FF0007F87888B998B83E0A816B104DCF08DB7BE
:102000009EB745970FB6F8949EBF0FBE8DBFADB774
:10201000BEB71196FE013196882D01900D928A95DA
:10202000E1F781E193E00E946A130FB6F894DEBFF6
:102030000FBECDBF80915703909158038D7F0197BC
:1020400009F060CF892D0E945D1D882371F0D09228
:102050005803C09257038091530390915403019702
:1020600021F410935403009353030E94800B4ACF32
:1020700020E434E040E153E06AE374E080915503EA
:10208000909156030E94B9102EE334E04FE053E0E4
:1020900066E374E080915303909154030E94B91059
:1020A00080911003882311F02C9A01C02C98809104
:1020B0000F03882311F02D9A01C02D9881E193E040
:1020C0000E94BC168091530390915403049751F4DD
:1020D00080912603882331F086E090E090935403AA
:1020E000809353038091550390915603049751F4C4
:1020F00080912603882331F086E090E09093560388
:10210000809355038091550390915603069731F0C3
:102110008091530390915403069741F480912703D3
:10212000882321F081E08093340410C08BE00E946A
:102130005222892B59F40E94230B81E080932603BD
:102140006DE670E08BE096E00E94B10165960FB6F7
:10215000F894DEBF0FBECDBFDF91CF911F910F91DD
:10216000FF90EF90DF90CF90BF90AF909F908F90B7
:1021700008958F929F92AF92BF92EF92FF920F932A
:102180001F93CF93DF938B01EA0179018930910589
:1021900008F09DC1FC01EC5CFF4F0C94C12A8881C2
:1021A000811194C00E940B21F80180809180A2804F
:1021B000B380681979098A099B09693E73408105D2
:1021C000910508F025C182C08881882309F494C054
:1021D0000E940B21F80180809180A280B380681951
:1021E00079098A099B09693E73408105910508F0C8
:1021F00040C182C08881811194C00E940B21F801E6
:1022000080809180A280B380681979098A099B092E
:10221000633371058105910508F0FAC082C0888199
:10222000811195C00E940B21F80180809180A280CD
:10223000B380681979098A099B09693E7340810551
:10224000910508F484C0F70180819181892B09F4FC
:10225000DFC07DC088818111ABC00E940B21F801D5
:1022600080809180A280B380681979098A099B09CE
:10227000693E73408105910508F49AC0F701808199
:102280009181892B09F4C4C093C08881882309F403
:10229000D7C00E940B21F80180809180A280B3807A
:1022A000681979098A099B09693E7340810591057E
:1022B00008F4C6C0F70180819181892B09F4D9C047
:1022C000BFC081E0888303C1188201C1888188234F
:1022D00009F4FDC00E940B21F80180809180A2804A
:1022E000B380681979098A099B09693C71058105E0
:1022F000910508F0BEC0EBC088818111E8C00E9442
:102300000B21F80180809180A280B380681979093F
:102310008A099B09653F71408105910508F078C0E5
:10232000D6C08881882309F4D2C00E940B21F8010D
:1023300080809180A280B380681979098A099B09FD
:10234000633371058105910508F093C0C0C0888191
:10235000811117C00E940B21F80180809180A2801A
:10236000B380681979098A099B09693C710581055F
:10237000910538F0F70180819181181619060CF447
:1023800047C08881882309F4A2C00E940B21F8016C
:1023900080809180A280B380681979098A099B099D
:1023A000693C71058105910508F491C018827FC0D0
:1023B0008881811110C00E940B21F80180809180DA
:1023C000A280B380681979098A099B09693C710563
:1023D0008105910528F48881882309F478C007C015
:1023E000F701808191811816190694F0F4CF0E94AC
:1023F0000B21F80180809180A280B380681979094F
:102400008A099B09693C71058105910520F45FC02B
:1024100081E088832FC018820E940B21F80160831D
:10242000718382839383F7018081918101969183E7
:102430008083039709F04BC0F7011182108247C0D7
:1024400088818823F9F00E940B21F8018080918017
:10245000A280B380681979098A099B09693C7105D2
:102460008105910578F0F701808191811816190690
:102470004CF418820E940B21F801608371838283DF
:10248000938325C08881811122C00E940B21F8010D
:1024900080809180A280B380681979098A099B099C
:1024A000693C71058105910590F081E088830E9467
:1024B0000B21F8016083718382839383F70180810C
:1024C0009181019691838083029709F4B5CFDF91C2
:1024D000CF911F910F91FF90EF90BF90AF909F9081
:1024E0008F900895E091AA06F091AB0680E090E00D
:1024F000309749F0029620813181820F931F02802C
:10250000F381E02DF5CF08950F931F93CF93DF93C1
:1025100000D0CDB7DEB78091A8069091A9068E01B4
:102520000F5F1F4F009729F40C5A16401A83098336
:102530000AC0081B190B1A8309830E947212800FAC
:10254000911F9A83898389819A810F900F90DF91DF
:10255000CF911F910F9108951F93CF93DF93EC01BB
:1025600089859A850397BCF020E030E0A901698154
:102570007A818B819C810E94B52711E081110CC06A
:1025800020E030E0A9016D817E818F8198850E94D5
:10259000B527811101C010E0812FDF91CF911F91EC
:1025A0000895CF93DF93EC0166EA71E08BE096E04B
:1025B0000E94E82449815A816B817C8125E030E0CA
:1025C0008BE096E00E94C5266BEA71E08BE096E016
:1025D0000E94E8244D815E816F81788525E030E09E
:1025E0008BE096E00E94C52662EB71E08BE096E0FE
:1025F0000E94E82469857A854AE050E08BE096E005
:102600000E94A02567EB71E08BE096E00E94E82431
:102610004D855E856F85788922E030E08BE096E01D
:10262000DF91CF910C94C726CF93DF93EC010E94EA
:10263000C1098CE891E0998F888F1D8E1C8E1F8EAA
:102640001E8E1B8E1A8E19A218A21BA21AA21CA2E1
:102650009EA38DA31AA619A61CA61BA618A61FA288
:102660001EA61DA618AA1FA619AA0E940B216EABB2
:102670007FAB88AF99AF1BAA1AAA1D8A1E8ADF9169
:10268000CF910895CF93DF93EC0160E272E08BE08D
:1026900096E00E94C5240E9484124AE050E0BC01EA
:1026A0008BE096E00E94A82560E172E08BE096E066
:1026B0000E94C5246CEF71E08BE096E00E94C52477
:1026C0006A8D7B8D4AE050E08BE096E0DF91CF9100
:1026D0000C94A825EF92FF920F931F93CF93DF9353
:1026E000CDB7DEB765970FB6F894DEBF0FBECDBF8E
:1026F0008C01FC01828D938D9801285E3F4F7901FA
:1027000007973CF040E050E0B901CE0101960E94ED
:10271000C60D8DB79EB745970FB6F8949EBF0FBEF6
:102720008DBFADB7BEB7119685E1FE017E960190D3
:102730000D928A95E1F760E070E0C7010E942C0DD0
:1027400085E1FE017E96D80101900D928A95E1F710
:102750000FB6F894DEBF0FBECDBF65960FB6F894E6
:10276000DEBF0FBECDBFDF91CF911F910F91FF90C4
:10277000EF9008950F931F93CF93DF93CDB7DEB7FC
:1027800065970FB6F894DEBF0FBECDBF8C01CE01AA
:1027900001960E94C1098BE99BEDACE4B2E48A8307
:1027A0009B83AC83BD8343ED5AE661EA71E44E83BB
:1027B0005F836887798785E090E09B878A8740E020
:1027C00050E060EA71E44E875F87688B798B8DB744
:1027D0009EB745970FB6F8949EBF0FBE8DBFADB79D
:1027E000BEB7119685E1FE01319601900D928A9552
:1027F000E1F7C8010E946A130FB6F894DEBF0FBE5E
:10280000CDBF65960FB6F894DEBF0FBECDBFDF918A
:10281000CF911F910F9108950F931F93CF93DF9343
:10282000CDB7DEB765970FB6F894DEBF0FBECDBF4C
:10283000FC0127A130A58C010B5D1F4F263031050F
:1028400039F445E050E0B801CE0101960E94C60D72
:1028500085E1FE017C96DF0101900D928A95E1F7FA
:1028600060E070E0C80165960FB6F894DEBF0FBE59
:10287000CDBFDF91CF911F910F910C942C0DCF9272
:10288000DF92EF92FF920F931F93CF93DF93CDB719
:10289000DEB765970FB6F894DEBF0FBECDBF7C01E3
:1028A00069EE71E08BE096E00E94F524F70167A1E4
:1028B00070A54AE050E08BE096E00E94A82500E079
:1028C00010E06701F5E2CF0ED11CF70187A190A5BA
:1028D000081719076CF4A801B601CE0101960E94F1
:1028E000A50ECE0101960E94D1120F5F1F4FEDCFB2
:1028F00065960FB6F894DEBF0FBECDBFDF91CF91C6
:102900001F910F91FF90EF90DF90CF9008952F923D
:102910003F924F925F926F927F928F929F92AF926F
:10292000BF92CF92DF92EF92FF920F931F93CF93BC
:10293000DF93CDB7DEB7A1970FB6F894DEBF0FBE19
:10294000CDBF1C017F8F6E8F0E94C10900E010E097
:102950001F8A1E8AC12CD12C76011B8E1A8E46012D
:102960005701260137012E8D3F8D285E3F4F39A339
:1029700028A3EE8DFF8D828D938D08171907DCF546
:10298000A80168A179A1CE0101960E94A50E8A85B1
:102990009B859D8F8C8F03975CF1EE89FF89319623
:1029A000FF8BEE8B2A813B814C815D81C301B2019B
:1029B0000E94EF262B013C012E813F8148855985DD
:1029C000C501B4010E94EF264B015C012A8D3B8DAD
:1029D0008C8D9D8D280F391F3B8F2A8F2E853F852B
:1029E00048895989C701B6010E94EF266B017C0115
:1029F0000F5F1F4FBECF2E893F89B901882777FD12
:102A00008095982F0E9457286E8B7F8B888F998F87
:102A10009B01AC01C301B2010E94BC272B013C0108
:102A20002E893F89488D598DC501B4010E94BC276C
:102A30004B015C012E893F89488D598DC701B60134
:102A40000E94BC276B017C0188A199A10E9483018F
:102A5000F101418252826382748285829682A782CA
:102A6000B0862A8D3B8D32872187C586D686E7863C
:102A7000F08AC101A1960FB6F894DEBF0FBECDBF9C
:102A8000DF91CF911F910F91FF90EF90DF90CF904A
:102A9000BF90AF909F908F907F906F905F904F907E
:102AA0003F902F900895AF92BF92CF92DF92EF9216
:102AB000FF920F931F93CF93DF93CDB7DEB7AA9703
:102AC0000FB6F894DEBF0FBECDBFFC0127A130A525
:102AD00026303105C4F18C010B5D1F4F40E050E002
:102AE000B801CE0146960E94A50E44E050E0B80120
:102AF000CE0101960E94A50ECE0146960E94AC1210
:102B0000882309F1CE0101960E94AC128823D9F0E6
:102B1000AE80BF80C884D984EA80FB800C811D818F
:102B20002B8D3C8D4D8D5E8D6F89788D898D9A8D25
:102B30000E94691811E020E030E040E751E40E9473
:102B4000652918160CF010E0812FAA960FB6F8949C
:102B5000DEBF0FBECDBFDF91CF911F910F91FF90D0
:102B6000EF90DF90CF90BF90AF9008952F923F925B
:102B70004F925F926F927F928F929F92AF92BF928D
:102B8000CF92DF92EF92FF920F931F93CF93DF9339
:102B9000CDB7DEB7AB970FB6F894DEBF0FBECDBF93
:102BA0004C01FC01F589FBA7FF2309F475C000E087
:102BB00010E0E12CF12C6C0185E2C80ED11CF4016F
:102BC00087A190A50817190794F4A801B601CE01B2
:102BD00001960E94A50ECE0101960E94AC12882398
:102BE00019F0EFEFEE1AFE0A0F5F1F4FE8CFF2E089
:102BF000EF16F1040CF450C0612C712C140185E225
:102C0000280E311CF40187A190A5681679060CF0F6
:102C100043C0A301B101CE0146960E94A50ECE018C
:102C200046960E94AC12882399F12301F40187A1F2
:102C300090A54816590664F5A201B101CE0101968E
:102C40000E94A50ECE0101960E94AC128823E1F0ED
:102C5000AE80BF80C884D984EA80FB800C811D814E
:102C60002B8D3C8D4D8D5E8D6F89788D898D9A8DE4
:102C70000E94691820E030E040E850E40E94652995
:102C8000181614F41BA608C0EFEF4E1A5E0ACECF3A
:102C9000FFEF6F1A7F0AB6CF8BA5AB960FB6F894ED
:102CA000DEBF0FBECDBFDF91CF911F910F91FF907F
:102CB000EF90DF90CF90BF90AF909F908F907F90DC
:102CC0006F905F904F903F902F9008950F931F93B8
:102CD000CF93DF93CDB7DEB765970FB6F894DEBF1D
:102CE0000FBECDBF8C01FC018789882321F0178A94
:102CF000C8010E94BA13C8010E944213B801CE0154
:102D000001960E9487142DB73EB7255131090FB6A1
:102D1000F8943EBF0FBE2DBFADB7BEB7119685E18B
:102D2000FE01319601900D928A95E1F7C8010E944B
:102D30000C14C8010E943F14C8010E9453150FB61D
:102D4000F894DEBF0FBECDBF882319F081E0F801F3
:102D5000858BC8010E94B615882319F081E0F8011F
:102D6000868B65960FB6F894DEBF0FBECDBFDF91A0
:102D7000CF911F910F9108950F931F93CF93DF93DE
:102D8000EC010E940B210EA91FA928AD39AD601BD3
:102D9000710B820B930B693B7B408105910568F0B9
:102DA0000E940B216EAB7FAB88AF99AFCE01DF9154
:102DB000CF911F910F910C946616DF91CF911F91C7
:102DC0000F910895FC0110821182138212821482E5
:102DD0001582168217821086128611861386148633
:102DE000158616861786118A108A128A138A148A03
:102DF000158A168A108E178A118E128E138E148ED3
:102E0000158E12A213A214A215A216A217A210AA1E
:102E100011AA12AA13AA14AA15AA16AE17AEDC019B
:102E2000AC5BBF4F1D921D921D921C92139718967A
:102E30001C9211961C92119716961D921D921D922E
:102E40001C9219971E961C9211961C921197169619
:102E50001D921D921D921C9219971E961C921196FE
:102E60001C92119716961D921D921D921C921997F5
:102E70001E961C9211961C92119716961D921D92E9
:102E80001D921C9219971E961C9211961C92509698
:102E900082E08C9311961C9211961C9211961C92B2
:102EA000119611961C921E92129611961C921E92C9
:102EB00012961D921D921D921C92139714961D92AC
:102EC0001D921D921C92139714961D921D921D9295
:102ED0001C92139714961D921D921D921C9213978B
:102EE000EA57FF4F108208952FEB260F862F992760
:102EF00087FD9095263010F4C79708956156663087
:102F000018F4875591090895C0970895FF920F937B
:102F10001F93CF93DF93EC01FF24F39488818D32CC
:102F200011F0F12C01C02196CE010E946D2C9B0165
:102F3000AC01A4E6B0E00E94D62AFE014991242FFC
:102F4000332727FD3095205331092A303105A8F366
:102F50004E3241F52181332727FD30952053310929
:102F60002A303105F8F44AE0429F8001439F100D5A
:102F70001124222717FD2095322F600F711F821F09
:102F8000931F0281112707FD1095005311090A3084
:102F9000110540F4222717FD2095322F600F711F75
:102FA000821F931FFF2039F0909580957095619551
:102FB0007F4F8F4F9F4FDF91CF911F910F91FF90C8
:102FC00008952F923F924F925F926F927F928F92CD
:102FD0009F92AF92BF92CF92DF92EF92FF920F93A8
:102FE0001F93CF93DF93D82FC92F8B010E946D2C95
:102FF00024E630E040E050E00E94802A49015A0176
:103000009B01AC0160E876E988E990E00E94482ADB
:103010006B017C01F80191828082ED2FFC2F2191C0
:10302000822F992787FD9095C0970A97C0F32E327B
:1030300039F51F0180E8882E86E9982E88E9A82EA8
:10304000B12C9AE0492E512C612C712CF101C191C7
:103050001F01DD27C7FDD095E097CA30D10580F468
:10306000C501B401A30192010E94802A49015A01BD
:10307000DE010E94E12AC60ED71EE81EF91EE6CF29
:10308000A5E0B0E0A70196010E94D62A6F5F7F4FAE
:103090008F4F9F4F23E030E040E050E00E94802AB5
:1030A000F80122833383448355831682DF91CF91C5
:1030B0001F910F91FF90EF90DF90CF90BF90AF9056
:1030C0009F908F907F906F905F904F903F902F9048
:1030D00008954F925F926F927F928F929F92AF92DC
:1030E000BF92CF92DF92EF92FF920F931F93CF93F5
:1030F000DF93CDB7DEB760970FB6F894DEBF0FBE93
:10310000CDBF69837A838B839C83CA01B901270170
:103110003801A60195010E94EE2625E33AEF4EE81C
:103120005CE30E9470296B017C010E94D3296D87AA
:103130007E878F87988BC701B6010E94B9276D8360
:103140007E838F83988725E33AEF4EE85CE36981BD
:103150007A818B819C810E9470296B017C0125E31F
:103160003AEF4EE85CE3C301B2010E9470292B01E3
:103170003C01C701B6010E94D3294B015C01C70184
:10318000B6010E94B92769837A838B839C83C3012C
:10319000B2010E94D32969877A878B879C87C301F4
:1031A000B2010E94B9276B017C0129853A854B85C4
:1031B0005C8569817A818B819C810E9470292B01B9
:1031C0003C01A7019601C501B4010E9470292D811F
:1031D0003E814F8158850E9470299B01AC01C3013B
:1031E000B2010E94EE269B01AC010E9470292B01C6
:1031F0003C012D853E854F855889C701B6010E9447
:1032000070299B01AC010E9470299B01AC01C30194
:10321000B2010E94EF260E94DD292B013C01298585
:103220003A854B855C85C501B4010E9470294B012C
:103230005C01A701960169817A818B819C810E9442
:1032400070292D813E814F8158850E9470299B01F4
:10325000AC01C501B4010E94EF269B01AC01C30182
:10326000B2010E94622726E73BE742EC5AE40E9443
:10327000702960960FB6F894DEBF0FBECDBFDF9108
:10328000CF911F910F91FF90EF90DF90CF90BF9063
:10329000AF909F908F907F906F905F904F90089528
:1032A000CF93DF93EC0187E0FE017096DE0112966A
:1032B00001900D928A95E1F787E0FE017796DE0195
:1032C000199601900D928A95E1F70E940B216E8F5D
:1032D0007F8F88A399A381E089838883DF91CF9131
:1032E0000895CF92DF92EF92FF92CF93DF93EC019C
:1032F00019826A817B8180E090E00E9455286B01F1
:103300007C016C817D818E819F810E94552828E2FD
:103310003BE64EE65EE40E94BC279B01AC01C70180
:10332000B6010E94EF26288521119058DF91CF9198
:10333000FF90EF90DF90CF900895CF92DF92EF92C1
:10334000FF92CF93DF93EC01198269857A8580E043
:1033500090E00E9455286B017C016B857C858D85F2
:103360009E850E94552828E23BE64EE65EE40E94D8
:10337000BC279B01AC01C701B6010E94EF262F8537
:1033800021119058DF91CF91FF90EF90DF90CF9077
:103390000895CF93DF93EC014E815F816885798535
:1033A0004A835B836C837D830E940B216A877B87C2
:1033B0008C879D8781E089838883DF91CF910895F1
:1033C000CF93DF93EC014E815F81688579854A83D5
:1033D0005B836C837D830E940B216A877B878C874C
:1033E0009D8781E089838883DF91CF910895CF9372
:1033F000DF93EC01CB010E9486176E837F83888761
:103400009987DF91CF910895CF93DF93EC01CB01A2
:103410000E946D2C6E837F8388879987DF91CF917F
:103420000895CF93DF93EC014A855B856C857D859C
:103430004E835F83688779870E940B216A837B8331
:103440008C839D8381E089838883DF91CF91089568
:10345000CF93DF93EC01CB010E9486176A877B87AD
:103460008C879D87DF91CF910895CF93DF93EC01F7
:103470004A855B856C857D854E835F836887798708
:103480000E940B216A837B838C839D8381E08983E7
:103490008883DF91CF910895CF93DF93EC01CB0127
:1034A0000E946D2C6A877B878C879D87DF91CF91E7
:1034B0000895CF93DF93EC01BC0140960E949D2CB0
:1034C0000E940B2168A379A38AA39BA381E08DA30B
:1034D0008CA3DF91CF91089540E150E00C94A42C8F
:1034E000AF92BF92CF92DF92FF920F931F93CF9331
:1034F000DF93EC01FC01EB57FF4FF080FF2009F454
:103500009CC0319660810E947417182FFE01E95704
:10351000FF4F6081CE010E94741740E1149F800D1F
:103520001124FE01EC57FF4F9081891376C0B596A8
:1035300040815181628173814F5F5F4F6F4F7F4F39
:1035400040835183628373838E0108561F4FD801D5
:103550008C91882369F03897408151816281738111
:103560004F5F5F4F6F4F7F4F408351836283738301
:10357000FE01EB56FF4F80818823C9F0813089F529
:10358000CE0182960E94C919CE01C0960E94E01910
:10359000F8018081882329F1CE010E945019CE01C3
:1035A000CE960E94111ACE01845B9F4F18C0CE01A7
:1035B000C0960E94E019D8018C91882341F0CE0179
:1035C0000E945019CE01865A9F4F0E94111ACE01B7
:1035D00088599F4F0E94351ACE018A589F4F0E94EA
:1035E000111A8E0105561F4FF801C081D181209715
:1035F00009F4FEC0D801ED91FC9166A177A18EA1DE
:103600009FA10E94942C892B09F0F2C0CE010E9448
:10361000591A0AA4DBA5C02DEACFCB55DF4F48814C
:1036200059816A817B814F5F5F4F6F4F7F4F488326
:1036300059836A837B83F12CDBC06C01B6E9CB0E26
:10364000D11CF60130818B569F4F5C018E010556CF
:103650001F4F311134C06E0196E8C90ED11C62E8CB
:1036600071E0C6010E94942C892B11F481E00BC0FB
:103670006EEB71E0C6010E94942C892B19F4F501C0
:10368000108203C082E0D5018C93C756DF4F88813A
:103690009981F80191838083F801C081D1812097BD
:1036A00009F4A6C0B6018EA19FA10E94942C97FF99
:1036B0009AC08AA59BA5D8018D939C93EDCFDC0180
:1036C000EC91E23009F463C0CE018A579F4FDC01D0
:1036D0002C91222309F45BC0B0E2EB9FF00111248E
:1036E000E32B3197E932F10508F051C0E35CFF4F5D
:1036F0000C94C12ABC01CE01C0960E94F71947C0A4
:10370000FE01E856FF4F81E0213461F52CC0BE0177
:10371000605F7F4F09C081E0233509F080E08E8B28
:1037200036C0BE01695E7F4F0E94E11730C081E064
:10373000273509F080E08D8F2AC0BC01CE01CE96DE
:1037400024C0BC01CE01845B9F4F1FC0BC01CE01D1
:1037500082960E94041A1BC0FE01E856FF4F81E0CA
:1037600021330CF480E0808312C0BC01CE01885963
:103770009F4F0E944C1A0BC0BC01CE018A589F4F2C
:1037800004C0BC01CE01865A9F4F0E94281AF8013E
:10379000A080B180CA57DF4FA114B10449F1D8010C
:1037A000ED91FC9166A177A1F50186A197A10E94F8
:1037B000942C892BE9F4D50198962D913C919997F9
:1037C000F601808190E08217930794F0281739075B
:1037D00021F4BE01C5010E946C1AD5019A96AD90E4
:1037E000BC909B97D9CF892B19F0D8011D921C92C0
:1037F0008F2DDF91CF911F910F91FF90DF90CF9090
:10380000BF90AF900895CF92DF92EF92FF920F9307
:103810001F93CF93DF931F92CDB7DEB76C01262F96
:10382000FC01E356FF4F40815181628173814F5FFC
:103830005F4F6F4F7F4F40835183628373838C014F
:1038400009561F4F8B579F4F7C01243279F12CF47E
:103850002A3069F02D30E1F50AC02A3241F02C32CD
:10386000B9F5F601EC57FF4F808182278083F8017C
:1038700080818F3060F4F601E80FF11DEA57FF4FA9
:103880001082C60129830E94701A298101C080E03C
:10389000F601EA56FF4F90819F5F9083F8011082F6
:1038A00091E02A3209F090E0F70128C0F801108277
:1038B000F601EA56FF4F108272971082719682E0ED
:1038C0008083F7011082F601E856FF4F108218C07E
:1038D000F80180818E3048F491E0980F9083F601D2
:1038E000E80FF11DEA57FF4F2083F7018081811116
:1038F00007C0F601EC57FF4F90819227908301C0DB
:1039000080E00F90DF91CF911F910F91FF90EF908A
:10391000DF90CF900895AF92BF92CF92DF92EF9257
:10392000FF920F931F93CF93DF937B016A0159019D
:103930008C0107561F4FF801C081D181209791F06B
:103940006EA17FA1C6010E94942C97FD0BC0892B0C
:1039500029F488A599A5A816B90624F08E01065D5C
:103960001F4FE9CFF701D3A7C2A7F801F182E08288
:10397000DF91CF911F910F91FF90EF90DF90CF904B
:10398000BF90AF900895CF93DF93FC01CB0110A2BD
:1039900011A212A213A214A215A257A346A331A7E3
:1039A00020A760E1DF01C62F1D92CA95E9F7DF016C
:1039B0005096ED0119926A95E9F7BF01DF91CF9119
:1039C0000C948B1C0C94C31C1092AC041092AD048C
:1039D0001092AE041092AF041092B0041092B10491
:1039E0001092B2041092B3041092B4041092B50471
:1039F0001092B6041092B7041092B8041092B90451
:103A00001092BA041092BB041092BC041092BD0430
:103A10001092BE041092BF041092C0041092C10410
:103A20001092C2041092C3041092C4041092C504F0
:103A30001092C6041092C7041092C8041092C904D0
:103A40001092CA041092CB041092CC041092CD04B0
:103A50001092CE041092CF041092D0041092D10490
:103A60001092D2041092D3041092D5041092D40470
:103A70001092D6040895FB019081982780E1989FC9
:103A8000900111242927822F90E0382F2227AC01A2
:103A900063E0440F551F6A95E1F7242735274181DC
:103AA00050E02427352774E0959587957A95E1F7BE
:103AB000282739273183208308952F923F924F92F0
:103AC0005F926F928F929F92AF92BF92CF92DF924E
:103AD000EF92FF920F931F93CF93DF93CDB7DEB793
:103AE000C252D1400FB6F894DEBF0FBECDBF082F33
:103AF0001092DA04E091DD04F091DE04EA30F10581
:103B000008F006C1EA59FF4F0C94C12A8E3F09F014
:103B1000FFC022E030E03093DE042093DD041092F9
:103B2000E9048093E80496C08093E9041092DF04CE
:103B300066EE74E00E943B1D84E090E008C0809334
:103B4000EA0466EE74E00E943B1D83E090E09093EF
:103B5000DE048093DD04DCC08093EB0466EE74E049
:103B60000E943B1D85E090E0F2CF8093EC0466EE6E
:103B700074E00E943B1D86E090E0E9CF8093ED0465
:103B800066EE74E00E943B1D8091E9048823C1F039
:103B900087E090E0DCCFE091DF0481E08E0F80933E
:103BA000DF04F0E0E251FB4F008366EE74E0802F0B
:103BB0000E943B1D9091DF048091E9049813A8C0F6
:103BC00088E090E0C4CFE091ED04F0E0E851FE4FD2
:103BD00066EE74E080810E943B1D402F50E02091F2
:103BE000E6043091E70433274217530741F08091F0
:103BF000DC048F5F8093DC041092DA041AC029E0A1
:103C000030E03093DE042093DD04E091DF04F0E047
:103C1000E251FB4F00837CC0482F50E02091E70425
:103C200030E042175307E9F08091DC048F5F809306
:103C3000DC0421E030E03093DE042093DD040E3F0D
:103C400009F066C082E090E09093DE048093DD048A
:103C50001092E9048FEF9FEF9093E7048093E604BE
:103C600057C081E08093DA0421E030E03093DE0435
:103C70002093DD04E091DF04F0E0E151FB4F00838D
:103C800080E191E0E6EEF4E0DE01119601900D9204
:103C90000197E1F76090EB042091EC04CE5DDE4FDC
:103CA0002883C252D1401091ED04C090F604D09008
:103CB000F704E090F804F090F904809102059091E7
:103CC0000305C05EDE4F99838883C052D140409087
:103CD0000405509005058090060590900705A0907A
:103CE0000805B090090590910A05C15EDE4F9883E2
:103CF000CF51D14020910B05C35EDE4F2883CD51BB
:103D0000D14080910C05C25EDE4F8883CE51D140F8
:103D10002091DA04213099F48091EA048093E00440
:103D20008091E2049091E304009721F41092E5045D
:103D30001092E40401969093E3048093E2042090AF
:103D4000DC04312C1092DC04222309F477C181E0D9
:103D50008093FA05183109F45EC078F51123A1F1BA
:103D6000113009F06BC16F89788D80E090E00E947E
:103D7000552820E030E04AE754E40E94BC276093D5
:103D8000C8047093C9048093CA049093CB04C25EA4
:103D9000DE4F2881CE51D140622F772767FD709585
:103DA000872F972F0E9457286093D0047093D104D7
:103DB0008093D2049093D30441C11E3109F40AC107
:103DC0001A3409F485C03AC16092FC05CE5DDE4F1D
:103DD0009881C252D1409093FB058D858093FD055B
:103DE00089858093D6041092D5041092D4048091D2
:103DF000FE059091FF05A0910006B0910106019685
:103E0000A11DB11D8093FE059093FF05A0930006B0
:103E1000B093010613C1898580938C048A858093B1
:103E20008D048B8580938E048C8580938F048D8583
:103E3000809390048E85809391048F858093920463
:103E4000888980939304C0929404D0929504E09260
:103E50009604F09297048D899E89AF89B88D8093DE
:103E6000980490939904A0939A04B0939B04898D2D
:103E70009A8DAB8DBC8D8093A0049093A104A093E8
:103E8000A204B093A30490929D0480929C04B092EB
:103E90009F04A0929E04C05EDE4F88819981C0522B
:103EA000D1409093A5048093A4045092A70440921B
:103EB000A604C15EDE4F9881CF51D1409093D804C3
:103EC000C35EDE4F2881CD51D1402093D704B6C0C8
:103ED0008D859E85AF85B8898093C4049093C50471
:103EE000A093C604B093C70489859A85AB85BC8529
:103EF0008093C0049093C104A093C204B093C30400
:103F0000698D7A8D882777FD8095982F0E94572894
:103F10006093BC047093BD048093BE049093BF046F
:103F20006B8D7C8D80E090E00E94552820E030E091
:103F300048EC52E40E94BC274B015C0120E030E0D9
:103F400040E85FE30E9465291816BCF420E030E0E9
:103F500040EC5FE3C501B4010E94B52787FF0DC0A7
:103F600080E090E0A0E8BFE38093B8049093B904A8
:103F7000A093BA04B093BB0424C020E030E0A901B0
:103F8000C501B4010E94B52787FD13C020E030E0D1
:103F900040EC5FE3C501B4010E94652918164CF09E
:103FA0008092B8049092B904A092BA04B092BB0473
:103FB00008C01092B8041092B9041092BA0410927A
:103FC000BB04C092A804D092A904E092AA04F09283
:103FD000AB0434C020EE3EE245E652E4C701B60130
:103FE0000E9470296093AC047093AD048093AE047A
:103FF0009093AF0420EE3EE245E652E46D857E8567
:104000008F8598890E9470296093B0047093B104E1
:104010008093B2049093B30420EE3EE245E652E46E
:104020006D897E898F89988D0E9470296093B40470
:104030007093B5048093B6049093B7048091F8050B
:104040009091F905820D931D9093F9058093F805E1
:10405000CD5EDE4F2881C351D1408091F60590910D
:10406000F705820F911D9093F7058093F6058091D7
:10407000FA05CE5DDE4F0FB6F894DEBF0FBECDBFA2
:10408000DF91CF911F910F91FF90EF90DF90CF9034
:10409000BF90AF909F908F906F905F904F903F90A8
:1040A0002F90089508958230E8F4E82FF0E0EE0FA5
:1040B000FF1FE458FE4F71836083813041F080918F
:1040C00069008C7F842B80936900E89A0895809121
:1040D0006900440F551F440F551F837F842B809325
:1040E0006900E99A08951F920F920FB60F9211245A
:1040F0002F933F934F935F936F937F938F939F93F0
:10410000AF93BF93EF93FF93E0917C01F0917D011A
:104110000995FF91EF91BF91AF919F918F917F9101
:104120006F915F914F913F912F910F900FBE0F9024
:104130001F9018951F920F920FB60F9211242F9374
:104140003F934F935F936F937F938F939F93AF931F
:10415000BF93EF93FF93E0917E01F0917F0109956A
:10416000FF91EF91BF91AF919F918F917F916F914F
:104170005F914F913F912F910F900FBE0F901F9025
:1041800018951F920F920FB60F9211242F933F9301
:104190008F939F93AF93BF938091030690910406F2
:1041A000A0910506B09106063091020623E0230F88
:1041B0002D3720F40196A11DB11D05C026E8230F5F
:1041C0000296A11DB11D20930206809303069093D1
:1041D0000406A0930506B093060680910706909109
:1041E0000806A0910906B0910A060196A11DB11D0D
:1041F0008093070690930806A0930906B0930A06D9
:10420000BF91AF919F918F913F912F910F900FBED2
:104210000F901F9018952FB7F89460910306709136
:10422000040680910506909106062FBF08953FB7BA
:10423000F8948091070690910806A0910906B09124
:104240000A0626B5A89B05C02F3F19F00196A11DAF
:10425000B11D3FBF6627782F892F9A2F620F711DDE
:10426000811D911D42E0660F771F881F991F4A9597
:10427000D1F708958F929F92AF92BF92CF92DF9223
:10428000EF92FF926B017C010E9417214B015C01B0
:10429000C114D104E104F104F1F00E94ED260E9462
:1042A0001721681979098A099B09683E73408105BD
:1042B000910570F321E0C21AD108E108F10888EEF7
:1042C000880E83E0981EA11CB11CC114D104E10426
:1042D000F10429F7DDCFFF90EF90DF90CF90BF90F2
:1042E000AF909F908F9008958230910538F0880F9D
:1042F000991F880F991F05970197F1F708957894F2
:1043000084B5826084BD84B5816084BD85B58260DA
:1043100085BD85B5816085BDEEE6F0E08081816078
:104320008083E1E8F0E01082808182608083808178
:1043300081608083E0E8F0E0808181608083E1EB50
:10434000F0E0808184608083E0EBF0E08081816038
:104350008083EAE7F0E080818460808380818260EE
:1043600080838081816080838081806880831092D7
:10437000C1000895833081F028F4813099F08230B3
:10438000A1F008958730A9F08830B9F08430D1F4D5
:10439000809180008F7D03C0809180008F77809313
:1043A0008000089584B58F7702C084B58F7D84BD69
:1043B00008958091B0008F7703C08091B0008F7D09
:1043C0008093B0000895CF93DF9390E0FC01E65C0A
:1043D000FD4F2491FC01E25BFD4F8491882349F15C
:1043E00090E0880F991FFC01EA58FD4FA591B49108
:1043F00084599D4FFC01C591D4919FB7611108C0AC
:10440000F8948C91209582238C93888182230AC012
:10441000623051F4F8948C91322F309583238C9331
:104420008881822B888304C0F8948C91822B8C9392
:104430009FBFDF91CF9108950F931F93CF93DF9389
:104440001F92CDB7DEB7282F30E0F901EA5DFD4FAE
:104450008491F901E65CFD4F1491F901E25BFD4F97
:1044600004910023C9F0882321F069830E94BA21B6
:104470006981E02FF0E0EE0FFF1FE459FD4FA59199
:10448000B4919FB7F8948C91611103C0109581236A
:1044900001C0812B8C939FBF0F90DF91CF911F9113
:1044A0000F910895CF93DF93282F30E0F901EA5D53
:1044B000FD4F8491F901E65CFD4FD491F901E25B77
:1044C000FD4FC491CC2391F081110E94BA21EC2FB1
:1044D000F0E0EE0FFF1FEE59FD4FA591B4912C9126
:1044E0002D2381E090E021F480E002C080E090E0A4
:1044F000DF91CF910895FC01818D228D90E0805C49
:104500009F4F821B91098F7399270895FC01918D0C
:10451000828D981731F0828DE80FF11D858D90E026
:1045200008958FEF9FEF0895FC01918D828D98176C
:1045300061F0828DDF01A80FB11D5D968C91928D87
:104540009F5F9F73928F90E008958FEF9FEF089584
:104550008AE394E2892B49F080E090E0892B29F0EE
:104560000E943A2481110C9400000895FC01848D6E
:10457000DF01A80FB11DA35ABF4F2C91848D90E08D
:1045800001968F739927848FA689B7892C93A08968
:10459000B1898C9180648C93938D848D981306C01F
:1045A0000288F389E02D80818F7D80830895CF93E9
:1045B000DF93EC01888D8823C9F0EA89FB8980812B
:1045C00085FD05C0A889B9898C9186FD0FC00FB6FD
:1045D00007FCF5CF808185FFF2CFA889B9898C913E
:1045E00085FFEDCFCE010E94B622E7CFDF91CF91BC
:1045F0000895CF92DF92FF920F931F93CF93DF9393
:104600001F92CDB7DEB76C0181E0D60158968C932E
:1046100058975B969C915B975C968C915C979813EE
:1046200007C05096ED91FC915197808185FD2EC079
:10463000F601038D10E00F5F1F4F0F731127F02E4F
:10464000F601848DF81211C00FB607FCF9CFD60120
:104650005096ED91FC915197808185FFF1CFC60175
:1046600069830E94B6226981EBCF838DE80FF11D2B
:10467000E35AFF4F6083D6015B960C935B9752968B
:10468000ED91FC915397808180620CC0D6015696C3
:10469000ED91FC91579760835096ED91FC91519765
:1046A00080818064808381E090E00F90DF91CF91E2
:1046B0001F910F91FF90DF90CF900895BF92CF92FE
:1046C000DF92EF92FF92CF93DF93EC016A017B01BF
:1046D000B22EE889F98982E08083411581EE58077E
:1046E00061057105A1F060E079E08DE390E0A7013C
:1046F00096010E94802A215031094109510956959D
:10470000479537952795211580E1380798F0E88976
:10471000F989108260E874E88EE190E0A7019601C3
:104720000E94802A21503109410951095695479527
:1047300037952795EC85FD853083EE85FF852083B1
:10474000188EEC89FD89B082EA89FB8980818061BD
:104750008083EA89FB89808188608083EA89FB897C
:10476000808180688083EA89FB8980818F7D808356
:10477000DF91CF91FF90EF90DF90CF90BF900895A1
:10478000CF93DF93EC01E881F9810284F385E02D7A
:104790000995EA89FB8980818F7E8083EA89FB897C
:1047A0008081877F8083EA89FB8980818F778083FE
:1047B000EA89FB8980818F7D80838A8D898FDF9153
:1047C000CF9108951F920F920FB60F9211242F933D
:1047D0008F939F93EF93FF93E0911B06F0911C063C
:1047E0008081E0912106F091220682FD12C0908125
:1047F000809124068F5F8F7320912506821751F0D8
:10480000E0912406F0E0E55FF94F958F8093240650
:1048100001C08081FF91EF919F918F912F910F9017
:104820000FBE0F901F9018951F920F920FB60F9208
:1048300011242F933F934F935F936F937F938F93A5
:104840009F93AF93BF93EF93FF938BE096E00E940B
:10485000B622FF91EF91BF91AF919F918F917F9180
:104860006F915F914F913F912F910F900FBE0F90DD
:104870001F9018958BE096E00E947B2221E0892B07
:1048800009F420E0822F089510920E0610920D0672
:1048900088EE93E0A0E0B0E080930F0690931006BE
:1048A000A0931106B09312068CEE92E090930C0642
:1048B00080930B0685EC90E0909318068093170682
:1048C00084EC90E090931A068093190680EC90E0B7
:1048D00090931C0680931B0681EC90E090931E063B
:1048E00080931D0682EC90E09093200680931F0633
:1048F00086EC90E090932206809321061092240685
:104900001092250610922606109227060895CF923F
:10491000DF92EF92FF920F931F93CF93DF937C016F
:104920006A01EB0100E010E00C151D0571F06991C2
:10493000D701ED91FC910190F081E02DC70109951F
:10494000892B19F00F5F1F4FEFCFC801DF91CF9177
:104950001F910F91FF90EF90DF90CF900895611518
:10496000710581F0DB010D900020E9F7AD014150A8
:104970005109461B570BDC01ED91FC910280F3813C
:10498000E02D099480E090E00895EF92FF920F935C
:104990001F93CF93DF938C017B01C0E0D0E0F70140
:1049A000EC0FFD1F6491662359F0F801A081B181DD
:1049B000ED91FC91C8010995892B11F02196EFCF5B
:1049C000CE01DF91CF911F910F91FF90EF9008954D
:1049D0000C94AF24DC01ED91FC910190F081E02D6D
:1049E000099468EF72E00C94AF240F931F93CF9358
:1049F000DF93EC010E94C5248C01CE010E94F124BA
:104A0000800F911FDF91CF911F910F9108958F9289
:104A10009F92AF92BF92DF92EF92FF920F931F93FC
:104A2000CF93DF93CDB7DEB7A1970FB6F894DEBF73
:104A30000FBECDBF7C01F42FD52ECB0119A22230A1
:104A400008F42AE08E010F5D1F4F822E912CA12CBD
:104A5000B12C6F2F7D2DA50194010E94802AF22F89
:104A6000D32ECA01015011096A3014F4E0E301C0E9
:104A7000E7E3E60FD801EC93232B242B252B49F7F2
:104A8000B801C7010E94AF24A1960FB6F894DEBF0B
:104A90000FBECDBFDF91CF911F910F91FF90EF908F
:104AA000DF90BF90AF909F908F900895CF92DF924C
:104AB000EF92FF920F931F93CF93DF93EC016A0164
:104AC0007B012115310579F4E881F9810190F081AC
:104AD000E02D642FDF91CF911F910F91FF90EF9008
:104AE000DF90CF9009942A303105E9F477FF1AC09E
:104AF0006DE20E94EA248C0144275527BA014C1923
:104B00005D096E097F092AE0CE010E940725800F0A
:104B1000911FDF91CF911F910F91FF90EF90DF9048
:104B2000CF9008952AE0B701A601CE01DF91CF9181
:104B30001F910F91FF90EF90DF90CF900C9407257D
:104B40009A01AB01662757FD6095762F0C94562588
:104B50000F931F93CF93DF93EC019A01AB0166276C
:104B600057FD6095762F0E9456258C01CE010E943C
:104B7000F124800F911FDF91CF911F910F91089524
:104B80002115310541F4DC01ED91FC910190F0819A
:104B9000E02D642F09940C9407259A01462F50E0CC
:104BA00060E070E00C94C0259A01AB0160E070E019
:104BB0000C94C0254F925F926F927F928F929F923A
:104BC000AF92BF92CF92DF92EF92FF920F931F931B
:104BD000CF93DF93EC016A017B01B22E9A01AB0106
:104BE000C701B6010E941E2A882319F06BEF72E0FC
:104BF00027C026013701E89477F82FEF3FEF4FE702
:104C00005FE7C301B2010E941E2A81110DC02FEF80
:104C10003FEF4FE75FE7C301B2010E94B5271816C7
:104C20001CF46FEF72E00CC02FEF3FEF4FE75FE433
:104C3000C701B6010E9465291816ACF463E073E061
:104C4000CE01DF91CF911F910F91FF90EF90DF90F8
:104C5000CF90BF90AF909F908F907F906F905F901C
:104C60004F900C94AF242FEF3FEF4FE75FECC7015D
:104C7000B6010E94B52787FDE1CF20E030E0A90111
:104C8000C701B6010E94B52787FF0AC06DE2CE01B9
:104C90000E94EA248C01F7FAF094F7F8F09402C02D
:104CA00000E010E0A12C60E070E080E09FE3AB1436
:104CB00041F020E030E040E251E40E94BC27A394A0
:104CC000F6CF9B01AC01C701B6010E94EF266B0134
:104CD0007C010E9429282B013C010E9455289B0140
:104CE000AC01C701B6010E94EE266B017C012AE0EF
:104CF000B301A201CE010E940725080F191FBB2096
:104D000039F067E073E0CE010E94AF24080F191F4D
:104D10007B2C772041F120E030E040E251E4C701F4
:104D2000B6010E9470296B017C010E9424284B016E
:104D3000AA2497FCA094BA2C2AE030E0B501A40183
:104D4000CE010E945625080F191FC501B4010E940B
:104D500057289B01AC01C701B6010E94EE266B01EA
:104D60007C017A94D6CFC801DF91CF911F910F912A
:104D7000FF90EF90DF90CF90BF90AF909F908F907B
:104D80007F906F905F904F9008950C94DA250F9369
:104D90001F93CF93DF93EC010E94DA258C01CE01A3
:104DA0000E94F124800F911FDF91CF911F910F91ED
:104DB000089508950E947F210E94D9260E94DB0A4F
:104DC000C8EAD2E20E94D70E2097E1F30E94A822FF
:104DD000F9CF0C94E92A0C94812B08955058BB27E5
:104DE000AA270ED027C2F0D130F0F5D120F031F44F
:104DF0009F3F11F41EF4C0C10EF4E095E7FBB6C16D
:104E0000E92F3AD280F3BA17620773078407950730
:104E100018F071F49EF552C20EF4E0950B2EBA2FE5
:104E2000A02D0B01B90190010C01CA01A0011124B0
:104E3000FF27591B99F0593F50F4503E68F11A165C
:104E4000F040A22F232F342F4427585FF3CF4695ED
:104E500037952795A795F0405395C9F77EF41F160F
:104E6000BA0B620B730B840BBAF09150A1F0FF0FD9
:104E7000BB1F661F771F881FC2F70EC0BA0F621FC5
:104E8000731F841F48F4879577956795B795F795B5
:104E90009E3F08F0B3CF9395880F08F09927EE0F47
:104EA00097958795089590D158F080E891E009F49E
:104EB0009EEF91D128F040E851E059F45EEF09C02F
:104EC0005BC1FCC1E92FE078D7D168F3092E052A30
:104ED000C1F3261737074807590738F00E2E07F891
:104EE000E02569F0E025E0640AC0EF6307F800946C
:104EF00007FADB01B9019D01DC01CA01AD01EF93A5
:104F00004AD098D10AD05F91552331F02BED3FE084
:104F100049E450FD49EC63CF0895DF93DD27B92FB5
:104F2000BF7740E85FE31616170648075B0710F4E3
:104F3000D92FCFD19F938F937F936F937CD2E0EE45
:104F4000F0E01DD177D12F913F914F915F91D4D156
:104F5000DD2349F09058A2EA2AED3FE049EC5FE3F7
:104F6000D0785D274DDFDF9165C1DCD008F481E0AA
:104F7000089539D1E3956FC10CD05CC12CD140F0BC
:104F800023D130F021F45F3F19F0F0C0511197C1E7
:104F9000F3C072D198F39923C9F35523B1F3951B4C
:104FA000550BBB27AA2762177307840738F09F5F4A
:104FB0005F4F220F331F441FAA1FA9F333D00E2EB9
:104FC0003AF0E0E830D091505040E695001CCAF726
:104FD00029D0FE2F27D0660F771F881FBB1F2617EB
:104FE00037074807AB07B0E809F0BB0B802DBF01BE
:104FF000FF2793585F4F2AF09E3F510568F0B6C0D7
:105000005EC15F3FECF3983EDCF38695779567953C
:10501000B795F7959F5FC9F7880F911D969587956E
:1050200097F90895E1E0660F771F881FBB1F62178D
:1050300073078407BA0720F0621B730B840BBA0B4B
:10504000EE1F88F7E095089504D06894B11137C138
:1050500008951AD188F09F5790F0B92F9927B7512A
:10506000A0F0D1F0660F771F881F991F1AF0BA952C
:10507000C9F712C0B13081F021D1B1E008951EC14D
:10508000672F782F8827B85F39F0B93FCCF3869522
:1050900077956795B395D9F73EF49095809570957F
:1050A00061957F4F8F4F9F4F0895E89409C097FBFC
:1050B0003EF490958095709561957F4F8F4F9F4FEF
:1050C0009923A9F0F92F96E9BB279395F695879533
:1050D00077956795B795F111F8CFFAF4BB0F11F4F6
:1050E00060FF1BC06F5F7F4F8F4F9F4F16C088239D
:1050F00011F096E911C0772321F09EE8872F762FD3
:1051000005C0662371F096E8862F70E060E02AF013
:105110009A95660F771F881FDAF7880F96958795FF
:1051200097F90895990F0008550FAA0BE0E8FEEFD4
:1051300016161706E807F907C0F012161306E4075B
:10514000F50798F0621B730B840B950B39F40A2654
:1051500061F0232B242B252B21F408950A2609F432
:10516000A140A6958FEF811D811D089597F99F6736
:1051700080E870E060E008959FEF80EC0895DF9391
:10518000CF931F930F93FF92EF92DF927B018C01DD
:10519000689405C0DA2EEF01AFD0FE01E894A59126
:1051A0002591359145915591AEF3EF0129DEFE0130
:1051B0009701A801DA9479F7DF90EF90FF900F91B3
:1051C0001F91CF91DF91089500240A9416161706B7
:1051D00018060906089500240A94121613061406E8
:1051E00005060895C9CF50D0E8F3E894E0E0BB2766
:1051F0009F57F0F02AED3FE049EC06C0EE0FBB0FE1
:10520000661F771F881F28F0B23A6207730784076A
:1052100028F0B25A620B730B840BE3959A9572F7E0
:10522000803830F49A95BB0F661F771F881FD2F71E
:1052300090480AC1092E0394000C11F4882352F0FF
:10524000BB0F40F4BF2B11F460FF04C06F5F7F4FB2
:105250008F4F9F4F0895EF93E0FF06C0A2EA2AED1B
:105260003FE049EC5FEBCCDDE5DF0F90039401FC00
:105270009058EDE0F1E0FBC057FD9058440F551FEA
:1052800059F05F3F71F04795880F97FB991F61F0C8
:105290009F3F79F087950895121613061406551F3F
:1052A000F2CF4695F1DF08C0161617061806991FAB
:1052B000F1CF86957105610508940895E894BB27A0
:1052C00066277727CB0197F908952CDF08F48FEF35
:1052D00008959B01AC0160E070E080E89FE34CCE54
:1052E0000BD0A8CF71DF28F076DF18F0952309F0F6
:1052F0003DCF42CF1124E3CFBFDFA0F3959FD1F381
:10530000950F50E0551F629FF001729FBB27F00D73
:10531000B11D639FAA27F00DB11DAA1F649F6627C8
:10532000B00DA11D661F829F2227B00DA11D621F17
:10533000739FB00DA11D621F839FA00D611D221FD1
:10534000749F3327A00D611D231F849F600D211DB5
:10535000822F762F6A2F11249F5750408AF0E1F058
:1053600088234AF0EE0FFF1FBB1F661F771F881FA1
:1053700091505040A9F79E3F510570F0F7CE9FCF56
:105380005F3FECF3983EDCF3869577956795B7958C
:10539000F795E7959F5FC1F7FE2B880F911D9695B6
:1053A000879597F908959F931EDF0F9007FCEE5F96
:1053B00052CF11F40EF4E0CE45C066DFD0F399234E
:1053C000D9F3CEF39F57550B87FF4AD00024A0E6B0
:1053D00040EA900180585695979528F4805C660FB6
:1053E000771F881F20F026173707480730F4621B05
:1053F000730B840B202931294A2BA6951794079407
:10540000202531254A2758F7660F771F881F20F07F
:1054100026173707480730F4620B730B840B200DF7
:10542000311D411DA09581F7B901842F9158880F36
:105430009695879508959B01AC0152CF73DE880B3A
:10544000990B08959F3F31F0915020F487957795FF
:105450006795B795880F911D9695879597F908954B
:1054600091505040660F771F881FD2F708959F9381
:105470008F937F936F93FF93EF939B01AC0130DF8A
:10548000EF91FF917CDE2F913F914F915F9128CF5B
:10549000DB018F939F930E94D62ABF91AF91A29F69
:1054A000800D911DA39F900DB29F900D1124089522
:1054B000AA1BBB1B51E107C0AA1FBB1FA617B7073A
:1054C00010F0A61BB70B881F991F5A95A9F7809556
:1054D0009095BC01CD01089597FB072E16F400941A
:1054E00007D077FD09D00E94582A07FC05D03EF46A
:1054F000909581959F4F0895709561957F4F089580
:10550000A1E21A2EAA1BBB1BFD010DC0AA1FBB1FC7
:10551000EE1FFF1FA217B307E407F50720F0A21B39
:10552000B30BE40BF50B661F771F881F991F1A94A6
:1055300069F760957095809590959B01AC01BD01D0
:10554000CF010895052E97FB1EF400940E94B92AFE
:1055500057FD07D00E94802A07FC03D04EF40C941C
:10556000B92A50954095309521953F4F4F4F5F4F49
:10557000089590958095709561957F4F8F4F9F4FBF
:105580000895EE0FFF1F0590F491E02D0994A29F5E
:10559000B001B39FC001A39F700D811D1124911D07
:1055A000B29F700D811D1124911D08950E94C72A7C
:1055B000A59F900DB49F900DA49F800D911D112467
:1055C0000895B7FF0C94D62A0E94D62A821B930B0B
:1055D0000895CF93DF938230910510F482E090E03C
:1055E000E091AA06F091AB0620E030E0A0E0B0E048
:1055F000309739F14081518148175907B8F0481761
:10560000590771F482819381109729F013969C9326
:105610008E9312972CC09093AB068093AA0627C056
:105620002115310531F04217530718F0A901DB01AC
:1056300001C0EF019A01BD01DF010280F381E02D7D
:10564000D7CF21153105F9F0281B390B243031054E
:1056500080F48A819B816115710521F0FB019383A0
:10566000828304C09093AB068093AA06FE01329613
:1056700044C0FE01E20FF31F819391932250310940
:10568000398328833AC02091A8063091A906232B9C
:1056900041F420910201309103013093A906209337
:1056A000A80620910001309101012115310541F436
:1056B0002DB73EB74091040150910501241B350BD5
:1056C000E091A806F091A906E217F307A0F42E1BBB
:1056D0003F0B2817390778F0AC014E5F5F4F241756
:1056E000350748F04E0F5F1F5093A9064093A80658
:1056F0008193919302C0E0E0F0E0CF01DF91CF9180
:105700000895CF93DF93009709F487C0FC01329787
:1057100013821282C091AA06D091AB06209781F421
:1057200020813181280F391F8091A8069091A90608
:105730008217930779F5F093A906E093A8066DC048
:10574000DE0120E030E0AE17BF0750F412964D9115
:105750005C9113979D014115510509F1DA01F3CFD1
:10576000B383A28340815181840F951F8A179B07C1
:1057700071F48D919C911197840F951F02969183DE
:10578000808312968D919C91139793838283211528
:10579000310529F4F093AB06E093AA063EC0D90187
:1057A0001396FC93EE9312974D915D91A40FB51F44
:1057B000EA17FB0779F480819181840F951F029687
:1057C000D90111969C938E938281938113969C9319
:1057D0008E931297E0E0F0E08A819B81009719F0A8
:1057E000FE01EC01F9CFCE01029628813981820FAA
:1057F000931F2091A8063091A9062817390769F44C
:10580000309729F41092AB061092AA0602C01382B8
:105810001282D093A906C093A806DF91CF91089574
:105820008F929F92AF92BF92CF92DF92EF92FF92B0
:10583000CF93DF93EC01688179818A819B81611527
:1058400071058105910521F464E279ED8BE597E01E
:105850002DE133EF41E050E00E94A22A49015A01B4
:105860009B01AC01A7EAB1E40E94D62A6B017C013E
:10587000ACEEB4EFA50194010E94E42AC60ED71E37
:10588000E81EF91EF7FE06C081E0C81AD108E1083B
:1058900080E8F80AC882D982EA82FB82C701B60191
:1058A0009F77DF91CF91FF90EF90DF90CF90BF90E7
:1058B000AF909F908F9008950E94102C089586E0DD
:1058C00091E00E94102C08956093060170930701E7
:1058D000809308019093090108951F93FC01992773
:1058E0008827BC01E89411911032E9F3193010F0C7
:1058F0001E30C8F31B3251F01D3249F4689406C0C3
:105900000E94B32C610F711D811D911D11911053C7
:105910001A30B0F33EF490958095709561957F4F65
:105920008F4F9F4F1F910895FB01DC018D910190D6
:1059300080190110D9F3990B0895FB01DC01019046
:105940000D920020E1F70895FB01DC014150504029
:1059500048F001900D920020C9F701C01D924150FE
:105960005040E0F70895592F482F372F262F660F04
:10597000771F881F991F660F771F881F991F620F57
:10598000731F841F951F660F771F881F991F089527
:10599000F999FECF92BD81BDF89A992780B50895F7
:1059A000262FF999FECF1FBA92BD81BD20BD0FB63B
:1059B000F894FA9AF99A0FBE0196089512E0C6E893
:1059C000D2E004C0FE010E94C32A2296C838D10743
:0659D000C9F7F894FFCFB7
:1059D6000000AC06800001000000802500000540A4
:1059E6000AA1204EA50020244EA52C2330C012006B
:1059F600001A400AA1204EA5001B1E27522C233058
:105A06008025000005400AA1204EA50020244EA5B1
:105A16002C2330004B000006400AD0009D49007B35
:105A2600289D492C233000E1000005400A4501D796
:105A3600DC03B81E0EBF00232E48E801008A400A88
:105A46006001555502AD1E20000023C85220522089
:105A56003000474E524D4300000000007F012C0DE0
:105A6600330A7F0AAA0DC60D3A0ED809A50E830180
:105A7600160A132231296C61743D00206C6F6E6723
:105A86003D00206E733D002068646F703D00474EF8
:105A9600474741004E004E4E4500454E4500455392
:105AA600450053534500530053535700575357006F
:105AB600574E57004E4E5700327C8900EDD9687715
:105AC600000000590000000000000000D69FDCA87E
:105AD6001817AA90437327F6B968EDF4F2D409FEB5
