:100000000C946D000C94CA0F0C94F70F0C9495008F
:100010000C9495000C94BA070C9495000C949500E0
:100020000C9495000C9495000C9495000C949500FC
:100030000C9495000C9495000C9495000C949500EC
:100040000C9434100C9495000C94CE010C9409027D
:100050000C9495000C9495000C9495000C949500CC
:100060000C9495000C9495002809280934094A0934
:1000700040095809660974098E09C709000000087B
:10008000000201000003040700000000000000005F
:10009000010204081020408001020408102001021F
:1000A00004081020040404040404040402020202EC
:1000B00002020303030303030000000023002600E1
:1000C000290000000000250028002B00000000008F
:1000D000240027002A00F600950811241FBECFEF48
:1000E000D8E0DEBFCDBF15E0A0E0B1E0EEE1FBE27D
:1000F00002C005900D92AE3EB107D9F72CE0AEEEEE
:10010000B5E001C01D92A638B207E1F710E0CAEDD4
:10011000D0E004C02297FE010E94B313C63DD10770
:10012000C9F70E9425100C948D150C9400000F93B4
:100130001F93FC010FEF1FEF9801008311832283AF
:10014000338310861186128613864FEF59EC6AE9C5
:100150007BE3408B518B628B738B408F518F628F0F
:10016000738F40A351A362A373A340A751A762A7B3
:1001700073A740AB51AB62AB73AB00AF11AF22AF13
:1001800033AFDC01A05CBF4F8FEF90E011969C93E2
:100190008E9314960D931D932D933C93139718965D
:1001A0000D931D932D933C93139718961C921196C3
:1001B0001C92509686E08C9311961C9211961C927C
:1001C00011961C92A659BF4F1D921D921D921C9212
:1001D0001397149611961C921E9212961D921C92C1
:1001E000EA5AFF4F10821F910F910895EEEEF5E04D
:1001F0008FEF9FEF918780873C9626E0EA32F207E7
:10020000C9F70895FB019081982780E1989F90019C
:1002100011242927822F90E0382F2227AC0163E098
:10022000440F551F6A95E1F724273527418150E097
:100230002427352774E0959587957A95E1F7282747
:10024000392731832083089580914F0C813019F430
:1002500082E080934F0C80914F0C833019F484E03E
:1002600080934F0C0895A8950895CF92DF92EF9256
:10027000FF920F931F93CF93DF938B01EA0182309C
:10028000910579F02CF40097A9F10197F9F067C076
:1002900083309105D9F0059709F061C081E088832A
:1002A0005EC08881882341F10E947E10F801C080E1
:1002B000D180E280F3806C197D098E099F09693E27
:1002C00073408105910508F042C016C088818111F4
:1002D00027C00E947E10F801C080D180E280F380A8
:1002E0006C197D098E099F09693E7340810591054E
:1002F00058F516C0188233C08881811130C00E9421
:100300007E10F801C080D180E280F3806C197D09F5
:100310008E099F09613B744081059105A8F41FC0B7
:1003200088818823E1F00E947E10F801C080D1808E
:10033000E280F3806C197D098E099F09693C710583
:100340008105910520F40BC081E0888301C01882EB
:100350000E947E10F8016083718382839383DF9112
:10036000CF911F910F91FF90EF90DF90CF90089564
:100370006115710581F0DB010D900020E9F7AD01F9
:1003800041505109461B570BDC01ED91FC91028055
:10039000F381E02D099480E090E008951F920F9280
:1003A0000FB60F9211242F933F934F938F939F93E8
:1003B000EF93FF934091C60080916D0C90916E0C6D
:1003C00001962091710C3091720C8223932320911D
:1003D0006F0C3091700C8217930779F020916D0C9F
:1003E00030916E0CE091730CF091740CE20FF31FDE
:1003F000408390936E0C80936D0CFF91EF919F91D1
:100400008F914F913F912F910F900FBE0F901F90A2
:1004100018951F920F920FB60F9211242F933F93AE
:100420008F939F93EF93FF932091670C3091680C0B
:100430008091650C9091660C28173907E9F080913E
:10044000670C9091680CE0916B0CF0916C0CE80FCC
:10045000F91F80818093C6008091670C9091680C91
:1004600001962091690C30916A0C8223932390931A
:10047000680C8093670C10C02091650C3091660C5D
:100480008091670C9091680C2817390729F48091A6
:10049000C1008F7D8093C100FF91EF919F918F915B
:1004A0003F912F910F900FBE0F901F90189560E015
:1004B00089E00E94441161E088E00E94441161E0FB
:1004C00087E00E94441160E082E00E94441161E0F4
:1004D00084E00C94441142E050E064E271E080E07A
:1004E0000C94AA0F61E08AE00E94441160E08AE067
:1004F0000C947D1160E08AE00C947D11E3E0F0E063
:1005000089E080935700E491E67081E0E63009F0DD
:1005100080E00895CF93DF93C82F0E947E02882346
:1005200081F0DFB781E08093310CF8940E943301B1
:1005300088E180936000C0936000C1110E94330184
:10054000DFBFDF91CF9108952091EB0B3091EC0B41
:10055000382748E0C901880F991F37FF06C09C0162
:1005600051E2252750E1352701C09C01415091F708
:100570003093EC0B2093EB0B0895D82FC0E0CD17F0
:1005800080F42D9A64E670E080E090E00E94AD1067
:100590002D9864E670E080E090E00E94AD10CF5F9F
:1005A000EECF6CE271E080E090E00E94AD10E6CF0B
:1005B0000F931F93CF93DF93EC01062F15E011509B
:1005C00051F0CE010E947715081741F0602FCE013F
:1005D0000E947F15F4CF82E00E94BD02DF91CF918F
:1005E0001F910F9108954F925F926F927F928F9219
:1005F0009F92AF92BF92CF92DF92EF92FF920F93B2
:100600001F93CF93DF93482E562EC0E0D0E0612C8D
:10061000712CE12CF12C00E010E041100CC0609036
:10062000300C87E4689E3001112409E1E02EF12CA2
:1006300007E11CE01EC091E049120FC06090300C31
:10064000E7E46E9E30011124FBE16F0E711C1AE28B
:10065000E12EF12C0DEE1BE00CC082E0481209C027
:10066000ACE16A2E77247394EE24E394F12C00E33A
:100670001CE043018C0E9D1E1092EC0B1092EB0BB4
:100680003401A62CA818B12CC30101966C01AE143C
:10069000BF04A8F4A00EB11E511006C0C3010E94F1
:1006A0007715F501808305C0F5016081C3010E94C3
:1006B000D802F50180810E94A4023601E2CFC30175
:1006C000511018C0C3010E947715B82EC6010E94B0
:1006D00077152B2D30E0322F2227282B8091EB0B22
:1006E0009091EC0B8217930779F4C0E0D0E0552489
:1006F000539493CF36016091EC0B0E94D802609125
:10070000EB0BC6010E94D802C05EDE4FC13E92E0F4
:10071000D90708F482CF852DDF91CF911F910F91DA
:10072000FF90EF90DF90CF90BF90AF909F908F9011
:100730007F906F905F904F90089587E38093ED0BCB
:1007400080E092ECA1E0B0E08093EE0B9093EF0B91
:10075000A093F00BB093F10B89E08093160C87E027
:100760008093FA0B80EC92E9ADEEB9E18093F20B45
:100770009093F30BA093F40BB093F50B85E080936B
:10078000FB0B8DEE9EEFADEABEED8093F60B9093E2
:10079000F70BA093F80BB093F90BECEFFBE080E0C4
:1007A00090E0863028F4DC01A254BA4F2C9101C0AD
:1007B00020E0219301968831910599F782E080939A
:1007C000140C8AE08093150C089561E082E00C948B
:1007D000F30260E082E00E94F3028091300C8430EA
:1007E00020F01092300C0C94E503089580EC91ED0C
:1007F000A8E9BBE18093180C9093190CA0931A0CF4
:10080000B0931B0C80E090E0A0E0B0E580931C0C5E
:1008100090931D0CA0931E0CB0931F0CE0E2FCE023
:1008200080E081938F5F8031E1F708958F929F92EE
:10083000AF92BF92CF92DF92EF92FF920F931F93EE
:10084000CF93DF930E948A10611571058105910590
:10085000C9F30E9454151092F60B1092F70B1092E8
:10086000F80B1092F90BC4E0C12CD12C7601CA947C
:100870008090F60B9090F70BA090F80BB090F90BCE
:10088000BA2CA92C982C88240E944F15A7019601F8
:100890000E949213680D791D8A1D9B1D6093F60BB3
:1008A0007093F70B8093F80B9093F90BC15001F7FD
:1008B0000CEF1BE0E801C12CD12C82E3882E912C97
:1008C000A12CB12C90E1E92E97E2F92E88818823A2
:1008D00009F451C0D39471F4DF91CF911F910F911E
:1008E000FF90EF90DF90CF90BF90AF909F908F9050
:1008F0000C949D030E944F15A50194010E94921330
:1009000021E0260FECEFFBE08E2F801B8C1520F4EE
:1009100081918213F9CFDECF4091FB0B249FA00180
:1009200011244E9DC0014F9D900D5E9D900D112490
:10093000AA2797FDA095BA2F4091F20B5091F30B87
:100940006091F40B7091F50B840F951FA61FB71FD4
:100950004091180C5091190C60911A0C70911B0C5D
:10096000481759076A077B0708F4B4CF2993C39443
:1009700088E1C812ABCFDF91CF911F910F91FF900B
:10098000EF90DF90CF90BF90AF909F908F900895A1
:1009900061E080E00E94F30261E081E00C94F302E8
:1009A00060E080E00E94F302882331F060E081E0A3
:1009B0000E94F302811108C00E94F6030E949D0369
:1009C0000E9416040C94C8040895803223E0920714
:1009D00020F1883E23E0920740F48F51934064E079
:1009E000969587956A95E1F70895803D27E09207EF
:1009F00018F48C5D93400895883928E0920750F4EC
:100A0000885C974054E0969587955A95E1F78D500C
:100A10009C4F08958FEF93E0089580E090E0089553
:100A20005F98882319F00000289A02C000002898D7
:100A300000005F9A000008955F9A000083B15F98FC
:100A40000000869581700895CF93DF93D82F5C9A2C
:100A50005F985C98C8E08D2F80780E941005DD0FAC
:100A6000C150C9F75F98DF91CF9108958F770C94AB
:100A70002405CF93DF93D82FC8E08D2F80780E9474
:100A80001005DD0FC150C9F75F98DF91CF91089530
:100A9000CF93DF935F98C8E080E0D82FDD0F0E94EE
:100AA0001C058D0FC150C9F7DF91CF9108950E94A9
:100AB00036050E9448055C9A0895CF93DF931F92F4
:100AC000CDB7DEB7806869830E9424056981862FCF
:100AD0000E9439055C9A0F90DF91CF910895CF93D2
:100AE000C091F60BC827E82FF0E0E351F44F67857B
:100AF00089E70E945D056C2F8DE30E945D056C2FD8
:100B000082E4CF910C945D05CF93DF93EC016C816F
:100B10008CE10E945D056D818DE10E945D056E8115
:100B20008EE10E945D056F8180E20E945D0568850F
:100B300081E20E945D05698582E20E945D056A8509
:100B400083E20E945D056B8584E20E945D056C85F1
:100B500085E20E945D056D858AE20E945D056E85D5
:100B60008EE60E945D056F858FE60E945D056889AF
:100B700080E70E945D05698981E70E945D056A89B9
:100B800082E7DF91CF910C945D05CF92DF92EF92D7
:100B9000FF92CF93DF936B017C01C11488E3D806E9
:100BA0008CE9E8068CE1F80628F5C701B60120E8D3
:100BB00036E948E950E00E947013E901689760E85F
:100BC00079E687E69FEF0E9460136C0D7D1D8E1DF8
:100BD0009F1D32E0660F771F881F991F3A95D1F746
:100BE00021E732E040E050E00E947013F22EE32E45
:100BF00080E421C0C701B60120E03DE241E351E0BD
:100C00000E947013E901689760E073ED8EEC9EEF2F
:100C10000E9460136C0D7D1D8E1D9F1D660F771F3A
:100C2000881F991F21E732E040E050E00E947013D6
:100C3000F22EE32E80E66C2F6F71680F85E70E941D
:100C40005D056E2D86E70E945D056F2D87E7DF91BC
:100C5000CF91FF90EF90DF90CF900C945D058F9235
:100C60009F92AF92BF92CF92DF92EF92FF92CF937B
:100C7000DF93D82F83E00E9457058093EA0B84E02E
:100C80000E9457058093E90B60E086E00E945D05B5
:100C900061E087E00E945D056FE789E00E945D05E5
:100CA00065E08AE00E945D0562E18BE00E945D05DF
:100CB00065E18CE00E945D056DEF8DE00E945D05B1
:100CC00060E08EE00E945D05DD2319F08FE291E087
:100CD00008C02091140C33E1239FC00111248E5BC6
:100CE0009E4F0E9484056CE880E30E945D056FE0E2
:100CF00082E30E945D0562E483E30E945D056AE091
:100D000084E30E945D056AE285E30E945D056DE271
:100D100086E30E945D0564ED87E30E945D0560E067
:100D200088E30E945D0560E089E30E945D05D111C2
:100D300009C0C090F60BD090F70BE090F80BF09044
:100D4000F90B07C065E8C62E61ECD62EED2C6EEDD2
:100D5000F62ECAE38F2C9924AA24BB24682D8C2F4D
:100D60000E945D05682D85E08C0F0E945D05FE2CBC
:100D7000ED2CDC2CCC24CF5FCE3361F76FEF83E416
:100D80000E945D056FEF84E40E945D056FEF85E4CE
:100D90000E945D056FEF86E40E945D05DD2311F082
:100DA00066E002C06091FA0B8DE60E945D0560E08E
:100DB00089E70E945D056091FB0B8AE70E945D0553
:100DC00060E083E70E945D0560E084E70E945D05C6
:100DD000D11109C06091F20B7091F30B8091F40B6B
:100DE0009091F50B04C060EC72E98DEE99E1DF9112
:100DF000CF91FF90EF90DF90CF90BF90AF909F90FA
:100E00008F900C94C50561E087E00E945D0564E267
:100E10008EE70E945D0563E088E00E945D0560E06A
:100E200088E00E945D0565E087E00E945D0562E064
:100E300085E00E945D0583E00E9457058093EA0BE0
:100E400084E00E9457058093E90B08952C982D9A11
:100E500083E00E9457058093EA0B84E00E945705C7
:100E60008093E90B60E086E00E945D0561E087E029
:100E70000E945D056FE789E00E945D0565E08AE0FC
:100E80000E945D0562E18BE00E945D0565E18CE0FA
:100E90000E945D056DEF8DE00E945D0560E08EE0D3
:100EA0000E945D056CE280E70E945D0560E080E3E2
:100EB0000E945D0560E089E70E945D0565E08AE7C4
:100EC0000E945D0562E181E70E945D0562E082E7C4
:100ED0000E945D0560E083E70E945D0560E084E7B5
:100EE0000E945D056EE078E786E99AE10E94C505FB
:100EF00067E08DE60E945D056AE070E080E090E0CA
:100F00000E94AD1069E087E00E945D056AE070E034
:100F100080E090E00C94AD10CF93DF93EC014AE0B9
:100F200050E06D2F70E082E39CE00E94A40F6EE21F
:100F300082E39CE00E94D10EBE01E4E076956795C5
:100F4000EA95E1F76F7077274AE050E082E39CE092
:100F50000E94A40F6EE282E39CE00E94D10EBE01CB
:100F60006F7077274AE050E082E39CE0DF91CF91F9
:100F70000C94A40F1F920F920FB60F9211240F938F
:100F80001F932F933F934F935F936F937F938F9311
:100F90009F93AF93BF93EF93FF9340911C0C50919D
:100FA0001D0C60911E0C70911F0C89B18A019B0170
:100FB000007411272227332783FB882780F990E0CC
:100FC000A0E0B0E0081719072A073B0709F468C03A
:100FD0008091840090918500109285001092840089
:100FE0002091BA0A21115CC045FD02C096958795F3
:100FF000853C29E09207C0F180910A0190E0A0E0D1
:10100000B0E01CE176956795579547951A95D1F70D
:10101000411551056105710521F441E050E060E0A2
:1010200070E0481759076A077B07D8F480910A01D6
:101030008F3FB9F040E080910A01481780F4842F77
:1010400090E0880F991FFC01E656F54F2081318111
:10105000FC01E15FFE4F318320834F5FECCF1092A4
:10106000BB0A10920A011CC08D3B22E09207A8F037
:1010700020910A01203188F410910A0121E0210F0A
:1010800020930A010E94E504E12FF0E0EE0FFF1F1C
:10109000E656F54F9183808303C08FEF80930A015A
:1010A000FF91EF91BF91AF919F918F917F916F9140
:1010B0005F914F913F912F911F910F910F900FBE14
:1010C0000F901F90189583E0809380008AE18093B1
:1010D00081008FEF9FEF909389008093880010929A
:1010E0006F0088E080936D00E8E6F0E08081846026
:1010F00080830895CF93DF93C0E0D0E061E08AE081
:101100000E947D118BE797E00E94D51060E08AE095
:101110000E947D118BE797E00E94D5102196C83080
:10112000D10561F7DF91CF9108958F92AF92CF9261
:10113000EF92FF920F931F9390E2892E28E9A22E3F
:10114000CC24C39431ECE32EF12C00EC10E024EC21
:1011500030E045EC50E060E082E39CE00E94300D1E
:10116000EDEAFBE08FEF9FEF918780873C962BE0C5
:10117000E93EF207C9F781ED9AE01F910F91FF90C8
:10118000EF90CF90AF908F900C9497002F923F925A
:101190004F925F926F927F928F929F92AF92BF9287
:1011A000CF92DF92EF92FF920F931F93CF93DF9333
:1011B000CDB7DEB72A970FB6F894DEBF0FBECDBF0E
:1011C0000E947E100E94AA124B015C0120E030E0D8
:1011D0004AE754E46091510C7091520C8091530C89
:1011E0009091540C0E94DE119B01AC01C501B40129
:1011F0000E945C13181614F41092500C02E010E0D8
:10120000AA24AA94BA2CB8E02B2E312C82E39CE0BD
:101210000E94670C181619060CF06CC182E39CE062
:101220000E949A0C4C01682F82E39CE08A860E94FF
:10123000F10C10922A06E0912D06F0912E064A85B7
:10124000EA30F10508F0EBC0EC5CFF4F0C94B113F1
:101250004E3F09F0E4C010932E0600932D06109225
:101260005D0680925C0681C080925D0610922F061A
:101270006AE576E0882D0E94020124E030E096C005
:1012800080925E066AE576E0882D0E94020183E086
:1012900090E060C080925F066AE576E0882D0E944B
:1012A0000201A5E0B0E0B0932E06A0932D06B7C0D2
:1012B000809260066AE576E0882D0E940201E6E0F1
:1012C000F0E0F0932E06E0932D06A9C0809261060F
:1012D0006AE576E0882D0E94020180915D068823F0
:1012E000C1F027E030E062C0E0912F0681E08E0F70
:1012F00080932F06F0E0EE59F94F80826AE576E0A0
:10130000882D0E94020190912F0680915D0698130E
:1013100086C030922E0620922D0681C0E091610693
:10132000F0E0E254FB4F6AE576E080814A870E9454
:10133000020180915A0690915B0699279401332708
:101340004A8528173907B1F010922A064E3F39F026
:1013500081E090E090932E0680932D0660C010935C
:101360002E0600932D0610925D06B0925B06A092A9
:101370005A0655C0A9E0B0E0B0932E06A0932D0602
:10138000E0912F06F0E0EE59F94F808248C0B0910D
:101390005B06BA831B82C4019927EA81FB818E1701
:1013A0009F0749F04E3FD9F221E030E030932E06FE
:1013B00020932D0634C031E030932A0681E090E07E
:1013C00090932E0680932D06E0912F06F0E0ED59C4
:1013D000F94F8082909161069983C0906A06D090FF
:1013E0006B06E0906C06F0906D0640906E06509093
:1013F0006F066090700670907106A0917606B091AD
:101400007706B887AF83E0917C06F0917D06FE8376
:10141000ED83F0917E06FC8320917F062987209141
:101420002A06213099F480915E06809330068091DF
:10143000320690913306009721F4109235061092EF
:1014400034060196909333068093320610922C0650
:10145000222309F4DBCE0E947E100E94AA12609320
:10146000510C7093520C8093530C9093540C81E068
:101470008093500C39813323D1F1383109F0C6CE35
:10148000C701B6010E94AC1220E836E948E15BE4EE
:101490000E94421260935E0C70935F0C8093600C0C
:1014A0009093610CC301B2010E94AC1220E836E9AE
:1014B00048E15BE40E94421260935A0C70935B0C0B
:1014C00080935C0C90935D0C8C818093580C998573
:1014D0009093590CAD81BE81B093570CA093560CDC
:1014E000EF81F885F093630CE093620C8CCE8093CF
:1014F000550C89CE8091500C2A960FB6F894DEBF19
:101500000FBECDBFDF91CF911F910F91FF90EF9054
:10151000DF90CF90BF90AF909F908F907F906F9013
:101520005F904F903F902F900895CF92DF92EF926F
:10153000FF920F931F93CF93DF93CDB7DEB7CA5FB0
:10154000D1090FB6F894DEBF0FBECDBF19828E0150
:101550000F5F1F4FE12CF12C680182E39CE00E9499
:10156000670C181619068CF482E39CE00E949A0C12
:101570009BECE916F1048CF7F80181938F01FFEFE2
:10158000EF1AFF0AF8011082E8CFEF2879F064E340
:1015900073E0C6010E945D15892B41F06BE173E099
:1015A00082E39CE00E94CF0E81E007C06AE373E013
:1015B00082E39CE00E94CF0E80E0C650DF4F0FB662
:1015C000F894DEBF0FBECDBFDF91CF911F910F9179
:1015D000FF90EF90DF90CF9008950F931F934EEB05
:1015E0005AE06BE071E08091C90A9091CA0A0E94AA
:1015F00035014DEB5AE063EC7AE08091C70A909197
:10160000C80A0E9435018091BE0A882311F02C9AE5
:1016100001C02C988091BD0A882311F02D9A01C039
:101620002D980E947E100091BF0A1091C00A20914F
:10163000C10A3091C20A601B710B820B930B693B8C
:101640007B4081059105E8F00E947E106093BF0AFF
:101650007093C00A8093C10A9093C20A8091CB0A0A
:101660009091CC0A009739F481E090E09093CC0AF5
:101670008093CB0A06C0019721F41092CC0A1092F5
:10168000CB0A8BE00E94B311892B99F40E947A084F
:101690008091C70A9091C80A892B39F481E090E0C3
:1016A0009093C80A8093C70A04C01092C80A109287
:1016B000C70A8091CB0A9091CC0A8D7F019751F493
:1016C00066E473E082E39CE00E94B8011F910F91F1
:1016D0000C94C6080E947E100E94AA1220E030E0FE
:1016E00048EC52E40E945C13181614F40E947E1019
:1016F0008091CB0A9091CC0A892BC1F41092CA0A2E
:101700001092C90A0E94950A882381F00E947E10D7
:101710006093CD0A7093CE0A8093CF0A9093D00A3B
:1017200082E090E09093CC0A8093CB0A8091CB0A20
:101730009091CC0A029729F50E947E100091CD0A63
:101740001091CE0A2091CF0A3091D00A601B710B04
:10175000820B930B613D77408105910590F00E94CB
:101760007E106093CD0A7093CE0A8093CF0A909337
:10177000D00A1092CA0A1092C90A1092CC0A10928A
:10178000CB0A1F910F910895CF92DF92EF92FF92B3
:101790001092CA0A1092C90A1092C80A1092C70A77
:1017A0001092CC0A1092CB0A80E00E948A020E941A
:1017B000570261E08DE00E94441161E08CE00E94DC
:1017C000441160E08BE00E94441160E083E00E94DD
:1017D000441161E083E00E947D1161E08EE00E948F
:1017E000441160E08EE00E947D110E94720240E090
:1017F00051EE60E070E082E39CE00E94570C0E9492
:10180000E9030E94D0040E9463088FEF8093BB0A13
:101810000E946B0278940E947E106B017C01809183
:10182000BB0A8F3FB9F180ED97E00E947A0261E038
:101830008BE00E947D112D9A82E39CE00E94DF0CD8
:1018400062E573E082E39CE00E94CF0E83E793E0C1
:101850000E948C0769E673E082E39CE00E94CF0E51
:101860004AE050E062E070E082E39CE00E947F0F7B
:1018700080E00E942F068091BC0A0E946F050E94A2
:1018800003078FE00E948A02FF90EF90DF90CF90D5
:101890000C9426070E947E106C197D098E099F0901
:1018A000603D77408105910508F0BDCFB8CF0F931B
:1018B0001F93DC01ED91FC910288F389E02D00E09B
:1018C00010E020E030E009951F910F910895DC01B0
:1018D0005B962C915B97222379F05796ED91FC91C2
:1018E00058978081918122813381821B930B2481BF
:1018F00035818223932308958FEF9FEF0895DC01B4
:101900005B962C915B97222391F05996ED91FC9177
:101910005A978081918122813381821B930B80951C
:1019200090952481358182239323019608958FEF2A
:101930009FEF0895DC015B962C915B97222359F071
:101940005796ED91FC915897208131818281938146
:101950002817390719F48FEF9FEF0895828193813B
:10196000A681B781A80FB91F8C91228133812F5F87
:101970003F4F44815581242335233383228390E0D4
:101980000895DC015B962C915B97222359F05796C2
:10199000ED91FC91589720813181828193812817A4
:1019A000390719F48FEF9FEF0895828193810680A4
:1019B000F781E02DE80FF91F808190E00895DC01A8
:1019C0005796ED91FC915897228133813183208382
:1019D0005996ED91FC915A978081918193838283EE
:1019E0000895FC01838D8823C1F1A18DB28D2D91C5
:1019F0003C9111972F5F3F4F14968D919C911597B5
:101A000028233923848D811108C012968D919C91D1
:101A1000139728173907C9F308C012968D919C9126
:101A200013972817390789F718C08D919C91119742
:101A300016960D90BC91A02DA80FB91F6C93A18D87
:101A4000B28D11963C932E93A289B3898C9196897D
:101A5000892B8C9381E090E0089580E090E00895D8
:101A60004F925F926F927F928F92AF92CF92EF924E
:101A7000FF920F931F93CF93DF93CDB7DEB7FC0197
:101A80001382128288EE482E83E0582E612C712C2E
:101A9000448255826682778288EC95E091838083C8
:101AA0005587448737872687118B008BF38AE28A14
:101AB000C48AA58A868A28E0629FC00111249C01FD
:101AC0002359334F308F278B8B59934F928F818FB0
:101AD00081E090E001C0880F6A95EAF79091640C6C
:101AE000982B9093640C40E051EE60E070E0CF01E1
:101AF000DF91CF911F910F91FF90EF90CF90AF901A
:101B00008F907F906F905F904F900C94570C0F9335
:101B10001F93CF93DF938C01FC01138212821182F9
:101B20001082A1E0E1E0F0E02A2FAF010A2E02C00E
:101B3000440F551F0A94E2F7CB016130B2E07B07F6
:101B400010F080E092E04817590710F4AF5FECCF37
:101B5000C1E0D0E002C0CC0FDD1F2A95E2F721974B
:101B6000F80186819781009739F0248135812C17FF
:101B70003D0789F00E947114F801D583C483CE011A
:101B800001960E94D913F8019783868321E0892B5F
:101B900019F420E001C021E0822FDF91CF911F9145
:101BA0000F910895AF92BF92CF92DF92EF92FF9282
:101BB0000F931F93CF93DF93EC016A017B015901CF
:101BC0008B8D8823D1F02115310539F4EF89F88DFB
:101BD000A480B5808FEFA81AB80A0115110531F459
:101BE000E98DFA8D048115810F5F1F4FE881F9811E
:101BF0000088F189E02DCE010995A114B10419F4F2
:101C000060E870E001C0B5018F89988D0E94870D52
:101C1000882369F00115110519F460E170E001C035
:101C2000B801898D9A8D0E94870D811111C0E881BC
:101C3000F9810088F189E02DCE01DF91CF911F91CC
:101C40000F91FF90EF90DF90CF90BF90AF900994ED
:101C5000E98DFA8D1382128211821082EF89F88D3C
:101C6000138212821182108281E08B8F1C141D045A
:101C70001E041F045CF5E889F989C11481EED806B9
:101C8000E104F104A1F181E090E00C8802C0880F2A
:101C9000991F0A94E2F7808360E079E08DE390E099
:101CA000A70196010E94921321503109410951095F
:101CB000CA01B90122E030E040E050E00E949213F6
:101CC000EC85FD853083EE85FF852083EA89FB89DD
:101CD00080819D89892B8083DF91CF911F910F9106
:101CE000FF90EF90DF90CF90BF90AF90089510825B
:101CF00020E130E0E5CFCF93DF93EC011B821A8225
:101D0000198218821D821C828E819F81009721F08A
:101D10000E9471141F821E82DF91CF910895CF938C
:101D2000DF93EC01EA89FB8990818E892D89822BD2
:101D30008095892380838F89988D0E947B0E898D61
:101D40009A8D0E947B0E1B8EDF91CF910895CF92CA
:101D5000DF92EF92FF920F931F93CF93DF936C016B
:101D60007A01EB01E60EF71E00E010E0CE15DF056C
:101D700061F06991D601ED91FC910190F081E02D27
:101D8000C6010995080F191FF1CFC801DF91CF9146
:101D90001F910F91FF90EF90DF90CF9008950C94DA
:101DA000B801DC01ED91FC910190F081E02D0994E6
:101DB0006CED75E00C94B8018F929F92AF92BF9238
:101DC000CF92DF92EF92FF920F931F93CF93DF9307
:101DD000CDB7DEB7A1970FB6F894DEBF0FBECDBF6B
:101DE0007C01C42EE52FCB01D22E19A221E02D15A6
:101DF00010F02AE0D22E8E010F5D1F4F8D2C912CFA
:101E0000A12CB12C6C2D7E2FA50194010E94701382
:101E10008C2DD29E80191124015011098A3014F49E
:101E2000805D01C0895CF801808321153105410581
:101E3000510521F0C22EE32FCA01E4CFB801C7013A
:101E40000E94B801A1960FB6F894DEBF0FBECDBFB9
:101E5000DF91CF911F910F91FF90EF90DF90CF9086
:101E6000BF90AF909F908F900895CF92DF92EF92A6
:101E7000FF920F931F93CF93DF93EC016A017B01D5
:101E80002115310579F4E881F9810190F081E02D87
:101E9000642FDF91CF911F910F91FF90EF90DF9012
:101EA000CF9009942A303105E9F477FF1AC06DE22A
:101EB0000E94D10E8C0144275527BA014C195D09A7
:101EC0006E097F092AE0CE010E94DC0E800F911F6F
:101ED000DF91CF911F910F91FF90EF90DF90CF9006
:101EE00008952AE0B701A601CE01DF91CF911F919D
:101EF0000F91FF90EF90DF90CF900C94DC0E0F933A
:101F00001F93CF93DF93EC019A01AB01662757FD36
:101F10006095762F0E94350F8C01CE010E94D80E5D
:101F2000800F911FDF91CF911F910F91089521157F
:101F3000310541F4DC01ED91FC910190F081E02D3F
:101F4000642F09940C94DC0E9A01AB0160E070E000
:101F50000C94970F8230E8F4E82FF0E0EE0FFF1FAB
:101F6000EB58F34F71836083813041F080916900B9
:101F70008C7F842B80936900E89A08958091690092
:101F8000440F551F440F551F837F842B8093690096
:101F9000E99A08951F920F920FB60F9211242F9372
:101FA0003F934F935F936F937F938F939F93AF93E1
:101FB000BF93EF93FF938091750C9091760C892BD2
:101FC00029F0E091750CF091760C0995FF91EF9155
:101FD000BF91AF919F918F917F916F915F914F9141
:101FE0003F912F910F900FBE0F901F9018951F9249
:101FF0000F920FB60F9211242F933F934F935F933D
:102000006F937F938F939F93AF93BF93EF93FF93C0
:102010008091770C9091780C892B29F0E091770CC6
:10202000F091780C0995FF91EF91BF91AF919F913D
:102030008F917F916F915F914F913F912F910F9071
:102040000FBE0F901F90189508950E94E0100E94F7
:1020500024100E94C40BC0E0D0E00E94ED0A20973B
:10206000E1F30E940000F9CF1F920F920FB60F927A
:1020700011242F933F938F939F93AF93BF9380919E
:102080007A0C90917B0CA0917C0CB0917D0C3091DE
:10209000790C23E0230F2D3720F40196A11DB11DEB
:1020A00005C026E8230F0296A11DB11D2093790CCF
:1020B00080937A0C90937B0CA0937C0CB0937D0C56
:1020C00080917E0C90917F0CA091800CB091810C3E
:1020D0000196A11DB11D80937E0C90937F0CA0935F
:1020E000800CB093810CBF91AF919F918F913F91E4
:1020F0002F910F900FBE0F901F9018952FB7F89447
:1021000060917A0C70917B0C80917C0C90917D0C8D
:102110002FBF08953FB7F89480917E0C90917F0C6B
:10212000A091800CB091810C26B5A89B05C02F3FD3
:1021300019F00196A11DB11D3FBF6627782F892F89
:102140009A2F620F711D811D911D42E0660F771F4E
:10215000881F991F4A95D1F70895CF92DF92EF9289
:10216000FF92CF93DF936B017C010E948A10EB01F9
:10217000C114D104E104F10489F00E94DC110E9431
:102180008A106C1B7D0B683E734090F381E0C81A87
:10219000D108E108F108C851DC4FEACFDF91CF91B7
:1021A000FF90EF90DF90CF9008958230910538F046
:1021B000880F991F880F991F05970197F1F70895C8
:1021C000789484B5826084BD84B5816084BD85B512
:1021D000826085BD85B5816085BDEEE6F0E08081D9
:1021E00081608083E1E8F0E01082808182608083FA
:1021F000808181608083E0E8F0E08081816080837D
:10220000E1EBF0E0808184608083E0EBF0E08081AE
:1022100081608083EAE7F0E0808184608083808150
:1022200082608083808181608083808180688083F8
:102230001092C1000895833081F028F4813099F024
:102240008230A1F008958730A9F08830B9F0843049
:10225000D1F4809180008F7D03C0809180008F77C2
:1022600080938000089584B58F7702C084B58F7DF8
:1022700084BD08958091B0008F7703C08091B00035
:102280008F7D8093B0000895CF93DF9390E0FC01A1
:10229000E057FF4F2491FC01EC55FF4F84918823B8
:1022A00049F190E0880F991FFC01E453FF4FA5917D
:1022B000B4918E539F4FFC01C591D4919FB761118A
:1022C00008C0F8948C91209582238C938881822376
:1022D0000AC0623051F4F8948C91322F30958323E8
:1022E0008C938881822B888304C0F8948C91822BF4
:1022F0008C939FBFDF91CF9108950F931F93CF933E
:10230000DF931F92CDB7DEB7282F30E0F901E458F4
:10231000FF4F8491F901E057FF4F1491F901EC55FB
:10232000FF4F04910023C9F0882321F069830E94A4
:102330001B116981E02FF0E0EE0FFF1FEE53FF4FFE
:10234000A591B4919FB7F8948C91611103C0109539
:10235000812301C0812B8C939FBF0F90DF91CF9180
:102360001F910F910895CF93DF93282F30E0F9014B
:10237000E458FF4F8491F901E057FF4FD491F901E0
:10238000EC55FF4FC491CC2391F081110E941B1199
:10239000EC2FF0E0EE0FFF1FE854FF4FA591B49132
:1023A0002C912D2381E090E021F480E002C080E0B8
:1023B00090E0DF91CF91089508955058BB27AA2748
:1023C0000ED040C131D130F036D120F031F49F3FF2
:1023D00011F41EF426C10EF4E095E7FB1CC1E92FB1
:1023E00042D180F3BA17620773078407950718F084
:1023F00071F49EF55AC10EF4E0950B2EBA2FA02D64
:102400000B01B90190010C01CA01A0011124FF27A1
:10241000591B99F0593F50F4503E68F11A16F0409C
:10242000A22F232F342F4427585FF3CF469537959B
:102430002795A795F0405395C9F77EF41F16BA0B60
:10244000620B730B840BBAF09150A1F0FF0FBB1F0E
:10245000661F771F881FC2F70EC0BA0F621F731F57
:10246000841F48F4879577956795B795F7959E3FB4
:1024700008F0B3CF9395880F08F09927EE0F979542
:10248000879508950CD0DEC0D6D040F0CDD030F086
:1024900021F45F3F19F0BFC0511108C1C2C0E3D0A1
:1024A00098F39923C9F35523B1F3951B550BBB271B
:1024B000AA2762177307840738F09F5F5F4F220FC8
:1024C000331F441FAA1FA9F333D00E2E3AF0E0E8C1
:1024D00030D091505040E695001CCAF729D0FE2F0D
:1024E00027D0660F771F881FBB1F2617370748079F
:1024F000AB07B0E809F0BB0B802DBF01FF27935855
:102500005F4F2AF09E3F510568F085C0CFC05F3F06
:10251000ECF3983EDCF3869577956795B795F7953C
:102520009F5FC9F7880F911D9695879597F9089534
:10253000E1E0660F771F881FBB1F621773078407D0
:10254000BA0720F0621B730B840BBA0BEE1F88F7DF
:10255000E0950895E89409C097FB3EF49095809526
:10256000709561957F4F8F4F9F4F9923A9F0F92F59
:1025700096E9BB279395F695879577956795B795D7
:10258000F111F8CFFAF4BB0F11F460FF1BC06F5FBD
:102590007F4F8F4F9F4F16C0882311F096E911C0CF
:1025A000772321F09EE8872F762F05C0662371F0F0
:1025B00096E8862F70E060E02AF09A95660F771F04
:1025C000881FDAF7880F9695879597F90895990FE0
:1025D0000008550FAA0BE0E8FEEF16161706E807ED
:1025E000F907C0F012161306E407F50798F0621B0E
:1025F000730B840B950B39F40A2661F0232B242BE3
:10260000252B21F408950A2609F4A140A6958FEF01
:10261000811D811D089597F99F6780E870E060E053
:1026200008959FEF80EC089500240A94161617066B
:1026300018060906089500240A94121613061406B3
:1026400005060895092E0394000C11F4882352F016
:10265000BB0F40F4BF2B11F460FF04C06F5F7F4FCE
:102660008F4F9F4F089557FD9058440F551F59F0B5
:102670005F3F71F04795880F97FB991F61F09F3F6F
:1026800079F087950895121613061406551FF2CF98
:102690004695F1DF08C0161617061806991FF1CFE8
:1026A00086957105610508940895E894BB2766270F
:1026B0007727CB0197F908958ADF08F48FEF089503
:1026C000DB018F939F930E94C613BF91AF91A29F8E
:1026D000800D911DA39F900DB29F900D1124089520
:1026E000A1E21A2EAA1BBB1BFD010DC0AA1FBB1F16
:1026F000EE1FFF1FA217B307E407F50720F0A21B88
:10270000B30BE40BF50B661F771F881F991F1A94F4
:1027100069F760957095809590959B01AC01BD011E
:10272000CF010895052E97FB1EF400940E94A91373
:1027300057FD07D00E94701307FC03D04EF40C9491
:10274000A91350954095309521953F4F4F4F5F4FBE
:10275000089590958095709561957F4F8F4F9F4F0D
:102760000895EE0FFF1F0590F491E02D0994A29FAC
:10277000B001B39FC001A39F700D811D1124911D55
:10278000B29F700D811D1124911D08950E94B713F1
:10279000A59F900DB49F900DA49F800D911D1124B5
:1027A0000895B7FF0C94C6130E94C613821B930BA7
:1027B0000895CF93DF938230910510F482E090E08A
:1027C000E091840CF091850C20E030E0A0E0B0E0D6
:1027D000309739F14081518148175907B8F04817AF
:1027E000590771F482819381109729F013969C9375
:1027F0008E9312972CC09093850C8093840C27C0E5
:102800002115310531F04217530718F0A901DB01FA
:1028100001C0EF019A01BD01DF010280F381E02DCB
:10282000D7CF21153105F9F0281B390B243031059C
:1028300080F48A819B816115710521F0FB019383EE
:10284000828304C09093850C8093840CFE013296A1
:1028500044C0FE01E20FF31F81939193225031098E
:10286000398328833AC02091820C3091830C232B2A
:1028700041F420910201309103013093830C2093A5
:10288000820C20910001309101012115310541F4A4
:102890002DB73EB74091040150910501241B350B23
:1028A000E091820CF091830CE217F307A0F42E1B49
:1028B0003F0B2817390778F0AC014E5F5F4F2417A4
:1028C000350748F04E0F5F1F5093830C4093820CE6
:1028D0008193919302C0E0E0F0E0CF01DF91CF91CE
:1028E0000895CF93DF93009709F487C0FC013297D6
:1028F00013821282C091840CD091850C209781F4B0
:1029000020813181280F391F8091820C9091830C96
:102910008217930779F5F093830CE093820C6DC0D6
:10292000DE0120E030E0AE17BF0750F412964D9163
:102930005C9113979D014115510509F1DA01F3CF1F
:10294000B383A28340815181840F951F8A179B070F
:1029500071F48D919C911197840F951F029691832C
:10296000808312968D919C91139793838283211576
:10297000310529F4F093850CE093840C3EC0D90115
:102980001396FC93EE9312974D915D91A40FB51F92
:10299000EA17FB0779F480819181840F951F0296D5
:1029A000D90111969C938E938281938113969C9367
:1029B0008E931297E0E0F0E08A819B81009719F0F6
:1029C000FE01EC01F9CFCE01029628813981820FF8
:1029D000931F2091820C3091830C2817390769F4DA
:1029E000309729F41092850C1092840C02C0138247
:1029F0001282D093830CC093820CDF91CF91089503
:102A00008F929F92AF92BF92CF92DF92EF92FF92FE
:102A1000CF93DF93EC01688179818A819B81611575
:102A200071058105910521F464E279ED8BE597E06C
:102A30002DE133EF41E050E00E94921349015A0129
:102A40009B01AC01A7EAB1E40E94C6136B017C01B3
:102A5000ACEEB4EFA50194010E94D413C60ED71EAC
:102A6000E81EF91EF7FE06C081E0C81AD108E10889
:102A700080E8F80AC882D982EA82FB82C701B601DF
:102A80009F77DF91CF91FF90EF90DF90CF90BF9035
:102A9000AF909F908F9008950E940015089586E052
:102AA00091E00E940015089560930601709307015C
:102AB00080930801909309010895FB0151915523DA
:102AC000A9F0BF01DC014D9145174111E1F759F41F
:102AD000CD010190002049F04D9140154111C9F3FD
:102AE000FB014111EFCF81E090E001970895F99942
:102AF000FECF92BD81BDF89A992780B50895262F03
:102B0000F999FECF1FBA92BD81BD20BD0FB6F894D2
:0E2B1000FA9AF99A0FBE01960895F894FFCF35
:102B1E000000860C800001000000FFC800000000CD
:102B2E000200020002000200020002000200020087
:102B3E0002000200020002000200020002000280F7
:102B4E0025000005400AA1204EA50020244EA52CEC
:102B5E002330C01200001A400AA1204EA5001B1EF1
:102B6E0027522C23308025000005400AA1204EA5B7
:102B7E000020244EA52C2330004B000006400AD026
:102B8E00009D49007B289D492C233000E100000563
:102B9E00400A4501D7DC03B81E0EBF00232E48E8BD
:102BAE0001008A400A6001555502AD1E2000002327
:102BBE00C854582074696D656F757421005965731A
:102BCE00004E6F00386368004E2F41002C205B00D2
:102BDE005D2028002900486F70206368616E6E6565
:102BEE006C200020402000706F7A79636A613D008E
:102BFE006669783D004C41543D00204C4F4E3D00DF
:102C0E00205341543D0020505245433D006B6F6EA2
:102C1E00696563207465737475007363616E6E65A8
:102C2E0072206D6F6465004E4F5420454E41424CEC
:102C3E0045440053656E64696E67207365747469EC
:102C4E006E677320746F2052580A00526573657454
:102C5E0074696E672073657474696E6773206F6E26
:102C6E002052580A0041626F72746564206564696F
:102C7E0074730A00696E76616C69642073656C65A5
:102C8E006374696F6E000D0A496E76616C6964201B
:102C9E00696E707574202D2064697363617264654A
:102CAE006421070053657474696E677320736176CF
:102CBE00656420746F20454550524F4D0A00526591
:102CCE007665727465642073657474696E677320BB
:102CDE0066726F6D20454550524F4D0A004C6F6124
:102CEE0064656420666163746F72792064656661E1
:102CFE00756C74730A004B657920616E642063688D
:102D0E00616E6E656C732072616E646F6D697A654B
:102D1E00640A00737472696E673A0024474E475313
:102D2E00412C002447504753412C0057796E696B54
:102D3E003A20747275650057796E696B3A20666138
:102D4E006C736500474E475341004E4D45413A2046
:102D5E0066616C73650072656164696E67204D41D2
:102D6E0056004F70656E4C52536E67205458207348
:102D7E0074617274696E672000206F6E2048572050
:102D8E00002447504753562C322C312C30352C30E2
:102D9E00322C31332C3133382C32322C31322C361A
:102DAE00372C3237302C33332C31342C32382C3301
:102DBE0031312C33342C32342C37362C3137372CEE
:102DCE0031332A37440A2447504753562C322C327B
:102DDE002C30352C32352C32362C3236332C3335D2
:102DEE002A34450A24474E524D432C323235313067
:102DFE00312E38302C412C353231322E3838353890
:102E0E00302C4E2C30323131302E35373836352C81
:102E1E00452C302E3036352C2C3038313231352C85
:102E2E002C2C412A36440A24474C4753562C312C1D
:102E3E00312C30322C36382C32322C3330382C3375
:102E4E00372C2C2C2C32392A35440A24474E474C29
:102E5E004C2C353231322E38383538312C4E2C3010
:102E6E00323131302E35373836332C452C3232351F
:102E7E003130312E36302C412C412A37310A003474
:102E8E002B34003800382B340031320031322B34E1
:102E9E000031360050504D005253534900534441B7
:102EAE000053434C00525844005458440041494E7C
:102EBE00004C424545500053504B54524D00534226
:102ECE0055530053554D44004C4C494E4400327CF2
:102EDE008900EDD96877000000590000000000005D
:102EEE000000D69FDCA81817AA90437327F6B9687E
:102EFE00EDF4DED409FEE61C1C84DDE80B992927CF
:102F0E00D6DF8D210F036418EFEE1EF0B78282001C
:102F1E00941500347C0000001400988F000000000F
:102F2E0000000000000000E7B73F36000000000080
:102F3E000000AF669ED038000000000000000000C8
:102F4E000000000000000000000000000000000073
:102F5E000000000000000000000000000000000063
:102F6E000000000086DBD0BC5416131586004E44BC
:102F7E00BD7F6F15159001000000000000000000DD
:102F8E000000000000000000000000000000000033
:102F9E000000000000000000000000000000000023
:102FAE000000000000000000000000000000000013
:102FBE000000000000000000000000000000000003
:102FCE0000000000000000CC31AA2C532E00160A7F
:102FDE001322312900000000F10CA70E670C9A0C89
:102FEE00C10CDF0C7F0C570C8F0ED20D0D0A006E2C
:0E2FFE00616E00696E66006F7666002E000040
:00000001FF
