:100000000C945E000C94A80C0C94D50C0C948600F7
:100010000C9486000C948D070C9486000C9486003A
:100020000C9486000C9486000C9486000C94860038
:100030000C9486000C9486000C9486000C94860028
:100040000C94120D0C9486000C94A3010C94DE0108
:100050000C9486000C9486000C9486000C94860008
:100060000C9486000C948600000000080002010039
:100070000003040700000000000000000102040863
:100080001020408001020408102001020408102002
:10009000040404040404040402020202020203032E
:1000A0000303030300000000250028002B000000CC
:1000B0000000240027002A00E700710811241FBE59
:1000C000CFEFD8E0DEBFCDBF14E0A0E0B1E0EEE6B8
:1000D000F3E202C005900D92A83AB107D9F726E0E5
:1000E000A8EAB4E001C01D92A83BB207E1F710E016
:1000F000CCEBD0E004C02297FE010E94F50FC83B74
:10010000D107C9F70E94030D0C94B5110C9400009F
:100110000F931F93FC010FEF1FEF980100831183D2
:100120002283338310861186128613864FEF59EC93
:100130006AE97BE3408B518B628B738B408F518FCD
:10014000628F738F40A351A362A373A340A751A7EB
:1001500062A773A740AB51AB62AB73AB00AF11AFFB
:1001600022AF33AFDC01A05CBF4F8FEF90E0119660
:100170009C938E9314960D931D932D933C931397FC
:1001800018960D931D932D933C93139718961C92DC
:1001900011961C92509686E08C9311961C921196A3
:1001A0001C9211961C92A659BF4F1D921D921D9232
:1001B0001C921397149611961C921E9212961D92E1
:1001C0001C92EA5AFF4F10821F910F910895E8EA9E
:1001D000F4E08FEF9FEF918780873C9624E0E43E28
:1001E000F207C9F7089580919506813019F482E0ED
:1001F0008093950680919506833019F484E080936E
:1002000095060895A89508950F931F93CF93DF93B4
:100210008B01EA018230910579F02CF40097D9F135
:10022000019711F175C083309105F1F0059709F040
:100230006FC081E088836CC08881882371F10E943F
:100240005C0D0E94EC0EF8012081318142815381C6
:100250000E94870E20E030E04AE754E40E949E0F9F
:1002600018160CF44BC019C0888181112DC00E9452
:100270005C0D0E94EC0EF801208131814281538196
:100280000E94870E20E030E04AE754E40E949E0F6F
:1002900018168CF119C018823BC08881811138C0B2
:1002A0000E945C0D0E94EC0EF80120813181428198
:1002B00053810E94870E20E030E048EC52E40E9417
:1002C0009E0F1816C4F024C08881882309F10E946B
:1002D0005C0D0E94EC0EF801208131814281538136
:1002E0000E94870E20E030E048EC52E40E949E0F0E
:1002F000181624F00DC081E0888301C018820E9486
:100300005C0D0E94EC0EF8016083718382839383FD
:10031000DF91CF911F910F9108956115710581F0C3
:10032000DB010D900020E9F7AD0141505109461B5A
:10033000570BDC01ED91FC910280F381E02D0994D3
:1003400080E090E008951F920F920FB60F92112453
:100350002F933F934F938F939F93EF93FF934091EE
:10036000C60080919F069091A00601962091A30659
:100370003091A406822393232091A1063091A206F6
:100380008217930779F020919F063091A006E091A3
:10039000A506F091A606E20FF31F40839093A006F6
:1003A00080939F06FF91EF919F918F914F913F9185
:1003B0002F910F900FBE0F901F9018951F920F92C4
:1003C0000FB60F9211242F933F938F939F93EF9328
:1003D000FF932091990630919A068091970690910B
:1003E000980628173907E9F08091990690919A06A6
:1003F000E0919D06F0919E06E80FF91F80818093A1
:10040000C6008091990690919A06019620919B06CC
:1004100030919C068223932390939A0680939906A9
:1004200010C020919706309198068091990690917E
:100430009A062817390729F48091C1008F7D80938F
:10044000C100FF91EF919F918F913F912F910F905C
:100450000FBE0F901F90189560E089E00E94170E64
:1004600061E088E00E94170E61E087E00E94170EAD
:1004700060E082E00E94170E61E084E00C94170EA9
:1004800042E050E063EF70E080E00C94880C61E0A3
:100490008AE00E94170E60E08AE00C94500E60E043
:1004A0008AE00C94500EE3E0F0E089E0809357007E
:1004B000E491E67081E0E63009F080E00895CF93A2
:1004C000DF93C82F0E945302882381F0DFB781E0B9
:1004D00080937706F8940E94020188E1809360007F
:1004E000C0936000C1110E940201DFBFDF91CF9174
:1004F00008952091310630913206382748E0C9012D
:10050000880F991F37FF06C09C0151E2252750E153
:10051000352701C09C01415091F73093320620935A
:1005200031060895D82FC0E0CD1780F42D9A64E6E7
:1005300070E080E090E00E948B0D2D9864E670E002
:1005400080E090E00E948B0DCF5FEECF6CE271E017
:1005500080E090E00E948B0DE6CF0F931F93CF9326
:10056000DF93EC01062F15E0115051F0CE010E94EF
:100570009F11081741F0602FCE010E94A711F4CF00
:1005800082E00E949202DF91CF911F910F91089516
:100590004F925F926F927F928F929F92AF92BF9293
:1005A000CF92DF92EF92FF920F931F93CF93DF933F
:1005B000482E562EC0E0D0E0612C712CE12CF12C9D
:1005C00000E010E041100CC06090760687E4689E61
:1005D00030011124A9E1EA2EF12C0DE516E01EC030
:1005E00091E049120FC060907606E7E46E9E3001FC
:1005F0001124FBE16F0E711CFAE2EF2EF12C03E3E4
:1006000016E00CC082E0481209C07CE1672E772416
:100610007394EE24E394F12C06E716E043018C0E6C
:100620009D1E10923206109231063401A62CA81895
:10063000B12CC30101966C01AE14BF04A8F4A00E46
:10064000B11E511006C0C3010E949F11F5018083A5
:1006500005C0F5016081C3010E94AD02F5018081F2
:100660000E9479023601E2CFC301511018C0C301C4
:100670000E949F11B82EC6010E949F112B2D30E0C1
:10068000322F2227282B8091310690913206821733
:10069000930779F4C0E0D0E05524539493CF36010A
:1006A000609132060E94AD0260913106C6010E943F
:1006B000AD02C05EDE4FC13E92E0D90708F482CFA2
:1006C000852DDF91CF911F910F91FF90EF90DF90DB
:1006D000CF90BF90AF909F908F907F906F905F90E2
:1006E0004F90089587E38093330680E092ECA1E079
:1006F000B0E08093340690933506A0933606B0930D
:10070000370689E080935C0687E08093400680ECA2
:1007100092E9ADEEB9E18093380690933906A09343
:100720003A06B0933B0685E0809341068DEE9EEF3E
:10073000ADEABEED80933C0690933D06A0933E0645
:10074000B0933F06E2E4F6E080E090E0863028F4E3
:10075000DC01A758BB4F2C9101C020E021930196EA
:100760008831910599F782E080935A068AE0809358
:100770005B06089561E082E00C94C80260E082E0CC
:100780000E94C80280917606843020F0109276068E
:100790000C94BA03089580EC91EDA8E9BBE1809335
:1007A0005E0690935F06A0936006B093610680E0BA
:1007B00090E0A0E0B0E58093620690936306A0937A
:1007C0006406B0936506E6E6F6E080E081938F5F0D
:1007D0008031E1F708958F929F92AF92BF92CF92AE
:1007E000DF92EF92FF920F931F93CF93DF930E94BC
:1007F000680D6115710581059105C9F30E94961177
:1008000010923C0610923D0610923E0610923F0652
:10081000C4E0C12CD12C7601CA9480903C06909003
:100820003D06A0903E06B0903F06BA2CA92C982C0D
:1008300088240E949111A70196010E94D40F680D8F
:10084000791D8A1D9B1D60933C0670933D06809325
:100850003E0690933F06C15001F702E416E0E8011E
:10086000C12CD12CB2E38B2E912CA12CB12C10E1F8
:10087000E12E17E2F12E8881882309F451C0D39428
:1008800071F4DF91CF911F910F91FF90EF90DF9066
:10089000CF90BF90AF909F908F900C9472030E9466
:1008A0009111A50194010E94D40F21E0260FE2E4EA
:1008B000F6E08E2F801B8C1520F481918213F9CFE6
:1008C000DECF40914106249FA00111244E9DC0011E
:1008D0004F9D900D5E9D900D1124AA2797FDA09528
:1008E000BA2F409138065091390660913A067091BE
:1008F0003B06840F951FA61FB71F40915E065091BF
:100900005F066091600670916106481759076A0793
:100910007B0708F4B4CF2993C39488E1C812ABCF06
:10092000DF91CF911F910F91FF90EF90DF90CF90CB
:10093000BF90AF909F908F90089561E080E00E94FB
:10094000C80261E081E00C94C80260E080E00E948F
:10095000C802882331F060E081E00E94C802811162
:1009600008C00E94CB030E9472030E94EB030C9408
:100970009D040895803223E0920720F1883E23E011
:10098000920740F48F519340E4E096958795EA955D
:10099000E1F70895803D27E0920718F48C5D9340BD
:1009A0000895883928E0920750F4885C974074E0F5
:1009B000969587957A95E1F78D509C4F08958FEF26
:1009C00093E0089580E090E008955F98882319F0FF
:1009D0000000289A02C00000289800005F9A0000DA
:1009E00008955F9A000083B15F980000869581703A
:1009F0000895CF93DF93D82F5C9A5F985C98C8E0F6
:100A00008D2F80780E94E504DD0FC150C9F75F98F3
:100A1000DF91CF9108958F770C94F904CF93DF93F2
:100A2000D82FC8E08D2F80780E94E504DD0FC150DB
:100A3000C9F75F98DF91CF910895CF93DF935F98C7
:100A4000C8E080E0D82FDD0F0E94F1048D0FC15067
:100A5000C9F7DF91CF9108950E940B050E941D05F3
:100A60005C9A0895CF93DF931F92CDB7DEB780686D
:100A700069830E94F9046981862F0E940E055C9AA1
:100A80000F90DF91CF910895CF93C0913C06C82776
:100A9000E82FF0E0ED5CF94F678589E70E943205A9
:100AA0006C2F8DE30E9432056C2F82E4CF910C9461
:100AB0003205CF93DF93EC016C818CE10E9432050B
:100AC0006D818DE10E9432056E818EE10E943205BA
:100AD0006F8180E20E943205688581E20E943205C2
:100AE000698582E20E9432056A8583E20E943205AE
:100AF0006B8584E20E9432056C8585E20E94320596
:100B00006D858AE20E9432056E858EE60E9432056E
:100B10006F858FE60E943205688980E70E94320562
:100B2000698981E70E9432056A8982E7DF91CF9166
:100B30000C943205CF92DF92EF92FF92CF93DF9326
:100B40006B017C01C11488E3D8068CE9E8068CE1CE
:100B5000F80628F5C701B60120E836E948E950E073
:100B60000E94B20FE901689760E879E687E69FEF97
:100B70000E94A20F6C0D7D1D8E1D9F1DF2E0660F61
:100B8000771F881F991FFA95D1F721E732E040E0DF
:100B900050E00E94B20FF22EE32E80E421C0C70184
:100BA000B60120E03DE241E351E00E94B20FE901CD
:100BB000689760E073ED8EEC9EEF0E94A20F6C0DC3
:100BC0007D1D8E1D9F1D660F771F881F991F21E7B2
:100BD00032E040E050E00E94B20FF22EE32E80E6B9
:100BE0006C2F6F71680F85E70E9432056E2D86E7C6
:100BF0000E9432056F2D87E7DF91CF91FF90EF9034
:100C0000DF90CF900C9432058F929F92AF92BF925B
:100C1000CF92DF92EF92FF92CF93DF93D82F83E0B2
:100C20000E942C058093300684E00E942C0580935E
:100C30002F0660E086E00E94320561E087E00E94B6
:100C400032056FE789E00E94320565E08AE00E9484
:100C5000320562E18BE00E94320565E18CE00E9482
:100C600032056DEF8DE00E94320560E08EE00E945B
:100C70003205DD2319F08BE291E008C020915A067D
:100C800033E1239FC0011124825C9E4F0E945905CD
:100C90006CE880E30E9432056FE082E30E94320537
:100CA00062E483E30E9432056AE084E30E94320535
:100CB0006AE285E30E9432056DE286E30E94320516
:100CC00064ED87E30E94320560E088E30E9432050C
:100CD00060E089E30E943205D11109C0C0903C0652
:100CE000D0903D06E0903E06F0903F0607C0C5E874
:100CF000CC2EC1ECDC2EED2CCEEDFC2ECAE38F2CDD
:100D00009924AA24BB24682D8C2F0E943205682DBB
:100D100085E08C0F0E943205FE2CED2CDC2CCC24BF
:100D2000CF5FCE3361F76FEF83E40E9432056FEF40
:100D300084E40E9432056FEF85E40E9432056FEF74
:100D400086E40E943205DD2311F066E002C0609166
:100D500040068DE60E94320560E089E70E94320578
:100D6000609141068AE70E94320560E083E70E94B5
:100D7000320560E084E70E943205D11109C060911C
:100D800038067091390680913A0690913B0604C06E
:100D900060EC72E98DEE99E1DF91CF91FF90EF90D9
:100DA000DF90CF90BF90AF909F908F900C949A055A
:100DB00061E087E00E94320564E28EE70E9432051E
:100DC00063E088E00E94320560E088E00E9432051E
:100DD00065E087E00E94320562E085E00E9432050E
:100DE00083E00E942C058093300684E00E942C054D
:100DF00080932F06089583E00E942C05809330068F
:100E000084E00E942C0580932F0660E086E00E941B
:100E1000320561E087E00E9432056FE789E00E94B9
:100E2000320565E08AE00E94320562E18BE00E94B3
:100E3000320565E18CE00E9432056DEF8DE00E9485
:100E4000320560E08EE00E9432056CE280E70E948D
:100E5000320560E080E30E94320560E089E70E948D
:100E6000320565E08AE70E94320562E181E70E946F
:100E7000320562E082E70E94320560E083E70E946B
:100E8000320560E084E70E9432056EE078E786E98B
:100E90009AE10E949A0567E08DE60E9432056AE0B9
:100EA00070E080E090E00E948B0D69E087E00E9496
:100EB00032056AE070E080E090E00C948B0DCF93F7
:100EC000DF93EC014AE050E06D2F70E088E796E098
:100ED0000E94820C6EE288E796E00E94AF0BBE0192
:100EE00094E0769567959A95E1F76F7077274AE0D9
:100EF00050E088E796E00E94820C6EE288E796E078
:100F00000E94AF0BBE016F7077274AE050E088E780
:100F100096E0DF91CF910C94820C1F920F920FB646
:100F20000F9211240F931F932F933F934F935F932F
:100F30006F937F938F939F93AF93BF93EF93FF93A1
:100F40004091620650916306609164067091650657
:100F500089B18A019B01007411272227332783FB63
:100F6000882780F990E0A0E0B0E0081719072A0769
:100F70003B0709F468C0809184009091850010922D
:100F80008500109284002091040521115CC045FD6C
:100F900002C096958795853C29E09207C0F1809123
:100FA0000A0190E0A0E0B0E01CE1769567955795C6
:100FB00047951A95D1F7411551056105710521F441
:100FC00041E050E060E070E0481759076A077B078E
:100FD000D8F480910A018F3FB9F040E080910A0176
:100FE000481780F4842F90E0880F991FFC01EC5182
:100FF000FB4F20813181FC01E55FFE4F318320836F
:101000004F5FECCF1092050510920A011CC08D3B7A
:1010100022E09207A8F020910A01203188F4109173
:101020000A0121E0210F20930A010E94BA04E12F56
:10103000F0E0EE0FFF1FEC51FB4F9183808303C064
:101040008FEF80930A01FF91EF91BF91AF919F9134
:101050008F917F916F915F914F913F912F911F9150
:101060000F910F900FBE0F901F90189583E0809303
:1010700080008AE1809381008FEF9FEF9093890039
:101080008093880010926F0088E080936D00E8E6FE
:10109000F0E0808184608083089582E090E0909306
:1010A000120580931105909314058093130548E071
:1010B00055E06DE075E00E94040147E055E069E00D
:1010C00075E080911105909112050E9404018091B4
:1010D0000805882319F02D9A2C9808952D982C9A9C
:1010E00008958F92AF92CF92EF92FF920F931F933A
:1010F00090E2892E28E9A22ECC24C39431ECE32E71
:10110000F12C00EC10E024EC30E045EC50E060E025
:1011100088E796E00E940E0AE3EFF5E08FEF9FEF7D
:10112000918780873C9626E0EF32F207C9F787E186
:1011300095E01F910F91FF90EF90CF90AF908F901F
:101140000C948800CF92DF92EF92FF9210921405D8
:1011500010921305109212051092110510921605A7
:101160001092150580E00E945F020E942C0261E04F
:101170008DE00E94170E61E08CE00E94170E60E087
:101180008BE00E94170E60E083E00E94170E61E082
:1011900083E00E94500E61E08EE00E94170E60E036
:1011A0008EE00E94500E0E94470240E051EE60E047
:1011B00070E088E796E00E9435090E94BE030E9415
:1011C000A5040E9436088FEF809305050E94400217
:1011D00078940E945C0D6B017C01809105058F3F26
:1011E000B9F180ED97E00E944F0261E08BE00E9430
:1011F000500E2D9A88E796E00E94BD096DE073E0DD
:1012000088E796E00E94AD0B83E793E00E945F07BA
:1012100064E273E088E796E00E94AD0B4AE050E09C
:1012200062E070E088E796E00E945D0C80E00E943A
:101230000406809106050E9444050E94D8068FE0AE
:101240000E945F02FF90EF90DF90CF900C94FB061E
:101250000E945C0D6C197D098E099F09603D7740E5
:101260008105910508F0BDCFB8CF0F931F93DC0126
:10127000ED91FC910288F389E02D00E010E020E080
:1012800030E009951F910F910895DC015B962C9138
:101290005B97222379F05796ED91FC9158978081C6
:1012A000918122813381821B930B2481358182239A
:1012B000932308958FEF9FEF0895DC015B962C91A7
:1012C0005B97222391F05996ED91FC915A9780817A
:1012D000918122813381821B930B8095909524818B
:1012E000358182239323019608958FEF9FEF089510
:1012F000DC015B962C915B97222359F05796ED9178
:10130000FC91589720813181828193812817390778
:1013100019F48FEF9FEF089582819381A681B781A1
:10132000A80FB91F8C91228133812F5F3F4F4481D9
:101330005581242335233383228390E00895DC01F3
:101340005B962C915B97222359F05796ED91FC9177
:10135000589720813181828193812817390719F4A8
:101360008FEF9FEF0895828193810680F781E02DB2
:10137000E80FF91F808190E00895DC015796ED9108
:10138000FC91589722813381318320835996ED91C6
:10139000FC915A9780819181938382830895FC0107
:1013A000838D8823C1F1A18DB28D2D913C91119730
:1013B0002F5F3F4F14968D919C91159728233923C9
:1013C000848D811108C012968D919C9113972817D6
:1013D0003907C9F308C012968D919C91139728176D
:1013E000390789F718C08D919C91119716960D9029
:1013F000BC91A02DA80FB91F6C93A18DB28D119631
:101400003C932E93A289B3898C919689892B8C93D6
:1014100081E090E0089580E090E008954F925F921F
:101420006F927F928F92AF92CF92EF92FF920F9333
:101430001F93CF93DF93CDB7DEB7FC0113821282E7
:1014400088EE482E83E0582E612C712C4482558200
:101450006682778283E894E091838083558744870E
:1014600037872687118B008BF38AE28AC48AA58A84
:10147000868A28E0629FC00111249C012156394FC1
:10148000308F278B8956994F928F818F81E090E022
:1014900001C0880F6A95EAF790919606982B909371
:1014A000960640E051EE60E070E0CF01DF91CF9111
:1014B0001F910F91FF90EF90CF90AF908F907F9002
:1014C0006F905F904F900C9435090F931F93CF93BB
:1014D000DF938C01FC011382128211821082A1E041
:1014E000E1E0F0E02A2FAF010A2E02C0440F551FA1
:1014F0000A94E2F7CB016130B2E07B0710F080E0A4
:1015000092E04817590710F4AF5FECCFC1E0D0E08C
:1015100002C0CC0FDD1F2A95E2F72197F8018681E2
:101520009781009739F0248135812C173D0789F088
:101530000E94B310F801D583C483CE0101960E94A6
:101540001B10F8019783868321E0892B19F420E092
:1015500001C021E0822FDF91CF911F910F9108955B
:10156000AF92BF92CF92DF92EF92FF920F931F93B1
:10157000CF93DF93EC016A017B0159018B8D8823A6
:10158000D1F02115310539F4EF89F88DA480B580AB
:101590008FEFA81AB80A0115110531F4E98DFA8DFB
:1015A000048115810F5F1F4FE881F9810088F1895F
:1015B000E02DCE010995A114B10419F460E870E0A2
:1015C00001C0B5018F89988D0E94650A882369F052
:1015D0000115110519F460E170E001C0B801898DB1
:1015E0009A8D0E94650A811111C0E881F9810088F5
:1015F000F189E02DCE01DF91CF911F910F91FF90E6
:10160000EF90DF90CF90BF90AF900994E98DFA8D65
:101610001382128211821082EF89F88D1382128256
:101620001182108281E08B8F1C141D041E041F0484
:101630005CF5E889F989C11481EED806E104F1046A
:10164000A1F181E090E00C8802C0880F991F0A94F4
:10165000E2F7808360E079E08DE390E0A7019601F6
:101660000E94D40F2150310941095109CA01B90121
:1016700022E030E040E050E00E94D40FEC85FD8590
:101680003083EE85FF852083EA89FB8980819D89EF
:10169000892B8083DF91CF911F910F91FF90EF9065
:1016A000DF90CF90BF90AF900895108220E130E09E
:1016B000E5CFCF93DF93EC011B821A821982188247
:1016C0001D821C828E819F81009721F00E94B310A1
:1016D0001F821E82DF91CF910895CF93DF93EC019B
:1016E000EA89FB8990818E892D89822B80958923B7
:1016F00080838F89988D0E94590B898D9A8D0E94C5
:10170000590B1B8EDF91CF910895CF92DF92EF920C
:10171000FF920F931F93CF93DF936C017A01EB013C
:10172000E60EF71E00E010E0CE15DF0561F06991CE
:10173000D601ED91FC910190F081E02DC601099553
:10174000080F191FF1CFC801DF91CF911F910F91A1
:10175000FF90EF90DF90CF9008950C948D01DC0105
:10176000ED91FC910190F081E02D099467E974E01E
:101770000C948D018F929F92AF92BF92CF92DF9285
:10178000EF92FF920F931F93CF93DF93CDB7DEB706
:10179000A1970FB6F894DEBF0FBECDBF7C01C42E5B
:1017A000E52FCB01D22E19A221E02D1510F02AE051
:1017B000D22E8E010F5D1F4F8D2C912CA12CB12CA0
:1017C0006C2D7E2FA50194010E94B20F8C2DD29E0C
:1017D00080191124015011098A3014F4805D01C070
:1017E000895CF8018083211531054105510521F0FF
:1017F000C22EE32FCA01E4CFB801C7010E948D01B8
:10180000A1960FB6F894DEBF0FBECDBFDF91CF918A
:101810001F910F91FF90EF90DF90CF90BF90AF900E
:101820009F908F900895CF92DF92EF92FF920F9347
:101830001F93CF93DF93EC016A017B0121153105E2
:1018400079F4E881F9810190F081E02D642FDF9136
:10185000CF911F910F91FF90EF90DF90CF9009945F
:101860002A303105E9F477FF1AC06DE20E94AF0B10
:101870008C0144275527BA014C195D096E097F096F
:101880002AE0CE010E94BA0B800F911FDF91CF9109
:101890001F910F91FF90EF90DF90CF9008952AE075
:1018A000B701A601CE01DF91CF911F910F91FF905B
:1018B000EF90DF90CF900C94BA0B0F931F93CF93C0
:1018C000DF93EC019A01AB01662757FD6095762FF7
:1018D0000E94130C8C01CE010E94B60B800F911F49
:1018E000DF91CF911F910F9108952115310541F49A
:1018F000DC01ED91FC910190F081E02D642F0994C1
:101900000C94BA0B9A01AB0160E070E00C94750C7A
:101910008230E8F4E82FF0E0EE0FFF1FE955F94FB1
:1019200071836083813041F0809169008C7F842BCA
:1019300080936900E89A089580916900440F551FCB
:10194000440F551F837F842B80936900E99A089583
:101950001F920F920FB60F9211242F933F934F9324
:101960005F936F937F938F939F93AF93BF93EF9307
:10197000FF938091A7069091A806892B29F0E0910A
:10198000A706F091A8060995FF91EF91BF91AF913D
:101990009F918F917F916F915F914F913F912F9187
:1019A0000F900FBE0F901F9018951F920F920FB6B9
:1019B0000F9211242F933F934F935F936F937F93D5
:1019C0008F939F93AF93BF93EF93FF938091A9065B
:1019D0009091AA06892B29F0E091A906F091AA0618
:1019E0000995FF91EF91BF91AF919F918F917F9159
:1019F0006F915F914F913F912F910F900FBE0F907C
:101A00001F90189508950E94B30D0E94020D0E9428
:101A1000A208C0E0D0E00E944D082097E1F30E94A8
:101A20000000F9CF1F920F920FB60F9211242F933F
:101A30003F938F939F93AF93BF938091AC06909108
:101A4000AD06A091AE06B091AF063091AB0623E093
:101A5000230F2D3720F40196A11DB11D05C026E8E6
:101A6000230F0296A11DB11D2093AB068093AC06F7
:101A70009093AD06A093AE06B093AF068091B006EA
:101A80009091B106A091B206B091B3060196A11D46
:101A9000B11D8093B0069093B106A093B206B093A7
:101AA000B306BF91AF919F918F913F912F910F906E
:101AB0000FBE0F901F9018952FB7F8946091AC0649
:101AC0007091AD068091AE069091AF062FBF08953C
:101AD0003FB7F8948091B0069091B106A091B206FC
:101AE000B091B30626B5A89B05C02F3F19F001960B
:101AF000A11DB11D3FBF6627782F892F9A2F620F36
:101B0000711D811D911D42E0660F771F881F991F6F
:101B10004A95D1F70895CF92DF92EF92FF92CF933B
:101B2000DF936B017C010E94680DEB01C114D104AD
:101B3000E104F10489F00E94860E0E94680D6C1B7E
:101B40007D0B683E734090F381E0C81AD108E1082C
:101B5000F108C851DC4FEACFDF91CF91FF90EF90B1
:101B6000DF90CF900895789484B5826084BD84B569
:101B7000816084BD85B5826085BD85B5816085BD88
:101B8000EEE6F0E0808181608083E1E8F0E01082A1
:101B9000808182608083808181608083E0E8F0E0E2
:101BA000808181608083E1EBF0E0808184608083CC
:101BB000E0EBF0E0808181608083EAE7F0E0808103
:101BC0008460808380818260808380818160808363
:101BD0008081806880831092C1000895833081F0F5
:101BE00028F4813099F08230A1F008958730A9F06F
:101BF0008830B9F08430D1F4809180008F7D03C0AB
:101C0000809180008F7780938000089584B58F77CE
:101C100002C084B58F7D84BD08958091B0008F7718
:101C200003C08091B0008F7D8093B0000895CF9362
:101C3000DF9390E0FC01E458FF4F2491FC01E05752
:101C4000FF4F8491882349F190E0880F991FFC0190
:101C5000E255FF4FA591B4918C559F4FFC01C59162
:101C6000D4919FB7611108C0F8948C91209582237C
:101C70008C93888182230AC0623051F4F8948C914D
:101C8000322F309583238C938881822B888304C0E4
:101C9000F8948C91822B8C939FBFDF91CF91089504
:101CA0000F931F93CF93DF931F92CDB7DEB7282FEB
:101CB00030E0F901E859FF4F8491F901E458FF4FF2
:101CC0001491F901E057FF4F04910023C9F08823D4
:101CD00021F069830E94EE0D6981E02FF0E0EE0FA4
:101CE000FF1FEC55FF4FA591B4919FB7F8948C91CD
:101CF000611103C01095812301C0812B8C939FBF7C
:101D00000F90DF91CF911F910F9108950895505832
:101D1000BB27AA270ED0D8C0C9D030F0CED020F033
:101D200031F49F3F11F41EF4BEC00EF4E095E7FBC2
:101D3000B4C0E92FDAD080F3BA17620773078407BB
:101D4000950718F071F49EF5F2C00EF4E0950B2E95
:101D5000BA2FA02D0B01B90190010C01CA01A001FD
:101D60001124FF27591B99F0593F50F4503E68F158
:101D70001A16F040A22F232F342F4427585FF3CF99
:101D8000469537952795A795F0405395C9F77EF46A
:101D90001F16BA0B620B730B840BBAF09150A1F0B3
:101DA000FF0FBB1F661F771F881FC2F70EC0BA0F39
:101DB000621F731F841F48F4879577956795B795C1
:101DC000F7959E3F08F0B3CF9395880F08F09927B9
:101DD000EE0F979587950895E89409C097FB3EF418
:101DE00090958095709561957F4F8F4F9F4F992368
:101DF000A9F0F92F96E9BB279395F69587957795E6
:101E00006795B795F111F8CFFAF4BB0F11F460FFA5
:101E10001BC06F5F7F4F8F4F9F4F16C0882311F0FD
:101E200096E911C0772321F09EE8872F762F05C011
:101E3000662371F096E8862F70E060E02AF09A95AC
:101E4000660F771F881FDAF7880F9695879597F9A1
:101E50000895990F0008550FAA0BE0E8FEEF16163B
:101E60001706E807F907C0F012161306E407F5078E
:101E700098F0621B730B840B950B39F40A2661F002
:101E8000232B242B252B21F408950A2609F4A140A5
:101E9000A6958FEF811D811D089597F99F6780E8B2
:101EA00070E060E008959FEF80EC089500240A94AC
:101EB0001616170618060906089500240A94121625
:101EC0001306140605060895092E0394000C11F458
:101ED000882352F0BB0F40F4BF2B11F460FF04C005
:101EE0006F5F7F4F8F4F9F4F089557FD9058440F5E
:101EF000551F59F05F3F71F04795880F97FB991F69
:101F000061F09F3F79F08795089512161306140625
:101F1000551FF2CF4695F1DF08C0161617061806B2
:101F2000991FF1CF86957105610508940895E8948D
:101F3000BB2766277727CB0197F908958ADF08F436
:101F40008FEF0895DB018F939F930E940810BF913C
:101F5000AF91A29F800D911DA39F900DB29F900DF8
:101F600011240895A1E21A2EAA1BBB1BFD010DC06E
:101F7000AA1FBB1FEE1FFF1FA217B307E407F50739
:101F800020F0A21BB30BE40BF50B661F771F881F15
:101F9000991F1A9469F760957095809590959B01AB
:101FA000AC01BD01CF010895052E97FB1EF40094EE
:101FB0000E94EB0F57FD07D00E94B20F07FC03D021
:101FC0004EF40C94EB0F50954095309521953F4F72
:101FD0004F4F5F4F089590958095709561957F4F15
:101FE0008F4F9F4F0895EE0FFF1F0590F491E02D46
:101FF0000994A29FB001B39FC001A39F700D811DE2
:102000001124911DB29F700D811D1124911D089501
:102010000E94F90FA59F900DB49F900DA49F800D75
:10202000911D11240895B7FF0C9408100E94081008
:10203000821B930B0895CF93DF938230910510F4A8
:1020400082E090E0E091B606F091B70620E030E043
:10205000A0E0B0E0309739F140815181481759072D
:10206000B8F04817590771F482819381109729F0CD
:1020700013969C938E9312972CC09093B7068093DF
:10208000B60627C02115310531F04217530718F065
:10209000A901DB0101C0EF019A01BD01DF0102804E
:1020A000F381E02DD7CF21153105F9F0281B390B2D
:1020B0002430310580F48A819B816115710521F0FE
:1020C000FB019383828304C09093B7068093B60686
:1020D000FE01329644C0FE01E20FF31F81939193FB
:1020E00022503109398328833AC02091B4063091B7
:1020F000B506232B41F42091020130910301309366
:10210000B5062093B40620910001309101012115FC
:10211000310541F42DB73EB74091040150910501BE
:10212000241B350BE091B406F091B506E217F307D6
:10213000A0F42E1B3F0B2817390778F0AC014E5F37
:102140005F4F2417350748F04E0F5F1F5093B506B9
:102150004093B4068193919302C0E0E0F0E0CF0198
:10216000DF91CF910895CF93DF93009709F487C053
:10217000FC01329713821282C091B606D091B70645
:10218000209781F420813181280F391F8091B40676
:102190009091B5068217930779F5F093B506E09311
:1021A000B4066DC0DE0120E030E0AE17BF0750F48A
:1021B00012964D915C9113979D014115510509F1BE
:1021C000DA01F3CFB383A28340815181840F951F3D
:1021D0008A179B0771F48D919C911197840F951F1D
:1021E00002969183808312968D919C91139793838D
:1021F00082832115310529F4F093B706E093B606E2
:102200003EC0D9011396FC93EE9312974D915D91C8
:10221000A40FB51FEA17FB0779F480819181840F21
:10222000951F0296D90111969C938E93828193817A
:1022300013969C938E931297E0E0F0E08A819B8145
:10224000009719F0FE01EC01F9CFCE01029628812A
:102250003981820F931F2091B4063091B50628175B
:10226000390769F4309729F41092B7061092B60630
:1022700002C013821282D093B506C093B406DF91D8
:10228000CF9108958F929F92AF92BF92CF92DF929B
:10229000EF92FF92CF93DF93EC01688179818A817D
:1022A0009B81611571058105910521F464E279ED49
:1022B0008BE597E02DE133EF41E050E00E94D40F31
:1022C00049015A019B01AC01A7EAB1E40E94081040
:1022D0006B017C01ACEEB4EFA50194010E941610D5
:1022E000C60ED71EE81EF91EF7FE06C081E0C81A0A
:1022F000D108E10880E8F80AC882D982EA82FB8224
:10230000C701B6019F77DF91CF91FF90EF90DF90EB
:10231000CF90BF90AF909F908F9008950E944211F0
:10232000089586E091E00E944211089560930601AD
:102330007093070180930801909309010895F9991A
:10234000FECF92BD81BDF89A992780B50895262FBA
:10235000F999FECF1FBA92BD81BD20BD0FB6F8948A
:0E236000FA9AF99A0FBE01960895F894FFCFED
:10236E000000B806800001000000FF00020002001D
:10237E00020002000200020002000200020002003F
:10238E000200020002000200020002802500000589
:10239E00400AA1204EA50020244EA52C2330C012A9
:1023AE0000001A400AA1204EA5001B1E27522C2306
:1023BE00308025000005400AA1204EA50020244EA5
:1023CE00A52C2330004B000006400AD0009D49008A
:1023DE007B289D492C233000E1000005400A450171
:1023EE00D7DC03B81E0EBF00232E48E801008A403A
:1023FE000A6001555502AD1E20000023C854582016
:10240E0074696D656F75742100596573004E6F00A8
:10241E002C00386368004E2F41002C205B005D209D
:10242E0028002900486F70206368616E6E656C200D
:10243E000020402000706F7A79636A613D00666902
:10244E00783D004C41543D00204C4F4E3D002053F2
:10245E0041543D0020505245433D006B6F6E6965FF
:10246E0063207465737475007363616E6E6572209C
:10247E006D6F6465004E4F5420454E41424C4544AD
:10248E000053656E64696E672073657474696E6758
:10249E007320746F2052580A005265736574746904
:1024AE006E672073657474696E6773206F6E205249
:1024BE00580A0041626F72746564206564697473B2
:1024CE000A00696E76616C69642073656C6563746D
:1024DE00696F6E000D0A496E76616C696420696ED3
:1024EE00707574202D206469736361726465642154
:1024FE00070053657474696E677320736176656443
:10250E0020746F20454550524F4D0A005265766536
:10251E00727465642073657474696E677320667275
:10252E006F6D20454550524F4D0A004C6F616465EA
:10253E006420666163746F72792064656661756C80
:10254E0074730A004B657920616E64206368616E56
:10255E006E656C732072616E646F6D697A65640A64
:10256E00004750524D4300474E524D43004F706549
:10257E006E4C52536E672054582073746172746996
:10258E006E672000206F6E2048572000244750476A
:10259E0053562C322C312C30352C30322C31332CEE
:1025AE003133382C32322C31322C36372C32373004
:1025BE002C33332C31342C32382C3331312C333400
:1025CE002C32342C37362C3137372C31332A3744D2
:1025DE000A2447504753562C322C322C30352C328D
:1025EE00352C32362C3236332C33352A34450A24E8
:1025FE00474E524D432C3232353130312E38302C3D
:10260E00412C353231322E38383538302C4E2C3074
:10261E00323131302E35373836352C452C302E3080
:10262E0036352C2C3038313231352C2C2C412A3683
:10263E00440A24474C4753562C312C312C30322C23
:10264E0036382C32322C3330382C33372C2C2C2C71
:10265E0032392A35440A24474E474C4C2C353231F8
:10266E00322E38383538312C4E2C30323131302E26
:10267E0035373836332C452C3232353130312E3613
:10268E00302C412C412A37310A00342B34003800CB
:10269E00382B340031320031322B340031360050B9
:1026AE00504D0052535349005344410053434C0084
:1026BE00525844005458440041494E004C4245453E
:1026CE00500053504B54524D0053425553005355E6
:1026DE004D44004C4C494E4400160A132231290039
:1026EE00000000CF09850B450978099F09BD095DDA
:1026FE000935096D0BB00A0D0A006E616E00696E28
:08270E0066006F7666002E00E4
:00000001FF
