:100000000C9463000C94CB170C94F8170C948B0091
:100010000C948B000C947F0F0C948B000C948B0031
:100020000C948B000C948B000C948B000C948B0024
:100030000C948B000C948B000C948B000C948B0014
:100040000C9435180C948B000C942D070C946807B5
:100050000C948B000C948B000C948B000C948B00F4
:100060000C948B000C948B0000000008000201002F
:100070000003040700000000000000000102040863
:100080001020408001020408102001020408102002
:10009000040404040404040402020202020203032E
:1000A00003030303000000002300260029000000D2
:1000B0000000250028002B0000000000240027007D
:1000C0002A0077065A1011241FBECFEFD8E0DEBFFA
:1000D000CDBF15E0A0E0B1E0E2E1FDE302C0059094
:1000E0000D92A434B107D9F727E0A4E4B5E001C02C
:1000F0001D92AC35B207E1F710E0C6ECD0E004C0C9
:100100002297FE010E94781CC23CD107C9F70E94C9
:1001100026180C94871E0C9400000F931F93FC016B
:100120000FEF1FEF98010083118322833383108622
:100130001186128613864FEF59EC6AE97BE3408BF8
:10014000518B628B738B408F518F628F738F40A363
:1001500051A362A373A340A751A762A773A740ABA3
:1001600051AB62AB73AB00AF11AF22AF33AFDC0169
:10017000A05CBF4F8FEF90E011969C938E931496E6
:100180000D931D932D933C93139718960D931D93E8
:100190002D933C93139718961C9211961C9250968F
:1001A00086E08C9311961C9211961C9211961C92CB
:1001B000A659BF4F1D921D921D921C921397149623
:1001C00011961C921E9212961D921C92EA5AFF4F93
:1001D00010821F910F9108952FEB260F862F9927DC
:1001E00087FD9095263010F4C797089561566630C4
:1001F00018F4875591090895C09708950F931F9398
:10020000FB0160E070E0CB01019120ED200F2A306E
:10021000A0F4AAE0B0E09B01AC010E948B1C112766
:1002200007FD1095212F312F600F711F821F931F23
:100230006053710981099109E7CF1F910F910895CA
:100240000F931F93CF93FC01EA5AFF4FC1E0208127
:100250002D3219F0C0E08F0103C08C01095A1F4FE5
:10026000B8010E94FE009B01AC01A4E6B0E00E9430
:100270008B1CF801DF01219130ED320F3A30D0F3C1
:100280002E3269F511962C91119730ED320F3A30DC
:1002900030F5332727FD3095205331094AE0429F3E
:1002A0008001439F100D1124222717FD2095322F26
:1002B000600F711F821F931F12960C9120ED200F6B
:1002C0002A3068F4112707FD1095005311092227E1
:1002D00017FD2095322F600F711F821F931FCC23B3
:1002E00039F090958095709561957F4F8F4F9F4F16
:1002F000CF911F910F9108954F925F926F927F92CD
:100300008F929F92AF92BF92CF92DF92EF92FF9225
:10031000CF93DF93EC01CA5ADF4FBE010E94FE006B
:100320002B013C0124E630E040E050E00E94351C07
:100330009B01AC0160EA76E881E090E00E94FD1B41
:100340006B017C01FE01819190ED980F9A30D8F3FA
:100350008E3219F5EF0180E1882E87E2982EA12CCC
:10036000B12CA99180ED8A0F8A30B8F4BB27A7FD84
:10037000B095D097A50194010E94961CC60ED71E79
:10038000E81EF91EC501B4012AE030E040E050E06B
:100390000E94351C49015A01E4CFC701B6016D5FC7
:1003A0007F4F8F4F9F4F26E030E040E050E00E94AB
:1003B000351C69017A01C301B20124E630E040E056
:1003C00050E00E94351C60E472E48FE090E00E94EF
:1003D000FD1BC60ED71EE81EF91EC701B601DF9130
:1003E000CF91FF90EF90DF90CF90BF90AF909F9014
:1003F0008F907F906F905F904F900895DB01FA018E
:100400008D91882319F091918917D1F3992787FD50
:1004100090950895CF92DF92EF92FF920F931F93E2
:10042000CF93DF93EC01FC01EB5AFF4F10811123B6
:1004300009F4C0C0319660810E94EC00182FFE01C3
:10044000E95AFF4F6081CE010E94EC0050E1159FF8
:10045000800D1124FE01EC5AFF4F90818913A1C039
:1004600071962081213081F48C819D81AE81BF8184
:1004700088839983AA83BB838C859D85AE85BF8540
:1004800088879987AA87BB87FE01E859FF4F1081AB
:10049000112309F48DC0FE01EA52FF4F8081918142
:1004A000019691838083EE58F10980819181A28128
:1004B000B381349780839183A283B3833C968081F8
:1004C0009181A281B381349780839183A283B38386
:1004D0002223A1F1213009F0BDC28C819D81AE8122
:1004E000BF8188839983AA83BB838C859D85AE85D4
:1004F000BF8588879987AA87BB878C899D89AE89A4
:10050000BF89888B998BAA8BBB8B8C8D9D8DAE8D73
:10051000BF8D888F998FAA8FBB8F8CA59DA5AEA507
:10052000BFA588A799A7AAA7BBA78CA99DA9AEA973
:10053000BFA988AB99ABAAABBBAB8CC28CA19DA168
:10054000AEA1BFA188A399A3AAA3BBA38C819D81BF
:10055000AE81BF8188839983AA83BB838C899D895F
:10056000AE89BF89888B998BAA8BBB8B8C8D9D8D17
:10057000AE8DBF8D888F998FAA8FBB8FFE01E05CF7
:10058000FF4FDE01AE5BBF4F8D919C9191838083C5
:100590008CAD9DADAEADBFAD88AF99AFAAAFBBAFCF
:1005A00059C2C852DF4F8881998101969983888307
:1005B00010E050C2FC01EA59FF4FE0808B599F4F79
:1005C0006C01E11017C07E0196E5E90EF11C41EACD
:1005D00051E0B701CE010E94FE01892B09F4F9C157
:1005E00047EA51E0B701CE010E94FE01892B09F4D0
:1005F000F0C1F1C1FC0100810630D1F2CE018A5A6E
:100600009F4FFC014081442399F2F0E20F9F90013B
:100610001124F12C2E293F292434310509F4FEC080
:1006200008F067C02232310509F4CEC078F52530D4
:10063000310509F4FBC098F42230310509F4CBC030
:1006400028F42130310509F4B3C004C22330310548
:1006500009F4D1C02430310509F4E0C0FBC12830D1
:10066000310509F41DC148F42630310509F40AC1E9
:100670002730310509F40EC1EDC12930310509F4E7
:1006800017C12132310509F493C0E4C12732310585
:1006900009F4E8C078F42432310509F4ACC008F458
:1006A0009AC02532310509F4B9C02632310509F462
:1006B000BDC0D0C12134310509F47AC088F4283294
:1006C000310509F4D7C02932310509F0C3C1BC0195
:1006D000CE010E94FE006C877D878E879F87BAC1FE
:1006E0002234310509F477C02334310509F483C07D
:1006F000B1C12039310509F418C158F52438310544
:1007000009F413C178F42634310509F4A2C008F4C1
:100710008DC02734310509F4BDC02238310509F4F4
:10072000CFC098C12B38310509F406C148F42738E9
:10073000310509F401C12838310509F4F6C08AC130
:100740002C38310509F4F1C02F38310509F4F4C013
:1007500081C1283A310509F4E8C098F4223A3105FC
:1007600009F4AEC028F42339310509F4E5C072C19B
:10077000243A310509F4D9C0273A310509F4DCC01F
:1007800069C12F3A310509F4D7C048F42B3A310535
:1007900009F4D2C02C3A310509F4C7C05BC1203B33
:1007A000310509F4C2C0233B310509F4C5C052C16B
:1007B000CE010E9420016C837D838E839F830E94E3
:1007C0007F18C85BDF4F12C0C859DF4F81E041344A
:1007D00009F05EC0A8C0CE010E947C016C8B7D8BAD
:1007E0008E8B9F8B0E947F18C05BDF4F688379835D
:1007F0008A839B832FC1433509F0DACE8C899D898A
:10080000AE89BF89B095A095909581959F4FAF4FC8
:10081000BF4F8C8B9D8BAE8BBF8B1CC1CE010E94BA
:100820007C016C8F7D8F8E8F9F8F14C1473509F0AF
:10083000BFCE8C8D9D8DAE8DBF8DB095A0959095C2
:1008400081959F4FAF4FBF4F8C8F9D8FAE8FBF8FC6
:1008500001C145E050E0BC01CE0187599F4F0E9485
:10086000401EF8C0CE010E9420016CA77DA78EA774
:100870009FA7F0C0CE010E9420016CAB7DAB8EAB78
:100880009FABE8C0C859DF4F81E041330CF04BC04B
:1008900080E049C00E94221ECE5BDF4F992749C0ED
:1008A000CE010E9420016CAF7DAF8EAF9FAFD2C052
:1008B000CE010E9420016CA37DA38EA39FA3CAC07A
:1008C0000E94221E815069F0CF52DF4F982F990F5E
:1008D000990F9883053009F06BCE880F880F845FDD
:1008E00022C020E030E0043079F4FE01E20FF31F73
:1008F000E159FF4F10821182128213822C5F3F4F09
:100900002033310591F7E0CFFE01E20FF31FE156EE
:10091000FF4F10821182128213822C5F3F4F2033CF
:10092000310591F7D1CF888395C00E94221EC15313
:10093000DF4F998388838EC00E94221EFE01EF52F2
:10094000FF4F81111AC0208130E0C701079797FD42
:1009500003969595879595958795820F931F880F98
:10096000991F880F991F8C0F9D1FFC01E159FF4FA4
:1009700010821182128213826DC0408150E0970173
:100980002750310937FF02C02D5F3F4F359527951E
:1009900035952795240F351F220F331F220F331F44
:1009A0002C0F3D1FF901E159FF4FAC015527440FB2
:1009B000551FC153DF4F80E090E09881482B592BA1
:1009C000662757FD6095762F40835183628373833A
:1009D00041C081E026C045EC51E0B701CE010E9444
:1009E000FE01892B19F4F601108234C04DEA51E062
:1009F000B701CE010E94FE01892B11F482E011C0E3
:100A000043EB51E0B701CE010E94FE01892B41F07A
:100A100049EB51E0B701CE010E94FE01892B21F480
:100A200083E0F601808316C04BEC51E0B701CE01A4
:100A30000E94FE01892B11F484E0F3CF4FEB51E0CB
:100A4000B701CE010E94FE01892B11F485E0E9CFA8
:100A500086E0E7CF812FDF91CF911F910F91FF901B
:100A6000EF90DF90CF900895CF92DF92EF92FF92B8
:100A70000F931F93CF93DF931F92CDB7DEB76C0117
:100A8000262FFC01EE52FF4F40815181628173811C
:100A90004F5F5F4F6F4F7F4F4083518362837383FC
:100AA0008C0109591F4F8B5A9F4F7C01243281F1D1
:100AB0002CF42A3069F02D30E9F50AC02A3241F0D1
:100AC0002C32C1F5F601EC5AFF4F808182278083DA
:100AD000F80180818F3060F4F601E80FF11DEA5AC9
:100AE000FF4F1082C60129830E940A02298101C09A
:100AF00080E0F601EA59FF4F90819F5F9083F801F3
:100B0000108291E02A3209F090E0F70190832AC028
:100B1000F8011082F601EA59FF4F10827297108295
:100B2000719686E08083F7011082F601E859FF4F45
:100B3000108217C0F80180818E3048F491E0980F40
:100B40009083F601E80FF11DEA5AFF4F2083F70169
:100B50008081811106C0F601EC5AFF4F8081822707
:100B6000808380E00F90DF91CF911F910F91FF90D4
:100B7000EF90DF90CF900895CF92DF92EF92FF92A7
:100B80000F931F93CF93DF93E9016115710551F026
:100B9000FC01C088D188E288F388FB01C082D18241
:100BA000E282F3824115510551F0FC01C08CD18CD9
:100BB000E28CF38CFA01C082D182E282F382209728
:100BC00001F18C01045B1F4FF80180819181A281AA
:100BD000B3818F3F9F4FAF4FBF4F61F00E947F188F
:100BE000F8010081118122813381601B710B820B1E
:100BF000930B03C06FEF7FEFCB01688379838A8308
:100C00009B83DF91CF911F910F91FF90EF90DF9029
:100C1000CF900895AF92BF92CF92DF92EF92FF9262
:100C20000F931F93CF93DF93CDB7DEB728970FB6FF
:100C3000F894DEBF0FBECDBF5B018A01AE014F5FEE
:100C40005F4FBE016B5F7F4F0E94BC05CD80DE8091
:100C5000EF80F8848FEFC81689ECD8068AE9E80699
:100C60008BE3F80659F0C701B6010E94E21A20E0B2
:100C700034E244E759E40E94471A04C060E070E09F
:100C80008AE794E4F5016083718382839383FFEFA5
:100C9000CF16F9ECDF06FAE9EF06FBE3FF0669F091
:100CA00069817A818B819C810E94E21A20E034E282
:100CB00044E759E40E94471A04C060E070E08AE704
:100CC00094E4F801608371838283938328960FB63E
:100CD000F894DEBF0FBECDBFDF91CF911F910F9172
:100CE000FF90EF90DF90CF90BF90AF900895E4E435
:100CF000F5E08FEF9FEF918780873C9625E0E03805
:100D0000F207C9F7089580913907813019F482E01C
:100D10008093390780913907833019F484E08093F8
:100D200039070895A8950895CF92DF92EF92FF9228
:100D30000F931F93CF93DF938B01EA0182309105CC
:100D400079F02CF40097A9F10197F9F067C083308E
:100D50009105D9F0059709F061C081E088835EC0F4
:100D60008881882341F10E947F18F801C080D180DA
:100D7000E280F3806C197D098E099F09693E7340FA
:100D80008105910508F042C016C08881811127C0F5
:100D90000E947F18F801C080D180E280F3806C1936
:100DA0007D098E099F09693E73408105910558F5BB
:100DB00016C0188233C08881811130C00E947F180C
:100DC000F801C080D180E280F3806C197D098E0922
:100DD0009F09613B744081059105A8F41FC088817B
:100DE0008823E1F00E947F18F801C080D180E28062
:100DF000F3806C197D098E099F09693C7105810595
:100E0000910520F40BC081E0888301C018820E9404
:100E10007F18F8016083718382839383DF91CF9180
:100E20001F910F91FF90EF90DF90CF900895611583
:100E3000710581F0DB010D900020E9F7AD01415013
:100E40005109461B570BDC01ED91FC910280F381A7
:100E5000E02D099480E090E008951F920F920FB664
:100E60000F9211242F933F934F938F939F93EF9360
:100E7000FF934091C60080914307909144070196EB
:100E800020914707309148078223932320914507FB
:100E9000309146078217930779F0209143073091EC
:100EA0004407E0914907F0914A07E20FF31F40839E
:100EB0009093440780934307FF91EF919F918F9107
:100EC0004F913F912F910F900FBE0F901F9018954B
:100ED0001F920F920FB60F9211242F933F938F936F
:100EE0009F93EF93FF9320913D0730913E078091B0
:100EF0003B0790913C0728173907E9F080913D079F
:100F000090913E07E0914107F0914207E80FF91FE9
:100F100080818093C60080913D0790913E070196A5
:100F200020913F07309140078223932390933E07FF
:100F300080933D0710C020913B0730913C07809182
:100F40003D0790913E072817390729F48091C10089
:100F50008F7D8093C100FF91EF919F918F913F9181
:100F60002F910F900FBE0F901F90189560E089E0B1
:100F70000E94451961E088E00E94451961E087E020
:100F80000E94451960E082E00E94451961E084E01A
:100F90000C94451942E050E063E876E080E00C9460
:100FA000AB1761E08AE00E94451960E08AE00C948A
:100FB0007E1960E08AE00C947E19E3E0F0E089E0BD
:100FC00080935700E491E67081E0E63009F080E01C
:100FD0000895CF93DF93C82F0E94DD07882381F007
:100FE000DFB781E080931B07F8940E94920688E1A6
:100FF00080936000C0936000C1110E949206DFBF21
:10100000DF91CF9108952091D5063091D6063827EB
:1010100048E0C901880F991F37FF06C09C0151E2C3
:10102000252750E1352701C09C01415091F73093AD
:10103000D6062093D5060895D82FC0E0CD1780F4AA
:101040002D9A64E670E080E090E00E94AE182D9842
:1010500064E670E080E090E00E94AE18CF5FEECFD3
:101060006CE271E080E090E00E94AE18E6CF0F9352
:101070001F93CF93DF93EC01062F15E0115051F031
:10108000CE010E94711E081741F0602FCE010E9410
:10109000791EF4CF82E00E941C08DF91CF911F914E
:1010A0000F9108954F925F926F927F928F929F92CD
:1010B000AF92BF92CF92DF92EF92FF920F931F9366
:1010C000CF93DF93482E562EC0E0D0E0612C712CD8
:1010D000E12CF12C00E010E041100CC060901A07E8
:1010E00087E4689E3001112409E1E02EF12C01E033
:1010F00017E01EC091E049120FC060901A07E7E4A4
:101100006E9E30011124FBE16F0E711C1AE2E12E7C
:10111000F12C07ED16E00CC082E0481209C0ACE1EA
:101120006A2E77247394EE24E394F12C0AE117E0FD
:1011300043018C0E9D1E1092D6061092D5063401E6
:10114000A62CA818B12CC30101966C01AE14BF04E3
:10115000A8F4A00EB11E511006C0C3010E94711E5A
:10116000F501808305C0F5016081C3010E94370845
:10117000F50180810E9403083601E2CFC3015110BE
:1011800018C0C3010E94711EB82EC6010E94711EB4
:101190002B2D30E0322F2227282B8091D5069091DD
:1011A000D6068217930779F4C0E0D0E05524539413
:1011B00093CF36016091D6060E9437086091D5061C
:1011C000C6010E943708C05EDE4FC13E92E0D907DB
:1011D00008F482CF852DDF91CF911F910F91FF9061
:1011E000EF90DF90CF90BF90AF909F908F907F90C7
:1011F0006F905F904F90089587E38093D70680E0CB
:1012000092ECA1E0B0E08093D8069093D906A09329
:10121000DA06B093DB0689E08093000787E08093CD
:10122000E40680EC92E9ADEEB9E18093DC069093A0
:10123000DD06A093DE06B093DF0685E08093E50629
:101240008DEE9EEFADEABEED8093E0069093E10651
:10125000A093E206B093E306E6EEF6E080E090E0CD
:10126000863028F4DC01AC5EBA4F2C9101C020E03E
:10127000219301968831910599F782E08093FE06CB
:101280008AE08093FF06089561E082E00C945208A2
:1012900060E082E00E94520880911A07843020F0BA
:1012A00010921A070C944409089580EC91EDA8E976
:1012B000BBE18093020790930307A0930407B093C8
:1012C000050780E090E0A0E0B0E5809306079093EA
:1012D0000707A0930807B0930907EAE0F7E080E06A
:1012E00081938F5F8031E1F708958F929F92AF9243
:1012F000BF92CF92DF92EF92FF920F931F93CF9303
:10130000DF930E948B186115710581059105C9F362
:101310000E94191E1092E0061092E1061092E20659
:101320001092E306C4E0C12CD12C7601CA948090BF
:10133000E0069090E106A090E206B090E306BA2C99
:10134000A92C982C88240E94141EA70196010E94A3
:10135000571C680D791D8A1D9B1D6093E0067093D4
:10136000E1068093E2069093E306C15001F706EE92
:1013700016E0E801C12CD12C82E3882E912CA12CFF
:10138000B12C90E1E92E97E2F92E8881882309F4A7
:1013900051C0D39471F4DF91CF911F910F91FF90C1
:1013A000EF90DF90CF90BF90AF909F908F900C9474
:1013B000FC080E94141EA50194010E94571C21E004
:1013C000260FE6EEF6E08E2F801B8C1520F481911F
:1013D0008213F9CFDECF4091E506249FA0011124AE
:1013E0004E9DC0014F9D900D5E9D900D1124AA272A
:1013F00097FDA095BA2F4091DC065091DD066091D3
:10140000DE067091DF06840F951FA61FB71F40915F
:101410000207509103076091040770910507481770
:1014200059076A077B0708F4B4CF2993C39488E16E
:10143000C812ABCFDF91CF911F910F91FF90EF902A
:10144000DF90CF90BF90AF909F908F90089561E014
:1014500080E00E94520861E081E00C94520860E054
:1014600080E00E945208882331F060E081E00E9411
:101470005208811108C00E9455090E94FC080E9470
:1014800075090C94270A0895803223E0920720F111
:10149000883E23E0920740F48F51934064E0969594
:1014A00087956A95E1F70895803D27E0920718F443
:1014B0008C5D93400895883928E0920750F4885C49
:1014C000974054E0969587955A95E1F78D509C4F3B
:1014D00008958FEF93E0089580E090E008955F987D
:1014E000882319F00000289A02C000002898000004
:1014F0005F9A000008955F9A000083B15F98000032
:10150000869581700895CF93DF93D82F5C9A5F986A
:101510005C98C8E08D2F80780E946F0ADD0FC15063
:10152000C9F75F98DF91CF9108958F770C94830A64
:10153000CF93DF93D82FC8E08D2F80780E946F0A59
:10154000DD0FC150C9F75F98DF91CF910895CF9318
:10155000DF935F98C8E080E0D82FDD0F0E947B0A00
:101560008D0FC150C9F7DF91CF9108950E94950A60
:101570000E94A70A5C9A0895CF93DF931F92CDB77C
:10158000DEB7806869830E94830A6981862F0E9482
:10159000980A5C9A0F90DF91CF910895CF93C091F4
:1015A000E006C827E82FF0E0E952F94F678589E7A0
:1015B0000E94BC0A6C2F8DE30E94BC0A6C2F82E44F
:1015C000CF910C94BC0ACF93DF93EC016C818CE13A
:1015D0000E94BC0A6D818DE10E94BC0A6E818EE181
:1015E0000E94BC0A6F8180E20E94BC0A688581E289
:1015F0000E94BC0A698582E20E94BC0A6A8583E275
:101600000E94BC0A6B8584E20E94BC0A6C8585E25C
:101610000E94BC0A6D858AE20E94BC0A6E858EE635
:101620000E94BC0A6F858FE60E94BC0A688980E729
:101630000E94BC0A698981E70E94BC0A6A8982E724
:10164000DF91CF910C94BC0ACF92DF92EF92FF9280
:10165000CF93DF936B017C01C11488E3D8068CE93A
:10166000E8068CE1F80628F5C701B60120E836E95E
:1016700048E950E00E94351CE901689760E879E686
:1016800087E69FEF0E94FD1B6C0D7D1D8E1D9F1D2B
:1016900032E0660F771F881F991F3A95D1F721E72F
:1016A00032E040E050E00E94351CF22EE32E80E450
:1016B00021C0C701B60120E03DE241E351E00E94B4
:1016C000351CE901689760E073ED8EEC9EEF0E9497
:1016D000FD1B6C0D7D1D8E1D9F1D660F771F881FC6
:1016E000991F21E732E040E050E00E94351CF22EC5
:1016F000E32E80E66C2F6F71680F85E70E94BC0AAD
:101700006E2D86E70E94BC0A6F2D87E7DF91CF918F
:10171000FF90EF90DF90CF900C94BC0A8F929F9235
:10172000AF92BF92CF92DF92EF92FF92CF93DF936F
:10173000D82F83E00E94B60A8093D40684E00E94EA
:10174000B60A8093D30660E086E00E94BC0A61E09E
:1017500087E00E94BC0A6FE789E00E94BC0A65E04E
:101760008AE00E94BC0A62E18BE00E94BC0A65E14B
:101770008CE00E94BC0A6DEF8DE00E94BC0A60E024
:101780008EE00E94BC0ADD2319F08FE291E008C0D0
:101790002091FE0633E1239FC00111248E5B9E4FF2
:1017A0000E94E30A6CE880E30E94BC0A6FE082E3D7
:1017B0000E94BC0A62E483E30E94BC0A6AE084E3FC
:1017C0000E94BC0A6AE285E30E94BC0A6DE286E3DD
:1017D0000E94BC0A64ED87E30E94BC0A60E088E3D3
:1017E0000E94BC0A60E089E30E94BC0AD11109C0D2
:1017F000C090E006D090E106E090E206F090E306AB
:1018000007C065E8C62E61ECD62EED2C6EEDF62EE7
:10181000CAE38F2C9924AA24BB24682D8C2F0E9404
:10182000BC0A682D85E08C0F0E94BC0AFE2CED2CB2
:10183000DC2CCC24CF5FCE3361F76FEF83E40E94C2
:10184000BC0A6FEF84E40E94BC0A6FEF85E40E943B
:10185000BC0A6FEF86E40E94BC0ADD2311F066E04B
:1018600002C06091E4068DE60E94BC0A60E089E750
:101870000E94BC0A6091E5068AE70E94BC0A60E00B
:1018800083E70E94BC0A60E084E70E94BC0AD11191
:1018900009C06091DC067091DD068091DE069091B2
:1018A000DF0604C060EC72E98DEE99E1DF91CF9123
:1018B000FF90EF90DF90CF90BF90AF909F908F9070
:1018C0000C94240B61E087E00E94BC0A64E28EE77E
:1018D0000E94BC0A63E088E00E94BC0A60E088E0E5
:1018E0000E94BC0A65E087E00E94BC0A62E085E0D5
:1018F0000E94BC0A83E00E94B60A8093D40684E06A
:101900000E94B60A8093D3060895EF92FF920F9338
:101910001F93CF93DF938B019C01442737FD4095A4
:10192000542F60E271EA87E090E00E94571CE901C1
:101930001C161D0614F0C1E0D0E0D80120EA36E8FC
:1019400041E050E00E94961C9E01442737FD4095DF
:10195000542F0E94571C790100E010E00E151F055E
:101960005CF4289ACE010E94D6182898CE010E94D5
:10197000D6180F5F1F4FF2CFDF91CF911F910F91BC
:10198000FF90EF900895CF93DF93D82FC0E0CD174D
:1019900074F462E070E080E194E00E94850C0E94A3
:1019A000920684EF91E00E94D618CF5FF0CFDF91CE
:1019B000CF9108952D9A2C9A65E070E08CE192E029
:1019C0000E94850C0E94920688EE93E00E94D61831
:1019D0002D982C9808952D9A2C9A65E070E08EE54C
:1019E00091E00E94850C0E9492062D982C9888EE1A
:1019F00093E00C94D618CF93C82F68EE73E080E084
:101A000090E00E94AE1864E670E080E090E00E94F2
:101A1000AE18C11103C00E94EB0C6FC0C13019F4A5
:101A20000E94EB0C7FC0C230D9F40E94EB0C64E63C
:101A300070E080E090E00E94AE180E94EB0C64E63B
:101A400070E080E090E00E94AE180E94DA0C64E63C
:101A500070E080E090E00E94AE18CF910C94EB0C07
:101A6000C33059F40E94EB0C64E670E080E090E033
:101A70000E94AE180E94EB0C33C0C43059F40E948F
:101A8000EB0C64E670E080E090E00E94AE180E94EB
:101A9000DA0C3BC0C53059F40E94EB0C64E670E0F0
:101AA00080E090E00E94AE180E94DA0C43C0C6307D
:101AB00059F40E94EB0C64E670E080E090E00E9434
:101AC000AE180E94DA0CBBCFC73099F40E94EB0C21
:101AD00064E670E080E090E00E94AE180E94DA0CAC
:101AE00064E670E080E090E00E94AE180E94DA0C9C
:101AF00029C0C83099F40E94DA0C64E670E080E0F6
:101B000090E00E94AE180E94EB0C64E670E080E06A
:101B100090E00E94AE180E94EB0C99CFC930D9F426
:101B20000E94DA0C64E670E080E090E00E94AE185B
:101B30000E94EB0C64E670E080E090E00E94AE183A
:101B40000E94EB0C64E670E080E090E00E94AE182A
:101B5000CF910C94DA0CCF910895CF92DF92EF924F
:101B6000FF920F931F93CF93DF936B017C018A0148
:101B7000E90160ED77E080E090E00E94AE1803306C
:101B80001105A4F0C701B6010E94AF1ACB0168EE9F
:101B900073E00E94211C64E670E00E94211C862FE5
:101BA0000E94FB0C81E00E94C30C03C002301105AF
:101BB000A1F4C701B6010E94AF1ACB0164E670E040
:101BC0000E94211C6AE070E00E94211C862F0E9466
:101BD000FB0C81E00E94C30C03C00130110571F4BD
:101BE000C701B6010E94AF1ACB016AE070E00E9403
:101BF000211C0E94FB0C83E00E94C30C1C161D06D6
:101C00000CF0AFC0C701B6010E94B41A80E090E0AA
:101C10000E94E01A9B01AC01C701B6010E94DE19C7
:101C20006B017C0120E030E040E251E40E94961B11
:101C30000E94B41A0AE010E0CB01B8010E940D1C0A
:101C40000E94FB0CC130D10509F48BC081E00E94D9
:101C5000C30C20E030E048EC52E4C701B6010E941A
:101C6000961B0E94B41ACB01B8010E940D1C0E9461
:101C7000FB0CC230D10509F474C081E00E94C30C92
:101C800020E030E04AE754E4C701B6010E94961B09
:101C90000E94B41ACB01B8010E940D1C0E94FB0CDB
:101CA000C330D10509F45DC081E00E94C30C20E07F
:101CB00030E44CE156E4C701B6010E94961B0E9435
:101CC000B41ACB01B8010E940D1C0E94FB0CC43059
:101CD000D10509F446C081E00E94C30C20E030E544
:101CE00043EC57E4C701B6010E94961B0E94B41A48
:101CF000CB01B8010E940D1C0E94FB0CC530D10520
:101D000081F181E00E94C30C20E034E244E759E411
:101D1000C701B6010E94961B0E94B41ACB01B801FC
:101D20000E940D1C0E94FB0C2697D9F081E00E94B6
:101D3000C30C20E836E948E15BE4C701B6010E9424
:101D4000961B0E94B41ACB01B8010E940D1CDF91B2
:101D5000CF911F910F91FF90EF90DF90CF900C9457
:101D6000FB0CDF91CF911F910F91FF90EF90DF90CF
:101D7000CF90089561E087E00C94BC0A2C982D9ACE
:101D800083E00E94B60A8093D40684E00E94B60ADB
:101D90008093D30660E086E00E94BC0A61E087E0A1
:101DA0000E94BC0A6FE789E00E94BC0A65E08AE0F5
:101DB0000E94BC0A62E18BE00E94BC0A65E18CE0F3
:101DC0000E94BC0A6DEF8DE00E94BC0A60E08EE0CC
:101DD0000E94BC0A6CE280E70E94BC0A60E080E3DB
:101DE0000E94BC0A60E089E70E94BC0A65E08AE7BD
:101DF0000E94BC0A62E181E70E94BC0A62E082E7BD
:101E00000E94BC0A60E083E70E94BC0A60E084E7AD
:101E10000E94BC0A6EE078E786E99AE10E94240BF2
:101E200067E08DE60E94BC0A6AE070E080E090E026
:101E30000E94AE1869E087E00E94BC0A6AE070E088
:101E400080E090E00C94AE18CF92DF92EF92FF9278
:101E50000F931F93CF93DF936B017C01EA018901FC
:101E60000E94620C0E94BE0E20E030E0A901C70172
:101E7000B6010E94431A87FF04C0F7FAF094F7F8FE
:101E8000F0949801AE01C701B6010E94AD0DDF913B
:101E9000CF911F910F91FF90EF90DF90CF900C9416
:101EA000BA0ECF93DF93EC014AE050E06D2F70E063
:101EB0008CE197E00E94B8166EE28CE197E00E94F8
:101EC000E515BE01E4E076956795EA95E1F76F7058
:101ED00077274AE050E08CE197E00E94B8166EE266
:101EE0008CE197E00E94E515BE016F7077274AE00C
:101EF00050E08CE197E0DF91CF910C94B8161F92DF
:101F00000F920FB60F9211240F931F932F933F93AD
:101F10004F935F936F937F938F939F93AF93BF93F1
:101F2000EF93FF93409106075091070760910807D0
:101F30007091090789B18A019B010074112722273A
:101F4000332783FB882780F990E0A0E0B0E00817F2
:101F500019072A073B0709F468C080918400909113
:101F6000850010928500109284002091A005211117
:101F70005CC045FD02C096958795853C29E0920797
:101F8000C0F180910A0190E0A0E0B0E01CE17695FC
:101F90006795579547951A95D1F7411551056105F4
:101FA000710521F441E050E060E070E04817590706
:101FB0006A077B07D8F480910A018F3FB9F040E0AF
:101FC00080910A01481780F4842F90E0880F991FB0
:101FD000FC01E058FA4F20813181FC01E15FFE4FA6
:101FE000318320834F5FECCF1092A10510920A013C
:101FF0001CC08D3B22E09207A8F020910A012031FD
:1020000088F410910A0121E0210F20930A010E9417
:10201000440AE12FF0E0EE0FFF1FE058FA4F9183E2
:10202000808303C08FEF80930A01FF91EF91BF91EE
:10203000AF919F918F917F916F915F914F913F9160
:102040002F911F910F910F900FBE0F901F90189519
:1020500083E0809380008AE1809381008FEF9FEF7F
:10206000909389008093880010926F0088E080939D
:102070006D00E8E6F0E08081846080830895CF936E
:10208000DF93C0E0D0E061E08AE00E947E198BE738
:1020900097E00E94D61860E08AE00E947E198BE7E4
:1020A00097E00E94D6182196CF34D10561F7DF91D1
:1020B000CF9108958F92AF92CF92EF92FF920F93AC
:1020C0001F9390E2892E28E9A22ECC24C39431ECF0
:1020D000E32EF12C00EC10E024EC30E045EC50E075
:1020E00060E08CE197E00E944414E7E9F6E08FEFAE
:1020F0009FEF918780873C9626E0E33DF207C9F782
:102100008BEB95E01F910F91FF90EF90CF90AF90E8
:102110008F900C948D001F93CF93DF93CDB7DEB7D4
:10212000C85CD1090FB6F894DEBF0FBECDBF10E07A
:102130008CE197E00E947B1318161906B4F41F3B3C
:10214000B8F78CE197E00E94AE13E1E0F0E0EC0F0D
:10215000FD1FE10FF11D80831F5FE1E0F0E0EC0F58
:10216000FD1FE10FF11D1082E3CF112381F063EB1E
:1021700071E0CE0101960E944F1E892B41F063E869
:1021800072E08CE197E00E94E31581E007C06FE800
:1021900072E08CE197E00E94E31580E0C853DF4FC6
:1021A0000FB6F894DEBF0FBECDBFDF91CF911F9168
:1021B00008958CE197E00E947B13181619066CF4C1
:1021C0008CE197E00E94AE13682F8BEB95E00E94A4
:1021D0003405882371F381E0089580E00895CF925B
:1021E000DF92EF92FF920F931F93CF93DF93CDB7C0
:1021F000DEB72C970FB6F894DEBF0FBECDBF48EA0E
:1022000055E06BE071E08091B3059091B4050E94B8
:10221000940647EA55E06DEA75E08091B10590912A
:10222000B2050E9494068091A805882311F02C9A8B
:1022300001C02C988091A705882311F02D9A01C028
:102240002D980E947F18C090A905D090AA05E09013
:10225000AB05F090AC056C197D098E099F09693BAF
:102260007B4081059105E8F00E947F186093A905E5
:102270007093AA058093AB059093AC058091B5054A
:102280009091B605009739F481E090E09093B605FF
:102290008093B50506C0019721F41092B6051092FF
:1022A000B5058BE00E94B419892B99F40E943F1068
:1022B0008091B1059091B205892B39F481E090E0CD
:1022C0009093B2058093B10504C01092B2051092AC
:1022D000B1050E947F180E94E01A20E030E048EC2F
:1022E00052E40E94921B181614F40E947F188091E9
:1022F000B5059091B605892BC1F41092B4051092E2
:10230000B3050E948B10882381F00E947F18609390
:10231000B7057093B8058093B9059093BA0582E02C
:1023200090E09093B6058093B5058091B5059091A6
:10233000B605029709F02DC10E947F18C090B7051D
:10234000D090B805E090B905F090BA056C197D09F8
:102350008E099F09613D77408105910598F00E94A3
:102360007F186093B7057093B8058093B905909373
:10237000BA051092B4051092B3051092B6051092EA
:10238000B50507C10E947F18C090A305D090A40591
:10239000E090A505F090A6056C197D098E099F09AE
:1023A000693B7B408105910550F00E947F18609346
:1023B000A3057093A4058093A5059093A60581E0DD
:1023C00090E09093B4058093B3050E94D9108823C0
:1023D00009F4DFC00E947F186093B7057093B805B9
:1023E0008093B9059093BA056091FB057091FC0547
:1023F0006F3F710519F46CE972E002C064557D4FBE
:102400008CE197E00E9417071D821E821F821886AA
:1024100019821A821B821C829E01275F3F4FAE01E8
:102420004F5F5F4FBE016B5F7F4F8BEB95E00E946C
:102430000A0669E372E08CE197E00E94E315C09020
:10244000F101D090F201E090F301F090F4012D81C0
:102450003E814F815885C701B6010E94431A811100
:1024600004C01D821E821F82188629813A814B81F9
:102470005C81C701B6010E94431A811104C0198210
:102480001A821B821C824D815E816F81788522E0D9
:1024900030E08CE197E00E94A9176EE372E08CE1D6
:1024A00097E00E94E31549815A816B817C8122E08B
:1024B00030E08CE197E00E94A91764E472E08CE1BF
:1024C00097E00E94E31520E030E0A9016D817E8154
:1024D0008F8198850E94431A882349F120E030E0DB
:1024E000A90169817A818B819C810E94431A88238A
:1024F000F1F085E090E09093B4058093B3050E94DD
:10250000BE0E6D817E818F81988503E010E025E00D
:1025100030E042E050E00E94240F69817A818B8193
:102520009C8125E030E042E050E00E94240F809141
:10253000FB059091FC058F3F910519F460E070E078
:1025400001C0BC014AE050E08CE197E00E94B8165F
:102550006AE472E08CE197E00E94E3158091F30554
:102560009091F405A091F505B091F6058F3F2FEFFE
:102570009207A207B20729F440E050E060E070E063
:1025800002C0AC01BD012AE030E08CE197E00E947E
:10259000AB162C960FB6F894DEBF0FBECDBFDF9101
:1025A000CF911F910F91FF90EF90DF90CF90089502
:1025B000CF92DF92EF92FF921092B4051092B30582
:1025C0001092B2051092B1051092B6051092B505A1
:1025D00080E00E94E9070E94B60761E08DE00E945A
:1025E000451961E08CE00E94451960E08BE00E9493
:1025F000451960E083E00E94451961E083E00E9494
:102600007E1961E08EE00E94451960E08EE00E9434
:102610007E190E94D10740E051EE60E070E08CE14D
:1026200097E00E946B130E9448090E942F0A0E94A3
:1026300028108FEF8093A1050E94CA0778940E940A
:102640007F186B017C018091A1058F3FB9F180ED6E
:1026500097E00E94D90761E08BE00E947E192D9AD5
:102660008CE197E00E94F31368EA73E08CE197E055
:102670000E94E31583E793E00E94510F6FEB73E034
:102680008CE197E00E94E3154AE050E062E070E0E0
:102690008CE197E00E94931680E00E948E0B80915F
:1026A000A2050E94CE0A0E94620C8FE00E94E907F8
:1026B000FF90EF90DF90CF900C94BE0E0E947F1899
:1026C0006C197D098E099F09603D77408105910550
:1026D00008F0BDCFB8CF0F931F93DC01ED91FC91B3
:1026E0000288F389E02D00E010E020E030E0099559
:1026F0001F910F910895DC015B962C915B9722232B
:1027000079F05796ED91FC915897808191812281C3
:102710003381821B930B2481358182239323089577
:102720008FEF9FEF0895DC015B962C915B9722233E
:1027300091F05996ED91FC915A9780819181228177
:102740003381821B930B8095909524813581822360
:102750009323019608958FEF9FEF0895DC015B9618
:102760002C915B97222359F05796ED91FC91589745
:1027700020813181828193812817390719F48FEFE5
:102780009FEF089582819381A681B781A80FB91F19
:102790008C91228133812F5F3F4F448155812423C7
:1027A00035233383228390E00895DC015B962C91DE
:1027B0005B97222359F05796ED91FC915897208111
:1027C0003181828193812817390719F48FEF9FEFA8
:1027D0000895828193810680F781E02DE80FF91F2B
:1027E000808190E00895DC015796ED91FC91589717
:1027F00022813381318320835996ED91FC915A9740
:1028000080819181938382830895FC01838D882345
:10281000C1F1A18DB28D2D913C9111972F5F3F4F4A
:1028200014968D919C91159728233923848D8111BD
:1028300008C012968D919C91139728173907C9F3F8
:1028400008C012968D919C9113972817390789F724
:1028500018C08D919C91119716960D90BC91A02D4A
:10286000A80FB91F6C93A18DB28D11963C932E9336
:10287000A289B3898C919689892B8C9381E090E011
:10288000089580E090E008954F925F926F927F925A
:102890008F92AF92CF92EF92FF920F931F93CF93AD
:1028A000DF93CDB7DEB7FC011382128288EE482E8B
:1028B00083E0582E612C712C448255826682778287
:1028C0008EE195E0918380835587448737872687FB
:1028D000118B008BF38AE28AC48AA58A868A28E053
:1028E000629FC00111249C012D5B384F308F278BD4
:1028F000855C984F928F818F81E090E001C0880FB6
:102900006A95EAF790913A07982B90933A0740E03E
:1029100051EE60E070E0CF01DF91CF911F910F91F8
:10292000FF90EF90CF90AF908F907F906F905F90DF
:102930004F900C946B130F931F93CF93DF938C01E5
:10294000FC011382128211821082A1E0E1E0F0E02A
:102950002A2FAF010A2E02C0440F551F0A94E2F736
:10296000CB016130B2E07B0710F080E092E04817C5
:10297000590710F4AF5FECCFC1E0D0E002C0CC0F3C
:10298000DD1F2A95E2F72197F8018681978100974C
:1029900039F0248135812C173D0789F00E94361DBE
:1029A000F801D583C483CE0101960E949E1CF801D4
:1029B0009783868321E0892B19F420E001C021E070
:1029C000822FDF91CF911F910F910895AF92BF9207
:1029D000CF92DF92EF92FF920F931F93CF93DF93EB
:1029E000EC016A017B0159018B8D8823D1F02115FF
:1029F000310539F4EF89F88DA480B5808FEFA81ADE
:102A0000B80A0115110531F4E98DFA8D048115819B
:102A10000F5F1F4FE881F9810088F189E02DCE0119
:102A20000995A114B10419F460E870E001C0B50182
:102A30008F89988D0E949B14882369F001151105D8
:102A400019F460E170E001C0B801898D9A8D0E948F
:102A50009B14811111C0E881F9810088F189E02D72
:102A6000CE01DF91CF911F910F91FF90EF90DF90FA
:102A7000CF90BF90AF900994E98DFA8D13821282A6
:102A800011821082EF89F88D1382128211821082D6
:102A900081E08B8F1C141D041E041F045CF5E88963
:102AA000F989C11481EED806E104F104A1F181E0B5
:102AB00090E00C8802C0880F991F0A94E2F7808387
:102AC00060E079E08DE390E0A70196010E94571C39
:102AD0002150310941095109CA01B90122E030E010
:102AE00040E050E00E94571CEC85FD853083EE8568
:102AF000FF852083EA89FB8980819D89892B8083DA
:102B0000DF91CF911F910F91FF90EF90DF90CF90C9
:102B1000BF90AF900895108220E130E0E5CFCF93D1
:102B2000DF93EC011B821A82198218821D821C829B
:102B30008E819F81009721F00E94361D1F821E8288
:102B4000DF91CF910895CF93DF93EC01EA89FB8960
:102B500090818E892D89822B8095892380838F890E
:102B6000988D0E948F15898D9A8D0E948F151B8ECE
:102B7000DF91CF910895CF92DF92EF92FF920F9362
:102B80001F93CF93DF936C017A01EB01E60EF71EE2
:102B900000E010E0CE15DF0561F06991D601ED91FE
:102BA000FC910190F081E02DC6010995080F191FD5
:102BB000F1CFC801DF91CF911F910F91FF90EF905E
:102BC000DF90CF9008950C941707DC01ED91FC91F4
:102BD0000190F081E02D099462E375E00C941707F1
:102BE0008F929F92AF92BF92CF92DF92EF92FF921D
:102BF0000F931F93CF93DF93CDB7DEB7A1970FB697
:102C0000F894DEBF0FBECDBF7C01C42EE52FCB01F3
:102C1000D22E19A221E02D1510F02AE0D22E8E011D
:102C20000F5D1F4F8D2C912CA12CB12C6C2D7E2F64
:102C3000A50194010E94351C8C2DD29E801911246F
:102C4000015011098A3014F4805D01C0895CF801DB
:102C50008083211531054105510521F0C22EE32F56
:102C6000CA01E4CFB801C7010E941707A1960FB6A9
:102C7000F894DEBF0FBECDBFDF91CF911F910F91B2
:102C8000FF90EF90DF90CF90BF90AF909F908F908C
:102C90000895CF92DF92EF92FF920F931F93CF93FD
:102CA000DF93EC016A017B012115310579F4E8819C
:102CB000F9810190F081E02D642FDF91CF911F9178
:102CC0000F91FF90EF90DF90CF9009942A3031055B
:102CD000E9F477FF1AC06DE20E94E5158C014427E4
:102CE0005527BA014C195D096E097F092AE0CE010A
:102CF0000E94F015800F911FDF91CF911F910F91CE
:102D0000FF90EF90DF90CF9008952AE0B701A601E1
:102D1000CE01DF91CF911F910F91FF90EF90DF9047
:102D2000CF900C94F0150F931F93CF93DF93EC018A
:102D30009A01AB01662757FD6095762F0E944916D0
:102D40008C01CE010E94EC15800F911FDF91CF9175
:102D50001F910F9108952115310541F4DC01ED918A
:102D6000FC910190F081E02D642F09940C94F015F2
:102D70009A01AB0160E070E00C94AB164F925F9249
:102D80006F927F928F929F92AF92BF92CF92DF927B
:102D9000EF92FF920F931F93CF93DF93EC016A01A1
:102DA0007B01B22E9A01AB01C701B6010E94F91B4B
:102DB000882319F065E375E027C026013701E89400
:102DC00077F82FEF3FEF4FE75FE7C301B2010E94B3
:102DD000F91B81110DC02FEF3FEF4FE75FE7C301F4
:102DE000B2010E94431A18161CF469E375E00CC086
:102DF0002FEF3FEF4FE75FE4C701B6010E94921B40
:102E00001816ACF46DE375E0CE01DF91CF911F9100
:102E10000F91FF90EF90DF90CF90BF90AF909F9079
:102E20008F907F906F905F904F900C9417072FEFCB
:102E30003FEF4FE75FECC701B6010E94431A87FDE1
:102E4000E1CF20E030E0A901C701B6010E94431A9A
:102E500087FF0AC06DE2CE010E94E5158C01F7FAEA
:102E6000F094F7F8F09402C000E010E0A12C60E0CC
:102E700070E080E09FE3AB1441F020E030E040E2FE
:102E800051E40E94471AA394F6CF9B01AC01C701FD
:102E9000B6010E94DF196B017C010E94B41A2B015C
:102EA0003C010E94E01A9B01AC01C701B6010E94DF
:102EB000DE196B017C012AE0B301A201CE010E9460
:102EC000F015080F191FBB2039F061E475E0CE0141
:102ED0000E941707080F191F7B2C772041F120E073
:102EE00030E040E251E4C701B6010E94961B6B013D
:102EF0007C010E94AF1A4B01AA2497FCA094BA2C23
:102F00002AE030E0B501A401CE010E944916080F65
:102F1000191FC501B4010E94E21A9B01AC01C7014F
:102F2000B6010E94DE196B017C017A94D6CFC801EC
:102F3000DF91CF911F910F91FF90EF90DF90CF9095
:102F4000BF90AF909F908F907F906F905F904F90C9
:102F500008950C94BE168230E8F4E82FF0E0EE0FEE
:102F6000FF1FE55BF84F71836083813041F08091F2
:102F700069008C7F842B80936900E89A0895809182
:102F80006900440F551F440F551F837F842B809386
:102F90006900E99A08951F920F920FB60F921124BB
:102FA0002F933F934F935F936F937F938F939F9351
:102FB000AF93BF93EF93FF9380914B0790914C0792
:102FC000892B29F0E0914B07F0914C070995FF916F
:102FD000EF91BF91AF919F918F917F916F915F9191
:102FE0004F913F912F910F900FBE0F901F9018950A
:102FF0001F920F920FB60F9211242F933F934F936E
:103000005F936F937F938F939F93AF93BF93EF9350
:10301000FF9380914D0790914E07892B29F0E09105
:103020004D07F0914E070995FF91EF91BF91AF9138
:103030009F918F917F916F915F914F913F912F91D0
:103040000F900FBE0F901F90189508950E94E118E1
:103050000E9425180E94D812C0E0D0E00E94EF1014
:103060002097E1F30E940000F9CF1F920F920FB654
:103070000F9211242F933F938F939F93AF93BF93FE
:103080008091500790915107A0915207B09153073A
:1030900030914F0723E0230F2D3720F40196A11D17
:1030A000B11D05C026E8230F0296A11DB11D209376
:1030B0004F078093500790935107A0935207B09306
:1030C00053078091540790915507A0915607B091EE
:1030D00057070196A11DB11D809354079093550782
:1030E000A0935607B0935707BF91AF919F918F91CF
:1030F0003F912F910F900FBE0F901F9018952FB7F3
:10310000F894609150077091510780915207909107
:1031100053072FBF08953FB7F894809154079091BB
:103120005507A0915607B091570726B5A89B05C033
:103130002F3F19F00196A11DB11D3FBF6627782FC3
:10314000892F9A2F620F711D811D911D42E0660F1C
:10315000771F881F991F4A95D1F70895CF92DF9264
:10316000EF92FF92CF93DF936B017C010E948B184B
:10317000EB01C114D104E104F10489F00E94DD19CE
:103180000E948B186C1B7D0B683E734090F381E0AE
:10319000C81AD108E108F108C851DC4FEACFDF9125
:1031A000CF91FF90EF90DF90CF90089582309105FE
:1031B00038F0880F991F880F991F05970197F1F72D
:1031C0000895789484B5826084BD84B5816084BD9F
:1031D00085B5826085BD85B5816085BDEEE6F0E090
:1031E000808181608083E1E8F0E0108280818260EC
:1031F0008083808181608083E0E8F0E0808181606D
:103200008083E1EBF0E0808184608083E0EBF0E09C
:10321000808181608083EAE7F0E080818460808340
:1032200080818260808380818160808380818068EA
:1032300080831092C1000895833081F028F481309A
:1032400099F08230A1F008958730A9F08830B9F064
:103250008430D1F4809180008F7D03C08091800004
:103260008F7780938000089584B58F7702C084B5EE
:103270008F7D84BD08958091B0008F7703C08091C9
:10328000B0008F7D8093B0000895CF93DF9390E0DE
:10329000FC01E458FF4F2491FC01E057FF4F84915B
:1032A000882349F190E0880F991FFC01E854FF4FF3
:1032B000A591B49182559F4FFC01C591D4919FB7C0
:1032C000611108C0F8948C91209582238C93888199
:1032D00082230AC0623051F4F8948C91322F3095D9
:1032E00083238C938881822B888304C0F8948C91EB
:1032F000822B8C939FBFDF91CF9108950F931F93E3
:10330000CF93DF931F92CDB7DEB7282F30E0F901BE
:10331000E859FF4F8491F901E458FF4F1491F901E6
:10332000E057FF4F04910023C9F0882321F06983FF
:103330000E941C196981E02FF0E0EE0FFF1FE2559B
:10334000FF4FA591B4919FB7F8948C91611103C080
:103350001095812301C0812B8C939FBF0F90DF912B
:10336000CF911F910F910895CF93DF93282F30E0D5
:10337000F901E859FF4F8491F901E458FF4FD491C6
:10338000F901E057FF4FC491CC2391F081110E94C5
:103390001C19EC2FF0E0EE0FFF1FEC55FF4FA5912D
:1033A000B4912C912D2381E090E021F480E002C0C3
:1033B00080E090E0DF91CF91089508955058BB27A9
:1033C000AA270ED075C166D130F06BD120F031F450
:1033D0009F3F11F41EF45BC10EF4E095E7FB51C171
:1033E000E92F77D180F3BA1762077307840795072F
:1033F00018F071F49EF58FC10EF4E0950B2EBA2FE4
:10340000A02D0B01B90190010C01CA01A0011124EA
:10341000FF27591B99F0593F50F4503E68F11A1696
:10342000F040A22F232F342F4427585FF3CF469527
:1034300037952795A795F0405395C9F77EF41F1649
:10344000BA0B620B730B840BBAF09150A1F0FF0F13
:10345000BB1F661F771F881FC2F70EC0BA0F621FFF
:10346000731F841F48F4879577956795B795F795EF
:103470009E3F08F0B3CF9395880F08F09927EE0F81
:10348000979587950895D9D008F481E008950CD0D8
:103490000FC107D140F0FED030F021F45F3F19F0AA
:1034A000F0C0511139C1F3C014D198F39923C9F375
:1034B0005523B1F3951B550BBB27AA27621773073A
:1034C000840738F09F5F5F4F220F331F441FAA1FEE
:1034D000A9F333D00E2E3AF0E0E830D091505040AE
:1034E000E695001CCAF729D0FE2F27D0660F771F5C
:1034F000881FBB1F261737074807AB07B0E809F03E
:10350000BB0B802DBF01FF2793585F4F2AF09E3FD2
:10351000510568F0B6C000C15F3FECF3983EDCF3A4
:10352000869577956795B795F7959F5FC9F7880F4B
:10353000911D9695879597F90895E1E0660F771F9D
:10354000881FBB1F621773078407BA0720F0621B2E
:10355000730B840BBA0BEE1F88F7E095089504D027
:103560006894B111D9C00895BCD088F09F5790F0ED
:10357000B92F9927B751A0F0D1F0660F771F881F98
:10358000991F1AF0BA95C9F712C0B13081F0C3D0B3
:10359000B1E00895C0C0672F782F8827B85F39F051
:1035A000B93FCCF3869577956795B395D9F73EF4F7
:1035B00090958095709561957F4F8F4F9F4F08959F
:1035C000E89409C097FB3EF49095809570956195BD
:1035D0007F4F8F4F9F4F9923A9F0F92F96E9BB2773
:1035E0009395F695879577956795B795F111F8CFEF
:1035F000FAF4BB0F11F460FF1BC06F5F7F4F8F4F5A
:103600009F4F16C0882311F096E911C0772321F04F
:103610009EE8872F762F05C0662371F096E8862FE7
:1036200070E060E02AF09A95660F771F881FDAF73E
:10363000880F9695879597F90895990F0008550F6B
:10364000AA0BE0E8FEEF16161706E807F907C0F028
:1036500012161306E407F50798F0621B730B840B30
:10366000950B39F40A2661F0232B242B252B21F40A
:1036700008950A2609F4A140A6958FEF811D811DAA
:10368000089597F99F6780E870E060E008959FEFE4
:1036900080EC089500240A941616170618060906E9
:1036A000089500240A9412161306140605060895B8
:1036B000092E0394000C11F4882352F0BB0F40F440
:1036C000BF2B11F460FF04C06F5F7F4F8F4F9F4F80
:1036D000089557FD9058440F551F59F05F3F71F002
:1036E0004795880F97FB991F61F09F3F79F0879569
:1036F0000895121613061406551FF2CF4695F1DFF2
:1037000008C0161617061806991FF1CF8695710581
:10371000610508940895E894BB2766277727CB01B5
:1037200097F908958ADF08F48FEF08950BD0C0CF82
:10373000B1DF28F0B6DF18F0952309F0A2CFA7CFAC
:103740001124EACFC6DFA0F3959FD1F3950F50E087
:10375000551F629FF001729FBB27F00DB11D639F43
:10376000AA27F00DB11DAA1F649F6627B00DA11DE9
:10377000661F829F2227B00DA11D621F739FB00D8F
:10378000A11D621F839FA00D611D221F749F3327FF
:10379000A00D611D231F849F600D211D822F762F98
:1037A0006A2F11249F5750408AF0E1F088234AF095
:1037B000EE0FFF1FBB1F661F771F881F91505040E1
:1037C000A9F79E3F510570F05CCFA6CF5F3FECF3A9
:1037D000983EDCF3869577956795B795F795E795CD
:1037E0009F5FC1F7FE2B880F911D9695879597F9DE
:1037F000089523DF880B990B0895DB018F939F9326
:103800000E948B1CBF91AF91A29F800D911DA39F21
:10381000900DB29F900D11240895AA1BBB1B51E17E
:1038200007C0AA1FBB1FA617B70710F0A61BB70B30
:10383000881F991F5A95A9F780959095BC01CD01D5
:10384000089597FB072E16F4009407D077FD09D052
:103850000E940D1C07FC05D03EF4909581959F4F6A
:103860000895709561957F4F0895A1E21A2EAA1BC5
:10387000BB1BFD010DC0AA1FBB1FEE1FFF1FA21720
:10388000B307E407F50720F0A21BB30BE40BF50B1D
:10389000661F771F881F991F1A9469F760957095A6
:1038A000809590959B01AC01BD01CF010895052E37
:1038B00097FB1EF400940E946E1C57FD07D00E94D7
:1038C000351C07FC03D04EF40C946E1C50954095AB
:1038D000309521953F4F4F4F5F4F089590958095BC
:1038E000709561957F4F8F4F9F4F0895EE0FFF1F8B
:1038F0000590F491E02D0994A29FB001B39FC001FF
:10390000A39F700D811D1124911DB29F700D811D0B
:103910001124911D08950E947C1CA59F900DB49FB9
:10392000900DA49F800D911D11240895B7FF0C9454
:103930008B1C0E948B1C821B930B0895CF93DF93EB
:103940008230910510F482E090E0E0915A07F09106
:103950005B0720E030E0A0E0B0E0309739F1408133
:10396000518148175907B8F04817590771F48281F7
:103970009381109729F013969C938E9312972CC0E5
:1039800090935B0780935A0727C02115310531F0CA
:103990004217530718F0A901DB0101C0EF019A019A
:1039A000BD01DF010280F381E02DD7CF2115310564
:1039B000F9F0281B390B2430310580F48A819B8172
:1039C0006115710521F0FB019383828304C09093FC
:1039D0005B0780935A07FE01329644C0FE01E20F56
:1039E000F31F8193919322503109398328833AC080
:1039F0002091580730915907232B41F4209102015F
:103A0000309103013093590720935807209100010A
:103A1000309101012115310541F42DB73EB7409198
:103A2000040150910501241B350BE0915807F091DA
:103A30005907E217F307A0F42E1B3F0B281739078D
:103A400078F0AC014E5F5F4F2417350748F04E0FFA
:103A50005F1F50935907409358078193919302C079
:103A6000E0E0F0E0CF01DF91CF910895CF93DF93B5
:103A7000009709F487C0FC01329713821282C0912B
:103A80005A07D0915B07209781F420813181280F5C
:103A9000391F80915807909159078217930779F53C
:103AA000F0935907E09358076DC0DE0120E030E045
:103AB000AE17BF0750F412964D915C9113979D017C
:103AC0004115510509F1DA01F3CFB383A283408197
:103AD0005181840F951F8A179B0771F48D919C91DA
:103AE0001197840F951F02969183808312968D9172
:103AF0009C911397938382832115310529F4F093C8
:103B00005B07E0935A073EC0D9011396FC93EE93EE
:103B100012974D915D91A40FB51FEA17FB0779F439
:103B200080819181840F951F0296D90111969C93F3
:103B30008E938281938113969C938E931297E0E0EB
:103B4000F0E08A819B81009719F0FE01EC01F9CF2A
:103B5000CE01029628813981820F931F2091580748
:103B6000309159072817390769F4309729F41092D2
:103B70005B0710925A0702C013821282D093590732
:103B8000C0935807DF91CF9108958F929F92AF9283
:103B9000BF92CF92DF92EF92FF92CF93DF93EC012F
:103BA000688179818A819B81611571058105910503
:103BB00021F464E279ED8BE597E02DE133EF41E00C
:103BC00050E00E94571C49015A019B01AC01A7EA31
:103BD000B1E40E948B1C6B017C01ACEEB4EFA5013B
:103BE00094010E94991CC60ED71EE81EF91EF7FE0E
:103BF00006C081E0C81AD108E10880E8F80AC88246
:103C0000D982EA82FB82C701B6019F77DF91CF910B
:103C1000FF90EF90DF90CF90BF90AF909F908F90EC
:103C200008950E94C51D089586E091E00E94C51D7B
:103C300008956093060170930701809308019093A3
:103C400009010895FC0188279927E89421912032E1
:103C5000E9F3293010F02E30C8F32B3241F02D3229
:103C600039F4689404C00E94691E820F911D21914D
:103C700020532A30C0F31EF4909581959F4F0895EC
:103C8000FB01DC014150504048F001900D920020B2
:103C9000C9F701C01D9241505040E0F70895FB0163
:103CA00051915523A9F0BF01DC014D9145174111F8
:103CB000E1F759F4CD010190002049F04D914015F4
:103CC0004111C9F3FB014111EFCF81E090E0019771
:103CD00008957AE0979F902D879F802D910D112454
:103CE0000895F999FECF92BD81BDF89A992780B5C4
:103CF0000895262FF999FECF1FBA92BD81BD20BD30
:103D00000FB6F894FA9AF99A0FBE01960895F894AE
:023D1000FFCFE3
:103D120000005C07800001000000FFC800000000F6
:103D22000200020002000200020002000200020081
:103D320002000200020002000200020002000280F1
:103D420025000005400AA1204EA50020244EA52CE6
:103D52002330C01200001A400AA1204EA5001B1EEB
:103D620027522C23308025000005400AA1204EA5B1
:103D72000020244EA52C2330004B000006400AD020
:103D8200009D49007B289D492C233000E10000055D
:103D9200400A4501D7DC03B81E0EBF00232E48E8B7
:103DA20001008A400A6001555502AD1E2000002321
:103DB200C84750524D4300474E524D4300474E476D
:103DC2004E5300474E475341004750475341004727
:103DD2004C475356004750474741004750475356B8
:103DE200004E4E4500454E45004553450053534550
:103DF200005353570057535700574E57004E4E57D4
:103E02000000007A4454582074696D656F757421FE
:103E120000596573004E6F00386368004E2F4100F1
:103E22002C205B005D2028002900486F7020636809
:103E3200616E6E656C200020402000706F7A79639D
:103E42006A613D006669783D004C41543D00204C5A
:103E52004F4E3D00205341543D0020505245433DBA
:103E6200006B6F6E696563207465737475007363AC
:103E7200616E6E6572206D6F646500737472696E37
:103E8200673A0024474E4753412C0024475047537A
:103E9200412C0057796E696B3A2074727565005730
:103EA200796E696B3A2066616C736500706172733A
:103EB200654F4B2020204E4F464958007061727367
:103EC200654F4B2020534154533A20004E4F54200B
:103ED200454E41424C45440053656E64696E67200D
:103EE20073657474696E677320746F2052580A0088
:103EF200526573657474696E672073657474696E54
:103F02006773206F6E2052580A0041626F727465A7
:103F1200642065646974730A00696E76616C696411
:103F22002073656C656374696F6E000D0A496E7665
:103F3200616C696420696E707574202D20646973E8
:103F420063617264656421070053657474696E6706
:103F52007320736176656420746F20454550524F1B
:103F62004D0A0052657665727465642073657474D7
:103F7200696E67732066726F6D20454550524F4DD2
:103F82000A004C6F6164656420666163746F7279C4
:103F92002064656661756C74730A004B65792061F3
:103FA2006E64206368616E6E656C732072616E640C
:103FB2006F6D697A65640A004F70656E4C52536E7C
:103FC20067205458207374617274696E67200020F0
:103FD2006F6E20485720002447504753562C322CEE
:103FE200312C30352C30322C31332C3133382C32C9
:103FF200322C31322C36372C3237302C33332C31B1
:10400200342C32382C3331312C33342C32342C379B
:10401200362C3137372C31332A37440A244750475C
:1040220053562C322C322C30352C32352C32362C45
:104032003236332C33352A34450A24474E524D4307
:104042002C3232353130312E38302C412C35323150
:10405200322E38383538302C4E2C30323131302E29
:1040620035373836352C452C302E3036352C2C3021
:1040720038313231352C2C2C412A36440A24474C13
:104082004753562C312C312C30322C36382C3232CC
:104092002C3330382C33372C2C2C2C32392A354403
:1040A2000A24474E474C4C2C353231322E383835A3
:1040B20038312C4E2C30323131302E3537383633C0
:1040C2002C452C3232353130312E36302C412C41B8
:1040D2002A37310A00342B34003800382B340031AF
:1040E200320031322B340031360050504D005253E1
:1040F2005349005344410053434C00525844005426
:1041020058440041494E004C424545500053504BE3
:1041120054524D00534255530053554D44004C4C9C
:10412200494E4400160A13223129000000000514EA
:10413200BB157B13AE13D513F31393136B13A31594
:10414200E6140D0A006E616E00696E66006F766697
:04415200002E00003B
:00000001FF
