:100000000C9463000C94BC0B0C94E90B0C948B00C7
:100010000C948B000C94E9040C948B000C948B00D2
:100020000C948B000C948B000C948B000C948B0024
:100030000C948B000C948B000C948B000C948B0014
:100040000C94890A0C948B000C94B8010C94F40164
:100050000C948B000C948B000C948B000C948B00F4
:100060000C948B000C948B000000000024002700EF
:100070002A0000000000250028002B0000000000DE
:1000800023002600290004040404040404040202DA
:100090000202020203030303030301020408102007
:1000A0004080010204081020010204081020000012
:1000B0000007000201000003040600000000000029
:1000C00000002F019E0511241FBECFEFD8E0DEBF38
:1000D000CDBF14E0A0E0B1E0ECE4F5E202C0059091
:1000E0000D92A83DB107D9F717E0A8EDB4E001C023
:1000F0001D92A537B107E1F710E0C6ECD0E004C0CF
:100100002297FE010E94A012C23CD107C9F70E94AB
:10011000480E0C94EE000C940000A0E0B0E0E3E97F
:10012000F0E00C946F12EC01A880B980CA80DB80EB
:10013000A114B104C104D10441F484E2A82E89EDD4
:10014000B82E8BE5C82E87E0D82EC601B5012DE16B
:1001500033EF41E050E00E944C1227EA31E440E0E6
:1001600050E00E940B127B018C01C601B5012DE10C
:1001700033EF41E050E00E944C12CA01B9012CEE6D
:1001800034EF4FEF5FEF0E940B126E0D7F1D801F4B
:10019000911F97FF04C06150704080409048688371
:1001A00079838A839B839B01AC015F77B901CA0184
:1001B000CDB7DEB7EAE00C948B120E948D00089553
:1001C00085E094E00E948D0008956093050470938B
:1001D000060480930704909308040895F8940C94FF
:1001E000A41260E070E080E89FE30895FC018AEAD1
:1001F00094E091838083128213821482158214A268
:1002000015A217A216A210A612A613A614A615A62A
:1002100016AEED5BFF4F119211921192119281E097
:1002200090E081939193119211921192119280E03A
:1002300090E0A0E0B0E081939193A193B19381937A
:100240009193A193B19380839183A283B383089503
:10025000DF93CF93CDB7DEB7CF91DF910895E0EE76
:10026000F4E08FEF9FEF918380833C9625E0EC31A3
:10027000F207C9F70895FC012FEF3FEF4FEF5FEF53
:10028000208331834283538310861186128613861E
:100290008FEF99ECAAE9BBE3808B918BA28BB38B98
:1002A000808F918FA28FB38F80A391A3A2A3B3A3BA
:1002B00080A791A7A2A7B3A780AB91ABA2ABB3AB2A
:1002C00020AF31AF42AF53AFE05CFF4F8FEF90E014
:1002D000918380833496208331834283538338967D
:1002E0002083318342835383389611921082709613
:1002F00086E08193119211921082E659FF4F11927C
:100300001192119211921192119211821082E2585F
:10031000F0401082089580E00895CF93DF93EC01C0
:100320006115710519F420E030E00FC0DB010D907C
:100330000020E9F71197A61BB70BE881F98102802D
:10034000F381E02DAD0109959C01C901DF91CF91A9
:10035000089580911405813019F482E0809314058A
:1003600080911405833019F484E080931405089576
:100370001F920F920FB60F9211242F933F934F931A
:100380008F939F93EF93FF934091C6002091600756
:10039000309161072F5F3F4F80916407909165070F
:1003A0002823392380916207909163072817390722
:1003B00079F08091600790916107E0916607F09174
:1003C0006707E80FF91F40833093610720936007A8
:1003D000FF91EF919F918F914F913F912F910F90AE
:1003E0000FBE0F901F9018951F920F920FB60F928D
:1003F00011242F933F938F939F93EF93FF9320911B
:100400006A0730916B0780916807909169072817F8
:100410003907E9F080916A0790916B07E0916E07C8
:10042000F0916F07E80FF91F80818093C6008091DB
:100430006A0790916B07019620916C0730916D07C8
:100440008223932390936B0780936A0710C02091B7
:1004500068073091690780916A0790916B072817A8
:10046000390729F48091C1008F7D8093C100FF91ED
:10047000EF919F918F913F912F910F900FBE0F9011
:100480001F90189587E380934C0580E092ECA1E0E3
:10049000B0E080934D0590934E05A0934F05B09327
:1004A000500589E08093750587E08093590580ECBD
:1004B00092E9ADEEB9E18093510590935205A09376
:1004C0005305B093540585E080935A058DEE9EEF59
:1004D000ADEABEED8093550590935605A093570560
:1004E000B0935805ABE5B5E080E090E0863010F0C1
:1004F000E0E004C0FC01E654FB4FE081ED9301967F
:100500008831910599F782E0809373058AE08093A2
:100510007405089523E08032920718F420E030E05B
:1005200026C023E0883E920748F49C012F513340B7
:10053000F4E036952795FA95E1F719C027E0803D5C
:10054000920720F49C012C5D334011C028E08839CB
:10055000920718F02FEF33E00AC09C01285C374067
:10056000E4E036952795EA95E1F72D503C4FC90117
:100570000895882339F05F980000289A00005F9A58
:10058000000008955F980000289800005F9A00001E
:1005900008950F931F93082F5C9A5F985C9810E062
:1005A000802F80780E94B902000F1F5F1830C1F7BA
:1005B0005F981F910F9108958F770E94C902089547
:1005C0000F931F93082F10E0802F80780E94B902AC
:1005D000000F1F5F1830C1F75F981F910F910895AA
:1005E0005F9820E030E0220F5F9A000083B15F98AF
:1005F000000090E0969587958170280F3F5F383016
:1006000091F7822F08950E94DC020E94F0025C9A0A
:1006100008951F93162F80680E94C902812F0E949F
:10062000E0025C9A1F9108951F93109155051827B9
:10063000ECE4F5E0E80FF11D89E767850E94090306
:100640008DE3612F0E94090382E4612F0E94090358
:100650001F9108950F931F938C018CE1F801648121
:100660000E9409038DE1F80165810E9409038EE172
:10067000F80166810E94090380E2F80167810E9407
:10068000090381E2F80160850E94090382E2F80112
:1006900061850E94090383E2F80162850E940903D3
:1006A00084E2F80163850E94090385E2F80164850C
:1006B0000E9409038AE2F80165850E9409038EE61B
:1006C000F80166850E9409038FE6F80167850E949C
:1006D000090380E7F80160890E94090381E7F801B6
:1006E00061890E94090382E7F80162890E94090377
:1006F0001F910F910895EF92FF920F931F93CF9345
:10070000DF937B018C01603028E372072CE98207BC
:100710002CE1920728F520E836E948E950E00E94EC
:100720002A12E9016897B90180E090E020E839E6F3
:1007300047E65FEF0E940B126E0D7F1D801F911F19
:1007400012E0660F771F881F991F1A95D1F721E7CE
:1007500032E040E050E00E942A12890180E421C08A
:1007600020E03DE241E351E00E942A12E90168974E
:10077000B90180E090E020E033ED4EEC5EEF0E94A6
:100780000B126E0D7F1D801F911F660F771F881F34
:10079000991F21E732E040E050E00E942A128901CF
:1007A00080E69E012F71622F680F85E70E94090382
:1007B00086E7612F0E94090387E7602F0E940903E3
:1007C000DF91CF911F910F91FF90EF9008959F922D
:1007D000AF92BF92CF92DF920F93DF93CF9300D06F
:1007E00000D0CDB7DEB7982E83E00E94030380933C
:1007F000760584E00E9403038093770586E060E03D
:100800000E94090387E061E00E94090389E06FE725
:100810000E9409038AE065E00E9409038BE062E11F
:100820000E9409038CE065E10E9409038DE06DEFF1
:100830000E9409038EE060E00E940903992019F0EC
:1008400088E694E008C08091730523E1829FC0018F
:100850001124875F9B4F0E942A0380E36CE80E946B
:10086000090382E36FE00E94090383E362E40E94CC
:10087000090384E36AE00E94090385E36AE20E94B7
:10088000090386E36DE20E94090387E364ED0E9499
:10089000090388E360E00E94090389E360E00E94A5
:1008A0000903992049F025E8A22E21ECB22E21EC73
:1008B000C22E2EEDD22E08C0A0905505B090560540
:1008C000C0905705D09058050AE38D2D9927AA2787
:1008D000BB2789839A83AB83BC83802F69810E9465
:1008E0000903802F8B5F69810E940903DC2CCB2CCC
:1008F000BA2CAA240F5F0E3341F783E46FEF0E94F6
:10090000090384E46FEF0E94090385E46FEF0E94FE
:10091000090386E46FEF0E940903992019F08DE620
:1009200066E003C08DE6609159050E94090389E7DE
:1009300060E00E9409038AE760915A050E9409035A
:1009400083E760E00E94090384E760E00E940903F6
:10095000992029F060EC72E98DEE99E108C0609170
:1009600051057091520580915305909154050E9454
:100970007B030F900F900F900F90CF91DF910F910D
:10098000DF90CF90BF90AF909F90089587E061E097
:100990000E9409038EE764E20E94090388E063E095
:1009A0000E94090388E060E00E94090387E065E097
:1009B0000E94090385E062E00E94090383E00E942F
:1009C00003038093760584E00E94030380937705F8
:1009D00008951F920F920FB60F921124EF92FF927B
:1009E0000F931F932F933F934F935F936F937F9337
:1009F0008F939F93AF93BF93EF93FF93E09038054E
:100A0000F090390500913A0510913B0589B1A80194
:100A10009701207430704070507090E063E09695BC
:100A200087956A95E1F7A0E0B0E081709070A070C2
:100A3000B070281739074A075B0709F46AC020918C
:100A4000840030918500109285001092840080917E
:100A5000E306882309F05DC0E5FC02C036952795C2
:100A600089E0253C3807C8F180919B04A8019701D3
:100A7000BCE15695479537952795BA95D1F721153D
:100A800031054105510521F421E030E040E050E01E
:100A900090E0A0E0B0E0281739074A075B07D0F4E0
:100AA00080919B048F3FB1F020E00EC0E22FF0E078
:100AB000EE0FFF1FDF01AC51B94F8D919C91E558AE
:100AC000FB4F918380832F5F80919B04281770F3E5
:100AD0001092E20610929B041CC082E02D3B380766
:100AE000A8F080919B04803188F410919B04C90187
:100AF0000E948A02E12FF0E0EE0FFF1FEC51F94F48
:100B0000918380831F5F10939B0403C08FEF8093BA
:100B10009B04FF91EF91BF91AF919F918F917F9136
:100B20006F915F914F913F912F911F910F91FF9086
:100B3000EF900F900FBE0F901F9018958F92AF926D
:100B4000CF92EF92FF920F931F9385E195E060E0C3
:100B500045EC50E024EC30E000EC10E0F1ECEF2E3E
:100B6000F12CCC24C394E8E9AE2E70E2872E0E94CB
:100B7000670EECE0F7E08FEF9FEF918380833C9668
:100B800027E0E834F207C9F788E795E00E943B01C7
:100B900085E596E00E94F60084EB94E0909356067B
:100BA000809355061092AE061092AF061092BF06C3
:100BB0001092C0061092C1061092C2061F910F91AA
:100BC000FF90EF90CF90AF908F9008950F931F9369
:100BD000CF93DF938B01EA018230910561F183307D
:100BE00091053CF4009709F465C0019709F06CC0C9
:100BF00048C08330910509F444C0059709F064C0EA
:100C000056C00E94D10AF80120813181428153816E
:100C1000621B730B840B950B693C71058105910573
:100C200008F452C018820E94D10AF80160837183CF
:100C30008283938349C08881882309F43DC00E9440
:100C4000D10AF8012081318142815381621B730BEB
:100C5000840B950B695E73408040904068F1E2CF51
:100C60000E94D10AF8012081318142815381621BA7
:100C7000730B840B950B615B74408040904020F1B6
:100C800013C088818823E1F40E94D10AF8012081F1
:100C9000318142815381621B730B840B950B695E1A
:100CA00073408040904060F081E08883BCCF81E059
:100CB00088830AC0188208C08881882329F4D0CF8D
:100CC0008881882309F09DCFDF91CF911F910F91EB
:100CD0000895DF93CF9300D0CDB7DEB7809148075A
:100CE000909149076CE974E04AE457E00E94E605F8
:100CF00080914607909147076BE477E04FE457E017
:100D00000E94E60580914A07882311F02C9A01C0C1
:100D10002C9880914F07882311F02D9A01C02D98AF
:100D20000E94D10A2091400730914107409142072B
:100D300050914307621B730B840B950B615A7F40E4
:100D400080409040E8F00E94D10A60934007709381
:100D50004107809342079093430780914407909105
:100D60004507009739F481E090E090934507809320
:100D7000440706C0019721F41092450710924407DA
:100D80008BE00E94A90C892B51F585E195E067E085
:100D900071E00E94350E8091710790917207009763
:100DA00011F485E797E0BE016F5F7F4F681B790BF9
:100DB00085E195E04AE050E00E94130E80914607DD
:100DC00090914707892B39F481E090E09093470791
:100DD0008093460704C010924707109246070F9071
:100DE0000F90CF91DF9108958AE060E00E94550C4A
:100DF00008958AE061E00E94160C8AE060E00E949B
:100E0000550C089589E060E00E94160C88E061E0CE
:100E10000E94160C87E061E00E94160C82E060E000
:100E20000E94160C84E061E00E94160C08952C9A32
:100E30002D9A83E00E9403038093760584E00E944C
:100E400003038093770586E060E00E94090387E052
:100E500061E00E94090389E06FE70E9409038AE0CC
:100E600065E00E9409038BE062E10E9409038CE0C7
:100E700065E10E9409038DE06DEF0E9409038EE099
:100E800060E00E94090380E76CE20E94090380E3AE
:100E900060E00E94090389E760E00E9409038AE795
:100EA00065E00E94090381E762E10E94090382E78D
:100EB00062E00E94090383E760E00E94090384E77F
:100EC00060E00E9409036EE078E786E99AE10E94FB
:100ED0007B038DE667E00E9409036AE070E080E032
:100EE00090E00E94050B87E069E00E9409036AE038
:100EF00070E080E090E00E94050B08950F931F932F
:100F0000082F17C02D9A64E670E080E090E00E9400
:100F1000050B2D9864E670E080E090E00E94050BE0
:100F20001F5F101778F36CE271E080E090E00E94A0
:100F3000050B10E0F6CF482F392F25E00DC0F999A9
:100F4000FECF1FBA842F932F92BD81BD60BD0FB617
:100F5000F894FA9AF99A0FBE215059F0F999FECFF8
:100F6000842F932F92BD81BDF89A80B5681739F709
:100F7000089582E00E947E0708952F923F924F923B
:100F80005F926F927F928F929F92AF92BF92CF9219
:100F9000DF92EF92FF920F931F93CF93DF93282E50
:100FA000362EEE24FF2488249924C0E0D0E002C02D
:100FB00033243394CC24DD24222071F48091320533
:100FC00027E4829FE0011124B3E3EB2EB5E0FB2E72
:100FD000A9E18A2E912C1EC031E0231679F480916C
:100FE000320597E4899FE00111246B96FCE4EF2E13
:100FF000F5E0FF2EEAE28E2E912C0CC0E2E02E16D8
:1010000049F472E3E72E75E0F72E61E0862E912C0D
:10101000CCE1D1E02E014C0C5D1C109251071092D6
:101020005007E20133C0332059F4F999FECFD2BD05
:10103000C1BDF89A80B5F701E00FF11F808307C0AA
:10104000F701E00FF11FCE0160810E949B070E0D9A
:101050001F1DF80170806624809150079091510700
:101060008625972540E09C01220F331F97FF05C07E
:1010700081E290E18227932701C0C9014F5F483088
:1010800091F7909351078093500721969E01241960
:10109000022F10E00815190508F4C5CFCE01332042
:1010A000D9F4F999FECFD2BDC1BDF89A20B5F9990E
:1010B000FECF2196D2BDC1BD2197F89A80B590E0B0
:1010C000B22EAA248A299B292091500730915107DA
:1010D0002817390759F46CCF2196609151070E9467
:1010E0009B07CE01609150070E949B0780E291E030
:1010F000C80ED91E91EEC91692E0D90608F45CCF4D
:10110000832DDF91CF911F910F91FF90EF90DF9092
:10111000CF90BF90AF909F908F907F906F905F9097
:101120004F903F902F90089580E061E00E94BD07AE
:1011300081E061E00E94BD07089582E061E00E94C5
:10114000BD07089582E060E00E94BD0780913205EE
:10115000843020F0109232050E949D080895EF928D
:10116000FF920F931F937C0105E115E0C8016F2DDD
:1011700070E04AE050E00E94C20DC8016EE20E9499
:10118000270DB70144E0769567954A95E1F76F70B2
:101190007070C8014AE050E00E94C20DC8016EE2C2
:1011A0000E94270D8FE0E822FF24C801B7014AE022
:1011B00050E00E94C20D1F910F91FF90EF90089593
:1011C000DF92EF92FF920F931F93CF93DF930E94D2
:1011D000DF0A6115710581059105C9F30E94E500DB
:1011E0001092550510925605109257051092580509
:1011F000DD24E0905505F0905605009157051091BB
:101200005805102F0F2DFE2CEE240E94E0002FEF2A
:1012100030E040E050E00E944C12E60EF71E081F3E
:10122000191FE0925505F09256050093570510934B
:101230005805D39444E0D416E1F6CBE5D5E000E0C0
:1012400010E060E1E62E67E2F62E4EC00F5F19F463
:101250000E9442024DC00E94E00022E330E040E0E4
:1012600050E00E944C126F5FEBE5F5E090E004C0A7
:101270008191861759F39F5F9117D0F380915A059A
:1012800090E08E9D90018F9D300D9E9D300D11241C
:10129000862F90E0AC01249FC001259F900D349FC4
:1012A000900D1124AA2797FDA095BA2F20915105E2
:1012B000309152054091530550915405820F931F70
:1012C000A41FB51F20913405309135054091360596
:1012D00050913705281739074A075B0708F4B6CF3E
:1012E00069931F5F183121F08881882309F0AECF00
:1012F000DF91CF911F910F91FF90EF90DF900895B4
:1013000080E060E00E94BD07882331F081E060E06A
:101310000E94BD07882329F580EC91EDA8E9BBE187
:101320008093340590933505A0933605B093370527
:1013300080E090E0A0E0B0E5809338059093390517
:10134000A0933A05B0933B05ECE3F5E080E0819390
:101350008F5F8031E1F70E9442020E94E0080E9404
:101360009408089580E069EA71E042E050E00E944C
:10137000990B0895EF92FF920F931F9310924907D4
:10138000109248071092470710924607109245079F
:1013900010924407E3E0F0E089E0809357008491E5
:1013A0008670863061F48FB791E090935207F8947D
:1013B000A89598E190936000109260008FBF0E9402
:1013C00002078DE061E00E94160C8CE061E00E9453
:1013D000160C8BE060E00E94160C83E060E00E9437
:1013E000160C83E061E00E94550C8EE061E00E94E3
:1013F000160C8EE060E00E94550C0E94F90685E113
:1014000095E040E051EE60E070E00E94570E0E94CF
:10141000A2080E94800983E0809380008AE1809383
:1014200081008FEF9FEF9093890080938800109246
:101430006F0088E080936D008091680084608093E5
:1014400068008FEF8093E2060E94B20978940E94B0
:10145000D10A7B018C018091E2068F3F09F50E9441
:10146000D10A6E197F09800B910B605D7740804037
:101470009040B0F4F0CF9FB781E080935207F8948A
:10148000A89588E1809360008FE080936000A89524
:101490009FBF0E9417071F910F91FF90EF90089533
:1014A00080ED97E00E94F4068BE061E00E94550C0D
:1014B0002D9A85E195E00E94360F85E195E068E977
:1014C00072E00E94320E83E793E00E94AF0885E14C
:1014D00095E06FEA72E00E94320E85E195E062E0ED
:1014E00070E04AE050E00E94130E80E00E94E703A3
:1014F000809154060E9414030E94C604E3E0F0E0C9
:1015000089E08093570084918670863009F0C1CFBE
:10151000B2CF1F920F920FB60F9211242F933F93C9
:101520008F939F93AF93BF938091570790915807E4
:10153000A0915907B0915A0730915B070196A11D00
:10154000B11D232F2D5F2D3720F02D570196A11DA2
:10155000B11D20935B078093570790935807A09382
:101560005907B0935A078091530790915407A0915F
:101570005507B09156070196A11DB11D80935307E1
:1015800090935407A0935507B0935607BF91AF911E
:101590009F918F913F912F910F900FBE0F901F90B1
:1015A00018958FB7F89420915707309158074091BC
:1015B000590750915A078FBFB901CA0108959FB7C3
:1015C000F89420915307309154074091550750915A
:1015D000560786B5A89B06C08F3F21F02F5F3F4F6F
:1015E0004F4F5F4F9FBF542F432F322F2227280F7B
:1015F000311D411D511D82E0220F331F441F551F15
:101600008A95D1F7B901CA0108959B01AC017FB752
:10161000F8948091530790915407A0915507B09189
:10162000560766B5A89B05C06F3F19F00196A11D2E
:10163000B11D7FBFBA2FA92F982F8827860F911D24
:10164000A11DB11D62E0880F991FAA1FBB1F6A95DB
:10165000D1F7BC012DC0FFB7F8948091530790914A
:101660005407A0915507B0915607E6B5A89B05C051
:10167000EF3F19F00196A11DB11DFFBFBA2FA92F91
:10168000982F88278E0F911DA11DB11DE2E0880FB4
:10169000991FAA1FBB1FEA95D1F7861B970B885E7F
:1016A0009340C8F2215030404040504068517C4F38
:1016B000211531054105510571F60895789484B5D9
:1016C000826084BD84B5816084BD85B5826085BD3E
:1016D00085B5816085BDEEE6F0E080818160808324
:1016E000E1E8F0E010828081826080838081816007
:1016F0008083E0E8F0E0808181608083E1EBF0E0CE
:10170000808184608083E0EBF0E080818160808371
:10171000EAE7F0E08081846080838081826080835A
:101720008081816080838081806880831092C10085
:101730000895823000F5E82FF0E0EE0FFF1FE45A25
:10174000F84F71836083882319F08130A1F408C0B9
:10175000809169008C7F842B80936900E89A0895BA
:1017600080916900440F551F440F551F837F842BC0
:1017700080936900E99A08951F920F920FB60F9215
:1017800011242F933F934F935F936F937F938F9386
:101790009F93AF93BF93EF93FF9380915C079091DA
:1017A0005D07892B29F0E0915C07F0915D070995B1
:1017B000FF91EF91BF91AF919F918F917F916F9129
:1017C0005F914F913F912F910F900FBE0F901F90FF
:1017D00018951F920F920FB60F9211242F933F93DB
:1017E0004F935F936F937F938F939F93AF93BF9329
:1017F000EF93FF9380915E0790915F07892B29F00B
:10180000E0915E07F0915F070995FF91EF91BF911D
:10181000AF919F918F917F916F915F914F913F9188
:101820002F910F900FBE0F901F901895CF93DF93BD
:10183000482F50E0CA0186569F4FFC0134914A5709
:101840005F4FFA018491882369F190E0880F991F16
:10185000FC01E859FF4FA591B491FC01EE58FF4FF0
:10186000C591D491662351F42FB7F8948C91932F9E
:10187000909589238C93888189230BC0623061F411
:101880002FB7F8948C91932F909589238C9388810E
:10189000832B88832FBF06C09FB7F8948C91832B2E
:1018A0008C939FBFDF91CF910895482F50E0CA01DC
:1018B00082559F4FFC012491CA0186569F4FFC011F
:1018C00094914A575F4FFA013491332309F440C091
:1018D000222351F1233071F0243028F42130A1F07B
:1018E000223011F514C02630B1F02730C1F0243079
:1018F000D9F404C0809180008F7703C0809180006C
:101900008F7D8093800010C084B58F7702C084B52E
:101910008F7D84BD09C08091B0008F7703C0809116
:10192000B0008F7D8093B000E32FF0E0EE0FFF1F3B
:10193000EE58FF4FA591B4912FB7F894662321F488
:101940008C919095892302C08C91892B8C932FBF09
:101950000895682F70E0CB0182559F4FFC012491C0
:10196000CB0186569F4FFC0144916A577F4FFB0184
:101970009491992319F420E030E03CC0222351F1E6
:10198000233071F0243028F42130A1F0223011F5F9
:1019900014C02630B1F02730C1F02430D9F404C08F
:1019A000809180008F7703C0809180008F7D80932D
:1019B000800010C084B58F7702C084B58F7D84BD50
:1019C00009C08091B0008F7703C08091B0008F7DF7
:1019D0008093B000892F90E0880F991F84589F4F03
:1019E000FC01A591B4918C9120E030E0842311F0AA
:1019F00021E030E0C90108950895CF92DF92EF927F
:101A0000FF920F931F93CF93DF937C016B018A01A9
:101A1000C0E0D0E00FC0D6016D916D01D701ED910E
:101A2000FC910190F081E02DC7010995C80FD91FE5
:101A3000015010400115110571F7CE01DF91CF91D2
:101A40001F910F91FF90EF90DF90CF900895DC01F0
:101A5000ED91FC910190F081E02D09950895EF92B0
:101A6000FF920F931F938C01DC01ED91FC9101908B
:101A7000F081E02D6DE009957C01D801ED91FC919C
:101A80000190F081E02DC8016AE009959C012E0DBE
:101A90003F1DC9011F910F91FF90EF9008954F9244
:101AA0005F927F928F929F92AF92BF92CF92DF927E
:101AB000EF92FF920F931F93DF93CF93CDB7DEB7D3
:101AC000A1970FB6F894DEBF0FBECDBF2C01742EC8
:101AD000CB01223008F42AE019A231E2C32ED12C26
:101AE000CC0EDD1E822E9924AA24BB24672D752FCF
:101AF000A50194010E942A1279018A01C801B70147
:101B0000A50194010E940B12472D461B0894C108A1
:101B1000D1084A3014F4405D01C0495CF6014083AD
:101B2000E114F1040105110521F07E2C5F2DC8019F
:101B3000DDCFC201B6010E948D01A1960FB6F894C7
:101B4000DEBF0FBECDBFCF91DF911F910F91FF90F0
:101B5000EF90DF90CF90BF90AF909F908F907F904D
:101B60005F904F900895DC012115310541F4ED910E
:101B7000FC910190F081E02D642F099508950E9459
:101B80004F0D0895EF92FF920F931F939A017B01DF
:101B900000E010E0B801A7010E94B30D1F910F9162
:101BA000FF90EF900895CF92DF92EF92FF920F9304
:101BB0001F93CF93DF93EC016A017B01211531055F
:101BC00041F4E881F9810190F081E02D642F0995BD
:101BD0001FC02A303105D1F477FF17C0E881F981A1
:101BE0000190F081E02D6DE209958C014427552785
:101BF000BA014C195D096E097F09CE012AE00E94E5
:101C00004F0D9801280F391F04C02AE00E944F0D84
:101C10009C01C901DF91CF911F910F91FF90EF902F
:101C2000DF90CF900895CF92DF92EF92FF920F93C3
:101C30001F936C017B019A010027F7FC0095102F80
:101C4000B801A7010E94D30D8C01C6010E942F0D7F
:101C5000080F191FC8011F910F91FF90EF90DF909F
:101C6000CF9008950E948D010895EF92FF920F93F7
:101C70001F937C010E948D018C01C7010E942F0DD2
:101C8000080F191FC8011F910F91FF90EF90089541
:101C9000CF93DF930E945E0B0E94BA09C0E0D0E0B0
:101CA0000E9469062097E1F30E940000F9CF0F938C
:101CB0001F93DC01ED91FC910288F389E02D20E077
:101CC00030E000E010E009951F910F9108958F9288
:101CD000AF92CF92EF92FF920F931F93DF93CF9328
:101CE000CDB7DEB7FC011382128288EE93E0A0E04C
:101CF000B0E084839583A683B78384EC94E09183DA
:101D000080835587448737872687118B008BF38A1A
:101D1000E28AC48AA58A868A70E0CB0123E0880F14
:101D2000991F2A95E1F79C01205A384F308F278B55
:101D30008859984F928F818F81E090E002C0880F80
:101D4000991F6A95E2F720917007282B209370075E
:101D5000CF0140E051EE60E070E00E94570ECF915D
:101D6000DF911F910F91FF90EF90CF90AF908F90E8
:101D70000895FC01838D882319F42FEF3FEF0DC0E8
:101D80000788F08DE02D2081318182819381281B8D
:101D9000390B8481958128233923C9010895FC01D9
:101DA000838D882319F42FEF3FEF11C0018CF28D42
:101DB000E02D2081318182819381281B390B209570
:101DC000309584819581282339232F5F3F4FC901A6
:101DD0000895FC01838D882361F0A789B08D2D9132
:101DE0003C91119712968D919C9113972817390762
:101DF00021F44FEF5FEFCA01089512968D919C91E7
:101E000013971696ED91FC911797E80FF91F4081F3
:101E100012968D919C911397019614962D913C9159
:101E200015978223932313969C938E93129750E0D9
:101E3000E2CFFC01838D882351F00788F08DE02DDF
:101E400020813181828193812817390721F42FEF76
:101E50003FEFC9010895828193810680F781E02DCB
:101E6000E80FF91F8081282F30E0F3CFDC0157966F
:101E7000ED91FC915897828193819183808359964B
:101E8000ED91FC915A97808191819383828308958B
:101E9000DC015B968C915B978823A9F15996ED91B3
:101EA000FC915A97208131812F5F3F4F848195812A
:101EB000282339235C968C915C97882329F08281B2
:101EC000938128173907F9F0828193812817390700
:101ED000D9F3808191810680F781E02DE80FF91F09
:101EE00060835996ED91FC915A97318320835296E5
:101EF000ED91FC915397808156969C91892B80831C
:101F000021E030E002C020E030E0C9010895CF9325
:101F1000DF93EC011B821A828A819B8199838883DB
:101F20001D821C828E819F81009721F00E94731177
:101F30001F821E82DF91CF9108950F931F938C0112
:101F4000DC015296ED91FC915397208156968C912D
:101F5000569755969C915597892B8095822380831F
:101F600057968D919C9158970E94870FF801818D0B
:101F7000928D0E94870FD8015B961C921F910F9142
:101F800008950F931F93CF93DF938C01FC0113826D
:101F90001282828193819183808341E0A1E0B0E04D
:101FA00001C04F5FFD01042E02C0EE0FFF1F0A9417
:101FB000E2F79B0182E06130780710F020E032E028
:101FC000E217F30770F3C1E0D0E002C0CC0FDD1FD1
:101FD0004A95E2F72197F8012681378121153105CD
:101FE00041F0848195818C179D0789F0C9010E9479
:101FF0007311F801D583C483CE0101960E94D610D7
:102000009C01F8019783868380E0232B09F081E00F
:10201000DF91CF911F910F910895AF92BF92CF9210
:10202000DF92EF92FF920F931F93CF93DF937C0188
:102030005A016B01E901DC015B968C915B97882367
:10204000F1F02115310539F45796ED91FC9158972F
:10205000C481D58121960115110549F4D7015996FE
:10206000ED91FC915A97048115810F5F1F4FD701A5
:10207000ED91FC910088F189E02DC7010995F701E8
:102080008789908D209711F4C0E8D0E0BE010E94AE
:10209000C10F882381F0D70159968D919C915A9751
:1020A0000115110511F400E110E0B8010E94C10F03
:1020B000882309F04DC0D701ED91FC910088F1898A
:1020C000E02DC701099567C0D7015096ED91FC91AD
:1020D0005197B0E0AB16B1EEBB06B0E0CB06B0E076
:1020E000DB0609F454C081E090E0D70154960C90CF
:1020F00002C0880F991F0A94E2F7808360E079E0BC
:102100008DE390E0A60195010E944C1221503040D1
:1021100040405040CA01B90122E030E040E050E0C8
:102120000E944C12D7011C96ED91FC911D973083B3
:102130001E96ED91FC911F972083D7015296ED9149
:10214000FC915397808155969C91892B808323C065
:10215000D7015996ED91FC915A9713821282828190
:102160009381918380835796ED91FC9158971382C8
:102170001282828193819183808381E05B968C932C
:102180001A141B041C041D040CF49ECFD6CF10821D
:1021900020E130E0C7CFDF91CF911F910F91FF90E9
:1021A000EF90DF90CF90BF90AF9008950F931F9363
:1021B000CF93DF93BC018230910510F462E070E0B0
:1021C000E0917307F0917407A0E0B0E040E050E0C8
:1021D00024C08081918186179707D0F086179707D2
:1021E00071F482819381109729F013969C938E93BA
:1021F00012972CC0909374078093730727C04115E2
:10220000510519F08417950718F4EF018D01AC0101
:10221000DF01828193819C01F9013097D1F641154C
:102220005105F9F0CA01861B970B8430910580F4A3
:102230008A819B810115110521F0F8019383828326
:1022400004C09093740780937307FE01329645C0D3
:10225000FE01E80FF91F61937193029799838883B8
:102260003CC08091710790917207892B41F4809155
:10227000A2049091A30490937207809371074091F8
:10228000A4045091A5044115510541F44DB75EB722
:102290008091A0049091A104481B590B20917107D3
:1022A0003091720724173507B0F4CA01821B930BD3
:1022B0008617970780F0AB014E5F5F4F8417950735
:1022C00050F0420F531F5093720740937107F9016A
:1022D0006193719302C0E0E0F0E0CF01DF91CF9114
:1022E0001F910F910895CF93DF939C01009709F4FC
:1022F0008FC0EC0122971B821A8260917307709144
:1023000074076115710581F488819981820F931F8B
:1023100020917107309172072817390739F5D0934A
:102320007207C093710774C0DB0140E050E0AC1746
:10233000BD0708F1BB83AA83FE0121913191E20F11
:10234000F31FAE17BF0779F48D919C911197280F59
:10235000391F2E5F3F4F3983288312968D919C91B0
:1023600013979B838A834115510571F4D0937407A9
:10237000C09373074DC012968D919C911397AD0138
:10238000009711F0DC01D3CFDA011396DC93CE93E2
:102390001297FA0121913191E20FF31FCE17DF0757
:1023A00069F488819981280F391F2E5F3F4FFA0108
:1023B000318320838A819B8193838283E0E0F0E0F4
:1023C000DB0112968D919C911397009719F0BC0137
:1023D000FD01F6CFAB014E5F5F4FDB018D919C910C
:1023E000840F951F209171073091720728173907C4
:1023F00079F4309729F4109274071092730702C091
:1024000013821282425050405093720740937107DA
:10241000DF91CF910895629FD001739FF001829F59
:10242000E00DF11D649FE00DF11D929FF00D839F63
:10243000F00D749FF00D659FF00D9927729FB00D00
:10244000E11DF91F639FB00DE11DF91FBD01CF0113
:1024500011240895A1E21A2EAA1BBB1BFD010DC079
:10246000AA1FBB1FEE1FFF1FA217B307E407F50744
:1024700020F0A21BB30BE40BF50B661F771F881F20
:10248000991F1A9469F760957095809590959B01B6
:10249000AC01BD01CF01089597FB092E05260ED092
:1024A00057FD04D0D7DF0AD0001C38F45095409572
:1024B000309521953F4F4F4F5F4F0895F6F7909518
:1024C0008095709561957F4F8F4F9F4F08952F9204
:1024D0003F924F925F926F927F928F929F92AF92B4
:1024E000BF92CF92DF92EF92FF920F931F93CF9301
:1024F000DF93CDB7DEB7CA1BDB0B0FB6F894DEBF98
:102500000FBECDBF09942A88398848885F846E84BD
:102510007D848C849B84AA84B984C884DF80EE8007
:10252000FD800C811B81AA81B981CE0FD11D0FB610
:10253000F894DEBF0FBECDBFED010895EE0FFF1F73
:0C2540000590F491E02D0994F894FFCF71
:10254C004E6F0059657300627574746F6E207072F3
:10255C0065737365640064646400474E47534100BF
:10256C0057796E696B3A20747275650054582074F3
:10257C00696D656F757421007061727365206D6192
:10258C0076204F4B00706F7A79636A613D00666903
:10259C00783D004C41543D00204C4F4E3D002053A3
:1025AC0041543D0020505245433D006B6F6E6965B0
:1025BC006320746573747500486F70206368616E76
:1025CC006E656C2000204020002C0053004E2F41E3
:1025DC0000386368002C205B005D20280029004E29
:1025EC004F5420454E41424C45440053656E64693E
:1025FC006E672073657474696E677320746F2052F4
:10260C00580A00526573657474696E67207365743B
:10261C0074696E6773206F6E2052580A0041626FA6
:10262C00727465642065646974730A00696E7661FE
:10263C006C69642073656C656374696F6E000D0A58
:10264C00496E76616C696420696E707574202D20FA
:10265C006469736361726465642107007363616EFE
:10266C006E6572206D6F64650053657474696E6776
:10267C007320736176656420746F20454550524F0A
:10268C004D0A0052657665727465642073657474C6
:10269C00696E67732066726F6D20454550524F4DC1
:1026AC000A004C6F6164656420666163746F7279B3
:1026BC002064656661756C74730A004B65792061E2
:1026CC006E64206368616E6E656C732072616E64FB
:1026DC006F6D697A65640A004F70656E4C52536E6B
:1026EC0067205458207374617274696E67200020DF
:1026FC006F6E20485720002447504753562C322CDD
:10270C00312C30352C30322C31332C3133382C32B7
:10271C00322C31322C36372C3237302C33332C319F
:10272C00342C32382C3331312C33342C32342C378A
:10273C00362C3137372C31332A37440A244750474B
:10274C0053562C322C322C30352C32352C32362C34
:10275C003236332C33352A34450A24474E524D43F6
:10276C002C3232353130312E38302C412C3532313F
:10277C00322E38383538302C4E2C30323131302E18
:10278C0035373836352C452C302E3036352C2C3010
:10279C0038313231352C2C2C412A36440A24474C02
:1027AC004753562C312C312C30322C36382C3232BB
:1027BC002C3330382C33372C2C2C2C32392A3544F2
:1027CC000A24474E474C4C2C353231322E38383592
:1027DC0038312C4E2C30323131302E3537383633AF
:1027EC002C452C3232353130312E36302C412C41A7
:1027FC002A37310A0050504D00525353490053446C
:10280C00410053434C005258440054584400414931
:10281C004E004C424545500053504B54524D0053C2
:10282C004255530053554D44004C4C494E44000006
:10283C00342B34003800382B340031320031322B39
:10284C00340031360001000000C01200001A400AAA
:10285C00A1204EA5001B1E27522C233080250000E2
:10286C0005400AA1204EA50020244EA52C233000A3
:10287C004B000006400AD0009D49007B289D492C46
:10288C00233000E1000005400A4501D7DC03B81EE7
:10289C000EBF00232E48E801008A400A60015555FE
:1028AC0002AD1E20000023C88025000005400AA1AF
:1028BC00204EA50020244EA52C233000020002003F
:1028CC0002000200020002000200020002000200EC
:1028DC000200020002000200020002FFC800000019
:1028EC00800075070000000000002801F100FC0CBE
:1028FC00000000002801F1008B01160A1322312977
:10290C0000000000480FFD0CB90EE90E190F360F30
:08291C00CF0E570E9D0F0D10A8
:00000001FF
