:100000000C9463000C94FD140C942A150C948B0032
:100010000C948B000C94170C0C948B000C948B009C
:100020000C948B000C948B000C948B000C948B0024
:100030000C948B000C948B000C948B000C948B0014
:100040000C94C0130C948B000C94E6080C942209B9
:100050000C948B000C948B000C948B000C948B00F4
:100060000C948B000C948B000000000024002700EF
:100070002A0000000000250028002B0000000000DE
:1000800023002600290004040404040404040202DA
:100090000202020203030303030301020408102007
:1000A0004080010204081020010204081020000012
:1000B0000007000201000003040600000000000029
:1000C0000000CB08CC0C11241FBECFEFD8E0DEBF60
:1000D000CDBF14E0A0E0B1E0E2EAFBE302C005908E
:1000E0000D92A831B107D9F716E0A8E1B4E001C03C
:1000F0001D92AE32B107E1F710E0C6ECD0E004C0CB
:100100002297FE010E94CB1DC23CD107C9F70E9475
:1001100062180C940E020C940000CF93DF93BC0184
:100120008230910510F462E070E0A0912C06B0914D
:100130002D06ED0140E050E0E0E0F0E021C08881D4
:1001400099818617970769F48A819B81309719F006
:100150009383828304C090932D0680932C06FE0126
:1001600034C06817790738F44115510519F0841720
:10017000950708F4AC01FE018A819B819C01E9018D
:100180002097E9F641155105A9F1CA01861B970B85
:10019000049708F4BA01E0E0F0E02AC08D919C9148
:1001A000119784179507F9F46417750781F412966F
:1001B0008D919C911397309719F09383828304C09B
:1001C00090932D0680932C06FD0132964CC0CA01F7
:1001D000861B970BFD01E80FF91F6193719302973E
:1001E0008D939C9340C0FD01828193819C01D90134
:1001F0001097A1F680912A0690912B06892B41F445
:10020000809156039091570390932B0680932A0672
:1002100040915803509159034115510541F44DB790
:100220005EB78091540390915503481B590B209160
:100230002A0630912B06CA01821B930B861797075B
:1002400080F0AB014E5F5F4F8417950750F0420F6F
:10025000531F50932B0640932A06F9016193719323
:1002600002C0E0E0F0E0CF01DF91CF910895CF939D
:10027000DF93009709F450C0EC0122971B821A8289
:10028000A0912C06B0912D06109709F140E050E0A6
:10029000AC17BD0708F1BB83AA83FE012191319100
:1002A000E20FF31FAE17BF0779F48D919C91119760
:1002B000280F391F2E5F3F4F3983288312968D9167
:1002C0009C9113979B838A834115510571F4D093B8
:1002D0002D06C0932C0620C012968D919C911397E9
:1002E000AD01009711F0DC01D3CFFA01D383C283B3
:1002F00021913191E20FF31FCE17DF0769F4888156
:100300009981280F391F2E5F3F4FFA0131832083D7
:100310008A819B8193838283DF91CF910895A0E0AE
:10032000B0E0E5E9F1E00C949A1DEC01A880B980F9
:10033000CA80DB80A114B104C104D10441F484E279
:10034000A82E89EDB82E8BE5C82E87E0D82EC601E1
:10035000B5012DE133EF41E050E00E94771D27EA1F
:1003600031E440E050E00E940F1D7B018C01C6018A
:10037000B5012DE133EF41E050E00E94771DCA0145
:10038000B9012CEE34EF4FEF5FEF0E940F1D6E0DA1
:100390007F1D801F911F97FF04C0615070408040F7
:1003A0009048688379838A839B839B01AC015F7744
:1003B000B901CA01CDB7DEB7EAE00C94B61D0E94C0
:1003C0008F0108958AE593E00E948F01089560935C
:1003D0005A0370935B0380935C0390935D030895CD
:1003E000FC0188279927E89421912032E9F32930EC
:1003F00010F02E30C8F32B3241F02D3239F46894CE
:1004000004C00E942002820F911D219120532A30A6
:10041000C0F31EF4909581959F4F0895F8940C9425
:10042000CF1DFB01DC014150504048F001900D927E
:100430000020C9F701C01D9241505040E0F70895D7
:100440007AE0979F902D879F802D910D112408951C
:10045000FC012FEF3FEF4FEF5FEF208331834283AB
:10046000538310861186128613868FEF99ECAAE9C2
:10047000BBE3808B918BA28BB38B808F918FA28FEC
:10048000B38F80A391A3A2A3B3A380A791A7A2A790
:10049000B3A780AB91ABA2ABB3AB20AF31AF42AF50
:1004A00053AFE05CFF4F8FEF90E0918380833496F1
:1004B0002083318342835383389620833183428360
:1004C0005383389611921082709686E08193119230
:1004D00011921082E659FF4F1192119211921192CE
:1004E0001192119211821082E258F0401082089508
:1004F000EF92FF920F931F93CF93DF939C01EE2413
:10050000FC01EA5AFF4F80818D3231F4EE24E394EE
:10051000E901C95ADF4F01C0EF018E0120E030E050
:1005200040E050E018C0CA01B9012AE030E040E0E4
:1005300050E00E940F1D2F2D332727FD3095432FAC
:10054000532F2053304040405040260F371F481F44
:10055000591F0F5F1F4FF801F0808F2D80538A3095
:1005600010F3CA01B90124E630E040E050E00E94F7
:100570000F1D9B01AC0101C021969881892F8053EA
:100580008A30D0F39E3229F59981892F80538A30A1
:1005900000F58AE09802C0011124805E9140AA27EC
:1005A00097FDA095BA2F280F391F4A1F5B1F9A810C
:1005B000892F80538A3068F4892F992787FD909579
:1005C000C097AA2797FDA095BA2F280F391F4A1F59
:1005D0005B1FEE2039F050954095309521953F4FA7
:1005E0004F4F5F4FB901CA01DF91CF911F910F911A
:1005F000FF90EF9008954F925F926F927F928F924B
:100600009F92AF92BF92CF92DF92EF92FF920F93A1
:100610001F93CF93DF9326E5822E912C880E991E8F
:10062000E40120E030E040E050E017C0CA01B90129
:100630002AE030E040E050E00E940F1D212F3327D8
:1006400027FD3095432F532F2053304040405040DA
:10065000260F371F481F591F21961881812F80535D
:100660008A3020F3722E632E542E452EB901CA0112
:1006700024E630E040E050E00E94551D20EA36E8D4
:1006800041E050E00E940F1D5B016C0103C0089423
:10069000811C911CD4019C91892F80538A30B8F31E
:1006A0009E3269F580E1E82E87E2F82E012D112DAA
:1006B0001DC0332727FD309520533040442737FD98
:1006C0004095542FC801B7010E940F1DA60EB71EFA
:1006D000C81ED91EC801B7012AE030E040E050E052
:1006E0000E94551DC901DA017C018D010894811C0D
:1006F000911CF4012081822F80538A30D0F283E054
:1007000090E0A0E0B0E0A80EB91ECA1EDB1EC60134
:10071000B50126E030E040E050E00E94551D79012F
:100720008A01672D762D852D942D24E630E040E05A
:1007300050E00E94551DCA01B90120E432E44FE0A7
:1007400050E00E940F1DE60EF71E081F191FB7018B
:10075000C801DF91CF911F910F91FF90EF90DF9033
:10076000CF90BF90AF909F908F907F906F905F9051
:100770004F9008950F931F93CF93DF93FC01EB01EC
:1007800089016115710541F080899189A289B38938
:1007900088839983AA83BB834115510549F0808DD5
:1007A000918DA28DB38DEA0188839983AA83BB833F
:1007B0000115110511F1EF01C45BDF4F88819981AB
:1007C000AA81BB818F5F9F4FAF4FBF4F29F42FEF9F
:1007D0003FEF4FEF5FEF0CC00E9408149B01AC018C
:1007E00088819981AA81BB81281B390B4A0B5B0B3D
:1007F000E801288339834A835B83DF91CF911F917E
:100800000F910895EF92FF920F931F93DF93CF9371
:10081000CDB7DEB728970FB6F894DEBF0FBECDBFB9
:100820008B017A01BE016F5F7F4FAE014B5F5F4F5F
:100830000E94BA0369817A818B819C816F3F29EC88
:1008400072072AE982072BE3920729F4E0E070E0BF
:100850008AE764E40AC00E94F41B20E034E244E723
:1008600059E40E94591BE62F692F2E2F372F482F4E
:10087000562FC901DA01F80180839183A283B383E3
:1008800089819A81AB81BC818F5F994CAA49BB4316
:1008900029F4E0E070E08AE764E40EC06D817E81B7
:1008A0008F8198850E94F41B20E034E244E759E4EC
:1008B0000E94591BE62F692F2E2F372F482F562FB6
:1008C000C901DA01F70180839183A283B38328965B
:1008D0000FB6F894DEBF0FBECDBFCF91DF911F9151
:1008E0000F91FF90EF900895FF920F931F93CF9376
:1008F000DF93EC01CB5ADF4F8881C555D040882368
:1009000009F400C1CA5ADF4F9881C655D040892FDB
:100910008154863038F4292F332727FD309527530B
:1009200030400CC0292F332727FD30959156963043
:1009300018F42755304002C020533040C95ADF4FC9
:100940004881C755D040842F8154863030F4842F9D
:10095000992787FD9095C7970BC0842F992787FD0E
:1009600090954156463018F48755904001C0C09785
:1009700094E0220F331F9A95E1F7982F920FCC5AEB
:10098000DF4F8881C455D040981709F0B2C0CB59C9
:10099000DF4F8881C556D040813081F48C819D81A4
:1009A000AE81BF8188839983AA83BB838C859D8513
:1009B000AE85BF8588879987AA87BB87C859DF4FCF
:1009C0008881C856D040882309F464C3FE01EA52E6
:1009D000FF4F80819181019691838083FE01EC5BC2
:1009E000FF4FC85BDF4F88819981AA81BB81C854C2
:1009F000D04080839183A283B383FE01E45BFF4FE9
:100A0000C05BDF4F88819981AA81BB8180839183FC
:100A1000A283B38365968881C556D0408823A1F10F
:100A2000813009F064C08C819D81AE81BF81888353
:100A30009983AA83BB838C859D85AE85BF85888776
:100A40009987AA87BB878C899D89AE89BF89888B46
:100A5000998BAA8BBB8B8C8D9D8DAE8DBF8D888F16
:100A6000998FAA8FBB8F8CA59DA5AEA5BFA588A782
:100A700099A7AAA7BBA78CA99DA9AEA9BFA988AB16
:100A800099ABAAABBBAB33C08CA19DA1AEA1BFA15A
:100A900088A399A3AAA3BBA38C819D81AE81BF81AA
:100AA00088839983AA83BB838C899D89AE89BF89FA
:100AB000888B998BAA8BBB8B8C8D9D8DAE8DBF8DBA
:100AC000888F998FAA8FBB8FFE01E05CFF4FCE5BB2
:100AD000DF4F88819981C254D040918380838CAD4F
:100AE0009DADAEADBFAD88AF99AFAAAFBBAF81E052
:100AF000D2C2FE01E852FF4F80819181019691831D
:100B00008083C8C2CA59DF4F0881C656D04000232F
:100B100009F07CC09E012A5A3F4FD901E0E0F1E084
:100B200002C0119631969C91992399F08081981773
:100B3000C1F3D901E6E0F1E002C0119631969C9133
:100B4000992339F080819817C1F3D901ECE0F1E0E5
:100B500006C0CB59DF4F81E0A7C2119631969C9118
:100B6000992339F080819817C1F3D901E2E1F1E0CE
:100B700006C0CB59DF4F18828DC2119631969C91D9
:100B8000992339F080819817C1F3D901E8E1F1E0A8
:100B900006C0CB59DF4F82E087C2119631969C91F7
:100BA000992399F080819817C1F3D901EEE1F1E022
:100BB00002C0119631969C91992339F08081981743
:100BC000C1F3D901E4E2F1E006C0CB59DF4F83E085
:100BD0006BC2119631969C91992339F080819817B8
:100BE000C1F3D901EAE2F1E006C0CB59DF4F84E05E
:100BF0005BC2119631969C91992321F080819817C0
:100C0000C1F34FC2CB59DF4F85E04EC2CB59DF4F06
:100C10001881C556D040163009F43CC2CA5ADF4F7D
:100C20004881C655D040442309F434C2212F30E016
:100C300085E0220F331F8A95E1F7802F90E0282B63
:100C4000392B2434310509F415C12534310508F058
:100C50006DC02232310509F4E2C023323105A8F516
:100C60002530310509F40EC126303105A8F42230B3
:100C7000310509F4DCC02330310528F42130310579
:100C800009F008C2C0C02330310509F4E0C02430A7
:100C9000310509F0FFC1EEC02830310509F460C10B
:100CA0002930310548F42630310509F444C1273094
:100CB000310509F0EFC149C12930310509F458C1A6
:100CC0002132310509F0E6C19EC02732310509F411
:100CD000F7C02832310588F42432310509F4B7C051
:100CE0002432310508F4A3C02532310509F4C2C00D
:100CF0002632310509F0CEC1C5C02134310509F4D1
:100D000082C02234310548F42832310509F4E0C0AC
:100D10002932310509F0BEC1E3C02234310509F49E
:100D200086C02334310509F0B5C191C020393105A1
:100D300009F45FC12139310588F52438310509F4FA
:100D400058C12538310588F42634310509F4ADC081
:100D50002634310508F496C02734310509F4F5C06E
:100D60002238310509F096C10BC12B38310509F441
:100D70004AC12C38310548F42738310509F443C1FC
:100D80002838310509F086C134C12C38310509F401
:100D900030C12F38310509F07DC135C1283A310500
:100DA00009F427C1293A3105A8F4223A310509F49A
:100DB000E7C0233A310528F42339310509F06AC127
:100DC00022C1243A310509F414C1273A310509F04A
:100DD00061C119C12F3A310509F415C1203B310514
:100DE00048F42B3A310509F40EC12C3A310509F0CB
:100DF00051C1FFC0203B310509F4FBC0233B310545
:100E000009F048C100C1CE010E9478026C837D8345
:100E10008E839F830E940814C85BDF4F13C0FE01BE
:100E2000E859FF4F1082413409F034C18BC0CE0124
:100E30000E94FB026C8B7D8B8E8B9F8B0E94081413
:100E4000C05BDF4F688379838A839B8323C14335EB
:100E500009F020C18C899D89AE89BF89B095A09584
:100E6000909581959F4FAF4FBF4F8C8B9D8BAE8BD5
:100E7000BF8B10C1CE010E94FB026C8F7D8F8E8FC5
:100E80009F8F08C1473509F005C18C8D9D8DAE8DB2
:100E9000BF8DB095A095909581959F4FAF4FBF4F57
:100EA0008C8F9D8FAE8FBF8FF5C0CE0187599F4F1E
:100EB000CA5ADF4FBE0145E050E00E941102EAC06D
:100EC000CE010E9478026CA77DA78EA79FA7E2C0E3
:100ED000CE010E9478026CAB7DAB8EAB9FABDAC0CB
:100EE0008E010A5A1F4F20E030E040E050E018C069
:100EF000CA01B9012AE030E040E050E00E940F1D35
:100F00002F2D332727FD3095432F532F205330406B
:100F100040405040260F371F481F591F0F5F1F4F7B
:100F2000D801FC908F2D80538A3010F32C873D8799
:100F30004E875F87AFC0FE01E859FF4F10824133F3
:100F40000CF4A8C081E08083A5C0CE018A5A9F4FCF
:100F50000E94F001FE01EE5BFF4F808311829AC078
:100F6000CE010E9478026CAF7DAF8EAF9FAF92C072
:100F7000CE010E9478026CA37DA38EA39FA38AC09A
:100F8000CE018A5A9F4F0E94F0018150C9F414305B
:100F900061F4FE01E159FF4F20E01192119211928C
:100FA00011922F5F2C30C9F70BC0FE01E156FF4FA5
:100FB0002CE011921192119211922F5F2831C9F7F2
:100FC000482F50E0FE01EF52FF4FCA01880F991FD2
:100FD000880F991F8083CB59DF4F8881853009F0B6
:100FE00059C04D5F5F4F440F551F440F551F40833D
:100FF00051C0CE018A5A9F4F0E94F001C153DF4F6A
:101000009983888347C0CE018A5A9F4F0E94F0017E
:10101000482F802F90E09E012F523F4F4423B1F480
:10102000079764E070E00E94421DF9018081680F1B
:10103000711D660F771F660F771FC60FD71FC15927
:10104000DF4F188219821A821B8224C0079764E03E
:1010500070E00E94421DFB01D9018C91E80FF11D47
:10106000EE0FFF1FEE0FFF1FEC0FFD1FE159FF4FAB
:10107000842F90E0880F991FC153DF4F388120E003
:10108000822B932BAA2797FDA095BA2F808391835B
:10109000A283B38380E0DF91CF911F910F91FF90E6
:1010A0000895CB59DF4F86E08883F4CF1F93CF9309
:1010B000DF93EC01162FFC01EE52FF4F80819181EE
:1010C000A281B3810196A11DB11D80839183A2836A
:1010D000B3836432A1F1DE01A959BF4F65322CF40C
:1010E0006A3069F06D30C9F50AC06A3241F06C327D
:1010F000A1F5FE01EC5AFF4F8081862780838C91F9
:101100008F3010F090E00AC0FE01E80FF11DEA5A9E
:10111000FF4F1082CE010E947404982FFE01EA59FD
:10112000FF4F80818F5F8083C959DF4F1882FE0196
:10113000729710821A3251F581E0808327C0C95915
:10114000DF4F18821A9262971882619686E0888330
:10115000609718826396188218C08C918E3040F484
:10116000FE01E80FF11DEA5AFF4F10838F5F8C9349
:10117000CB5ADF4F8881C555D040882331F4FE011A
:10118000EC5AFF4F80818127808390E0892FDF9187
:10119000CF911F910895E0E2F4E08FEF9FEF9183EC
:1011A00080833C9624E0EC35F207C9F708958091DE
:1011B0005404813019F482E08093540480915404E3
:1011C000833019F484E08093540408951F920F92A1
:1011D0000FB60F9211242F933F934F938F939F93AA
:1011E000EF93FF934091C6002091190630911A06A3
:1011F0002F5F3F4F80911D0690911E0628233923B3
:1012000080911B0690911C062817390779F0809170
:10121000190690911A06E0911F06F0912006E80F3A
:10122000F91F408330931A0620931906FF91EF911E
:101230009F918F914F913F912F910F900FBE0F90E3
:101240001F9018951F920F920FB60F9211242F9393
:101250003F938F939F93EF93FF93209123063091B9
:101260002406809121069091220628173907E9F07B
:101270008091230690912406E0912706F09128069C
:10128000E80FF91F80818093C6008091230690911A
:101290002406019620912506309126068223932369
:1012A000909324068093230610C02091210630914C
:1012B000220680912306909124062817390729F4E5
:1012C0008091C1008F7D8093C100FF91EF919F912C
:1012D0008F913F912F910F900FBE0F901F901895F7
:1012E00087E380938C0480E092ECA1E0B0E08093EF
:1012F0008D0490938E04A0938F04B093900489E0A2
:101300008093B50487E08093990480EC92E9ADEE78
:10131000B9E18093910490939204A0939304B093C5
:10132000940485E080939A048DEE9EEFADEABEEDC5
:101330008093950490939604A0939704B093980497
:10134000ABE9B4E080E090E0863010F0E0E004C06B
:10135000FC01E750FC4FE081ED9301968831910547
:1013600099F782E08093B3048AE08093B4040895EF
:1013700023E08032920718F420E030E026C023E01A
:10138000883E920748F49C012F513340F4E0369593
:101390002795FA95E1F719C027E0803D920720F4E0
:1013A0009C012C5D334011C028E08839920718F069
:1013B0002FEF33E00AC09C01285C3740E4E036950B
:1013C0002795EA95E1F72D503C4FC90108958823F0
:1013D00039F05F980000289A00005F9A0000089595
:1013E0005F980000289800005F9A000008950F930E
:1013F0001F93082F5C9A5F985C9810E0802F80788C
:101400000E94E709000F1F5F1830C1F75F981F9116
:101410000F9108958F770E94F70908950F931F93F6
:10142000082F10E0802F80780E94E709000F1F5FCF
:101430001830C1F75F981F910F9108955F9820E0D1
:1014400030E0220F5F9A000083B15F98000090E0C7
:10145000969587958170280F3F5F383091F7822FDE
:1014600008950E940A0A0E941E0A5C9A08951F931A
:10147000162F80680E94F709812F0E940E0A5C9A3D
:101480001F9108951F93109195041827ECE8F4E03C
:10149000E80FF11D89E767850E94370A8DE3612F08
:1014A0000E94370A82E4612F0E94370A1F91089533
:1014B0000F931F938C018CE1F80164810E94370A1D
:1014C0008DE1F80165810E94370A8EE1F80166819D
:1014D0000E94370A80E2F80167810E94370A81E2A0
:1014E000F80160850E94370A82E2F80161850E9456
:1014F000370A83E2F80162850E94370A84E2F80124
:1015000063850E94370A85E2F80164850E94370AE4
:101510008AE2F80165850E94370A8EE6F801668541
:101520000E94370A8FE6F80167850E94370A80E734
:10153000F80160890E94370A81E7F80161890E94F9
:10154000370A82E7F80162890E94370A1F910F91DA
:101550000895EF92FF920F931F93CF93DF937B0138
:101560008C01603028E372072CE982072CE1920796
:1015700028F520E836E948E950E00E94551DE901C8
:101580006897B90180E090E020E839E647E65FEF30
:101590000E940F1D6E0D7F1D801F911F12E0660FB0
:1015A000771F881F991F1A95D1F721E732E040E095
:1015B00050E00E94551D890180E421C020E03DE2F9
:1015C00041E351E00E94551DE9016897B90180E0AF
:1015D00090E020E033ED4EEC5EEF0E940F1D6E0DAB
:1015E0007F1D801F911F660F771F881F991F21E79E
:1015F00032E040E050E00E94551D890180E69E01E6
:101600002F71622F680F85E70E94370A86E7612FE6
:101610000E94370A87E7602F0E94370ADF91CF9137
:101620001F910F91FF90EF9008959F92AF92BF92FC
:10163000CF92DF920F93DF93CF9300D000D0CDB73E
:10164000DEB7982E83E00E94310A8093B60484E0CE
:101650000E94310A8093B70486E060E00E94370A56
:1016600087E061E00E94370A89E06FE70E94370A4D
:101670008AE065E00E94370A8BE062E10E94370A47
:101680008CE065E10E94370A8DE06DEF0E94370A19
:101690008EE060E00E94370A992019F08DEB93E00C
:1016A00008C08091B30423E1829FC0011124825AB3
:1016B0009C4F0E94580A80E36CE80E94370A82E33C
:1016C0006FE00E94370A83E362E40E94370A84E3F2
:1016D0006AE00E94370A85E36AE20E94370A86E3DD
:1016E0006DE20E94370A87E364ED0E94370A88E3BF
:1016F00060E00E94370A89E360E00E94370A99207F
:1017000049F025E8A22E21ECB22E21ECC22E2EEDBE
:10171000D22E08C0A0909504B0909604C090970473
:10172000D09098040AE38D2D9927AA27BB27898397
:101730009A83AB83BC83802F69810E94370A802FF4
:101740008B5F69810E94370ADC2CCB2CBA2CAA242F
:101750000F5F0E3341F783E46FEF0E94370A84E492
:101760006FEF0E94370A85E46FEF0E94370A86E424
:101770006FEF0E94370A992019F08DE666E003C0EA
:101780008DE6609199040E94370A89E760E00E9423
:10179000370A8AE760919A040E94370A83E760E07B
:1017A0000E94370A84E760E00E94370A992029F0F6
:1017B00060EC72E98DEE99E108C06091910470913E
:1017C000920480919304909194040E94A90A0F902E
:1017D0000F900F900F90CF91DF910F91DF90CF90EE
:1017E000BF90AF909F90089587E061E00E94370A14
:1017F0008EE764E20E94370A88E063E00E94370ABD
:1018000088E060E00E94370A87E065E00E94370ABE
:1018100085E062E00E94370A83E00E94310A8093EB
:10182000B60484E00E94310A8093B70408951F92A1
:101830000F920FB60F921124EF92FF920F931F9306
:101840002F933F934F935F936F937F938F939F93C8
:10185000AF93BF93EF93FF93E0907804F0907904F7
:1018600000917A0410917B0489B1A801970120743A
:1018700030704070507090E063E0969587956A955F
:10188000E1F7A0E0B0E081709070A070B070281710
:1018900039074A075B0709F46AC020918400309138
:1018A000850010928500109284008091BA048823EC
:1018B00009F05DC0E5FC02C03695279589E0253C1E
:1018C0003807C8F18091F003A8019701BCE1569553
:1018D000479537952795BA95D1F7211531054105DB
:1018E000510521F421E030E040E050E090E0A0E03C
:1018F000B0E0281739074A075B07D0F48091F0035E
:101900008F3FB1F020E00EC0E22FF0E0EE0FFF1F9E
:10191000DF01A554BB4F8D919C91E053FC4F918307
:1019200080832F5F8091F003281770F31092B90421
:101930001092F0031CC082E02D3B3807A8F0809184
:10194000F003803188F41091F003C9010E94B809B6
:10195000E12FF0E0EE0FFF1FE554FB4F91838083F2
:101960001F5F1093F00303C08FEF8093F003FF918C
:10197000EF91BF91AF919F918F917F916F915F9107
:101980004F913F912F911F910F91FF90EF900F90EA
:101990000FBE0F901F9018958F92AF92CF92EF923B
:1019A000FF920F931F9385E594E060E045EC50E0D3
:1019B00024EC30E000EC10E0F1ECEF2EF12CCC2424
:1019C000C394E8E9AE2E70E2872E0E948118E3EE00
:1019D000F4E08FEF9FEF918380833C9625E0EF3119
:1019E000F207C9F787E195E00E9428021F910F9145
:1019F000FF90EF90CF90AF908F9008950F931F932B
:101A0000CF93DF938B01EA018230910561F183303E
:101A100091053CF4009709F465C0019709F06CC08A
:101A200048C08330910509F444C0069709F064C0AA
:101A300056C00E940814F8012081318142815381EF
:101A4000621B730B840B950B693C71058105910535
:101A500008F452C018820E940814F8016083718350
:101A60008283938349C08881882309F43DC00E9402
:101A70000814F8012081318142815381621B730B6C
:101A8000840B950B695E73408040904068F1E2CF13
:101A90000E940814F8012081318142815381621B28
:101AA000730B840B950B615B74408040904020F178
:101AB00013C088818823E1F40E940814F801208172
:101AC000318142815381621B730B840B950B695EDC
:101AD00073408040904060F081E08883BCCF81E01B
:101AE00088830AC0188208C08881882329F4D0CF4F
:101AF0008881882309F09DCFDF91CF911F910F91AD
:101B00000895CF93DF93EC016115710519F420E07E
:101B100030E00FC0DB010D900020E9F71197A61B04
:101B2000B70BE881F9810280F381E02DAD010995C1
:101B30009C01C901DF91CF9108950DC085E594E026
:101B40000E940319682F87E195E00E9456088823B8
:101B500011F081E0089585E594E00E94D3181816ED
:101B6000190664F380E00895AF92BF92CF92DF929E
:101B7000EF92FF921F93CF93DF9385E594E048E9BE
:101B80005AE360E070E00E945C18F4E0AF2EB12CE4
:101B9000E3E0CE2ED12C72E0E72EF12CC1E0D0E0B4
:101BA00048C085E594E00E940319182F85E594E06C
:101BB000612F0E9462198091070690910806009794
:101BC00039F4173419F5D0930806C093070631C0CD
:101BD0008130910539F41E3441F5F0920806E09207
:101BE000070627C08230910539F41734F1F4D092FA
:101BF0000806C09207061DC08330910539F41335DD
:101C0000A1F4B0920806A092070613C0049769F4E5
:101C1000113459F485E594E064E70E94621910924A
:101C200008061092070681E00DC010920806109277
:101C3000070685E594E00E94D318181619060CF4DF
:101C4000B0CF80E0DF91CF911F91FF90EF90DF90B8
:101C5000CF90BF90AF9008958AE060E00E94961503
:101C60000895CF93DF93C0E0D0E08AE061E00E9466
:101C700096158BE797E00E9495148AE060E00E9439
:101C800096158BE797E00E9495142196C830D105F0
:101C900061F7DF91CF910895AF92BF92CF92DF921B
:101CA000EF92FF920F931F93DF93CF93CDB7DEB7E1
:101CB0002C970FB6F894DEBF0FBECDBF8091FB0509
:101CC0009091FC0561EF73E041E056E00E94FE0C4C
:101CD0008091F9059091FA0562E076E046E056E0E1
:101CE0000E94FE0C80910106882311F02C9A01C0FD
:101CF0002C9880910606882311F02D9A01C02D980A
:101D00000E9408142091F3053091F4054091F505E7
:101D10005091F605621B730B840B950B6958734148
:101D20008040904078F10E9408146093F30570930E
:101D3000F4058093F5059093F6058091F705909151
:101D4000F805009779F481E090E09093F80580938E
:101D5000F70585E594E069E40E94621985E594E061
:101D60006DE60EC0019771F41092F8051092F70518
:101D700085E594E069E40E94621985E594E067E6F0
:101D80000E9462198BE00E94EA15892B21F50E94BE
:101D9000310E85E594E048E95AE360E070E00E9486
:101DA0005C1885E594E00E94501985E594E062E6B0
:101DB0000E9462198091F9059091FA05892B39F4F6
:101DC00081E090E09093FA058093F90504C01092A9
:101DD000FA051092F9058091F7059091F805892B85
:101DE00019F51092FC051092FB050E94B40D882392
:101DF000D9F00E9408146093FD057093FE0580934E
:101E0000FF059093000682E090E09093F8058093A0
:101E1000F70581E090E09093FC058093FB0585E554
:101E200094E067E40E9462198091F7059091F805AB
:101E3000029709F010C10E9408142091FD0530910D
:101E4000FE054091FF0550910006621B730B840B49
:101E5000950B615A7F4080409040E0F00E9408144A
:101E60006093FD057093FE058093FF059093000637
:101E70001092FC051092FB0585E594E065E40E9454
:101E8000621985E594E00E9450191092F8051092AD
:101E9000F705E1C00E949D0D882309F4DCC00E9473
:101EA00008146093FD057093FE058093FF059093E1
:101EB000000685E594E06AE671E00E94810D60917C
:101EC0005705709158056F3F710529F485E594E039
:101ED0006CE671E004C064587E4F85E594E00E9492
:101EE000810D0F2EF0E0AF2EF0E0BF2EF0E0CF2EF0
:101EF000F0E0DF2EF02DAD82BE82CF82D886A9869B
:101F0000BA86CB86DC8687E195E0BE016B5F7F4FAA
:101F1000AE01475F5F4F9E012F5F3F4F0E9402045B
:101F200085E594E06CE871E00E947217E090F5039B
:101F3000F090F6030091F7031091F803C801B70180
:101F40002D813E814F8158850E94551B882321F4A5
:101F5000AD82BE82CF82D886C801B70129853A8575
:101F60004B855C850E94551B882341F480E090E0FE
:101F7000A0E0B0E089879A87AB87BC874D815E81FE
:101F80006F81788585E594E022E030E00E94591861
:101F900085E594E061E971E00E94721749855A85F0
:101FA0006B857C8585E594E022E030E00E9459183D
:101FB00085E594E067E971E00E9472176D817E818A
:101FC0008F81988520E030E040E050E00E94551B72
:101FD000882391F069857A858B859C8520E030E0A7
:101FE00040E050E00E94551B882331F086E090E0ED
:101FF0009093FC058093FB056091570570915805FF
:102000006F3F710511F460E070E085E594E04AE00F
:1020100050E00E94021785E594E06DE971E00E94AE
:10202000721740914F055091500560915105709184
:1020300052054F3F8FEF58078FEF68078FEF7807F4
:1020400021F440E050E060E070E085E594E02AE0B3
:1020500030E00E94F3162C960FB6F894DEBF0FBE48
:10206000CDBFCF91DF911F910F91FF90EF90DF9047
:10207000CF90BF90AF9008958AE061E00E9457151D
:102080008AE060E00E949615089589E060E00E9471
:10209000571588E061E00E94571587E061E00E94D3
:1020A000571582E060E00E94571584E061E00E94CD
:1020B000571508952C9A2D9A83E00E94310A809337
:1020C000B60484E00E94310A8093B70486E060E0A1
:1020D0000E94370A87E061E00E94370A89E06FE7D3
:1020E0000E94370A8AE065E00E94370A8BE062E1CD
:1020F0000E94370A8CE065E10E94370A8DE06DEF9F
:102100000E94370A8EE060E00E94370A80E76CE2A6
:102110000E94370A80E360E00E94370A89E760E0A6
:102120000E94370A8AE765E00E94370A81E762E188
:102130000E94370A82E762E00E94370A83E760E084
:102140000E94370A84E760E00E94370A6EE078E771
:1021500086E99AE10E94A90A8DE667E00E94370AA3
:102160006AE070E080E090E00E943C1487E069E063
:102170000E94370A6AE070E080E090E00E943C1420
:1021800008950F931F93082F17C02D9A64E670E0EF
:1021900080E090E00E943C142D9864E670E080E0BE
:1021A00090E00E943C141F5F101778F36CE271E01E
:1021B00080E090E00E943C1410E0F6CF482F392FC9
:1021C00025E00DC0F999FECF1FBA842F932F92BD41
:1021D00081BD60BD0FB6F894FA9AF99A0FBE2150EE
:1021E00059F0F999FECF842F932F92BD81BDF89AB3
:1021F00080B5681739F7089582E00E94C1100895EC
:102200002F923F924F925F926F927F928F929F9206
:10221000AF92BF92CF92DF92EF92FF920F931F93F4
:10222000CF93DF93282E362EEE24FF248824992482
:10223000C0E0D0E002C033243394CC24DD2422203B
:1022400071F48091720427E4829FE001112423E756
:10225000E22E24E0F22E99E1892E912C1EC031E06D
:10226000231679F48091720497E4899FE001112488
:102270006B968CE8E82E84E0F82E0AE2802E912CF2
:102280000CC0E2E02E1649F412E7E12E14E0F12E24
:10229000B1E08B2E912CCCE1D1E02E014C0C5D1CD9
:1022A00010920A0610920906E20133C0332059F455
:1022B000F999FECFD2BDC1BDF89A80B5F701E00F04
:1022C000F11F808307C0F701E00FF11FCE0160818D
:1022D0000E94DE100E0D1F1DF80170806624809193
:1022E000090690910A068625972540E09C01220F59
:1022F000331F97FF05C081E290E18227932701C039
:10230000C9014F5F483091F790930A068093090600
:1023100021969E012419022F10E00815190508F4D2
:10232000C5CFCE013320D9F4F999FECFD2BDC1BDBE
:10233000F89A20B5F999FECF2196D2BDC1BD21975B
:10234000F89A80B590E0B22EAA248A299B29209180
:10235000090630910A062817390759F46CCF2196DF
:1023600060910A060E94DE10CE01609109060E946B
:10237000DE1080E291E0C80ED91E91EEC91692E0FF
:10238000D90608F45CCF832DDF91CF911F910F9177
:10239000FF90EF90DF90CF90BF90AF909F908F9085
:1023A0007F906F905F904F903F902F90089580E0C6
:1023B00061E00E94001181E061E00E940011089537
:1023C00082E061E00E940011089582E060E00E94D6
:1023D000001180917204843020F0109272040E94E7
:1023E000E0110895EF92FF920F931F937C0105E592
:1023F00014E0C8016F2D70E04AE050E00E9402171F
:10240000C8016EE20E946716B701E4E07695679511
:10241000EA95E1F76F707070C8014AE050E00E94E1
:102420000217C8016EE20E9467168FE0E822FF24BF
:10243000C801B7014AE050E00E9402171F910F91B6
:10244000FF90EF900895DF92EF92FF920F931F930A
:10245000CF93DF930E9416146115710581059105D4
:10246000C9F30E94E701109295041092960410920D
:10247000970410929804DD24E0909504F09096045F
:102480000091970410919804102F0F2DFE2CEE242C
:102490000E94E2012FEF30E040E050E00E94771D03
:1024A000E60EF71E081F191FE0929504F09296049D
:1024B0000093970410939804D39444E0D416E1F663
:1024C000CBE9D4E000E010E030E1E32E37E2F32E78
:1024D0004EC00F5F19F40E9470094DC00E94E201C6
:1024E00022E330E040E050E00E94771D6F5FEBE9AF
:1024F000F4E090E004C08191861759F39F5F911733
:10250000D0F380919A0490E08E9D90018F9D300DC4
:102510009E9D300D1124862F90E0AC01249FC001B8
:10252000259F900D349F900D1124AA2797FDA0950B
:10253000BA2F2091910430919204409193045091CC
:102540009404820F931FA41FB51F2091740430912F
:1025500075044091760450917704281739074A078B
:102560005B0708F4B6CF69931F5F183121F08881AB
:10257000882309F0AECFDF91CF911F910F91FF908B
:10258000EF90DF90089580E060E00E9400118823C2
:1025900031F081E060E00E940011882329F580EC91
:1025A00091EDA8E9BBE18093740490937504A09326
:1025B0007604B093770480E090E0A0E0B0E58093EB
:1025C000780490937904A0937A04B0937B04ECE7A9
:1025D000F4E080E081938F5F8031E1F70E94700921
:1025E0000E9423120E94D711089580E067ED78E0E1
:1025F00042E050E00E94DA140895EF92FF920F93A8
:102600001F93E3E0F0E089E08093570084918670A7
:10261000863061F48FB791E090930B06F894A895FB
:1026200098E190936000109260008FBF0E94451067
:102630008DE061E00E9457158CE061E00E94571523
:102640008BE060E00E94571583E060E00E94571520
:1026500083E061E00E9496158EE061E00E945715CC
:102660008EE060E00E9496150E943C1085E594E0A3
:1026700040E051EE60E070E00E9471180E94E511A8
:102680000E94C31283E0809380008AE180938100DE
:102690008FEF9FEF909389008093880010926F00D6
:1026A00088E080936D00809168008460809368006A
:1026B0008FEF8093B9040E94F51278940E94081459
:1026C0007B018C018091B9048F3F09F50E940814A9
:1026D0006E197F09800B910B605D774080409040C0
:1026E000B0F4F0CF9FB781E080930B06F894A895E3
:1026F00088E1809360008FE080936000A8959FBF81
:102700000E945A101F910F91FF90EF90089580ED55
:1027100097E00E942C0E8BE061E00E9496152D9AA6
:1027200085E594E00E94501985E594E067ED72E03C
:102730000E94721783E793E00E94F21185E594E00E
:102740006EEE72E00E94721785E594E062E070E040
:102750004AE050E00E94531780E00E94150B8091E0
:10276000B8040E94420A0E94F40BE3E0F0E089E022
:102770008093570084918670863009F0C1CFB2CF24
:102780001F920F920FB60F9211242F933F938F93A6
:102790009F93AF93BF938091100690911106A091E3
:1027A0001206B0911306309114060196A11DB11DB9
:1027B000232F2D5F2D3720F02D570196A11DB11D20
:1027C000209314068093100690931106A09312068E
:1027D000B093130680910C0690910D06A0910E0601
:1027E000B0910F060196A11DB11D80930C06909328
:1027F0000D06A0930E06B0930F06BF91AF919F9167
:102800008F913F912F910F900FBE0F901F901895B1
:102810008FB7F8942091100630911106409112065E
:10282000509113068FBFB901CA0108959FB7F8945C
:1028300020910C0630910D0640910E0650910F0626
:1028400086B5A89B06C08F3F21F02F5F3F4F4F4FAB
:102850005F4F9FBF542F432F322F2227280F311D48
:10286000411D511D82E0220F331F441F551F8A95C1
:10287000D1F7B901CA0108959B01AC017FB7F89463
:1028800080910C0690910D06A0910E06B0910F0656
:1028900066B5A89B05C06F3F19F00196A11DB11D3B
:1028A0007FBFBA2FA92F982F8827860F911DA11DB2
:1028B000B11D62E0880F991FAA1FBB1F6A95D1F74F
:1028C000BC012DC0FFB7F89480910C0690910D06C5
:1028D000A0910E06B0910F06E6B5A89B05C0EF3F8C
:1028E00019F00196A11DB11DFFBFBA2FA92F982F76
:1028F00088278E0F911DA11DB11DE2E0880F991F41
:10290000AA1FBB1FEA95D1F7861B970B885E9340E1
:10291000C8F2215030404040504068517C4F211552
:1029200031054105510571F60895019739F0880F79
:10293000991F880F991F02970197F1F708957894CE
:1029400084B5826084BD84B5816084BD85B58260B4
:1029500085BD85B5816085BDEEE6F0E08081816052
:102960008083E1E8F0E01082808182608083808152
:1029700081608083E0E8F0E0808181608083E1EB2A
:10298000F0E0808184608083E0EBF0E08081816012
:102990008083EAE7F0E080818460808380818260C8
:1029A00080838081816080838081806880831092B1
:1029B000C1000895823000F5E82FF0E0EE0FFF1F10
:1029C000EB5EF94F71836083882319F08130A1F4A5
:1029D00008C0809169008C7F842B80936900E89AFD
:1029E000089580916900440F551F440F551F837F40
:1029F000842B80936900E99A08951F920F920FB675
:102A00000F9211242F933F934F935F936F937F9374
:102A10008F939F93AF93BF93EF93FF93809115068E
:102A200090911606892B29F0E0911506F091160673
:102A30000995FF91EF91BF91AF919F918F917F91F8
:102A40006F915F914F913F912F910F900FBE0F901B
:102A50001F9018951F920F920FB60F9211242F936B
:102A60003F934F935F936F937F938F939F93AF9316
:102A7000BF93EF93FF938091170690911806892BCF
:102A800029F0E0911706F09118060995FF91EF9152
:102A9000BF91AF919F918F917F916F915F914F9176
:102AA0003F912F910F900FBE0F901F901895CF93CD
:102AB000DF93482F50E0CA0186569F4FFC013491A6
:102AC0004A575F4FFA018491882369F190E0880F9B
:102AD000991FFC01E859FF4FA591B491FC01EE58F4
:102AE000FF4FC591D491662351F42FB7F8948C9180
:102AF000932F909589238C93888189230BC0623012
:102B000061F42FB7F8948C91932F909589238C932F
:102B10008881832B88832FBF06C09FB7F8948C9140
:102B2000832B8C939FBFDF91CF910895482F50E066
:102B3000CA0182559F4FFC012491CA0186569F4FBE
:102B4000FC0194914A575F4FFA013491332309F401
:102B500040C0222351F1233071F0243028F4213079
:102B6000A1F0223011F514C02630B1F02730C1F0A9
:102B70002430D9F404C0809180008F7703C0809105
:102B800080008F7D8093800010C084B58F7702C055
:102B900084B58F7D84BD09C08091B0008F7703C05C
:102BA0008091B0008F7D8093B000E32FF0E0EE0FB6
:102BB000FF1FEE58FF4FA591B4912FB7F8946623ED
:102BC00021F48C919095892302C08C91892B8C9350
:102BD0002FBF0895682F70E0CB0182559F4FFC01F5
:102BE0002491CB0186569F4FFC0144916A577F4F39
:102BF000FB019491992319F420E030E03CC022239A
:102C000051F1233071F0243028F42130A1F022302A
:102C100011F514C02630B1F02730C1F02430D9F4BA
:102C200004C0809180008F7703C0809180008F7DE9
:102C30008093800010C084B58F7702C084B58F7DEB
:102C400084BD09C08091B0008F7703C08091B0002F
:102C50008F7D8093B000892F90E0880F991F845852
:102C60009F4FFC01A591B4918C9120E030E084232A
:102C700011F021E030E0C9010895CF92DF92EF9288
:102C8000FF920F931F93CF93DF937C016B018A0117
:102C9000C0E0D0E00FC0D6016D916D01D701ED917C
:102CA000FC910190F081E02DC7010995C80FD91F53
:102CB000015010400115110571F7CE01DF91CF9140
:102CC0001F910F91FF90EF90DF90CF900895DC015E
:102CD000ED91FC910190F081E02D09950895EF921E
:102CE000FF920F931F938C01DC01ED91FC910190F9
:102CF000F081E02D6DE009957C01D801ED91FC910A
:102D00000190F081E02DC8016AE009959C012E0D2B
:102D10003F1DC9011F910F91FF90EF9008954F92B1
:102D20005F927F928F929F92AF92BF92CF92DF92EB
:102D3000EF92FF920F931F93DF93CF93CDB7DEB740
:102D4000A1970FB6F894DEBF0FBECDBF2C01742E35
:102D5000CB01223008F42AE019A231E2C32ED12C93
:102D6000CC0EDD1E822E9924AA24BB24672D752F3C
:102D7000A50194010E94551D79018A01C801B7017E
:102D8000A50194010E940F1D472D461B0894C10800
:102D9000D1084A3014F4405D01C0495CF60140831B
:102DA000E114F1040105110521F07E2C5F2DC8010D
:102DB000DDCFC201B6010E94810DA1960FB6F89435
:102DC000DEBF0FBECDBFCF91DF911F910F91FF905E
:102DD000EF90DF90CF90BF90AF909F908F907F90BB
:102DE0005F904F900895DC012115310541F4ED917C
:102DF000FC910190F081E02D642F099508950E94C7
:102E00008F160895EF92FF920F931F939A017B0103
:102E100000E010E0B801A7010E94F3161F910F9186
:102E2000FF90EF900895CF92DF92EF92FF920F9371
:102E30001F93CF93DF93EC016A017B0121153105CC
:102E400041F4E881F9810190F081E02D642F09952A
:102E50001FC02A303105D1F477FF17C0E881F9810E
:102E60000190F081E02D6DE209958C0144275527F2
:102E7000BA014C195D096E097F09CE012AE00E9452
:102E80008F169801280F391F04C02AE00E948F1660
:102E90009C01C901DF91CF911F910F91FF90EF909D
:102EA000DF90CF900895CF92DF92EF92FF920F9331
:102EB0001F936C017B019A010027F7FC0095102FEE
:102EC000B801A7010E9413178C01C6010E946F165A
:102ED000080F191FC8011F910F91FF90EF90DF900D
:102EE000CF9008950E94810D08957F928F929F92B6
:102EF000AF92BF92CF92DF92EF92FF920F931F9308
:102F0000CF93DF934C017A018B01722ECB01BA0172
:102F1000A80197010E940B1D882321F0C40166E4DB
:102F200073E021C0C0E0D0E057016801E894D7F811
:102F3000C601B5012FEF3FEF4FE75FE70E940B1D82
:102F4000882351F4C601B5012FEF3FEF4FE75FE74C
:102F50000E94551B181614F0C1E0D0E0219739F0FB
:102F6000C4016AE473E00E94810DEC0193C0C801C2
:102F7000B7012FEF3FEF4FE75FE40E94A41C181644
:102F800054F0C801B7012FEF3FEF4FE75FEC0E940D
:102F9000551B882324F4C4016EE473E0E4CFC80118
:102FA000B70120E030E040E050E00E94551B87FD73
:102FB00003C0C0E0D0E00EC0D401ED91FC910190BF
:102FC000F081E02DC4016DE20995EC0117FB10952D
:102FD00017F9109520E030E040E05FE3DD240BC0FE
:102FE000CA01B90120E030E040E251E40E94591BDF
:102FF0009B01AC01D394D71498F3C801B7010E9488
:10300000F11A5B016C010E94C61B7B018C01C4019B
:10301000B801A7012AE030E00E94F316C80FD91FBB
:10302000772039F0C40162E573E00E94810DC80F7A
:10303000D91FC801B7010E94F21B9B01AC01C60158
:10304000B5010E94F01A24C020E030E040E251E4D3
:103050000E94A81C7B018C010E94C11B5B016C01BA
:10306000CC24B7FCC094DC2CC401B601A5012AE035
:1030700030E00E941317C80FD91FC601B5010E9486
:10308000F41B9B01AC01C801B7010E94F01A7A94AD
:103090007720D1F6CE01DF91CF911F910F91FF9054
:1030A000EF90DF90CF90BF90AF909F908F907F90E8
:1030B00008950E9475170895FC0144835583668323
:1030C00077830895CF93DF930E949F140E94FD128F
:1030D000C0E0D0E00E944C0E2097E1F30E94000077
:1030E000F9CF0F931F93DC01ED91FC910288F389D6
:1030F000E02D20E030E000E010E009951F910F91F5
:1031000008958F92AF92CF92EF92FF920F931F93F9
:10311000DF93CF93CDB7DEB7FC011382128288EE26
:1031200093E0A0E0B0E084839583A683B78383E037
:1031300094E0918380835587448737872687118B56
:10314000008BF38AE28AC48AA58A868A70E0CB0162
:1031500023E0880F991F2A95E1F79C01275E394FDC
:10316000308F278B8F5D994F928F818F81E090E018
:1031700002C0880F991F6A95E2F720912906282B33
:1031800020932906CF0140E051EE60E070E00E94FC
:103190007118CF91DF911F910F91FF90EF90CF9019
:1031A000AF908F900895FC01838D882319F42FEF41
:1031B0003FEF0DC00788F08DE02D208131818281A5
:1031C0009381281B390B8481958128233923C901D8
:1031D0000895FC01838D882319F42FEF3FEF11C070
:1031E000018CF28DE02D2081318182819381281B19
:1031F000390B2095309584819581282339232F5FC1
:103200003F4FC9010895FC01838D882361F0A78990
:10321000B08D2D913C91119712968D919C911397A1
:103220002817390721F44FEF5FEFCA01089512966E
:103230008D919C9113971696ED91FC911797E80F3D
:10324000F91F408112968D919C91139701961496C7
:103250002D913C9115978223932313969C938E93E3
:10326000129750E0E2CFFC01838D882351F007884C
:10327000F08DE02D208131818281938128173907DB
:1032800021F42FEF3FEFC9010895828193810680D9
:10329000F781E02DE80FF91F8081282F30E0F3CF70
:1032A000DC015796ED91FC9158978281938191832F
:1032B00080835996ED91FC915A97808191819383F7
:1032C00082830895DC015B968C915B978823A9F13A
:1032D0005996ED91FC915A97208131812F5F3F4F94
:1032E00084819581282339235C968C915C9788236F
:1032F00029F08281938128173907F9F0828193811F
:1033000028173907D9F3808191810680F781E02D54
:10331000E80FF91F60835996ED91FC915A9731831C
:1033200020835296ED91FC915397808156969C9103
:10333000892B808321E030E002C020E030E0C90129
:103340000895CF93DF93EC011B821A828A819B81BF
:10335000998388831D821C828E819F81009721F032
:103360000E9437011F821E82DF91CF9108950F9333
:103370001F938C01DC015296ED91FC9153972081B3
:1033800056968C91569755969C915597892B80957A
:103390008223808357968D919C9158970E94A11902
:1033A000F801818D928D0E94A119D8015B961C9223
:1033B0001F910F9108950F931F93CF93DF938C016B
:1033C000FC0113821282828193819183808341E088
:1033D000A1E0B0E001C04F5FFD01042E02C0EE0F7E
:1033E000FF1F0A94E2F79B0182E06130780710F03A
:1033F00020E032E0E217F30770F3C1E0D0E002C052
:10340000CC0FDD1F4A95E2F72197F801268137811D
:103410002115310541F0848195818C179D0789F034
:10342000C9010E943701F801D583C483CE010196FA
:103430000E948D009C01F8019783868380E0232BF6
:1034400009F081E0DF91CF911F910F910895AF9224
:10345000BF92CF92DF92EF92FF920F931F93CF9381
:10346000DF937C015A016B01E901DC015B968C91D1
:103470005B978823F1F02115310539F45796ED91CA
:10348000FC915897C481D58121960115110549F405
:10349000D7015996ED91FC915A97048115810F5FE0
:1034A0001F4FD701ED91FC910088F189E02DC701F4
:1034B0000995F7018789908D209711F4C0E8D0E035
:1034C000BE010E94DB19882381F0D70159968D91A6
:1034D0009C915A970115110511F400E110E0B80113
:1034E0000E94DB19882309F04DC0D701ED91FC91B2
:1034F0000088F189E02DC701099567C0D701509672
:10350000ED91FC915197B0E0AB16B1EEBB06B0E087
:10351000CB06B0E0DB0609F454C081E090E0D701AF
:1035200054960C9002C0880F991F0A94E2F780838A
:1035300060E079E08DE390E0A60195010E94771D9F
:103540002150304040405040CA01B90122E030E0F3
:1035500040E050E00E94771DD7011C96ED91FC9150
:103560001D9730831E96ED91FC911F972083D70104
:103570005296ED91FC915397808155969C91892BA1
:10358000808323C0D7015996ED91FC915A971382FD
:10359000128282819381918380835796ED91FC9171
:1035A000589713821282828193819183808381E074
:1035B0005B968C931A141B041C041D040CF49ECF00
:1035C000D6CF108220E130E0C7CFDF91CF911F919D
:1035D0000F91FF90EF90DF90CF90BF90AF90089544
:1035E0005058BB27AA270ED075C166D130F06BD1D9
:1035F00020F031F49F3F11F41EF45BC10EF4E0950E
:10360000E7FB51C1E92F77D180F3BA17620773073F
:103610008407950718F071F49EF58FC10EF4E095BC
:103620000B2EBA2FA02D0B01B90190010C01CA017C
:10363000A0011124FF27591B99F0593F50F4503E27
:1036400068F11A16F040A22F232F342F4427585F19
:10365000F3CF469537952795A795F0405395C9F731
:103660007EF41F16BA0B620B730B840BBAF09150E9
:10367000A1F0FF0FBB1F661F771F881FC2F70EC088
:10368000BA0F621F731F841F48F48795779567955B
:10369000B795F7959E3F08F0B3CF9395880F08F044
:1036A0009927EE0F979587950895D9D008F481E072
:1036B00008950CD00FC107D140F0FED030F021F4B6
:1036C0005F3F19F0F0C0511139C1F3C014D198F324
:1036D0009923C9F35523B1F3951B550BBB27AA2793
:1036E00062177307840738F09F5F5F4F220F331F05
:1036F000441FAA1FA9F333D00E2E3AF0E0E830D0D1
:1037000091505040E695001CCAF729D0FE2F27D0D3
:10371000660F771F881FBB1F261737074807AB07A1
:10372000B0E809F0BB0B802DBF01FF2793585F4F16
:103730002AF09E3F510568F0B6C000C15F3FECF330
:10374000983EDCF3869577956795B795F7959F5FDB
:10375000C9F7880F911D9695879597F90895E1E02F
:10376000660F771F881FBB1F621773078407BA078E
:1037700020F0621B730B840BBA0BEE1F88F7E095E9
:10378000089504D06894B111D9C00895BCD088F0D0
:103790009F5790F0B92F9927B751A0F0D1F0660F3D
:1037A000771F881F991F1AF0BA95C9F712C0B13058
:1037B00081F0C3D0B1E00895C0C0672F782F88276B
:1037C000B85F39F0B93FCCF3869577956795B39597
:1037D000D9F73EF490958095709561957F4F8F4F06
:1037E0009F4F0895E89409C097FB3EF4909580950B
:1037F000709561957F4F8F4F9F4F9923A9F0F92FB7
:1038000096E9BB279395F695879577956795B79534
:10381000F111F8CFFAF4BB0F11F460FF1BC06F5F1A
:103820007F4F8F4F9F4F16C0882311F096E911C02C
:10383000772321F09EE8872F762F05C0662371F04D
:1038400096E8862F70E060E02AF09A95660F771F61
:10385000881FDAF7880F9695879597F90895990F3D
:103860000008550FAA0BE0E8FEEF16161706E8074A
:10387000F907C0F012161306E407F50798F0621B6B
:10388000730B840B950B39F40A2661F0232B242B40
:10389000252B21F408950A2609F4A140A6958FEF5F
:1038A000811D811D089597F99F6780E870E060E0B1
:1038B00008959FEF80EC089500240A9416161706C9
:1038C00018060906089500240A9412161306140611
:1038D00005060895092E0394000C11F4882352F074
:1038E000BB0F40F4BF2B11F460FF04C06F5F7F4F2C
:1038F0008F4F9F4F089557FD9058440F551F59F013
:103900005F3F71F04795880F97FB991F61F09F3FCC
:1039100079F087950895121613061406551FF2CFF5
:103920004695F1DF08C0161617061806991FF1CF45
:1039300086957105610508940895E894BB2766276C
:103940007727CB0197F908958ADF08F48FEF089560
:103950000BD0C0CFB1DF28F0B6DF18F0952309F007
:10396000A2CFA7CF1124EACFC6DFA0F3959FD1F352
:10397000950F50E0551F629FF001729FBB27F00D1D
:10398000B11D639FAA27F00DB11DAA1F649F662772
:10399000B00DA11D661F829F2227B00DA11D621FC1
:1039A000739FB00DA11D621F839FA00D611D221F7B
:1039B000749F3327A00D611D231F849F600D211D5F
:1039C000822F762F6A2F11249F5750408AF0E1F002
:1039D00088234AF0EE0FFF1FBB1F661F771F881F4B
:1039E00091505040A9F79E3F510570F05CCFA6CF93
:1039F0005F3FECF3983EDCF3869577956795B79536
:103A0000F795E7959F5FC1F7FE2B880F911D96955F
:103A1000879597F9089523DF880B990B0895629F86
:103A2000D001739FF001829FE00DF11D649FE00DB6
:103A3000F11D929FF00D839FF00D749FF00D659F17
:103A4000F00D9927729FB00DE11DF91F639FB00D16
:103A5000E11DF91FBD01CF0111240895AA1BBB1B55
:103A600051E107C0AA1FBB1FA617B70710F0A61B7E
:103A7000B70B881F991F5A95A9F780959095BC019F
:103A8000CD01089597FB092E07260AD077FD04D0B3
:103A9000E5DF06D000201AF4709561957F4F0895F8
:103AA000F6F7909581959F4F0895A1E21A2EAA1BD3
:103AB000BB1BFD010DC0AA1FBB1FEE1FFF1FA217DE
:103AC000B307E407F50720F0A21BB30BE40BF50BDB
:103AD000661F771F881F991F1A9469F76095709564
:103AE000809590959B01AC01BD01CF01089597FB96
:103AF000092E05260ED057FD04D0D7DF0AD0001CB2
:103B000038F450954095309521953F4F4F4F5F4F7A
:103B10000895F6F790958095709561957F4F8F4F3A
:103B20009F4F08952F923F924F925F926F927F9294
:103B30008F929F92AF92BF92CF92DF92EF92FF92BD
:103B40000F931F93CF93DF93CDB7DEB7CA1BDB0B69
:103B50000FB6F894DEBF0FBECDBF09942A8839880E
:103B600048885F846E847D848C849B84AA84B98415
:103B7000C884DF80EE80FD800C811B81AA81B98121
:103B8000CE0FD11D0FB6F894DEBF0FBECDBFED0135
:103B90000895EE0FFF1F0590F491E02D0994F8941D
:023BA000FFCF55
:103BA2004750524D4300474E524D430047504747FE
:103BB2004100474E474E5300474E4753410047503E
:103BC20047534100475047535600474C475356000E
:103BD2004E004E4E45004E4500454E4500450045BF
:103BE2005345005345005353450053005353570068
:103BF200535700575357005700574E57004E570020
:103C02004E4E5700474E4753410047007061727352
:103C1200654F4B2020204E4F464958007061727309
:103C2200654F4B2020534154533A20004C41543DA0
:103C320000204C4F4E3D00205341543D0020505235
:103C420045433D004E6F0059657300545820746916
:103C52006D656F75742100486F70206368616E6EC8
:103C6200656C2000204020002C0053004E2F4100A4
:103C7200386368002C205B005D20280029004E4F2D
:103C82005420454E41424C45440053656E64696E72
:103C9200672073657474696E677320746F2052585D
:103CA2000A00526573657474696E67207365747473
:103CB200696E6773206F6E2052580A0041626F72FC
:103CC2007465642065646974730A00696E76616C58
:103CD20069642073656C656374696F6E000D0A49CF
:103CE2006E76616C696420696E707574202D206433
:103CF20069736361726465642107007363616E6E48
:103D02006572206D6F64650053657474696E6773C4
:103D120020736176656420746F20454550524F4D83
:103D22000A005265766572746564207365747469FD
:103D32006E67732066726F6D20454550524F4D0A73
:103D4200004C6F6164656420666163746F727920F0
:103D520064656661756C74730A004B657920616EE7
:103D620064206368616E6E656C732072616E646F4D
:103D72006D697A65640A004F70656E4C52536E67C6
:103D8200205458207374617274696E672000206F2A
:103D92006E204857200050504D0052535349005353
:103DA20044410053434C005258440054584400418B
:103DB200494E004C424545500053504B54524D0021
:103DC200534255530053554D44004C4C494E440008
:103DD20000342B34003800382B34003132003132B9
:103DE2002B34003136006E616E00696E66006F76AC
:103DF20066002E0020002E06000001000000C01206
:103E020000001A400AA1204EA5001B1E27522C2397
:103E1200308025000005400AA1204EA50020244E36
:103E2200A52C2330004B000006400AD0009D49001B
:103E32007B289D492C233000E1000005400A450102
:103E4200D7DC03B81E0EBF00232E48E801008A40CB
:103E52000A6001555502AD1E20000023C8802500CE
:103E62000005400AA1204EA50020244EA52C233097
:103E72000002000200020002000200020002000230
:103E82000002000200020002000200020002000220
:103E9200FFC800000000007A44160A1322312900EC
:103EA20000000062193D16D318031933195019E99D
:083EB200187118B719271A0056
:00000001FF
