:100000000C94E1000C9428150C9455150C940901DE
:100010000C9409010C94AE0A0C9409010C9409018A
:100020000C9409010C9409010C9409010C94090128
:100030000C9409010C9409010C9409010C94090118
:100040000C94F5130C9409010C947D070C94B907DA
:100050000C9409010C9409010C9409010C940901F8
:100060000C9409010C9409010000000024002700F1
:100070002A0000000000250028002B0000000000DE
:1000800023002600290004040404040404040202DA
:100090000202020203030303030301020408102007
:1000A0004080010204081020010204081020000012
:1000B0000007000201000003040600000000000029
:1000C000000000407A10F35A00A0724E1809001088
:1000D000A5D4E80000E87648170000E40B540200BD
:1000E00000CA9A3B000000E1F505000080969800E8
:1000F000000040420F000000A08601000000102711
:1001000000000000E80300000000640000000000A0
:100110000A00000000000100000000002C76D888D2
:10012000DC674F0823DFC1DFAE59E1B1B796E5E3E5
:10013000E453C63AE651997696E8E6C28426EB89FE
:100140008C9B62ED407C6FFCEFBC9C9F40F2BAA59B
:100150006FA5F490055A2AF75C936B6CF9676DC133
:100160001BFCE0E40D47FEF520E6B500D0ED902E37
:100170000300943577050080841E080000204E0A95
:10018000000000C80C333333330F986E12831141D3
:10019000EF8D2114893BE65516CFFEE6DB18D1849E
:1001A0004B381BF77C1D901DA4BBE42420328472C5
:1001B0005E228100C9F124ECA1E53D27CC04EB06C9
:1001C000630B11241FBECFEFD8E0DEBFCDBF14E01C
:1001D000A0E0B1E0E0EFF9E302C005900D92A8368F
:1001E000B107D9F71BE0A8E6B4E001C01D92AC341A
:1001F000B107E1F711E0C2ECD1E004C02297FE01A3
:100200000E94F21CCC3BD107C9F70E94CF170C9477
:100210008F020C940000EF92FF920F931F93F22F26
:10022000F02E47FD02C0E4E001C0E4E1242F3327B3
:1002300027FD309537FF03C0309521953F4F4F2D57
:10024000512F0F2FEE2E0E9492028F2D912F1F9172
:100250000F91FF90EF900895CF93DF93BC01823010
:10026000910510F462E070E0A0914A0BB0914B0B45
:10027000ED0140E050E0E0E0F0E021C088819981AC
:100280008617970769F48A819B81309719F09383C9
:10029000828304C090934B0B80934A0BFE0134C0C1
:1002A0006817790738F44115510519F08417950737
:1002B00008F4AC01FE018A819B819C01E901209731
:1002C000E9F641155105A9F1CA01861B970B049760
:1002D00008F4BA01E0E0F0E02AC08D919C911197FA
:1002E00084179507F9F46417750781F412968D91B8
:1002F0009C911397309719F09383828304C0909355
:100300004B0B80934A0BFD0132964CC0CA01861BF1
:10031000970BFD01E80FF91F6193719302978D937D
:100320009C9340C0FD01828193819C01D90110976B
:10033000A1F68091480B9091490B892B41F4809153
:10034000B1029091B2029093490B8093480B409177
:10035000B3025091B4024115510541F44DB75EB757
:100360008091AF029091B002481B590B2091480B2D
:100370003091490BCA01821B930B8617970780F0B7
:10038000AB014E5F5F4F8417950750F0420F531F2C
:100390005093490B4093480BF9016193719302C04C
:1003A000E0E0F0E0CF01DF91CF910895CF93DF93AC
:1003B000009709F450C0EC0122971B821A82A09189
:1003C0004A0BB0914B0B109709F140E050E0AC178D
:1003D000BD0708F1BB83AA83FE0121913191E20F91
:1003E000F31FAE17BF0779F48D919C911197280FD9
:1003F000391F2E5F3F4F3983288312968D919C9130
:1004000013979B838A834115510571F4D0934B0B4D
:10041000C0934A0B20C012968D919C911397AD0109
:10042000009711F0DC01D3CFFA01D383C28321916D
:100430003191E20FF31FCE17DF0769F488819981AC
:10044000280F391F2E5F3F4FFA01318320838A81A5
:100450009B8193838283DF91CF910895A0E0B0E0E8
:10046000E4E3F2E00C94C11CEC01A880B980CA80DE
:10047000DB80A114B104C104D10441F484E2A82EAC
:1004800089EDB82E8BE5C82E87E0D82EC601B501C0
:100490002DE133EF41E050E00E949E1C27EA31E459
:1004A00040E050E00E945D1C7B018C01C601B5015B
:1004B0002DE133EF41E050E00E949E1CCA01B901DA
:1004C0002CEE34EF4FEF5FEF0E945D1C6E0D7F1D31
:1004D000801F911F97FF04C061507040804090487A
:1004E000688379838A839B839B01AC015F77B90121
:1004F000CA01CDB7DEB7EAE00C94DD1C0E942E02E3
:10050000089585EB92E00E942E0208956093B50253
:100510007093B6028093B7029093B8020895F8944E
:100520000C94F61CA9E0B0E0E8E9F2E00C94BD1CE4
:100530006A01122FA02EBE2C2BE3201718F42CE3F7
:10054000922E02C0902E9394AE014F5F5F4F27E032
:10055000092D0E94F403BC018981E82EFF24C70104
:1005600089709070019711F4ADE209C0B1FE02C02C
:10057000ABE205C0B0FC02C0A0E001C0A0E2E3FE17
:100580003BC0AA2311F423E001C024E0211710F09E
:1005900020E002C0121B212FEB2CB4FE02C0322F30
:1005A0000AC0F601322F80E202C08193315033231A
:1005B000E1F7C20ED11CAA2319F0F601A1936F0135
:1005C000F6013196E2FE05C09EE4D6019C9381E4DB
:1005D00004C09EE6D6019C9381E611968C9391838C
:1005E0003296DF01832F90E202C09D9381508823D1
:1005F000E1F7E30FF11D40C0E2FE42C0AA2311F46F
:1006000023E001C024E0211710F020E002C0121BFB
:10061000212FEB2CB4FE02C0922F0AC0F601922FBC
:1006200080E202C0819391509923E1F7C20ED11C60
:10063000AA2319F0F601A1936F01F6013196E2FEAB
:1006400008C089E4D6018C938EE411968C9386E4DD
:1006500007C089E6D6018C938EE611968C9386E6C8
:1006600081833296DF01892F20E202C02D938150D1
:100670008823E1F7E90FF11D10822EEF3FEFAFC0A5
:10068000161617061CF041E050E003C0AB014F5FA7
:100690005F4FAA2019F480E090E003C08A2D90E01B
:1006A000019620E030E0AA2311F021E030E0240F91
:1006B000351F280F391F812F90E02817390714F0B4
:1006C00020E002C0121B212F4B2D50E0CA01807187
:1006D0009070B4FC0DC0B3FC0BC0F601322F40E2A9
:1006E00002C0419331503323E1F7C20ED11C01C047
:1006F000322FAA2319F0F601A1936F01892B11F073
:10070000132F0AC0F601132F80E302C0819311500A
:100710001123E1F7C30ED11C092D060FBA8090E119
:10072000892E912C8E209F20E4FE04C0F1E3BF1699
:1007300009F40150101614F001E003C0093008F06C
:1007400008E09B0177FF02C020E030E0CB0101967A
:10075000821B930BFE013196E80FF91F8EE2F82EF3
:100760003B01601A71088A2D90E044275527481BE9
:10077000590B8FEF2F3F380719F4D601FD926D0109
:10078000621773072CF06216730614F4808101C09F
:1007900080E32150304031962417350724F0D601EC
:1007A0008D936D01E6CF2617370749F4B5E3BB15E6
:1007B00028F0BB1621F48114910409F481E3F601B9
:1007C0008193D601812F90E202C09C9381501196B3
:1007D0008823D9F7E10FF11D108220E030E0C90134
:1007E0002996EEE00C94D91C283008F027E0332736
:1007F000DA01990F311D87FD916000966105710541
:1008000039F432602E5F3D9330E32A95E1F7089585
:100810009F3F30F080387105610509F03C5F3C5F17
:100820003D93913008F08068911DDF93CF931F9323
:100830000F93FF92EF92192F987F9695E92F969537
:100840009695E90FFF27E45EFE4F99273327EE24A4
:10085000FF24A701E70105900894079428F4360FB8
:10086000E71EF81E491F511D660F771F881F991F2D
:100870000694A1F70590079428F4E70EF81E491F87
:10088000561FC11D770F881F991F661F0694A1F779
:100890000590079428F4F80E491F561FC71FD11D55
:1008A000880F991F661F771F0694A1F7059007947C
:1008B00020F4490F561FC71FD81F990F661F771FB7
:1008C000881F0694A9F784911095177041F0D6956A
:1008D000C79557954795F794E7941A95C1F7E2ECB9
:1008E000F0E068941590159135916591959105907A
:1008F0007FE27395E118F10A430B560BC90BD0093F
:10090000C0F7E10CF11E431F561FC91FD01D7EF416
:10091000703311F48A95E6CFE894015030F0080F57
:100920000AF40027021708F4202F2395022F7A33A8
:1009300028F079E37D932A95E9F710C07D932A95F5
:1009400089F6069497956795379517951794E1184A
:10095000F10A430B560BC90BD00998F023957E91F1
:1009600073957A3308F070E37C932013B8F77E9187
:1009700070617D9330F0839571E37D9370E32A95E8
:10098000E1F71124EF90FF900F911F91CF91DF912C
:10099000992787FD9095089525EC34EE40E552E4C3
:1009A0002093690430936A0440936B0450936C0461
:1009B0008AE392E3A9EAB1E480936D0490936E0414
:1009C000A0936F04B093700464E070E070937204BD
:1009D0006093710482EC94EEA0E5B2E480937E040F
:1009E00090937F04A0938004B093810484E492E305
:1009F000A9EAB1E48093820490938304A0938404D1
:100A0000B093850483E090E09093870480938604FC
:100A10002093930430939404409395045093960448
:100A20008AE492E3A9EAB1E480939704909398044E
:100A3000A0939904B0939A048AE090E090939C0468
:100A400080939B0480EC94EEA0E5B2E48093A8042C
:100A50009093A904A093AA04B093AB0483E492E317
:100A6000A9EAB1E48093AC049093AD04A093AE04E2
:100A7000B093AF047093B1046093B00488EC94EE2B
:100A8000A0E5B2E48093BD049093BE04A093BF049C
:100A9000B093C00488E492E3A9EAB1E48093C1046E
:100AA0009093C204A093C304B093C40485E090E083
:100AB0009093C6048093C50486EC94EEA0E5B2E45E
:100AC0008093D2049093D304A093D404B093D5041C
:100AD00082E492E3A9EAB1E48093D6049093D70428
:100AE000A093D804B093D9047093DB046093DA0424
:100AF0000895EF92FF920F931F93CF93DF938B0193
:100B0000EA0179018330910509F44AC084309105E6
:100B10005CF48130910509F46BC08230910584F456
:100B2000892B09F433C150C18530910509F4D2C035
:100B3000853091050CF484C0089709F045C123C1A4
:100B40008881882309F024C10E943D14F801208186
:100B5000318142815381621B730B840B950B695E5B
:100B600073408040904008F413C19EC00E943D1421
:100B7000F8012081318142815381621B730B840B08
:100B8000950B693C71058105910508F41DC118821A
:100B90000E943D14F801608371838283938314C1A2
:100BA0008881882309F4F8C00E943D14F80120814F
:100BB000318142815381621B730B840B950B695EFB
:100BC00073408040904008F4E7C0E1CF0E943D149C
:100BD000F8012081318142815381621B730B840BA8
:100BE000950B615B74408040904008F4EDC05CC0A0
:100BF0008881882309F0D4C00E943D14F801208127
:100C0000318142815381621B730B840B950B6333DB
:100C100071058105910508F4C3C046C00E943D14CA
:100C2000F8012081318142815381621B730B840B57
:100C3000950B633371058105910508F4C5C0A7CFF5
:100C40008881882309F0B0C00E943D14F8012081FA
:100C5000318142815381621B730B840B950B695E5A
:100C600073408040904008F49FC0F70180819181DB
:100C7000892B09F099C018C00E943D14F801208109
:100C8000318142815381621B730B840B950B693C4C
:100C900071058105910508F48BC0F7018081918170
:100CA000181619060CF084C081E0888371CF0E9469
:100CB0003D14F8012081318142815381621B730B05
:100CC000840B950B693C71058105910508F47CC086
:100CD000188247C08881882309F46EC00E943D14A1
:100CE000F8012081318142815381621B730B840B97
:100CF000950B695E73408040904008F45DC0F70139
:100D000080819181892B09F057C041CF0E943D1409
:100D1000F8012081318142815381621B730B840B66
:100D2000950B693C71058105910508F449C0F701EF
:100D300080819181181619060CF429CF41C00E94B8
:100D40003D14F8012081318142815381621B730B74
:100D5000840B950B693C710581059105A8F181E033
:100D600088830E943D14F80160837183828393839A
:100D7000F70180819181019691838083029721F50B
:100D80001182108221C081E088831EC018821CC09D
:100D900088818823C9F0EACE88818823A9F416CFF8
:100DA0008881882389F03ACF8881882309F464CF29
:100DB0008881882349F07BCF8881882309F0A6CFDA
:100DC0008881882309F4BBCFDF91CF911F910F91C8
:100DD000FF90EF900895EEEEF4E08FEF9FEF918398
:100DE00080833C9625E0EA32F207C9F70895FC01BA
:100DF0002FEF3FEF4FEF5FEF208331834283538329
:100E000010861186128613868FEF99ECAAE9BBE350
:100E1000808B918BA28BB38B808F918FA28FB38F9E
:100E200080A391A3A2A3B3A380A791A7A2A7B3A7CE
:100E300080AB91ABA2ABB3AB20AF31AF42AF53AFFE
:100E4000E05CFF4F8FEF90E09183808334962083A6
:100E50003183428353833896208331834283538383
:100E6000389611921082709686E0819311921192B9
:100E70001082729710820895DF93CF9300D0CDB780
:100E8000DEB72091480B3091490BCE010196211518
:100E9000310529F48C549B409A83898318C0AC0196
:100EA000421B530BE0914A0BF0914B0B20E030E0DA
:100EB00008C0808191810296280F391F0280F3813A
:100EC000E02D3097B1F7240F351F3A8329838981AC
:100ED0009A810F900F90CF91DF9108958091220514
:100EE000813019F482E080932205809122058330BD
:100EF00019F484E08093220508951F920F920FB693
:100F00000F9211242F933F934F938F939F93EF93BF
:100F1000FF934091C6002091380B3091390B2F5F21
:100F20003F4F80913C0B90913D0B282339238091BA
:100F30003A0B90913B0B2817390779F08091380BC9
:100F40009091390BE0913E0BF0913F0BE80FF91FA8
:100F500040833093390B2093380BFF91EF919F9191
:100F60008F914F913F912F910F900FBE0F901F9037
:100F700018951F920F920FB60F9211242F933F9343
:100F80008F939F93EF93FF932091420B3091430BEC
:100F90008091400B9091410B28173907E9F080911F
:100FA000420B9091430BE091460BF091470BE80FF9
:100FB000F91F80818093C6008091420B9091430B72
:100FC00001962091440B3091450B822393239093FB
:100FD000430B8093420B10C02091400B3091410B8A
:100FE0008091420B9091430B2817390729F4809187
:100FF000C1008F7D8093C100FF91EF919F918F91F0
:101000003F912F910F900FBE0F901F90189587E37F
:101010008093590580E092ECA1E0B0E080935A05FE
:1010200090935B05A0935C05B0935D0589E0809388
:10103000820587E08093660580EC92E9ADEEB9E128
:1010400080935E0590935F05A0936005B093610562
:1010500085E0809367058DEE9EEFADEABEED80934F
:10106000620590936305A0936405B0936505A8E6B7
:10107000B5E080E090E0863010F0E0E004C0FC01D4
:10108000E45BFC4FE081ED9301968831910599F77F
:1010900082E0809380058AE080938105089523E0B3
:1010A0008032920718F420E030E026C023E0883E2A
:1010B000920748F49C012F513340F4E03695279570
:1010C000FA95E1F719C027E0803D920720F49C01D2
:1010D0002C5D334011C028E08839920718F02FEFBB
:1010E00033E00AC09C01285C3740E4E03695279540
:1010F000EA95E1F72D503C4FC9010895882339F056
:101100005F980000289A00005F9A000008955F9899
:101110000000289800005F9A000008950F931F9325
:10112000082F5C9A5F985C9810E0802F80780E946E
:101130007E08000F1F5F1830C1F75F981F910F9155
:1011400008958F770E948E0808950F931F93082F9C
:1011500010E0802F80780E947E08000F1F5F1830FB
:10116000C1F75F981F910F9108955F9820E030E0DC
:10117000220F5F9A000083B15F98000090E096957F
:1011800087958170280F3F5F383091F7822F08953F
:101190000E94A1080E94B5085C9A08951F93162F1B
:1011A00080680E948E08812F0E94A5085C9A1F917A
:1011B00008951F93109162051827E9E5F5E0E80FFF
:1011C000F11D89E767850E94CE088DE3612F0E949B
:1011D000CE0882E4612F0E94CE081F9108950F93DC
:1011E0001F938C018CE1F80164810E94CE088DE18F
:1011F000F80165810E94CE088EE1F80166810E94A7
:10120000CE0880E2F80167810E94CE0881E2F801F1
:1012100060850E94CE0882E2F80161850E94CE08B6
:1012200083E2F80162850E94CE0884E2F8016385BA
:101230000E94CE0885E2F80164850E94CE088AE209
:10124000F80165850E94CE088EE6F80166850E9449
:10125000CE088FE6F80167850E94CE0880E7F80186
:1012600060890E94CE0881E7F80161890E94CE085A
:1012700082E7F80162890E94CE081F910F910895BC
:10128000EF92FF920F931F93CF93DF937B018C011B
:10129000603028E372072CE982072CE1920728F5D9
:1012A00020E836E948E950E00E947C1CE901689793
:1012B000B90180E090E020E839E647E65FEF0E9460
:1012C0005D1C6E0D7F1D801F911F12E0660F771F42
:1012D000881F991F1A95D1F721E732E040E050E0CE
:1012E0000E947C1C890180E421C020E03DE241E3B2
:1012F00051E00E947C1CE9016897B90180E090E010
:1013000020E033ED4EEC5EEF0E945D1C6E0D7F1D04
:10131000801F911F660F771F881F991F21E732E0FA
:1013200040E050E00E947C1C890180E69E012F7104
:10133000622F680F85E70E94CE0886E7612F0E9422
:10134000CE0887E7602F0E94CE08DF91CF911F91D2
:101350000F91FF90EF9008959F92AF92BF92CF921E
:10136000DF920F93DF93CF9300D000D0CDB7DEB7DD
:10137000982E83E00E94C8088093830584E00E9431
:10138000C8088093840586E060E00E94CE0887E06C
:1013900061E00E94CE0889E06FE70E94CE088AE0F3
:1013A00065E00E94CE088BE062E10E94CE088CE0EE
:1013B00065E10E94CE088DE06DEF0E94CE088EE0C0
:1013C00060E00E94CE08992019F088E193E008C0FF
:1013D0008091800523E1829FC001112487549D4F95
:1013E0000E94EF0880E36CE80E94CE0882E36FE081
:1013F0000E94CE0883E362E40E94CE0884E36AE0A0
:101400000E94CE0885E36AE20E94CE0886E36DE280
:101410000E94CE0887E364ED0E94CE0888E360E076
:101420000E94CE0889E360E00E94CE08992049F02E
:1014300025E8A22E21ECB22E21ECC22E2EEDD22ECA
:1014400008C0A0906205B0906305C0906405D0907C
:1014500065050AE38D2D9927AA27BB2789839A83DF
:10146000AB83BC83802F69810E94CE08802F8B5F65
:1014700069810E94CE08DC2CCB2CBA2CAA240F5FE9
:101480000E3341F783E46FEF0E94CE0884E46FEFE0
:101490000E94CE0885E46FEF0E94CE0886E46FEFCD
:1014A0000E94CE08992019F08DE666E003C08DE613
:1014B000609166050E94CE0889E760E00E94CE0830
:1014C0008AE7609167050E94CE0883E760E00E948A
:1014D000CE0884E760E00E94CE08992029F060ECF5
:1014E00072E98DEE99E108C060915E0570915F052B
:1014F00080916005909161050E9440090F900F90C6
:101500000F900F90CF91DF910F91DF90CF90BF9010
:10151000AF909F90089587E061E00E94CE088EE72B
:1015200064E20E94CE0888E063E00E94CE0888E072
:1015300060E00E94CE0887E065E00E94CE0885E06A
:1015400062E00E94CE0883E00E94C8088093830571
:1015500084E00E94C8088093840508951F920F922A
:101560000FB60F921124EF92FF920F931F932F93B8
:101570003F934F935F936F937F938F939F93AF931B
:10158000BF93EF93FF93E0904505F09046050091DF
:1015900047051091480589B1A80197012074307062
:1015A0004070507090E063E0969587956A95E1F7FA
:1015B000A0E0B0E081709070A070B070281739077B
:1015C0004A075B0709F46AC02091840030918500C6
:1015D000109285001092840080919105882309F073
:1015E0005DC0E5FC02C03695279589E0253C3807AB
:1015F000C8F180914B03A8019701BCE1569547952E
:1016000037952795BA95D1F7211531054105510533
:1016100021F421E030E040E050E090E0A0E0B0E0D4
:10162000281739074A075B07D0F480914B038F3F97
:10163000B1F020E00EC0E22FF0E0EE0FFF1FDF015F
:10164000AE56BA4F8D919C91E55DFC4F918380839E
:101650002F5F80914B03281770F310929005109222
:101660004B031CC082E02D3B3807A8F080914B0350
:10167000803188F410914B03C9010E944F08E12F7B
:10168000F0E0EE0FFF1FEE56FA4F918380831F5F4D
:1016900010934B0303C08FEF80934B03FF91EF91A7
:1016A000BF91AF919F918F917F916F915F914F917A
:1016B0003F912F911F910F91FF90EF900F900FBED0
:1016C0000F901F9018958F92AF92CF92EF92FF924A
:1016D0000F931F9383E295E060E045EC50E024EC2B
:1016E00030E000EC10E0F1ECEF2EF12CCC24C394B0
:1016F000E8E9AE2E70E2872E0E94DE1782EB95E0BD
:101700000E94F7061F910F91FF90EF90CF90AF903E
:101710008F900895EF92FF920F931F93DF93CF93D3
:1017200000D000D000D0CDB7DEB70E943D140E949B
:10173000441B7B018C0160919C0670919D068091F9
:101740009E0690919F0620E030E04AE754E40E9414
:10175000471A9B01AC01C801B7010E94F61B18167D
:101760000CF08DC00E943D140E94441B60939C06A7
:1017700070939D0680939E0690939F06E0912305AB
:10178000F09124050280F381E02D83E295E066E08C
:1017900071E046E050E0099583E295E061E50E9442
:1017A000BD186091A0067091A106882777FD8095ED
:1017B000982F0E94461B45E021E08E010F5F1F4FCE
:1017C0000E940B0183E295E069810E94BD1883E2CB
:1017D00095E06A810E94BD1883E295E06B810E94CA
:1017E000BD1883E295E06C810E94BD1883E295E00C
:1017F0006D810E94BD1883E295E06E810E94BD1844
:101800008091A2068823D9F183E090E09093890625
:101810008093880684E090E090938B0680938A06FC
:1018200083E295E061E40E94BD188091A3068330B5
:1018300031F58091A4069091A506A091A606B091DD
:10184000A7068093890590938A05A0938B05B09392
:101850008C058091A8069091A906A091AA06B09146
:10186000AB068093850590938605A0938705B0937A
:1018700088058091AC0680938D0510928E05269682
:101880000FB6F894DEBF0FBECDBFCF91DF911F9191
:101890000F91FF90EF90089589E060E00E9482151B
:1018A00088E061E00E94821587E061E00E94821575
:1018B00082E060E00E94821584E061E00E9482156F
:1018C00008958AE060E00E94C11508958AE061E011
:1018D0000E9482158AE060E00E94C11508952C9A4A
:1018E0002D9A83E00E94C8088093830584E00E94BB
:1018F000C8088093840586E060E00E94CE0887E0F7
:1019000061E00E94CE0889E06FE70E94CE088AE07D
:1019100065E00E94CE088BE062E10E94CE088CE078
:1019200065E10E94CE088DE06DEF0E94CE088EE04A
:1019300060E00E94CE0880E76CE20E94CE0880E35F
:1019400060E00E94CE0889E760E00E94CE088AE746
:1019500065E00E94CE0881E762E10E94CE0882E73E
:1019600062E00E94CE0883E760E00E94CE0884E730
:1019700060E00E94CE086EE078E786E99AE10E9476
:1019800040098DE667E00E94CE086AE070E080E0E2
:1019900090E00E94711487E069E00E94CE086AE03E
:1019A00070E080E090E00E94711408950F931F93FF
:1019B000082F17C02D9A64E670E080E090E00E9446
:1019C00071142D9864E670E080E090E00E9471143C
:1019D0001F5F101778F36CE271E080E090E00E94E6
:1019E000711410E0F6CF482F392F25E00DC0F9997A
:1019F000FECF1FBA842F932F92BD81BD60BD0FB65D
:101A0000F894FA9AF99A0FBE215059F0F999FECF3D
:101A1000842F932F92BD81BDF89A80B5681739F74E
:101A2000089582E00E94D60C08952F923F924F9223
:101A30005F926F927F928F929F92AF92BF92CF925E
:101A4000DF92EF92FF920F931F93CF93DF93282E95
:101A5000362EEE24FF2488249924C0E0D0E002C072
:101A600033243394CC24DD24222071F480913F056B
:101A700027E4829FE001112420E4E22E25E0F22EEB
:101A800099E1892E912C1EC031E0231679F48091C2
:101A90003F0597E4899FE00111246B9689E5E82EC4
:101AA00085E0F82E0AE2802E912C0CC0E2E02E1682
:101AB00049F41FE3E12E15E0F12EB1E08B2E912CBD
:101AC000CCE1D1E02E014C0C5D1C1092AE061092C0
:101AD000AD06E20133C0332059F4F999FECFD2BDEF
:101AE000C1BDF89A80B5F701E00FF11F808307C0F0
:101AF000F701E00FF11FCE0160810E94F30C0E0D83
:101B00001F1DF801708066248091AD069091AE068D
:101B10008625972540E09C01220F331F97FF05C0C3
:101B200081E290E18227932701C0C9014F5F4830CD
:101B300091F79093AE068093AD0621969E012419ED
:101B4000022F10E00815190508F4C5CFCE01332087
:101B5000D9F4F999FECFD2BDC1BDF89A20B5F99953
:101B6000FECF2196D2BDC1BD2197F89A80B590E0F5
:101B7000B22EAA248A299B292091AD063091AE0667
:101B80002817390759F46CCF21966091AE060E9450
:101B9000F30CCE016091AD060E94F30C80E291E05F
:101BA000C80ED91E91EEC91692E0D90608F45CCF92
:101BB000832DDF91CF911F910F91FF90EF90DF90D8
:101BC000CF90BF90AF909F908F907F906F905F90DD
:101BD0004F903F902F90089580E061E00E94150D96
:101BE00081E061E00E94150D089582E061E00E94AD
:101BF000150D089582E060E00E94150D80913F056B
:101C0000843020F010923F050E94F50D08958F92C8
:101C10009F92AF92BF92CF92DF92FF920F931F934A
:101C2000CF93DF93F62E4901082F10E06801CC0C0A
:101C3000DD1C5601A00EB11EE501CC0FDD1FCC0F3F
:101C4000DD1FC550D54F18828B819C818430910552
:101C500009F478C0853091055CF48230910509F46F
:101C600043C0833091050CF0ABC09923C4F43CC24F
:101C70008730910509F42FC18830910544F48530EF
:101C8000910509F4CAC0069709F02EC2F3C0883046
:101C9000910509F466C1099709F026C2D3C18EEFF8
:101CA000681709F021C282E090E09C838B8380E179
:101CB00091E0089FD001099FB00D189FB00D11242D
:101CC000A554B94F13961C92139788E890E0089F8B
:101CD000F001099FF00D189FF00D1124EE0FFF1F6A
:101CE000E354F94F608390C180E191E0089FF001D7
:101CF000099FF00D189FF00D1124E554F94F6383EF
:101D00001D8280818627282F2295207F282730E07A
:101D1000522F4427C90163E0880F991F6A95E1F7A4
:101D200048275927818190E048275927B4E0359505
:101D30002795BA95E1F7422753275183408384E0E2
:101D400090E03BC084E490E0089FF001099FF00D13
:101D5000189FF00D1124EE0FFF1FEE0FFF1FE1542F
:101D6000F94F608380E191E0089FF001099FF00D39
:101D7000189FF00D1124E554F94F80818627282FF4
:101D80002295207F282730E0522F4427C90163E0A5
:101D9000880F991F6A95E1F748275927818190E0BC
:101DA0004827592794E0359527959A95E1F74227DA
:101DB00053275183408383E090E09C838B8394C1BD
:101DC00080E191E0089FF001099FF00D189FF00D50
:101DD0001124E554F94F658380818627282F2295A9
:101DE000207F282730E0522F4427C901B3E0880F15
:101DF000991FBA95E1F748275927818190E0482734
:101E00005927A4E035952795AA95E1F7422753274E
:101E10005183408385E090E0D0CF80E191E0089F3E
:101E2000F001099FF00D189FF00D1124E554F94FB2
:101E3000668380818627282F2295207F282730E0FF
:101E4000522F4427C90163E0880F991F6A95E1F773
:101E500048275927818190E048275927B4E03595D4
:101E60002795BA95E1F7422753275183408386E0AF
:101E700090E0A3CF80E191E0089FF001099FF00D71
:101E8000189FF00D1124E554F94F67838081862750
:101E9000282F2295207F282730E0522F4427C90180
:101EA00073E0880F991F7A95E1F7482759278181B8
:101EB00090E04827592764E0359527956A95E1F722
:101EC00042275327518340838381882309F446C0E6
:101ED00087E090E072CF6D81F80125E0EE0FFF1FE3
:101EE0002A95E1F7EC0DFD1D319693E0EE0FFF1FF3
:101EF0009A95E1F7E60FF11DE554F94FF0826F5F17
:101F00006D8380E191E0089FF001099FF00D189F1B
:101F1000F00D1124E554F94F80818F25282F22954B
:101F2000207F282730E0522F4427C901B3E0880FD3
:101F3000991FBA95E1F748275927818190E04827F2
:101F40005927A4E035952795AA95E1F7422753270D
:101F5000518340838381681709F0C6C088E090E010
:101F60002CCF80E191E0089FD001099FB00D189F10
:101F7000B00D1124A554B94F9C911796EC91179769
:101F8000F0E0EE5AFC4F80818927482F4295407F30
:101F9000482750E0342F2227CA0173E0880F991F89
:101FA0007A95E1F72827392711968C91119790E0BF
:101FB0002827392764E0559547956A95E1F7242746
:101FC000352711963C932E938F2D90E03070821719
:101FD0009307F9F0F501EE0FFF1FEE0FFF1FE3501F
:101FE000F54F80818F5F8083188281E090E09C8331
:101FF0008B83EEEFFE1609F077C082E090E09C83C1
:102000008B8313961C9213978FEF9FEF8D939C9366
:102010006BC089E090E09C838B83F80195E0EE0F24
:10202000FF1F9A95E1F7EC0DFD1D319683E0EE0F51
:10203000FF1F8A95E1F78D81E80FF11DE554F94FF7
:10204000F08252C0262F30E080E191E0089FB0017D
:10205000099F700D189F700D11246554794FFB0175
:10206000818190E028173907E9F0F501EE0FFF1F95
:10207000EE0FFF1FE350F54F80818F5F8083188242
:1020800081E090E09C838B83FEEFFF1669F582E090
:1020900090E09C838B83EB011B828FEF9FEF9983F2
:1020A000888322C081E0888381E090E09C838B83D9
:1020B000F801A5E0EE0FFF1FAA95E1F7EC0DFD1D5D
:1020C000319633E0EE0FFF1F3A95E1F78D81E80F6F
:1020D000F11DE454F94FF082DA01FB0180E191E057
:1020E00001900D920197E1F7D801AA0FBB1FA00F35
:1020F000B11FAA0FBB1FAA0FBB1FA550B54F8C91D4
:10210000813069F584E490E0089FF001099FF00DAB
:10211000189FF00D1124EE0FFF1FEE0FFF1FE1546B
:10212000F94F808116968C93169718968D919C91F5
:102130001997892B21F41B961C921E921A97F8016D
:10214000EE0FFF1FE00FF11FEE0FFF1FEE0FFF1F3F
:10215000E550F54F80859185019691878087F8013C
:10216000EE0FFF1FE00FF11FEE0FFF1FEE0FFF1F1F
:10217000DF01A550B54F16968C9116978F5FE4013D
:102180008E8318968D919C91199799878887E35033
:10219000F54F80818A871B8610828C91DF91CF91C9
:1021A0001F910F91FF90DF90CF90BF90AF909F90C5
:1021B0008F900895DF92EF92FF920F931F93DF931A
:1021C000CF93CDB7DEB7CC51D1400FB6F894DEBF78
:1021D0000FBECDBFD82E0E943D140E94441B7B0130
:1021E0008C016091B0067091B1068091B206909119
:1021F000B30620E030E04AE754E40E94471A9B010E
:10220000AC01C801B7010E94F61B181614F4109215
:10221000A2068E01035F1F4F80E06D2DA8019E0175
:102220002F5F3F4F0E94070E882309F47CC00E9455
:102230003D140E94441B6093B0067093B1068093D6
:10224000B2069093B30691E09093A2068C898831F0
:1022500049F08E3109F445C0882309F064C0909399
:10226000B40661C0F80160897189828993890E94EE
:10227000461B20E836E948E15BE40E94AB1A609314
:10228000A8067093A9068093AA069093AB06F8015E
:1022900064897589868997890E94461B20E836E9FA
:1022A00048E15BE40E94AB1A6093A4067093A50614
:1022B0008093A6069093A706FE017596848D809361
:1022C000A306858D8093AC06828D938D9093B60680
:1022D0008093B506848995899093B8068093B70654
:1022E00022C0F801608971898289938921EE3EE2DA
:1022F00045E652E40E94FA1B0E94131B7093BA0633
:102300006093B906F801648575858685978521EE09
:102310003EE245E652E40E94FA1B0E94131B7093B2
:10232000A1066093A006C45EDE4F0FB6F894DEBF30
:102330000FBECDBFCF91DF911F910F91FF90EF9016
:10234000DF90089580918C0690918D066EE876E07E
:1023500042E956E023E936E00E94790580918A0639
:1023600090918B0665E976E049E956E02AE936E086
:102370000E94790580919206882311F02C9A01C061
:102380002C9880919906882311F02D9A01C02D98E0
:102390000E943D1420918406309185064091860666
:1023A00050918706621B730B840B950B6157774125
:1023B00080409040B8F10E943D1460938406709371
:1023C0008506809386069093870683E295E00E94B7
:1023D000A91883E295E064E40E94BD188091880604
:1023E00090918906009779F481E090E090938906B6
:1023F0008093880690938B0680938A0610928D06B0
:1024000010928C060FC08130910561F490938D0677
:1024100080938C0610928B0610928A061092890681
:10242000109288068BE00E941516892BE9F583E24D
:1024300095E06DE60E94BD180E943C07BC0183E256
:1024400095E04AE050E00E949A1780918A069091A8
:102450008B06009719F482E090E00AC08230910563
:1024600019F484E090E004C0049739F485E090E02A
:1024700090938B0680938A0617C010928B06109259
:102480008A0612C083E295E00E945C1820918806BB
:10249000309189062130310519F02330310521F4BE
:1024A0000E94DA100E948A0B83E295E00E9446188F
:1024B000181619063CF30895EF92FF920F931F939D
:1024C0007C0103E215E0C8016F2D70E04AE050E0A6
:1024D0000E944917C8016EE20E949216B70154E0AB
:1024E000769567955A95E1F76F707070C8014AE06C
:1024F00050E00E944917C8016EE20E9492168FE0D8
:10250000E822FF24C801B7014AE050E00E944917C1
:102510001F910F91FF90EF900895DF92EF92FF923D
:102520000F931F93CF93DF930E944B146115710596
:1025300081059105C9F30E948602109262051092EE
:1025400063051092640510926505DD24E090620534
:10255000F09063050091640510916505102F0F2D13
:10256000FE2CEE240E9481022FEF30E040E050E08C
:102570000E949E1CE60EF71E081F191FE0926205BE
:10258000F09263050093640510936505D39444E0CD
:10259000D416E1F6C8E6D5E000E010E060E1E62EF2
:1025A00067E2F62E4EC00F5F19F40E9407084DC077
:1025B0000E94810222E330E040E050E00E949E1C35
:1025C0006F5FE8E6F5E090E004C08191861759F36B
:1025D0009F5F9117D0F38091670590E08E9D9001E9
:1025E0008F9D300D9E9D300D1124862F90E0AC0103
:1025F000249FC001259F900D349F900D1124AA2780
:1026000097FDA095BA2F20915E0530915F0540910E
:10261000600550916105820F931FA41FB51F209183
:1026200041053091420540914305509144052817DA
:1026300039074A075B0708F4B6CF69931F5F183163
:1026400021F08881882309F0AECFDF91CF911F91CF
:102650000F91FF90EF90DF90089580E060E00E947E
:10266000150D882331F081E060E00E94150D88236C
:1026700029F580EC91EDA8E9BBE1809341059093A9
:102680004205A0934305B093440580E090E0A0E0AC
:10269000B0E58093450590934605A0934705B09318
:1026A0004805E9E4F5E080E081938F5F8031E1F750
:1026B0000E9407080E948D120E94EC0D089580E090
:1026C0006EE677E042E050E00E9405150895E3E0F1
:1026D000F0E089E08093570084918670863061F441
:1026E0008FB791E09093AF06F894A89598E19093F6
:1026F0006000109260008FBF0E944C0C8DE061E082
:102700000E9482158CE061E00E9482158BE060E0FF
:102710000E94821583E060E00E94821583E061E000
:102720000E94C1158EE061E00E9482158EE060E09B
:102730000E94C1150E94660C83E295E040E051EED4
:1027400060E070E00E9436180E94FA0D0E942D137E
:102750000E945F1378940E943D1480ED97E00E94E0
:10276000610C8BE061E00E94C1152D9A83E295E037
:1027700060E472E00E94CC1783E793E00E945C1251
:1027800083E295E067E572E00E94CC1783E295E072
:1027900062E070E04AE050E00E94AD1783E295E00D
:1027A0000E94A91880E00E94AC0980918F050E94C8
:1027B000D9080E948B0AE3E0F0E089E0809357009B
:1027C00084918670863071F49FB781E08093AF0664
:1027D000F894A89588E1809360008FE08093600072
:1027E000A8959FBF0E946F0C08951F920F920FB67D
:1027F0000F9211242F933F938F939F93AF93BF9387
:1028000080912F0B9091300BA091310BB091320B36
:102810003091330B0196A11DB11D232F2D5F2D3754
:1028200020F02D570196A11DB11D2093330B8093ED
:102830002F0B9093300BA093310BB093320B809100
:102840002B0B90912C0BA0912D0BB0912E0B019680
:10285000A11DB11D80932B0B90932C0BA0932D0BDE
:10286000B0932E0BBF91AF919F918F913F912F917C
:102870000F900FBE0F901F9018958FB7F89420916E
:102880002F0B3091300B4091310B5091320B8FBF99
:10289000B901CA0108959FB7F89420912B0B30918C
:1028A0002C0B40912D0B50912E0B86B5A89B06C08A
:1028B0008F3F21F02F5F3F4F4F4F5F4F9FBF542FF0
:1028C000432F322F2227280F311D411D511D82E039
:1028D000220F331F441F551F8A95D1F7B901CA0132
:1028E00008959B01AC017FB7F89480912B0B9091D8
:1028F0002C0BA0912D0BB0912E0B66B5A89B05C09B
:102900006F3F19F00196A11DB11D7FBFBA2FA92FEE
:10291000982F8827860F911DA11DB11D62E0880F99
:10292000991FAA1FBB1F6A95D1F7BC012DC0FFB725
:10293000F89480912B0B90912C0BA0912D0BB091C2
:102940002E0BE6B5A89B05C0EF3F19F00196A11D1F
:10295000B11DFFBFBA2FA92F982F88278E0F911D69
:10296000A11DB11DE2E0880F991FAA1FBB1FEA95A8
:10297000D1F7861B970B885E9340C8F221503040F8
:102980004040504068517C4F2115310541055105AB
:1029900071F60895789484B5826084BD84B58160B1
:1029A00084BD85B5826085BD85B5816085BDEEE657
:1029B000F0E0808181608083E1E8F0E01082808136
:1029C00082608083808181608083E0E8F0E08081A4
:1029D00081608083E1EBF0E0808184608083E0EBC4
:1029E000F0E0808181608083EAE7F0E080818460AC
:1029F0008083808182608083808181608083808108
:102A0000806880831092C1000895823000F5E82F1D
:102A1000F0E0EE0FFF1FEC5CF44F718360838823BE
:102A200019F08130A1F408C0809169008C7F842B5B
:102A300080936900E89A089580916900440F551FBA
:102A4000440F551F837F842B80936900E99A089572
:102A50001F920F920FB60F9211242F933F934F9313
:102A60005F936F937F938F939F93AF93BF93EF93F6
:102A7000FF938091340B9091350B892B29F0E091D5
:102A8000340BF091350B0995FF91EF91BF91AF9108
:102A90009F918F917F916F915F914F913F912F9176
:102AA0000F900FBE0F901F9018951F920F920FB6A8
:102AB0000F9211242F933F934F935F936F937F93C4
:102AC0008F939F93AF93BF93EF93FF938091360BB8
:102AD0009091370B892B29F0E091360BF091370B51
:102AE0000995FF91EF91BF91AF919F918F917F9148
:102AF0006F915F914F913F912F910F900FBE0F906B
:102B00001F901895CF93DF93482F50E0CA01865647
:102B10009F4FFC0134914A575F4FFA0184918823FB
:102B200069F190E0880F991FFC01E859FF4FA591CA
:102B3000B491FC01EE58FF4FC591D491662351F436
:102B40002FB7F8948C91932F909589238C9388813B
:102B500089230BC0623061F42FB7F8948C91932FC6
:102B6000909589238C938881832B88832FBF06C0FF
:102B70009FB7F8948C91832B8C939FBFDF91CF915B
:102B80000895482F50E0CA0182559F4FFC012491BF
:102B9000CA0186569F4FFC0194914A575F4FFA0134
:102BA0003491332309F440C0222351F1233071F0D2
:102BB000243028F42130A1F0223011F514C0263041
:102BC000B1F02730C1F02430D9F404C080918000E6
:102BD0008F7703C0809180008F7D8093800010C02C
:102BE00084B58F7702C084B58F7D84BD09C0809184
:102BF000B0008F7703C08091B0008F7D8093B000CC
:102C0000E32FF0E0EE0FFF1FEE58FF4FA591B491B8
:102C10002FB7F894662321F48C919095892302C0F4
:102C20008C91892B8C932FBF0895682F70E0CB0176
:102C300082559F4FFC012491CB0186569F4FFC018A
:102C400044916A577F4FFB019491992319F420E036
:102C500030E03CC0222351F1233071F0243028F4BD
:102C60002130A1F0223011F514C02630B1F0273008
:102C7000C1F02430D9F404C0809180008F7703C064
:102C8000809180008F7D8093800010C084B58F7705
:102C900002C084B58F7D84BD09C08091B0008F775C
:102CA00003C08091B0008F7D8093B000892F90E0A9
:102CB000880F991F84589F4FFC01A591B4918C9166
:102CC00020E030E0842311F021E030E0C9010895D4
:102CD000CF92DF92EF92FF920F931F93CF93DF93E8
:102CE0007C016B018A01C0E0D0E00FC0D6016D917C
:102CF0006D01D701ED91FC910190F081E02DC701AC
:102D00000995C80FD91F015010400115110571F721
:102D1000CE01DF91CF911F910F91FF90EF90DF9047
:102D2000CF900895DC01ED91FC910190F081E02DB0
:102D300009950895EF92FF920F931F938C01DC0188
:102D4000ED91FC910190F081E02D6DE009957C0101
:102D5000D801ED91FC910190F081E02DC8016AE06D
:102D600009959C012E0D3F1DC9011F910F91FF90E8
:102D7000EF900895CF93DF93EC016115710519F47D
:102D800020E030E00FC0DB010D900020E9F7119743
:102D9000A61BB70BE881F9810280F381E02DAD011C
:102DA00009959C01C901DF91CF9108954F925F92DF
:102DB0007F928F929F92AF92BF92CF92DF92EF92CB
:102DC000FF920F931F93DF93CF93CDB7DEB7A197F9
:102DD0000FB6F894DEBF0FBECDBF2C01742ECB0111
:102DE000223008F42AE019A231E2C32ED12CCC0EF5
:102DF000DD1E822E9924AA24BB24672D752FA501E0
:102E000094010E947C1C79018A01C801B701A501C7
:102E100094010E945D1C472D461B0894C108D108EF
:102E20004A3014F4405D01C0495CF6014083E1146E
:102E3000F1040105110521F07E2C5F2DC801DDCFC5
:102E4000C201B6010E94BA16A1960FB6F894DEBF71
:102E50000FBECDBFCF91DF911F910F91FF90EF90EB
:102E6000DF90CF90BF90AF909F908F907F905F90BA
:102E70004F900895DC012115310541F4ED91FC914D
:102E80000190F081E02D642F099508950E94D616D7
:102E90000895EF92FF920F931F939A017B0100E038
:102EA00010E0B801A7010E943A171F910F91FF90FF
:102EB000EF900895CF92DF92EF92FF920F931F93BE
:102EC000CF93DF93EC016A017B012115310541F4B9
:102ED000E881F9810190F081E02D642F09951FC0F0
:102EE0002A303105D1F477FF17C0E881F9810190CC
:102EF000F081E02D6DE209958C0144275527BA0138
:102F00004C195D096E097F09CE012AE00E94D61690
:102F10009801280F391F04C02AE00E94D6169C0190
:102F2000C901DF91CF911F910F91FF90EF90DF903A
:102F3000CF900895EF92FF920F931F937B019A0118
:102F40000027F7FC0095102FB801A7010E945A171F
:102F50001F910F91FF90EF900895CF92DF92EF9223
:102F6000FF920F931F936C017B019A010027F7FCDE
:102F70000095102FB801A7010E945A178C01C601B5
:102F80000E949A16080F191FC8011F910F91FF90F8
:102F9000EF90DF90CF9008950E94BA160895CF93D6
:102FA000DF930E94CA140E946713C0E0D0E00E9421
:102FB000A2112097E1F30E940000F9CF6F927F9257
:102FC0008F92AF92CF92EF92FF920F931F93DF9366
:102FD000CF93CDB7DEB73C01FC011382128288EE9D
:102FE00093E0A0E0B0E084839583A683B78386E571
:102FF00094E0918380835587448737872687118B98
:10300000008BF38AE28AC68AA48A858A70E093E0FC
:10301000660F771F9A95E1F7DB01A85CB44FB08F7C
:10302000A78B218D328DF9011382128282819381C7
:1030300091838083605C744FF301728F618F13966C
:103040001C921E92129712968D919C911397119635
:103050009C938E93CF91DF911F910F91FF90EF90F2
:10306000CF90AF908F907F906F9008950F931F93A4
:10307000DC01ED91FC910684F785E02D20E830E03D
:1030800000E410E009951F910F910895FC01838DD4
:10309000882319F42FEF3FEF0DC00788F08DE02D46
:1030A0002081318182819381281B390B8481958114
:1030B00028233923C9010895FC01838D882361F0F9
:1030C000A789B08D2D913C91119712968D919C916D
:1030D00013972817390721F44FEF5FEFCA010895BE
:1030E00012968D919C9113971696ED91FC911797DE
:1030F000E80FF91F408112968D919C9113970196CC
:1031000014962D913C9115978223932313969C93AB
:103110008E93129750E0E2CFFC01838D882351F00B
:103120000788F08DE02D20813181828193812817DD
:10313000390721F42FEF3FEFC90108958281938170
:103140000680F781E02DE80FF91F8081282F30E0FD
:10315000F3CFDC015796ED91FC91589782819381D2
:103160009183808359960D90BC91A02D808191818F
:1031700013969C938E9312970895DC015B968C9125
:103180005B97882319F4862F90E008955996ED9166
:10319000FC915A97208131812F5F3F4F8481958127
:1031A000282339238281938128173907D9F3808115
:1031B00091810680F781E02DE80FF91F6083599611
:1031C000ED91FC915A97318320835296ED91FC91B9
:1031D0005397808155969C91892B80830895CF9336
:1031E000DF93EC011B821A828A819B8199838883F9
:1031F0001D821C828E819F81009721F00E94D60142
:103200001F821E82DF91CF9108950F931F938C012F
:10321000DC015296ED91FC915397208155968C914B
:10322000559754969C915497892B8095822380833F
:1032300057968D919C9158970E94EF18F801818DB7
:10324000928D0E94EF18D8015B961C921F910F91EE
:103250000895CF93DF93EC011B821A828A819B81B0
:103260009983888341E0A1E0B0E001C04F5FFD0198
:10327000042E02C0EE0FFF1F0A94E2F79B0182E0CA
:103280006130780710F020E032E0E217F30770F3C6
:1032900081E090E002C0880F991F4A95E2F70197FC
:1032A0009D838C8301960E942C019C019F838E83B9
:1032B00080E0232B09F081E0DF91CF9108956F9298
:1032C0007F928F929F92AF92BF92CF92DF92EF92B6
:1032D000FF920F931F93CF93DF934C015A016B0121
:1032E000E901DC015B968C915B97882339F0ED91C5
:1032F000FC910088F189E02DC4010995F4018789CA
:10330000908D209711F4C0E8D0E0BE010E942919E9
:10331000882381F0D40159968D919C915A9701157B
:10332000110511F400E410E0B8010E942919882366
:1033300009F08FC0D401ED91FC910088F189E02D56
:10334000C401099594C023E0AA0CBB1CCC1CDD1C55
:103350002A95D1F760E074E284EF90E0A601950130
:103360000E949E1CE90121974AC060E472E48FE04C
:1033700090E0A60195010E949E1C79018A01E90155
:103380002197350160E874E88EE190E0A60195018F
:103390000E949E1C69010894C108D1080027F7FC0F
:1033A0000095102F60E472E48FE090E0A80197018F
:1033B0000E949E1C8301021B130B17FF03C0109574
:1033C00001951F4F0894C11CD11C9601442737FD5D
:1033D0004095542F0894C108D10860E874E88EE144
:1033E00090E00E949E1CC301821B930B97FF03C0B9
:1033F000909581959F4F801791071CF4E60181E01D
:1034000001C080E0D4015096ED91FC915197882342
:1034100051F081E090E0D40156960C9002C0880FE4
:10342000991F0A94E2F78083D4011C96ED91FC91D8
:103430001D97D0831E96ED91FC911F97C0835296E5
:10344000ED91FC915397808154969C91892B8083B8
:103450000EC081E0F401838FF1E4AF16F2E4BF0601
:10346000FFE0CF06F0E0DF060CF06DCF7ECFDF91FE
:10347000CF911F910F91FF90EF90DF90CF90BF9071
:10348000AF909F908F907F906F9008955058BB277A
:10349000AA270ED071C162D130F067D120F031F48B
:1034A0009F3F11F41EF457C10EF4E095E7FB4DC1A8
:1034B000E92F73D180F3BA17620773078407950762
:1034C00018F071F49EF58BC10EF4E0950B2EBA2F17
:1034D000A02D0B01B90190010C01CA01A00111241A
:1034E000FF27591B99F0593F50F4503E68F11A16C6
:1034F000F040A22F232F342F4427585FF3CF469557
:1035000037952795A795F0405395C9F77EF41F1678
:10351000BA0B620B730B840BBAF09150A1F0FF0F42
:10352000BB1F661F771F881FC2F70EC0BA0F621F2E
:10353000731F841F48F4879577956795B795F7951E
:103540009E3F08F0B3CF9395880F08F09927EE0FB0
:103550009795879508950CD00FC107D140F0FED004
:1035600030F021F45F3F19F0F0C0511139C1F3C0C0
:1035700014D198F39923C9F35523B1F3951B550B37
:10358000BB27AA2762177307840738F09F5F5F4F36
:10359000220F331F441FAA1FA9F333D00E2E3AF077
:1035A000E0E830D091505040E695001CCAF729D091
:1035B000FE2F27D0660F771F881FBB1F26173707E0
:1035C0004807AB07B0E809F0BB0B802DBF01FF2710
:1035D00093585F4F2AF09E3F510568F0B6C000C176
:1035E0005F3FECF3983EDCF3869577956795B7954A
:1035F000F7959F5FC9F7880F911D9695879597F965
:103600000895E1E0660F771F881FBB1F62177307DD
:103610008407BA0720F0621B730B840BBA0BEE1FF2
:1036200088F7E095089504D06894B111D9C0089541
:10363000BCD088F09F5790F0B92F9927B751A0F0D0
:10364000D1F0660F771F881F991F1AF0BA95C9F736
:1036500012C0B13081F0C3D0B1E00895C0C0672F6F
:10366000782F8827B85F39F0B93FCCF386957795E6
:103670006795B395D9F73EF49095809570956195CF
:103680007F4F8F4F9F4F0895E89409C097FB3EF4FA
:1036900090958095709561957F4F8F4F9F4F99239F
:1036A000A9F0F92F96E9BB279395F695879577951D
:1036B0006795B795F111F8CFFAF4BB0F11F460FFDD
:1036C0001BC06F5F7F4F8F4F9F4F16C0882311F035
:1036D00096E911C0772321F09EE8872F762F05C049
:1036E000662371F096E8862F70E060E02AF09A95E4
:1036F000660F771F881FDAF7880F9695879597F9D9
:103700000895990F0008550FAA0BE0E8FEEF161672
:103710001706E807F907C0F012161306E407F507C5
:1037200098F0621B730B840B950B39F40A2661F039
:10373000232B242B252B21F408950A2609F4A140DC
:10374000A6958FEF811D811D089597F99F6780E8E9
:1037500070E060E008959FEF80EC089500240A94E3
:103760001616170618060906089500240A9412165C
:103770001306140605060895092E0394000C11F48F
:10378000882352F0BB0F40F4BF2B11F460FF04C03C
:103790006F5F7F4F8F4F9F4F089557FD9058440F95
:1037A000551F59F05F3F71F04795880F97FB991FA0
:1037B00061F09F3F79F0879508951216130614065D
:1037C000551FF2CF4695F1DF08C0161617061806EA
:1037D000991FF1CF86957105610508940895E894C5
:1037E000BB2766277727CB0197F908958ADF08F46E
:1037F0008FEF08950BD0C0CFB1DF28F0B6DF18F0FF
:10380000952309F0A2CFA7CF1124EACFC6DFA0F3FA
:10381000959FD1F3950F50E0551F629FF001729F65
:10382000BB27F00DB11D639FAA27F00DB11DAA1F84
:10383000649F6627B00DA11D661F829F2227B00DD1
:10384000A11D621F739FB00DA11D621F839FA00D5C
:10385000611D221F749F3327A00D611D231F849FAC
:10386000600D211D822F762F6A2F11249F57504003
:103870008AF0E1F088234AF0EE0FFF1FBB1F661F9E
:10388000771F881F91505040A9F79E3F510570F057
:103890005CCFA6CF5F3FECF3983EDCF3869577953F
:1038A0006795B795F795E7959F5FC1F7FE2B880F52
:1038B000911D9695879597F90895629FD001739F02
:1038C000F001829FE00DF11D649FE00DF11D929FBC
:1038D000F00D839FF00D749FF00D659FF00D9927FB
:1038E000729FB00DE11DF91F639FB00DE11DF91F1F
:1038F000BD01CF0111240895A1E21A2EAA1BBB1B02
:10390000FD010DC0AA1FBB1FEE1FFF1FA217B307AB
:10391000E407F50720F0A21BB30BE40BF50B661FC1
:10392000771F881F991F1A9469F760957095809585
:1039300090959B01AC01BD01CF01089597FB092E25
:1039400005260ED057FD04D0D7DF0AD0001C38F46E
:1039500050954095309521953F4F4F4F5F4F0895BB
:10396000F6F790958095709561957F4F8F4F9F4F9B
:1039700008952F923F924F925F926F927F928F9213
:103980009F92AF92BF92CF92DF92EF92FF920F93EE
:103990001F93CF93DF93CDB7DEB7CA1BDB0B0FB6F8
:1039A000F894DEBF0FBECDBF09942A8839884888B5
:1039B0005F846E847D848C849B84AA84B984C8844B
:1039C000DF80EE80FD800C811B81AA81B981CE0F42
:1039D000D11D0FB6F894DEBF0FBECDBFED01089527
:1039E000EE0FFF1F0590F491E02D0994F894FFCF9E
:1039F000474E475341006F6B6F656565004E6F0022
:103A00005965730054582074696D656F7574210091
:103A1000486F70206368616E6E656C2000204020E6
:103A20000053004E2F4100386368002C002C205BAF
:103A3000005D20280029004E4F5420454E41424C45
:103A400045440053656E64696E67207365747469DC
:103A50006E677320746F2052580A00526573657444
:103A600074696E672073657474696E6773206F6E16
:103A70002052580A0041626F72746564206564695F
:103A800074730A00696E76616C69642073656C6595
:103A90006374696F6E000D0A496E76616C6964200B
:103AA000696E707574202D2064697363617264653A
:103AB000642107007363616E6E6572206D6F6465CB
:103AC0000053657474696E67732073617665642052
:103AD000746F20454550524F4D0A0052657665720D
:103AE0007465642073657474696E67732066726FA1
:103AF0006D20454550524F4D0A004C6F616465641E
:103B000020666163746F72792064656661756C7498
:103B1000730A004B657920616E64206368616E6E84
:103B2000656C732072616E646F6D697A65640A00FA
:103B30004F70656E4C52536E6720545820737461F9
:103B40007274696E672000206F6E20485720005005
:103B5000504D0052535349005344410053434C00CD
:103B6000525844005458440041494E004C42454587
:103B7000500053504B54524D00534255530053552F
:103B80004D44004C4C494E440000342B3400380066
:103B9000382B340031320031322B340031360020E2
:103BA000004C0B000001000000C01200001A400A87
:103BB000A1204EA5001B1E27522C2330802500007B
:103BC00005400AA1204EA50020244EA52C2330003C
:103BD0004B000006400AD0009D49007B289D492CDF
:103BE000233000E1000005400A4501D7DC03B81E80
:103BF0000EBF00232E48E801008A400A6001555597
:103C000002AD1E20000023C88025000005400AA147
:103C1000204EA50020244EA52C23300002000200D7
:103C20000200020002000200020002000200020084
:103C30000200020002000200020002FF160A132224
:103C40003129327C8900EDD96877000000590000E5
:103C5000000000000000D69FDCA81817AA9043734C
:103C600027F6B968EDF4DED409FEE61C1C84DDE815
:103C70000B992927D6DF8D210F036418EFEE1EF074
:103C8000B7828200941500347C0000001400988FE5
:103C90000000000000000000000000E7B73F360011
:103CA000000000000000AF669ED038000000000059
:103CB0000000000000000000000000000000000004
:103CC00000000000000000000000000000000000F4
:103CD000000000000000000086DBD0BC5416131565
:103CE00086004E44BD7F6F15159001000000000056
:103CF00000000000000000000000000000000000C4
:103D000000000000000000000000000000000000B3
:103D100000000000000000000000000000000000A3
:103D20000000000000000000000000000000000093
:103D30000000000000000000000000CC31AA2C535D
:103D40002E0000000000BD18681646185C188C187C
:083D5000A91836185F190519C6
:00000001FF
