:100000000C94DF000C9459180C9486180C9407017A
:100010000C9407010C9407010C9407010C94070140
:100020000C9407010C9407010C940C080C94070124
:100030000C9407010C9407010C9407010C94070120
:100040000C941C170C9407010C94D6040C94120504
:100050000C9407010C9407010C9407010C94070100
:100060000C9407010C94070100407A10F35A00A089
:10007000724E18090010A5D4E80000E87648170071
:1000800000E40B54020000CA9A3B000000E1F505B1
:10009000000080969800000040420F000000A086FB
:1000A00001000000102700000000E803000000002D
:1000B0006400000000000A000000000001000000D1
:1000C00000002C76D888DC674F0823DFC1DFAE59EB
:1000D000E1B1B796E5E3E453C63AE651997696E87E
:1000E000E6C28426EB898C9B62ED407C6FFCEFBC02
:1000F0009C9F40F2BAA56FA5F490055A2AF75C932D
:100100006B6CF9676DC11BFCE0E40D47FEF520E662
:10011000B500D0ED902E0300943577050080841E45
:10012000080000204E0A000000C80C333333330FA0
:10013000986E12831141EF8D2114893BE65516CF3D
:10014000FEE6DB18D1844B381BF77C1D901DA4BB49
:10015000E424203284725E228100C9F124ECA1E5FE
:100160003D2700000000240027002A0000000000B6
:10017000250028002B000000000023002600290095
:10018000040404040404040402020202020203033D
:100190000303030301020408102040800102040845
:1001A00010200102040810200000000700020100D6
:1001B000000304060000000000000000AB0811244A
:1001C0001FBECFEFD8E0DEBFCDBF14E0A0E0B1E0AE
:1001D000ECE0FAE302C005900D92A039B107D9F71F
:1001E00019E0A0E9B4E001C01D92A53DB107E1F717
:1001F00011E0CEEBD1E004C02297FE010E94C91CA1
:10020000CC3BD107C9F70E94B3180C94041D0C9481
:100210000000283008F027E03327DA01990F311D5C
:1002200087FD916000966105710539F432602E5F9B
:100230003D9330E32A95E1F708959F3F30F08038F1
:100240007105610509F03C5F3C5F3D93913008F01A
:100250008068911DDF93CF931F930F93FF92EF92CE
:10026000192F987F9695E92F96959695E90FFF2778
:10027000EE53FF4F99273327EE24FF24A701E70110
:1002800005900894079428F4360FE71EF81E491FBE
:10029000511D660F771F881F991F0694A1F70590BF
:1002A000079428F4E70EF81E491F561FC11D770F4B
:1002B000881F991F661F0694A1F70590079428F4DC
:1002C000F80E491F561FC71FD11D880F991F661FA3
:1002D000771F0694A1F70590079420F4490F561F45
:1002E000C71FD81F990F661F771F881F0694A9F78D
:1002F00084911095177041F0D695C79557954795FD
:10030000F794E7941A95C1F7E8E6F0E06894159041
:10031000159135916591959105907FE27395E1185E
:10032000F10A430B560BC90BD009C0F7E10CF11EC3
:10033000431F561FC91FD01D7EF4703311F48A95D8
:10034000E6CFE894015030F0080F0AF400270217B6
:1003500008F4202F2395022F7A3328F079E37D9338
:100360002A95E9F710C07D932A9589F6069497950A
:100370006795379517951794E118F10A430B560BBB
:10038000C90BD00998F023957E9173957A3308F0C4
:1003900070E37C932013B8F77E9170617D9330F009
:1003A000839571E37D9370E32A95E1F71124EF9033
:1003B000FF900F911F91CF91DF91992787FD909525
:1003C0000895EF92FF920F931F93F22FF02E47FDA7
:1003D00002C0E4E001C0E4E1242F332727FD30957B
:1003E00037FF03C0309521953F4F4F2D512F0F2FD1
:1003F000EE2E0E9465038F2D912F1F910F91FF907C
:10040000EF900895CF93DF93BC018230910510F4F3
:1004100062E070E0A091D309B091D409ED0140E011
:1004200050E0E0E0F0E021C08881998186179707CD
:1004300069F48A819B81309719F09383828304C089
:100440009093D4098093D309FE0134C068177907CB
:1004500038F44115510519F08417950708F4AC01DB
:10046000FE018A819B819C01E9012097E9F64115F3
:100470005105A9F1CA01861B970B049708F4BA012C
:10048000E0E0F0E02AC08D919C91119784179507C8
:10049000F9F46417750781F412968D919C91139766
:1004A000309719F09383828304C09093D40980938A
:1004B000D309FD0132964CC0CA01861B970BFD0182
:1004C000E80FF91F6193719302978D939C9340C03D
:1004D000FD01828193819C01D9011097A1F6809141
:1004E000D1099091D209892B41F48091D602909143
:1004F000D7029093D2098093D1094091D8025091AC
:10050000D9024115510541F44DB75EB78091D4022F
:100510009091D502481B590B2091D1093091D209F5
:10052000CA01821B930B8617970780F0AB014E5FC1
:100530005F4F8417950750F0420F531F5093D20915
:100540004093D109F9016193719302C0E0E0F0E0BA
:10055000CF01DF91CF910895CF93DF93009709F4F6
:1005600050C0EC0122971B821A82A091D309B0914E
:10057000D409109709F140E050E0AC17BD0708F12D
:10058000BB83AA83FE0121913191E20FF31FAE17C5
:10059000BF0779F48D919C911197280F391F2E5F19
:1005A0003F4F3983288312968D919C9113979B839B
:1005B0008A834115510571F4D093D409C093D309AE
:1005C00020C012968D919C911397AD01009711F068
:1005D000DC01D3CFFA01D383C28321913191E20FA1
:1005E000F31FCE17DF0769F488819981280F391F1F
:1005F0002E5F3F4FFA01318320838A819B81938351
:100600008283DF91CF910895A0E0B0E0EAE0F3E0CB
:100610000C94D51CEC01A880B980CA80DB80A114A1
:10062000B104C104D10441F484E2A82E89EDB82EAE
:100630008BE5C82E87E0D82EC601B5012DE133EF3A
:1006400041E050E00E94AC1C27EA31E440E050E079
:100650000E94441C7B018C01C601B5012DE133EFE2
:1006600041E050E00E94AC1CCA01B9012CEE34EF0D
:100670004FEF5FEF0E94441C6E0D7F1D801F911F86
:1006800097FF04C061507040804090486883798330
:100690008A839B839B01AC015F77B901CA01CDB707
:1006A000DEB7EAE00C94F11C0E94040308958AED81
:1006B00092E00E94040308956093DA027093DB02D3
:1006C0008093DC029093DD020895A9E0B0E0EBE6B0
:1006D000F3E00C94D11C6A01122FA02EBE2C2BE348
:1006E000201718F42CE3922E02C0902E9394AE01A2
:1006F0004F5F5F4F27E0092D0E940901BC018981EE
:10070000E82EFF24C70189709070019711F4ADE2C3
:1007100009C0B1FE02C0ABE205C0B0FC02C0A0E05F
:1007200001C0A0E2E3FE3BC0AA2311F423E001C014
:1007300024E0211710F020E002C0121B212FEB2C27
:10074000B4FE02C0322F0AC0F601322F80E202C08E
:10075000819331503323E1F7C20ED11CAA2319F043
:10076000F601A1936F01F6013196E2FE05C09EE409
:10077000D6019C9381E404C09EE6D6019C9381E659
:1007800011968C9391833296DF01832F90E202C001
:100790009D9381508823E1F7E30FF11D40C0E2FEF5
:1007A00042C0AA2311F423E001C024E0211710F075
:1007B00020E002C0121B212FEB2CB4FE02C0922FAE
:1007C0000AC0F601922F80E202C0819391509923D2
:1007D000E1F7C20ED11CAA2319F0F601A1936F0113
:1007E000F6013196E2FE08C089E4D6018C938EE4CE
:1007F00011968C9386E407C089E6D6018C938EE629
:1008000011968C9386E681833296DF01892F20E250
:1008100002C02D9381508823E1F7E90FF11D10826A
:100820002EEF3FEFAFC0161617061CF041E050E068
:1008300003C0AB014F5F5F4FAA2019F480E090E046
:1008400003C08A2D90E0019620E030E0AA2311F049
:1008500021E030E0240F351F280F391F812F90E051
:100860002817390714F020E002C0121B212F4B2D4E
:1008700050E0CA0180719070B4FC0DC0B3FC0BC095
:10088000F601322F40E202C0419331503323E1F7A9
:10089000C20ED11C01C0322FAA2319F0F601A19378
:1008A0006F01892B11F0132F0AC0F601132F80E37B
:1008B00002C0819311501123E1F7C30ED11C092D01
:1008C000060FBA8090E1892E912C8E209F20E4FEA5
:1008D00004C0F1E3BF1609F40150101614F001E052
:1008E00003C0093008F008E09B0177FF02C020E058
:1008F00030E0CB010196821B930BFE013196E80F8D
:10090000F91F8EE2F82E3B01601A71088A2D90E0E3
:1009100044275527481B590B8FEF2F3F380719F4F1
:10092000D601FD926D01621773072CF062167306F3
:1009300014F4808101C080E32150304031962417A7
:10094000350724F0D6018D936D01E6CF26173707C2
:1009500049F4B5E3BB1528F0BB1621F481149104CA
:1009600009F481E3F6018193D601812F90E202C060
:100970009C93815011968823D9F7E10FF11D1082C5
:1009800020E030E0C9012996EEE00C94ED1C809146
:100990009004813019F482E0809390048091900457
:1009A000833019F484E08093900408951F920F928D
:1009B0000FB60F9211242F933F934F938F939F93D2
:1009C000EF93FF934091C6002091B3093091B40991
:1009D0002F5F3F4F8091B7099091B80928233923A1
:1009E0008091B5099091B6092817390779F080915F
:1009F000B3099091B409E091B909F091BA09E80FEF
:100A0000F91F40833093B4092093B309FF91EF910C
:100A10009F918F914F913F912F910F900FBE0F900B
:100A20001F9018951F920F920FB60F9211242F93BB
:100A30003F938F939F93EF93FF932091BD09309144
:100A4000BE098091BB099091BC0928173907E9F0CC
:100A50008091BD099091BE09E091C109F091C20950
:100A6000E80FF91F80818093C6008091BD099091A5
:100A7000BE0901962091BF093091C00982239323BA
:100A80009093BE098093BD0910C02091BB0930919D
:100A9000BC098091BD099091BE092817390729F436
:100AA0008091C1008F7D8093C100FF91EF919F9154
:100AB0008F913F912F910F900FBE0F901F9018951F
:100AC00087E38093C80480E092ECA1E0B0E08093DB
:100AD000C9049093CA04A093CB04B093CC0489E0DA
:100AE0008093F10487E08093D50480EC92E9ADEE29
:100AF000B9E18093CD049093CE04A093CF04B0933A
:100B0000D00485E08093D6048DEE9EEFADEABEED75
:100B10008093D1049093D204A093D304B093D404CF
:100B2000A7EDB4E080E090E0863010F0E0E004C093
:100B3000FC01EF58FC4FE081ED930196883191055F
:100B400099F782E08093EF048AE08093F00408959F
:100B500023E08032920718F420E030E026C023E042
:100B6000883E920748F49C012F513340F4E03695BB
:100B70002795FA95E1F719C027E0803D920720F408
:100B80009C012C5D334011C028E08839920718F091
:100B90002FEF33E00AC09C01285C3740E4E0369533
:100BA0002795EA95E1F72D503C4FC9010895882318
:100BB00039F042980000419A0000429A00000895DE
:100BC0004298000041980000429A000008950F9357
:100BD0001F93082F5C9A42985C9810E0802F8078D1
:100BE0000E94D705000F1F5F1830C1F742981F9170
:100BF0000F9108958F770E94E70508950F931F9333
:100C0000082F10E0802F80780E94D705000F1F5F0B
:100C10001830C1F742981F910F910895429890E0C3
:100C200020E0990F429A000086B14298000081703E
:100C3000980F2F5F2830A9F7892F08950E94FA0591
:100C40000E940E065C9A08951F93162F80680E94DA
:100C5000E705812F0E94FE055C9A1F9108951F935E
:100C60001091D1041827E8ECF4E0E80FF11D89E7B2
:100C700067850E9424068DE3612F0E94240682E48A
:100C8000612F0E9424061F9108950F931F938C01DA
:100C90008CE1F80164810E9424068DE1F8016581F0
:100CA0000E9424068EE1F80166810E94240680E2FB
:100CB000F80167810E94240681E2F80160850E94A4
:100CC000240682E2F80161850E94240683E2F8018D
:100CD00062850E94240684E2F80163850E9424064E
:100CE00085E2F80164850E9424068AE2F8016585A0
:100CF0000E9424068EE6F80166850E9424068FE68F
:100D0000F80167850E94240680E7F80160890E9447
:100D1000240681E7F80161890E94240682E7F80130
:100D200062890E9424061F910F910895EF92FF920D
:100D30000F931F93CF93DF937B018C01603028E3E7
:100D400072072CE982072CE1920728F520E836E9A2
:100D500048E950E00E948A1CE9016897B90180E0E7
:100D600090E020E839E647E65FEF0E94441C6E0DF4
:100D70007F1D801F911FA2E0660F771F881F991F9C
:100D8000AA95D1F721E732E040E050E00E948A1CAA
:100D9000890180E421C020E03DE241E351E00E946E
:100DA0008A1CE9016897B90180E090E020E033ED0A
:100DB0004EEC5EEF0E94441C6E0D7F1D801F911F44
:100DC000660F771F881F991F21E732E040E050E04F
:100DD0000E948A1C890180E69E012F71622F680F94
:100DE00085E70E94240686E7612F0E94240687E794
:100DF000602F0E942406DF91CF911F910F91FF90E9
:100E0000EF9008959F92AF92BF92CF92DF920F938F
:100E1000DF93CF9300D000D0CDB7DEB7982E83E01C
:100E20000E941E068093F20484E00E941E068093B6
:100E3000F30486E060E00E94240687E061E00E94FF
:100E4000240689E06FE70E9424068AE065E00E949C
:100E500024068BE062E10E9424068CE065E10E949A
:100E600024068DE06DEF0E9424068EE060E00E9473
:100E70002406992019F08DE393E008C08091EF04D7
:100E800023E1829FC001112482529D4F0E9445069A
:100E900080E36CE80E94240682E36FE00E9424064F
:100EA00083E362E40E94240684E36AE00E9424064D
:100EB00085E36AE20E94240686E36DE20E9424062E
:100EC00087E364ED0E94240688E360E00E94240624
:100ED00089E360E00E942406992049F095E8A92E54
:100EE00091ECB92E91ECC92E9EEDD92E08C0A090A0
:100EF000D104B090D204C090D304D090D4040AE3BB
:100F00008D2D9927AA27BB2789839A83AB83BC831E
:100F1000802F69810E942406802F8B5F69810E9447
:100F20002406DC2CCB2CBA2CAA240F5F0E3341F7FD
:100F300083E46FEF0E94240684E46FEF0E9424068E
:100F400085E46FEF0E94240686E46FEF0E9424067A
:100F5000992019F08DE666E003C08DE66091D50416
:100F60000E94240689E760E00E9424068AE76091D7
:100F7000D6040E94240683E760E00E94240684E7EA
:100F800060E00E942406992029F060EC72E98DEE61
:100F900099E108C06091CD047091CE048091CF0496
:100FA0009091D0040E9496060F900F900F900F9092
:100FB000CF91DF910F91DF90CF90BF90AF909F9036
:100FC000089587E061E00E9424068EE764E20E94B3
:100FD000240688E063E00E94240688E060E00E9426
:100FE000240687E065E00E94240685E062E00E9416
:100FF000240683E00E941E068093F20484E00E948F
:101000001E068093F304089587E061E00E942406A1
:1010100085B18B7D85B908951F920F920FB60F92FF
:1010200011241F932F933F934F935F936F937F935D
:101030008F939F93AF93BF93CF93DF93EF93FF93E0
:10104000C0918600D0918700209121053091220522
:1010500080910005882309F062C0BE01621B730BFA
:101060002091B4043091B5044091B6045091B70476
:1010700025FD02C07695679589E0653C7807B8F153
:1010800080917003BCE15695479537952795BA95A1
:10109000D1F7211531054105510521F421E030E05A
:1010A00040E050E090E0A0E0B0E0281739074A07A0
:1010B0005B07D0F4809170038F3FB1F020E00EC049
:1010C000E22FF0E0EE0FFF1FDF01AF5FBA4F8D910F
:1010D0009C91E05BFC4F918380832F5F8091700334
:1010E000281770F31092FF041092700318C082E06A
:1010F0006D3B780760F180917003803140F510916D
:101100007003CB010E94A805E12FF0E0EE0FFF1F56
:10111000EF5FFA4F918380831F5F10937003D0932A
:101120002205C0932105FF91EF91DF91CF91BF91EF
:10113000AF919F918F917F916F915F914F913F916F
:101140002F911F910F900FBE0F901F9018958FEF4A
:1011500080937003E4CF8F92AF92CF92EF92FF9281
:101160000F931F9381E994E060E045EC50E024EC9C
:1011700030E000EC10E0F1ECEF2EF12CCC24C39425
:10118000E8E9AE2E70E2872E0E941A141F910F918B
:10119000FF90EF90CF90AF908F9008958EE060E039
:1011A0000E9489168FE061E00E94891680E161E06B
:1011B0000E94891682E060E00E94891684E061E066
:1011C0000E9489160895CF93DF93EC01009741F1B7
:1011D00086E061E00E94C8169E0140E050E068E4AD
:1011E00078EE81E090E00E94AC1CC901DA018F3FEB
:1011F0009105A105B10531F028F08FEF90E0A0E056
:10120000B0E008C00097A105B10521F481E090E0AD
:10121000A0E0B0E08093B3008091B000806107C08F
:1012200086E060E00E94C8168091B0008F7E8093B7
:10123000B000DF91CF91089586E061E00E948916A9
:1012400086E060E00E94C81682E08093B00085E0EE
:101250008093B10083E061E00E94891683E060E042
:101260000E94C816089585B1846285B9439A299A67
:1012700083E00E941E068093F20484E00E941E0612
:101280008093F30486E060E00E94240687E061E03A
:101290000E94240689E06FE70E9424068AE065E048
:1012A0000E9424068BE062E10E9424068CE065E146
:1012B0000E9424068DE06DEF0E9424068EE060E01F
:1012C0000E94240680E76CE20E94240680E360E02E
:1012D0000E94240689E760E00E9424068AE765E010
:1012E0000E94240681E762E10E94240682E762E010
:1012F0000E94240683E760E00E94240684E760E001
:101300000E9424066EE078E786E99AE10E9496063C
:101310008DE667E00E9424066AE070E080E090E0DD
:101320000E94981787E069E00E9424066AE070E056
:1013300080E090E00E94981708950F931F93082F64
:1013400019C0439A299A64E670E080E090E00E9418
:1013500098174398299864E670E080E090E00E9436
:1013600098171F5F101768F36CE271E080E090E05F
:101370000E94981710E0F6CF482F392F25E00DC0B6
:10138000F999FECF1FBA842F932F92BD81BD60BD06
:101390000FB6F894FA9AF99A0FBE215059F0F999BC
:1013A000FECF842F932F92BD81BDF89A80B5681728
:1013B00039F7089582E00E949D0908952F923F9287
:1013C0004F925F926F927F928F929F92AF92BF9255
:1013D000CF92DF92EF92FF920F931F93CF93DF9301
:1013E000282E362EEE24FF2488249924C0E0D0E055
:1013F00002C033243394CC24DD24222071F4809164
:10140000AE0427E4829FE00111242FEAE22E24E0BB
:10141000F22E99E1892E912C1EC031E0231679F429
:101420008091AE0497E4899FE00111246B9688ECCB
:10143000E82E84E0F82E0AE2802E912C0CC0E2E027
:101440002E1649F41EEAE12E14E0F12EB1E08B2EA7
:10145000912CCCE1D1E02E014C0C5D1C1092360594
:1014600010923505E20133C0332059F4F999FECFCB
:10147000D2BDC1BDF89A80B5F701E00FF11F80839E
:1014800007C0F701E00FF11FCE0160810E94BC0987
:101490000E0D1F1DF8017080662480913505909116
:1014A00036058625972540E09C01220F331F97FFC4
:1014B00005C081E290E18227932701C0C9014F5FF7
:1014C000483091F7909336058093350521969E011B
:1014D0002419022F10E00815190508F4C5CFCE0114
:1014E0003320D9F4F999FECFD2BDC1BDF89A20B509
:1014F000F999FECF2196D2BDC1BD2197F89A80B54A
:1015000090E0B22EAA248A299B292091350530919A
:1015100036052817390759F46CCF219660913605A6
:101520000E94BC09CE01609135050E94BC0980E291
:1015300091E0C80ED91E91EEC91692E0D90608F4C2
:101540005CCF832DDF91CF911F910F91FF90EF9092
:10155000DF90CF90BF90AF909F908F907F906F90D3
:101560005F904F903F902F90089580E061E00E943F
:10157000DE0981E061E00E94DE09089582E061E019
:101580000E94DE09089582E060E00E94DE098091F9
:10159000AE04843020F01092AE040E94BE0A08957A
:1015A0008F929F92AF92BF92CF92DF92FF920F9352
:1015B0001F93CF93DF93F62E4901082F10E06801A7
:1015C000CC0CDD1C5601A00EB11EE501CC0FDD1FB9
:1015D000CC0FDD1FCD57D64F18828B819C81843074
:1015E000910509F478C0853091055CF4823091054D
:1015F00009F443C0833091050CF0ABC09923C4F4C7
:101600003CC28730910509F42FC18830910544F41C
:101610008530910509F4CAC0069709F02EC2F3C0BF
:101620008830910509F466C1099709F026C2D3C133
:101630008EEF681709F021C282E090E09C838B83D3
:1016400080E191E0089FD001099FB00D189FB00D77
:101650001124AD5BBA4F13961C92139788E890E063
:10166000089FF001099FF00D189FF00D1124EE0F57
:10167000FF1FEB5BFA4F608390C180E191E0089F10
:10168000F001099FF00D189FF00D1124ED5BFA4F4A
:1016900063831D8280818627282F2295207F28271B
:1016A00030E0522F4427C90163E0880F991F6A95E3
:1016B000E1F748275927818190E048275927B4E06E
:1016C00035952795BA95E1F74227532751834083F3
:1016D00084E090E03BC084E490E0089FF001099F23
:1016E000F00D189FF00D1124EE0FFF1FEE0FFF1FDE
:1016F000E95BFA4F608380E191E0089FF001099F68
:10170000F00D189FF00D1124ED5BFA4F80818627B4
:10171000282F2295207F282730E0522F4427C90107
:1017200063E0880F991F6A95E1F74827592781815F
:1017300090E04827592794E0359527959A95E1F749
:10174000422753275183408383E090E09C838B831F
:1017500094C180E191E0089FF001099FF00D189F6E
:10176000F00D1124ED5BFA4F658380818627282FC9
:101770002295207F282730E0522F4427C901B3E06B
:10178000880F991FBA95E1F748275927818190E082
:1017900048275927A4E035952795AA95E1F74227D0
:1017A00053275183408385E090E0D0CF80E191E0E2
:1017B000089FF001099FF00D189FF00D1124ED5BBB
:1017C000FA4F668380818627282F2295207F28273D
:1017D00030E0522F4427C90163E0880F991F6A95B2
:1017E000E1F748275927818190E048275927B4E03D
:1017F00035952795BA95E1F74227532751834083C2
:1018000086E090E0A3CF80E191E0089FF001099F7E
:10181000F00D189FF00D1124ED5BFA4F6783808166
:101820008627282F2295207F282730E0522F442713
:10183000C90173E0880F991F7A95E1F74827592766
:10184000818190E04827592764E0359527956A956E
:10185000E1F742275327518340838381882309F48A
:1018600046C087E090E072CF6D81F80125E0EE0F71
:10187000FF1F2A95E1F7EC0DFD1D319693E0EE0F69
:10188000FF1F9A95E1F7E60FF11DED5BFA4FF0822D
:101890006F5F6D8380E191E0089FF001099FF00D7B
:1018A000189FF00D1124ED5BFA4F80818F25282FB2
:1018B0002295207F282730E0522F4427C901B3E02A
:1018C000880F991FBA95E1F748275927818190E041
:1018D00048275927A4E035952795AA95E1F742278F
:1018E0005327518340838381681709F0C6C088E07D
:1018F00090E02CCF80E191E0089FD001099FB00DCE
:10190000189FB00D1124AD5BBA4F9C911796EC91C6
:101910001797F0E0E958FC4F80818927482F4295BE
:10192000407F482750E0342F2227CA0173E0880FF8
:10193000991F7A95E1F72827392711968C911197ED
:1019400090E02827392764E0559547956A95E1F797
:101950002427352711963C932E938F2D90E03070DD
:1019600082179307F9F0F501EE0FFF1FEE0FFF1F2F
:10197000EB57F64F80818F5F8083188281E090E083
:101980009C838B83EEEFFE1609F077C082E090E037
:101990009C838B8313961C9213978FEF9FEF8D93ED
:1019A0009C936BC089E090E09C838B83F80195E069
:1019B000EE0FFF1F9A95E1F7EC0DFD1D319683E0C8
:1019C000EE0FFF1F8A95E1F78D81E80FF11DED5BAA
:1019D000FA4FF08252C0262F30E080E191E0089F5C
:1019E000B001099F700D189F700D11246D5B7A4F27
:1019F000FB01818190E028173907E9F0F501EE0F2E
:101A0000FF1FEE0FFF1FEB57F64F80818F5F808324
:101A1000188281E090E09C838B83FEEFFF1669F5CE
:101A200082E090E09C838B83EB011B828FEF9FEF22
:101A30009983888322C081E0888381E090E09C8341
:101A40008B83F801A5E0EE0FFF1FAA95E1F7EC0DDF
:101A5000FD1D319633E0EE0FFF1F3A95E1F78D81C2
:101A6000E80FF11DEC5BFA4FF082DA01FB0180E137
:101A700091E001900D920197E1F7D801AA0FBB1FE9
:101A8000A00FB11FAA0FBB1FAA0FBB1FAD57B64FA8
:101A90008C91813069F584E490E0089FF001099F02
:101AA000F00D189FF00D1124EE0FFF1FEE0FFF1F1A
:101AB000E95BFA4F808116968C93169718968D9154
:101AC0009C911997892B21F41B961C921E921A97B0
:101AD000F801EE0FFF1FE00FF11FEE0FFF1FEE0FDB
:101AE000FF1FED57F64F808591850196918780877E
:101AF000F801EE0FFF1FE00FF11FEE0FFF1FEE0FBB
:101B0000FF1FDF01AD57B64F16968C9116978F5F6A
:101B1000E4018E8318968D919C91199799878887F7
:101B2000EB57F64F80818A871B8610828C91DF915C
:101B3000CF911F910F91FF90DF90CF90BF90AF900A
:101B40009F908F900895BF92CF92DF92EF92FF9275
:101B50000F931F93DF93CF93CDB7DEB7CC51D14016
:101B60000FB6F894DEBF0FBECDBF0E9464170E946F
:101B70002B1B7B018C016091380570913905809198
:101B80003A0590913B0520E030E04AE754E40E949A
:101B90002A1A9B01AC01C801B7010E94DD1B18166F
:101BA0000CF08BC010922A0588C081E994E00E9455
:101BB0009C14682F80E0A80196010E94D00A882317
:101BC00009F489C00E9464170E942B1B609338059A
:101BD0007093390580933A0590933B05B0922A059E
:101BE0008C89883149F08E3109F444C0882309F08A
:101BF00072C0B0923C056FC0F8016089718982891A
:101C000093890E942D1B20E836E948E15BE40E949D
:101C1000921A60933005709331058093320590934A
:101C20003305F80164897589868997890E942D1B7F
:101C300020E836E948E15BE40E94921A60932C05A3
:101C400070932D0580932E0590932F05F701848DB9
:101C500080932B05858D80933405828D938D909391
:101C60003E0580933D058489958990934005809336
:101C70003F0531C0F801608971898289938921EE1D
:101C80003EE245E652E40E94E11B0E94FA1A70937C
:101C9000420560934105F8016485758586859785C1
:101CA00021EE3EE245E652E40E94E11B0E94FA1A50
:101CB00070932805609327050EC08E01035F1F4FA8
:101CC0006E010894C11CD11CBB24B39465E1E62EBF
:101CD000F12CEC0EFD1E81E994E00E946C141816A4
:101CE00019060CF462CFC45EDE4F0FB6F894DEBF67
:101CF0000FBECDBFCF91DF911F910F91FF90EF905D
:101D0000DF90CF90BF900895EF92FF920F931F93B3
:101D10007C0101E914E0C8016F2D70E04AE050E059
:101D20000E94A319C8016EE20E94EC18B701B4E04A
:101D300076956795BA95E1F76F707070C8014AE0C3
:101D400050E00E94A319C8016EE20E94EC188FE0D7
:101D5000E822FF24C801B7014AE050E00E94A3191D
:101D60001F910F91FF90EF900895EF92FF920F93C4
:101D70001F93CF93DF93EB019C01442737FD4095E0
:101D8000542F60E271EA87E090E00E94AC1C890168
:101D90001216130614F001E010E0BE01882777FD4B
:101DA0008095982F20EA36E841E050E00E94441CDC
:101DB0009801442737FD4095542F0E94AC1C7901AF
:101DC000C0E0D0E009C0419AC8010E94F1174198D3
:101DD000C8010E94F1172196CE15DF05A4F3DF910B
:101DE000CF911F910F91FF90EF9008958EE591E0B4
:101DF00065E070E00E94B50EA89588EE93E00E9421
:101E0000F11708958CE192E065E070E00E94B50E54
:101E1000A89588EE93E00E94F11708951F93182F5C
:101E200068EE73E080E090E00E94981764E670E04E
:101E300080E090E00E949817112319F40E94F60E9A
:101E40006FC0113019F40E94F60E7FC01230D9F421
:101E50000E94F60E64E670E080E090E00E94981721
:101E60000E94F60E64E670E080E090E00E94981711
:101E70000E94020F64E670E080E090E00E949817F4
:101E80000E94F60E7AC0133059F40E94F60E64E6F2
:101E900070E080E090E00E9498170E94F60E33C038
:101EA000143059F40E94F60E64E670E080E090E091
:101EB0000E9498170E94020F3BC0153059F40E94EF
:101EC000F60E64E670E080E090E00E9498170E94B1
:101ED000020F43C0163059F40E94F60E64E670E01B
:101EE00080E090E00E9498170E94020FBBCF17304D
:101EF00099F40E94F60E64E670E080E090E00E94A3
:101F000098170E94020F64E670E080E090E00E9463
:101F100098170E94020F29C0183099F40E94020FEE
:101F200064E670E080E090E00E9498170E94F60E50
:101F300064E670E080E090E00E9498170E94F60E40
:101F400099CF1930D1F40E94020F64E670E080E06E
:101F500090E00E9498170E94F60E64E670E080E020
:101F600090E00E9498170E94F60E64E670E080E010
:101F700090E00E9498170E94020F1F9108950F93FE
:101F80001F93082F10E00CC080E194E062E070E045
:101F90000E94B50EA89584EF91E00E94F1171F5F93
:101FA000101794F31F910F910895CF92DF92EF9243
:101FB000FF920F931F93CF93DF937B018C01EA0174
:101FC000690160ED77E080E090E00E949817C330EF
:101FD000D105A4F0C801B7010E94FA1ADC01CB01B7
:101FE00068EE73E00E94771C64E670E00E94771C44
:101FF000862F0E940E0F81E00E94BF0FC230D105D4
:10200000A4F0C801B7010E94FA1ADC01CB0164E612
:1020100070E00E94771C6AE070E00E94771C862FB7
:102020000E940E0F81E00E94BF0F1C161D067CF45B
:10203000C801B7010E94FA1ADC01CB016AE070E026
:102040000E94771C0E940E0F83E00E94BF0F1C1499
:102050001D040CF0BAC0C801B7010E94FF1A80E04D
:1020600090E00E942B1B9B01AC01C801B7010E94AC
:10207000291A7B018C0120E030E040E251E40E940B
:10208000E11B0E94FF1ADC01CB016AE070E00E94B4
:10209000631C0E940E0F81E0C816D10409F495C09C
:1020A00081E00E94BF0FC801B70120E030E048EC9A
:1020B00052E40E94E11B0E94FF1ADC01CB016AE09E
:1020C00070E00E94631C0E940E0F82E0C816D104CB
:1020D00009F47BC081E00E94BF0FC801B70120E076
:1020E00030E04AE754E40E94E11B0E94FF1ADC0141
:1020F000CB016AE070E00E94631C0E940E0F83E037
:10210000C816D10409F461C081E00E94BF0FC80164
:10211000B70120E030E44CE156E40E94E11B0E944C
:10212000FF1ADC01CB016AE070E00E94631C0E9490
:102130000E0F84E0C816D10409F447C081E00E9464
:10214000BF0FC801B70120E030E543EC57E40E941F
:10215000E11B0E94FF1ADC01CB016AE070E00E94E3
:10216000631C0E940E0F85E0C816D10471F181E056
:102170000E94BF0FC801B70120E034E244E759E4F0
:102180000E94E11B0E94FF1ADC01CB016AE070E0B3
:102190000E94631C0E940E0F86E0C816D104A9F0AD
:1021A00081E00E94BF0FC801B70120E836E948E18D
:1021B0005BE40E94E11B0E94FF1ADC01CB016AE094
:1021C00070E00E94631C0E940E0FDF91CF911F915F
:1021D0000F91FF90EF90DF90CF900895CF92DF9214
:1021E000EF92FF920F931F93CF93DF937B018C01AC
:1021F000EA0169010E94E1070E943309C801B701A1
:1022000020E030E040E050E00E948E1A882324F461
:1022100017FB109517F91095C801B701AE0196018B
:102220000E94D50F0E940408DF91CF911F910F915A
:10223000FF90EF90DF90CF900895EF92FF920F9371
:102240001F93DF93CF9300D000D000D0CDB7DEB77F
:102250000E94A30D0E9464170E942B1B20E030E017
:1022600048EC52E40E94DD1B181614F40E94641717
:102270000E9464170E942B1B7B018C016091230537
:1022800070912405809125059091260520E030E08D
:102290004AE754E40E942A1A9B01AC01C801B70125
:1022A0000E94DD1B18160CF006C10E9464170E94E4
:1022B0002B1B609323057093240580932505909331
:1022C000260581E994E00E94E914E0919104F091DF
:1022D00092040280F381E02D81E994E067EB71E0E4
:1022E00047E150E0099581E994E061E50E94FB1423
:1022F0006091270570912805882777FD8095982F94
:102300000E942D1B45E021E08E010F5F1F4F0E94B0
:10231000E10181E994E069810E94FB1481E994E084
:102320006A810E94FB1481E994E06B810E94FB1496
:1023300081E994E06C810E94FB1481E994E06D8155
:102340000E94FB1481E994E06E810E94FB1480914D
:102350002905882341F01092290585B18B7D85B927
:10236000439A299A08C081E08093290585B1846247
:1023700085B94398299880912A058823E1F185B190
:102380008B7D85B9439A299A81E994E061E40E94A2
:10239000FB1481E994E06FEC71E00E94161A8091C1
:1023A0002B05833009F087C080912C0590912D0575
:1023B000A0912E05B0912F058093F8049093F90415
:1023C000A093FA04B093FB048091300590913105FD
:1023D000A0913205B09133058093F4049093F504F5
:1023E000A093F604B093F704809134058093FC0425
:1023F0001092FD0460C081E994E06EED71E00E94EE
:10240000161A6FE175E885E491E442E050E023E0BC
:1024100030E002E010E00E94EE106091F80470914C
:10242000F9048091FA049091FB0420E030E040E050
:1024300050E00E948E1A8823F1F16091F4047091AB
:10244000F5048091F6049091F70420E030E040E03C
:1024500050E00E948E1A882371F16091FC04709103
:10246000FD04882777FD8095982F0E942D1B42E060
:1024700050E020E030E002E010E00E94EE106091B9
:10248000F8047091F9048091FA049091FB0443E000
:1024900050E025E030E00E94EE106091F40470916D
:1024A000F5048091F6049091F70443E050E025E0B4
:1024B00030E00E94EE1026960FB6F894DEBF0FBEF5
:1024C000CDBFCF91DF911F910F91FF90EF900895B5
:1024D000DF92EF92FF920F931F93CF93DF930E94AF
:1024E00072176115710581059105C9F30E945C039E
:1024F0001092D1041092D2041092D3041092D404FA
:10250000DD24E090D104F090D2040091D304109126
:10251000D404102F0F2DFE2CEE240E9457032FEF12
:1025200030E040E050E00E94AC1CE60EF71E081FB1
:10253000191FE092D104F092D2040093D3041093B7
:10254000D404D39444E0D416E1F6C7EDD4E000E01F
:1025500010E030E1E32E37E2F32E4EC00F5F19F4A6
:102560000E9460054DC00E94570322E330E040E026
:1025700050E00E94AC1C6F5FE7EDF4E090E004C017
:102580008191861759F39F5F9117D0F38091D604FC
:1025900090E08E9D90018F9D300D9E9D300D1124F9
:1025A000862F90E0AC01249FC001259F900D349FA1
:1025B000900D1124AA2797FDA095BA2F2091CD0444
:1025C0003091CE044091CF045091D004820F931FDC
:1025D000A41FB51F2091B0043091B1044091B20402
:1025E0005091B304281739074A075B0708F4B6CFA0
:1025F00069931F5F183121F08881882309F0AECFDD
:10260000DF91CF911F910F91FF90EF90DF90089590
:1026100080E060E00E94DE09882331F081E060E024
:102620000E94DE09882329F580EC91EDA8E9BBE141
:102630008093B0049093B104A093B204B093B30418
:1026400080E090E0A0E0B0E58093B4049093B504FE
:10265000A093B604B093B704E8EBF4E080E0819374
:102660008F5F8031E1F70E9460050E9468120E942E
:10267000B50A089580E067EC74E042E050E00E9403
:1026800036180895EF92FF920F931F93E3E0F0E066
:1026900089E08093570084918670863061F48FB70B
:1026A00091E090933705F894A89598E19093600095
:1026B000109260008FBF0E94CE0881E161E00E940D
:1026C00089168DE061E00E94891689E061E00E9430
:1026D00089168AE061E00E94891687E060E00E9426
:1026E000891688E060E00E94891688E061E00E9417
:1026F000C8160E941C0981E994E040E051EE60E0B8
:1027000070E00E940A140E94C30A0E94081383E02A
:10271000809380008AE9809381008091B40486FDD3
:1027200005C0809181008064809381008FEF9FEFCE
:10273000909389008093880080916F0080628093DD
:102740006F008FEF8093FF040E943A1378940E94E9
:1027500064177B018C018091FF048F3F09F50E9473
:1027600064176E197F09800B910B605D7740804084
:102770009040B0F4F0CF9FB781E080933705F89494
:10278000A89588E1809360008FE080936000A89511
:102790009FBF0E9433091F910F91FF90EF90089502
:1027A00080ED97E00E94E30887E061E00E94C81690
:1027B000439A299A81E994E00E94E91481E994E01E
:1027C00065E672E00E94131A83E793E00E94840E8C
:1027D00081E994E06CE772E00E94131A81E994E0C9
:1027E00063E070E04AE050E00E94F41980E00E944B
:1027F00002078091FE040E942F060E94E107E3E099
:10280000F0E089E08093570084918670863009F06B
:10281000C0CFB1CF0F931F93DC01ED91FC910288E3
:10282000F389E02D20E030E000E010E009951F91F1
:102830000F9108958F92AF92CF92EF92FF920F93E4
:102840001F93DF93CF93CDB7DEB7FC0113821282C3
:1028500088EE93E0A0E0B0E084839583A683B783FD
:102860008BE794E091838083558744873787268759
:10287000118B008BF38AE28AC48AA58A868A70E06B
:10288000CB0123E0880F991F2A95E1F79C012D5475
:10289000364F308F278B8554964F928F818F81E0F2
:1028A00090E002C0880F991F6A95E2F72091C30952
:1028B000282B2093C309CF0140E051EE60E070E087
:1028C0000E940A14CF91DF911F910F91FF90EF901A
:1028D000CF90AF908F900895FC01838D882319F4D9
:1028E0002FEF3FEF0DC00788F08DE02D2081318163
:1028F00082819381281B390B848195812823392378
:10290000C9010895FC01838D882319F42FEF3FEF4F
:1029100011C0018CF28DE02D208131818281938163
:10292000281B390B209530958481958128233923E4
:102930002F5F3F4FC9010895FC01838D882361F00B
:10294000A789B08D2D913C91119712968D919C91F4
:1029500013972817390721F44FEF5FEFCA01089545
:1029600012968D919C9113971696ED91FC91179765
:10297000E80FF91F408112968D919C911397019653
:1029800014962D913C9115978223932313969C9333
:102990008E93129750E0E2CFFC01838D882351F093
:1029A0000788F08DE02D2081318182819381281765
:1029B000390721F42FEF3FEFC901089582819381F8
:1029C0000680F781E02DE80FF91F8081282F30E085
:1029D000F3CFDC015796ED91FC915897828193815A
:1029E000918380835996ED91FC915A9780819181D2
:1029F000938382830895DC015B968C915B97882397
:102A0000A9F15996ED91FC915A97208131812F5F60
:102A10003F4F84819581282339235C968C915C9764
:102A2000882329F08281938128173907F9F0828160
:102A3000938128173907D9F3808191810680F78126
:102A4000E02DE80FF91F60835996ED91FC915A979C
:102A5000318320835296ED91FC9153978081569655
:102A60009C91892B808321E030E002C020E030E09F
:102A7000C9010895CF93DF93EC011B821A828A81EA
:102A80009B81998388831D821C828E819F81009700
:102A900021F00E94AC021F821E82DF91CF91089527
:102AA0000F931F938C01DC015296ED91FC9153978B
:102AB000208156968C91569755969C915597892BC7
:102AC00080958223808357968D919C9158970E9480
:102AD0003A15F801818D928D0E943A15D8015B96C6
:102AE0001C921F910F9108950F931F93CF93DF9323
:102AF0008C01FC01138212828281938191838083F5
:102B000041E0A1E0B0E001C04F5FFD01042E02C032
:102B1000EE0FFF1F0A94E2F79B0182E06130780715
:102B200010F020E032E0E217F30770F3C1E0D0E0EC
:102B300002C0CC0FDD1F4A95E2F72197F8012681EC
:102B400037812115310541F0848195818C179D07CE
:102B500089F0C9010E94AC02F801D583C483CE017B
:102B600001960E9402029C01F8019783868380E00F
:102B7000232B09F081E0DF91CF911F910F910895F0
:102B8000AF92BF92CF92DF92EF92FF920F931F937B
:102B9000CF93DF937C015A016B01E901DC015B9665
:102BA0008C915B978823F1F02115310539F4579604
:102BB000ED91FC915897C481D5812196011511059D
:102BC00049F4D7015996ED91FC915A9704811581EA
:102BD0000F5F1F4FD701ED91FC910088F189E02D27
:102BE000C7010995F7018789908D209711F4C0E8F6
:102BF000D0E0BE010E947415882381F0D701599658
:102C00008D919C915A970115110511F400E110E086
:102C1000B8010E947415882309F04DC0D701ED91C9
:102C2000FC910088F189E02DC701099567C0D701A3
:102C30005096ED91FC915197B0E0AB16B1EEBB060A
:102C4000B0E0CB06B0E0DB0609F454C081E090E0D0
:102C5000D70154960C9002C0880F991F0A94E2F78E
:102C6000808360E079E08DE390E0A60195010E9409
:102C7000AC1C2150304040405040CA01B90122E014
:102C800030E040E050E00E94AC1CD7011C96ED9172
:102C9000FC911D9730831E96ED91FC911F97208328
:102CA000D7015296ED91FC915397808155969C9156
:102CB000892B808323C0D7015996ED91FC915A97B7
:102CC0001382128282819381918380835796ED9142
:102CD000FC91589713821282828193819183808321
:102CE00081E05B968C931A141B041C041D040CF4E5
:102CF0009ECFD6CF108220E130E0C7CFDF91CF91B9
:102D00001F910F91FF90EF90DF90CF90BF90AF9009
:102D10000895CF93DF93482F50E0CA018C569E4F01
:102D2000FC01349140585E4FFA018491882369F187
:102D300090E0880F991FFC01EE59FE4FA591B491C8
:102D4000FC01E459FE4FC591D491662351F42FB78D
:102D5000F8948C91932F909589238C938881892363
:102D60000BC0623061F42FB7F8948C91932F90953B
:102D700089238C938881832B88832FBF06C09FB7BC
:102D8000F8948C91832B8C939FBFDF91CF91089502
:102D9000482F50E0CA0188559E4FFC012491CA017A
:102DA0008C569E4FFC01949140585E4FFA0134912D
:102DB000332309F440C0222351F1233071F0243031
:102DC00028F42130A1F0223011F514C02630B1F0E2
:102DD0002730C1F02430D9F404C0809180008F776F
:102DE00003C0809180008F7D8093800010C084B5E7
:102DF0008F7702C084B58F7D84BD09C08091B000FB
:102E00008F7703C08091B0008F7D8093B000E32F57
:102E1000F0E0EE0FFF1FE459FE4FA591B4912FB7DC
:102E2000F894662321F48C919095892302C08C91AB
:102E3000892B8C932FBF08951F920F920FB60F927C
:102E400011242F933F938F939F93AF93BF938091C0
:102E5000C8099091C909A091CA09B091CB093091D4
:102E6000CC090196A11DB11D232F2D5F2D3720F018
:102E70002D570196A11DB11D2093CC098093C8093F
:102E80009093C909A093CA09B093CB098091C40952
:102E90009091C509A091C609B091C7090196A11DDD
:102EA000B11D8093C4099093C509A093C609B0933E
:102EB000C709BF91AF919F918F913F912F910F9033
:102EC0000FBE0F901F9018958FB7F8942091C809E6
:102ED0003091C9094091CA095091CB098FBFB901FE
:102EE000CA0108959FB7F8942091C4093091C5098B
:102EF0004091C6095091C70986B5A89B06C08F3F6F
:102F000021F02F5F3F4F4F4F5F4F9FBF542F432FF5
:102F1000322F2227280F311D411D511D82E0220F23
:102F2000331F441F551F8A95D1F7B901CA0108956F
:102F30009B01AC017FB7F8948091C4099091C509B9
:102F4000A091C609B091C70966B5A89B05C06F3F9F
:102F500019F00196A11DB11D7FBFBA2FA92F982F7F
:102F60008827860F911DA11DB11D62E0880F991F52
:102F7000AA1FBB1F6A95D1F7BC012DC0FFB7F894FB
:102F80008091C4099091C509A091C609B091C70963
:102F9000E6B5A89B05C0EF3F19F00196A11DB11D34
:102FA000FFBFBA2FA92F982F88278E0F911DA11D23
:102FB000B11DE2E0880F991FAA1FBB1FEA95D1F748
:102FC000861B970B885E9340C8F2215030404040EA
:102FD000504068517C4F211531054105510571F66E
:102FE0000895019739F0880F991F880F991F02974C
:102FF0000197F1F70895789484B5826084BD84B513
:10300000816084BD85B5826085BD85B5816085BDE3
:10301000EEE6F0E0808181608083E1E8F0E01082FC
:10302000808182608083808181608083E0E8F0E03D
:10303000808181608083E1EBF0E080818460808327
:10304000E0EBF0E0808181608083EAE7F0E080815E
:1030500084608083808182608083808181608083BE
:103060008081806880831092C1000895823000F5CD
:10307000E82FF0E0EE0FFF1FE353F64F71836083FC
:10308000882319F08130A1F408C0809169008C7FF9
:10309000842B80936900E89A089580916900440F19
:1030A000551F440F551F837F842B80936900E99A35
:1030B00008951F920F920FB60F9211242F933F93F2
:1030C0004F935F936F937F938F939F93AF93BF9330
:1030D000EF93FF938091CD099091CE09892B29F030
:1030E000E091CD09F091CE090995FF91EF91BF9143
:1030F000AF919F918F917F916F915F914F913F9190
:103100002F910F900FBE0F901F9018951F920F9246
:103110000FB60F9211242F933F934F935F936F93AA
:103120007F938F939F93AF93BF93EF93FF93809180
:10313000CF099091D009892B29F0E091CF09F09126
:10314000D0090995FF91EF91BF91AF919F918F9118
:103150007F916F915F914F913F912F910F900FBE93
:103160000F901F901895CF93DF930E94FB170E943A
:103170004213C0E0D0E00E941D112097E1F30E94AD
:103180000000F9CFCF92DF92EF92FF920F931F933F
:10319000CF93DF937C016B018A01C0E0D0E00FC0C8
:1031A000D6016D916D01D701ED91FC910190F081F7
:1031B000E02DC7010995C80FD91F01501040011516
:1031C000110571F7CE01DF91CF911F910F91FF9003
:1031D000EF90DF90CF900895DC01ED91FC9101908C
:1031E000F081E02D09950895EF92FF920F931F93C0
:1031F0008C01DC01ED91FC910190F081E02D6DE0FE
:1032000009957C01D801ED91FC910190F081E02DB0
:10321000C8016AE009959C012E0D3F1DC9011F914F
:103220000F91FF90EF900895CF93DF93EC0161151C
:10323000710519F420E030E00FC0DB010D90002093
:10324000E9F71197A61BB70BE881F9810280F3819A
:10325000E02DAD0109959C01C901DF91CF91089541
:103260004F925F927F928F929F92AF92BF92CF9236
:10327000DF92EF92FF920F931F93DF93CF93CDB71F
:10328000DEB7A1970FB6F894DEBF0FBECDBF2C01FD
:10329000742ECB01223008F42AE019A231E2C32EA9
:1032A000D12CCC0EDD1E822E9924AA24BB24672D9E
:1032B000752FA50194010E948A1C79018A01C80119
:1032C000B701A50194010E94441C472D461B089498
:1032D000C108D1084A3014F4405D01C0495CF601D0
:1032E0004083E114F1040105110521F07E2C5F2DCE
:1032F000C801DDCFC201B6010E941419A1960FB614
:10330000F894DEBF0FBECDBFCF91DF911F910F911B
:10331000FF90EF90DF90CF90BF90AF909F908F90F5
:103320007F905F904F900895DC012115310541F4A5
:10333000ED91FC910190F081E02D642F09950895A5
:103340000E9430190895EF92FF920F931F939A01F4
:103350007B0100E010E0B801A7010E9494191F91C1
:103360000F91FF90EF900895CF92DF92EF92FF922E
:103370000F931F93CF93DF93EC016A017B0121151B
:10338000310541F4E881F9810190F081E02D642F4D
:1033900009951FC02A303105D1F477FF17C0E881A5
:1033A000F9810190F081E02D6DE209958C014427AF
:1033B0005527BA014C195D096E097F09CE012AE033
:1033C0000E9430199801280F391F04C02AE00E947A
:1033D00030199C01C901DF91CF911F910F91FF908E
:1033E000EF90DF90CF900895CF92DF92EF92FF920F
:1033F0000F931F936C017B019A010027F7FC009546
:10340000102FB801A7010E94B4198C01C6010E94B7
:10341000F418080F191FC8011F910F91FF90EF902A
:10342000DF90CF9008950E9414190895EF92FF92B3
:103430000F931F937C010E9414198C01C7010E94F5
:10344000F418080F191FC8011F910F91FF90EF90FA
:1034500008955058BB27AA270ED075C166D130F009
:103460006BD120F031F49F3F11F41EF45BC10EF4D8
:10347000E095E7FB51C1E92F77D180F3BA176207D6
:1034800073078407950718F071F49EF58FC10EF449
:10349000E0950B2EBA2FA02D0B01B90190010C0164
:1034A000CA01A0011124FF27591B99F0593F50F47C
:1034B000503E68F11A16F040A22F232F342F4427D4
:1034C000585FF3CF469537952795A795F0405395CC
:1034D000C9F77EF41F16BA0B620B730B840BBAF09C
:1034E0009150A1F0FF0FBB1F661F771F881FC2F707
:1034F0000EC0BA0F621F731F841F48F4879577951B
:103500006795B795F7959E3F08F0B3CF9395880FD1
:1035100008F09927EE0F979587950895D9D008F46C
:1035200081E008950CD00FC107D140F0FED030F0FB
:1035300021F45F3F19F0F0C0511139C1F3C014D12B
:1035400098F39923C9F35523B1F3951B550BBB276A
:10355000AA2762177307840738F09F5F5F4F220F17
:10356000331F441FAA1FA9F333D00E2E3AF0E0E810
:1035700030D091505040E695001CCAF729D0FE2F5C
:1035800027D0660F771F881FBB1F261737074807EE
:10359000AB07B0E809F0BB0B802DBF01FF279358A4
:1035A0005F4F2AF09E3F510568F0B6C000C15F3FF3
:1035B000ECF3983EDCF3869577956795B795F7958C
:1035C0009F5FC9F7880F911D9695879597F9089584
:1035D000E1E0660F771F881FBB1F62177307840720
:1035E000BA0720F0621B730B840BBA0BEE1F88F72F
:1035F000E095089504D06894B111D9C00895BCD065
:1036000088F09F5790F0B92F9927B751A0F0D1F0CB
:10361000660F771F881F991F1AF0BA95C9F712C055
:10362000B13081F0C3D0B1E00895C0C0672F782FCA
:103630008827B85F39F0B93FCCF3869577956795C1
:10364000B395D9F73EF490958095709561957F4F2D
:103650008F4F9F4F0895E89409C097FB3EF49095D3
:103660008095709561957F4F8F4F9F4F9923A9F05B
:10367000F92F96E9BB279395F695879577956795EA
:10368000B795F111F8CFFAF4BB0F11F460FF1BC02E
:103690006F5F7F4F8F4F9F4F16C0882311F096E9C1
:1036A00011C0772321F09EE8872F762F05C066236F
:1036B00071F096E8862F70E060E02AF09A95660F28
:1036C000771F881FDAF7880F9695879597F90895E1
:1036D000990F0008550FAA0BE0E8FEEF1616170623
:1036E000E807F907C0F012161306E407F50798F08B
:1036F000621B730B840B950B39F40A2661F0232BA4
:10370000242B252B21F408950A2609F4A140A6951F
:103710008FEF811D811D089597F99F6780E870E004
:1037200060E008959FEF80EC089500240A94161637
:10373000170618060906089500240A94121613069F
:10374000140605060895092E0394000C11F488232D
:1037500052F0BB0F40F4BF2B11F460FF04C06F5F49
:103760007F4F8F4F9F4F089557FD9058440F551F1F
:1037700059F05F3F71F04795880F97FB991F61F0F3
:103780009F3F79F087950895121613061406551F6A
:10379000F2CF4695F1DF08C0161617061806991FD6
:1037A000F1CF86957105610508940895E894BB27CB
:1037B00066277727CB0197F908958ADF08F48FEF02
:1037C00008950BD0C0CFB1DF28F0B6DF18F09523F5
:1037D00009F0A2CFA7CF1124EACFC6DFA0F3959FAF
:1037E000D1F3950F50E0551F629FF001729FBB27E8
:1037F000F00DB11D639FAA27F00DB11DAA1F649F94
:103800006627B00DA11D661F829F2227B00DA11D46
:10381000621F739FB00DA11D621F839FA00D611DCC
:10382000221F749F3327A00D611D231F849F600DED
:10383000211D822F762F6A2F11249F5750408AF026
:10384000E1F088234AF0EE0FFF1FBB1F661F771FB2
:10385000881F91505040A9F79E3F510570F05CCFF2
:10386000A6CF5F3FECF3983EDCF38695779567959E
:10387000B795F795E7959F5FC1F7FE2B880F911DD0
:103880009695879597F90895629FD001739FF001EF
:10389000829FE00DF11D649FE00DF11D929FF00DE0
:1038A000839FF00D749FF00D659FF00D9927729F17
:1038B000B00DE11DF91F639FB00DE11DF91FBD01A2
:1038C000CF0111240895AA1BBB1B51E107C0AA1FF9
:1038D000BB1FA617B70710F0A61BB70B881F991FB1
:1038E0005A95A9F780959095BC01CD01089597FB55
:1038F000092E07260AD077FD04D0E5DF06D0002088
:103900001AF4709561957F4F0895F6F7909581951B
:103910009F4F0895A1E21A2EAA1BBB1BFD010DC0EB
:10392000AA1FBB1FEE1FFF1FA217B307E407F5076F
:1039300020F0A21BB30BE40BF50B661F771F881F4B
:10394000991F1A9469F760957095809590959B01E1
:10395000AC01BD01CF01089597FB092E05260ED0BD
:1039600057FD04D0D7DF0AD0001C38F4509540959D
:10397000309521953F4F4F4F5F4F0895F6F7909543
:103980008095709561957F4F8F4F9F4F0895EE0FF3
:10399000FF1F0590F491E02D09942F923F924F92D2
:1039A0005F926F927F928F929F92AF92BF92CF92CF
:1039B000DF92EF92FF920F931F93CF93DF93CDB7D8
:1039C000DEB7CA1BDB0B0FB6F894DEBF0FBECDBF50
:1039D00009942A88398848885F846E847D848C8421
:1039E0009B84AA84B984C884DF80EE80FD800C812A
:1039F0001B81AA81B981CE0FD11D0FB6F894DEBF0D
:0C3A00000FBECDBFED010895F894FFCF7C
:103A0C004E6F005965730054582074696D656F755D
:103A1C00742100486F70206368616E6E656C2000C5
:103A2C002040200053004E2F4100386368002C00CA
:103A3C002C205B005D20280029004E4F5420454E61
:103A4C0041424C45440053656E64696E6720736552
:103A5C007474696E677320746F2052580A00526533
:103A6C0073657474696E672073657474696E6773BB
:103A7C00206F6E2052580A0041626F727465642088
:103A8C0065646974730A00696E76616C696420738D
:103A9C00656C656374696F6E000D0A496E76616CB6
:103AAC00696420696E707574202D2064697363617C
:103ABC00726465642107006F6B6F6565656565658C
:103ACC006565656565656565656565656565004D17
:103ADC0061766C696E6B20616374697665004E4F1C
:103AEC00204D61766C696E6B007363616E6E6572EE
:103AFC00206D6F64650053657474696E6773207311
:103B0C006176656420746F20454550524F4D0A0014
:103B1C0052657665727465642073657474696E673A
:103B2C00732066726F6D20454550524F4D0A004C04
:103B3C006F6164656420666163746F72792064657B
:103B4C006661756C74730A004B657920616E642034
:103B5C006368616E6E656C732072616E646F6D6903
:103B6C007A65640A004F70656E4C52536E67205430
:103B7C0058207374617274696E672000206F6E2018
:103B8C004857200050504D00525353490053444164
:103B9C000053434C00525844005458440041494E81
:103BAC00004C424545500053504B54524D0053422B
:103BBC0055530053554D44004C4C494E4400003471
:103BCC002B34003800382B340031320031322B3496
:103BDC00003136002000D509000001000000C012A1
:103BEC0000001A400AA1204EA5001B1E27522C23B0
:103BFC00308025000005400AA1204EA50020244E4F
:103C0C00A52C2330004B000006400AD0009D490033
:103C1C007B289D492C233000E1000005400A45011A
:103C2C00D7DC03B81E0EBF00232E48E801008A40E3
:103C3C000A6001555502AD1E20000023C8802500E6
:103C4C000005400AA1204EA50020244EA52C2330AF
:103C5C000002000200020002000200020002000248
:103C6C000002000200020002000200020002000238
:103C7C00FF160A13223129327C8900EDD9687700AE
:103C8C000000590000000000000000D69FDCA818BE
:103C9C0017AA90437327F6B968EDF4DED409FEE653
:103CAC001C1C84DDE80B992927D6DF8D210F0364BA
:103CBC0018EFEE1EF0B7828200941500347C0000E1
:103CCC00001400988F0000000000000000000000AD
:103CDC00E7B73F3600000000000000AF669ED0380A
:103CEC0000000000000000000000000000000000C8
:103CFC0000000000000000000000000000000000B8
:103D0C000000000000000000000000000086DBD076
:103D1C00BC5416131586004E44BD7F6F15159001CB
:103D2C000000000000000000000000000000000087
:103D3C000000000000000000000000000000000077
:103D4C000000000000000000000000000000000067
:103D5C000000000000000000000000000000000057
:103D6C000000000000000000000000000000000047
:103D7C00CC31AA2C532E0000000000FB14C2186C8E
:103D8C00149C14CC14E91482140A145015C0150098
:00000001FF
